{
  "contractName": "OwnedUpgradeabilityProxy",
  "abi": [
    {
      "inputs": [],
      "payable": false,
      "stateMutability": "nonpayable",
      "type": "constructor"
    },
    {
      "anonymous": false,
      "inputs": [
        {
          "indexed": false,
          "internalType": "address",
          "name": "previousOwner",
          "type": "address"
        },
        {
          "indexed": false,
          "internalType": "address",
          "name": "newOwner",
          "type": "address"
        }
      ],
      "name": "ProxyOwnershipTransferred",
      "type": "event"
    },
    {
      "anonymous": false,
      "inputs": [
        {
          "indexed": true,
          "internalType": "address",
          "name": "implementation",
          "type": "address"
        }
      ],
      "name": "Upgraded",
      "type": "event"
    },
    {
      "payable": true,
      "stateMutability": "payable",
      "type": "fallback"
    },
    {
      "constant": true,
      "inputs": [],
      "name": "implementation",
      "outputs": [
        {
          "internalType": "address",
          "name": "impl",
          "type": "address"
        }
      ],
      "payable": false,
      "stateMutability": "view",
      "type": "function"
    },
    {
      "constant": true,
      "inputs": [],
      "name": "proxyOwner",
      "outputs": [
        {
          "internalType": "address",
          "name": "owner",
          "type": "address"
        }
      ],
      "payable": false,
      "stateMutability": "view",
      "type": "function"
    },
    {
      "constant": false,
      "inputs": [
        {
          "internalType": "address",
          "name": "newOwner",
          "type": "address"
        }
      ],
      "name": "transferProxyOwnership",
      "outputs": [],
      "payable": false,
      "stateMutability": "nonpayable",
      "type": "function"
    },
    {
      "constant": false,
      "inputs": [
        {
          "internalType": "address",
          "name": "implementation",
          "type": "address"
        }
      ],
      "name": "upgradeTo",
      "outputs": [],
      "payable": false,
      "stateMutability": "nonpayable",
      "type": "function"
    },
    {
      "constant": false,
      "inputs": [
        {
          "internalType": "address",
          "name": "implementation",
          "type": "address"
        },
        {
          "internalType": "bytes",
          "name": "data",
          "type": "bytes"
        }
      ],
      "name": "upgradeToAndCall",
      "outputs": [],
      "payable": true,
      "stateMutability": "payable",
      "type": "function"
    }
  ],
  "bytecode": "0x608060405234801561001057600080fd5b5061002333640100000000610028810204565b61005d565b604080517f6478632e70726f78792e6f776e657200000000000000000000000000000000008152905190819003600f01902055565b6105248061006c6000396000f3fe608060405260043610610066577c01000000000000000000000000000000000000000000000000000000006000350463025313a281146100aa5780633659cfe6146100db5780634f1ef286146101105780635c60da1b146101c6578063f1739cae146101db575b600061007061020e565b9050600160a060020a03811661008557600080fd5b60405136600082376000803683855af43d806000843e8180156100a6578184f35b8184fd5b3480156100b657600080fd5b506100bf610244565b60408051600160a060020a039092168252519081900360200190f35b3480156100e757600080fd5b5061010e600480360360208110156100fe57600080fd5b5035600160a060020a031661027a565b005b61010e6004803603604081101561012657600080fd5b600160a060020a03823516919081019060408101602082013564010000000081111561015157600080fd5b82018360208201111561016357600080fd5b8035906020019184600183028401116401000000008311171561018557600080fd5b91908080601f0160208091040260200160405190810160405280939291908181526020018383808284376000920191909152509295506102ab945050505050565b3480156101d257600080fd5b506100bf61020e565b3480156101e757600080fd5b5061010e600480360360208110156101fe57600080fd5b5035600160a060020a031661038d565b604080517f6478632e70726f78792e696d706c656d656e746174696f6e0000000000000000815290519081900360180190205490565b604080517f6478632e70726f78792e6f776e657200000000000000000000000000000000008152905190819003600f0190205490565b610282610244565b600160a060020a031633600160a060020a03161461029f57600080fd5b6102a881610419565b50565b6102b3610244565b600160a060020a031633600160a060020a0316146102d057600080fd5b6102d98261027a565b600082600160a060020a0316826040518082805190602001908083835b602083106103155780518252601f1990920191602091820191016102f6565b6001836020036101000a038019825116818451168082178552505050505050905001915050600060405180830381855af49150503d8060008114610375576040519150601f19603f3d011682016040523d82523d6000602084013e61037a565b606091505b505090508061038857600080fd5b505050565b610395610244565b600160a060020a031633600160a060020a0316146103b257600080fd5b600160a060020a0381166103c557600080fd5b7f5a3e66efaa1e445ebd894728a69d6959842ea1e97bd79b892797106e270efcd96103ee610244565b60408051600160a060020a03928316815291841660208301528051918290030190a16102a881610485565b600061042361020e565b905081600160a060020a031681600160a060020a0316141561044457600080fd5b61044d826104ba565b604051600160a060020a038316907fbc7cd75a20ee27fd9adebab32041f755214dbc6bffa90cc0225b39da2e5c2d3b90600090a25050565b604080517f6478632e70726f78792e6f776e657200000000000000000000000000000000008152905190819003600f01902055565b604080517f6478632e70726f78792e696d706c656d656e746174696f6e0000000000000000815290519081900360180190205556fea265627a7a72315820dadb9be14eb1a91e9a1cfc59bcff1e076391281d31e695cd692d247d5d82601364736f6c634300050d0032",
  "source": "pragma solidity ^0.5.11;\n\nimport \"./UpgradeabilityProxy.sol\";\n\n/**\n * @title OwnedUpgradeabilityProxy\n * @dev This contract combines an upgradeability proxy with basic authorization control functionalities\n */\ncontract OwnedUpgradeabilityProxy is UpgradeabilityProxy {\n  /**\n  * @dev Event to show ownership has been transferred\n  * @param previousOwner representing the address of the previous owner\n  * @param newOwner representing the address of the new owner\n  */\n  event ProxyOwnershipTransferred(address previousOwner, address newOwner);\n\n  // Storage position of the owner of the contract\n  bytes32 private constant PROXY_OWNER_POSITION = keccak256(\"dxc.proxy.owner\");\n\n  /**\n  * @dev the constructor sets the original owner of the contract to the sender account.\n  */\n  constructor() public {\n    setUpgradeabilityOwner(msg.sender);\n  }\n\n  /**\n  * @dev Throws if called by any account other than the owner.\n  */\n  modifier onlyProxyOwner() {\n    require(msg.sender == proxyOwner());\n    _;\n  }\n\n  /**\n   * @dev Tells the address of the owner\n   * @return the address of the owner\n   */\n  function proxyOwner() public view returns (address owner) {\n    bytes32 position = PROXY_OWNER_POSITION;\n    assembly {\n      owner := sload(position)\n    }\n  }\n\n  /**\n   * @dev Sets the address of the owner\n   */\n  function setUpgradeabilityOwner(address newProxyOwner) internal {\n    bytes32 position = PROXY_OWNER_POSITION;\n    assembly {\n      sstore(position, newProxyOwner)\n    }\n  }\n\n  /**\n   * @dev Allows the current owner to transfer control of the contract to a newOwner.\n   * @param newOwner The address to transfer ownership to.\n   */\n  function transferProxyOwnership(address newOwner) public onlyProxyOwner {\n    require(newOwner != address(0));\n    emit ProxyOwnershipTransferred(proxyOwner(), newOwner);\n    setUpgradeabilityOwner(newOwner);\n  }\n\n  /**\n   * @dev Allows the proxy owner to upgrade the current version of the proxy.\n   * @param implementation representing the address of the new implementation to be set.\n   */\n  function upgradeTo(address implementation) public onlyProxyOwner {\n    _upgradeTo(implementation);\n  }\n\n  /**\n   * @dev Allows the proxy owner to upgrade the current version of the proxy and call the new implementation\n   * to initialize whatever is needed through a low level call.\n   * @param implementation representing the address of the new implementation to be set.\n   * @param data represents the msg.data to bet sent in the low level call. This parameter may include the function\n   * signature of the implementation to be called with the needed payload\n   */\n  function upgradeToAndCall(address implementation, bytes memory data) public payable onlyProxyOwner {\n    upgradeTo(implementation);\n    (bool success,) = implementation.delegatecall(data);\n    require(success);\n  }\n}",
  "sourcePath": "/Users/adrienblavier/Documents/settlemint/dxc/ethereum/contracts/upgradeability/OwnedUpgradeabilityProxy.sol",
  "compiler": {
    "name": "solc",
    "version": "0.5.13+commit.5b0b510c.Emscripten.clang"
  },
  "schemaVersion": "3.0.19",
  "updatedAt": "2020-01-15T09:15:10.144Z",
  "devdoc": {
    "details": "This contract combines an upgradeability proxy with basic authorization control functionalities",
    "methods": {
      "constructor": {
        "details": "the constructor sets the original owner of the contract to the sender account."
      },
      "implementation()": {
        "details": "Tells the address of the current implementation",
        "return": "address of the current implementation"
      },
      "proxyOwner()": {
        "details": "Tells the address of the owner",
        "return": "the address of the owner"
      },
      "transferProxyOwnership(address)": {
        "details": "Allows the current owner to transfer control of the contract to a newOwner.",
        "params": {
          "newOwner": "The address to transfer ownership to."
        }
      },
      "upgradeTo(address)": {
        "details": "Allows the proxy owner to upgrade the current version of the proxy.",
        "params": {
          "implementation": "representing the address of the new implementation to be set."
        }
      },
      "upgradeToAndCall(address,bytes)": {
        "details": "Allows the proxy owner to upgrade the current version of the proxy and call the new implementation to initialize whatever is needed through a low level call.",
        "params": {
          "data": "represents the msg.data to bet sent in the low level call. This parameter may include the function signature of the implementation to be called with the needed payload",
          "implementation": "representing the address of the new implementation to be set."
        }
      }
    },
    "title": "OwnedUpgradeabilityProxy"
  },
  "userdoc": {
    "methods": {}
  }
}