{
  "contractName": "OwnedUpgradeabilityProxy",
  "abi": [
    {
      "constant": true,
      "inputs": [],
      "name": "implementation",
      "outputs": [
        {
          "name": "impl",
          "type": "address"
        }
      ],
      "payable": false,
      "stateMutability": "view",
      "type": "function",
      "signature": "0x5c60da1b"
    },
    {
      "inputs": [],
      "payable": false,
      "stateMutability": "nonpayable",
      "type": "constructor",
      "signature": "constructor"
    },
    {
      "payable": true,
      "stateMutability": "payable",
      "type": "fallback"
    },
    {
      "anonymous": false,
      "inputs": [
        {
          "indexed": false,
          "name": "previousOwner",
          "type": "address"
        },
        {
          "indexed": false,
          "name": "newOwner",
          "type": "address"
        }
      ],
      "name": "ProxyOwnershipTransferred",
      "type": "event",
      "signature": "0x5a3e66efaa1e445ebd894728a69d6959842ea1e97bd79b892797106e270efcd9"
    },
    {
      "anonymous": false,
      "inputs": [
        {
          "indexed": true,
          "name": "implementation",
          "type": "address"
        }
      ],
      "name": "Upgraded",
      "type": "event",
      "signature": "0xbc7cd75a20ee27fd9adebab32041f755214dbc6bffa90cc0225b39da2e5c2d3b"
    },
    {
      "constant": true,
      "inputs": [],
      "name": "proxyOwner",
      "outputs": [
        {
          "name": "owner",
          "type": "address"
        }
      ],
      "payable": false,
      "stateMutability": "view",
      "type": "function",
      "signature": "0x025313a2"
    },
    {
      "constant": false,
      "inputs": [
        {
          "name": "newOwner",
          "type": "address"
        }
      ],
      "name": "transferProxyOwnership",
      "outputs": [],
      "payable": false,
      "stateMutability": "nonpayable",
      "type": "function",
      "signature": "0xf1739cae"
    },
    {
      "constant": false,
      "inputs": [
        {
          "name": "implementation",
          "type": "address"
        }
      ],
      "name": "upgradeTo",
      "outputs": [],
      "payable": false,
      "stateMutability": "nonpayable",
      "type": "function",
      "signature": "0x3659cfe6"
    },
    {
      "constant": false,
      "inputs": [
        {
          "name": "implementation",
          "type": "address"
        },
        {
          "name": "data",
          "type": "bytes"
        }
      ],
      "name": "upgradeToAndCall",
      "outputs": [],
      "payable": true,
      "stateMutability": "payable",
      "type": "function",
      "signature": "0x4f1ef286"
    }
  ],
  "bytecode": "0x608060405234801561001057600080fd5b506100203361002560201b60201c565b61005a565b604080517f6478632e70726f78792e6f776e657200000000000000000000000000000000008152905190819003600f01902055565b6104e9806100696000396000f3fe60806040526004361061004a5760003560e01c8063025313a21461008e5780633659cfe6146100bf5780634f1ef286146100f45780635c60da1b146101aa578063f1739cae146101bf575b60006100546101f2565b90506001600160a01b03811661006957600080fd5b60405136600082376000803683855af43d806000843e81801561008a578184f35b8184fd5b34801561009a57600080fd5b506100a3610228565b604080516001600160a01b039092168252519081900360200190f35b3480156100cb57600080fd5b506100f2600480360360208110156100e257600080fd5b50356001600160a01b0316610253565b005b6100f26004803603604081101561010a57600080fd5b6001600160a01b03823516919081019060408101602082013564010000000081111561013557600080fd5b82018360208201111561014757600080fd5b8035906020019184600183028401116401000000008311171561016957600080fd5b91908080601f016020809104026020016040519081016040528093929190818152602001838380828437600092019190915250929550610284945050505050565b3480156101b657600080fd5b506100a36101f2565b3480156101cb57600080fd5b506100f2600480360360208110156101e257600080fd5b50356001600160a01b0316610366565b604080517f6478632e70726f78792e696d706c656d656e746174696f6e0000000000000000815290519081900360180190205490565b60408051600160891b6e323c3197383937bc3c9737bbb732b9028152905190819003600f0190205490565b61025b610228565b6001600160a01b0316336001600160a01b03161461027857600080fd5b610281816103f2565b50565b61028c610228565b6001600160a01b0316336001600160a01b0316146102a957600080fd5b6102b282610253565b6000826001600160a01b0316826040518082805190602001908083835b602083106102ee5780518252601f1990920191602091820191016102cf565b6001836020036101000a038019825116818451168082178552505050505050905001915050600060405180830381855af49150503d806000811461034e576040519150601f19603f3d011682016040523d82523d6000602084013e610353565b606091505b505090508061036157600080fd5b505050565b61036e610228565b6001600160a01b0316336001600160a01b03161461038b57600080fd5b6001600160a01b03811661039e57600080fd5b7f5a3e66efaa1e445ebd894728a69d6959842ea1e97bd79b892797106e270efcd96103c7610228565b604080516001600160a01b03928316815291841660208301528051918290030190a16102818161045e565b60006103fc6101f2565b9050816001600160a01b0316816001600160a01b0316141561041d57600080fd5b61042682610488565b6040516001600160a01b038316907fbc7cd75a20ee27fd9adebab32041f755214dbc6bffa90cc0225b39da2e5c2d3b90600090a25050565b60408051600160891b6e323c3197383937bc3c9737bbb732b9028152905190819003600f01902055565b604080517f6478632e70726f78792e696d706c656d656e746174696f6e0000000000000000815290519081900360180190205556fea165627a7a72305820e5d9b8cd81735ea0d63db69cc34507a29f8b35a23be9e994723dfef4be49b9970029",
  "source": "pragma solidity ^0.5.7;\n\nimport \"./UpgradeabilityProxy.sol\";\n\n\n/**\n * @title OwnedUpgradeabilityProxy\n * @dev This contract combines an upgradeability proxy with basic authorization control functionalities\n */\ncontract OwnedUpgradeabilityProxy is UpgradeabilityProxy {\n  /**\n   * @dev Event to show ownership has been transferred\n   * @param previousOwner representing the address of the previous owner\n   * @param newOwner representing the address of the new owner\n   */\n  event ProxyOwnershipTransferred(address previousOwner, address newOwner);\n\n  // Storage position of the owner of the contract\n  bytes32 private constant PROXY_OWNER_POSITION = keccak256(\"dxc.proxy.owner\");\n\n  /**\n   * @dev the constructor sets the original owner of the contract to the sender account.\n   */\n  constructor() public {\n    setUpgradeabilityOwner(msg.sender);\n  }\n\n  /**\n   * @dev Throws if called by any account other than the owner.\n   */\n  modifier onlyProxyOwner() {\n    require(msg.sender == proxyOwner());\n    _;\n  }\n\n  /**\n   * @dev Tells the address of the owner\n   * @return owner the address of the owner\n   */\n  function proxyOwner() public view returns (address owner) {\n    bytes32 position = PROXY_OWNER_POSITION;\n    assembly {\n      owner := sload(position)\n    }\n  }\n\n  /**\n   * @dev Sets the address of the owner\n   */\n  function setUpgradeabilityOwner(address newProxyOwner) internal {\n    bytes32 position = PROXY_OWNER_POSITION;\n    assembly {\n      sstore(position, newProxyOwner)\n    }\n  }\n\n  /**\n   * @dev Allows the current owner to transfer control of the contract to a newOwner.\n   * @param newOwner The address to transfer ownership to.\n   */\n  function transferProxyOwnership(address newOwner) public onlyProxyOwner {\n    require(newOwner != address(0));\n    emit ProxyOwnershipTransferred(proxyOwner(), newOwner);\n    setUpgradeabilityOwner(newOwner);\n  }\n\n  /**\n   * @dev Allows the proxy owner to upgrade the current version of the proxy.\n   * @param implementation representing the address of the new implementation to be set.\n   */\n  function upgradeTo(address implementation) public onlyProxyOwner {\n    _upgradeTo(implementation);\n  }\n\n  /**\n   * @dev Allows the proxy owner to upgrade the current version of the proxy and call the new implementation\n   * to initialize whatever is needed through a low level call.\n   * @param implementation representing the address of the new implementation to be set.\n   * @param data represents the msg.data to bet sent in the low level call. This parameter may include the function\n   * signature of the implementation to be called with the needed payload\n   */\n  function upgradeToAndCall(address implementation, bytes memory data)\n    public\n    payable\n    onlyProxyOwner\n  {\n    upgradeTo(implementation);\n    (bool success, ) = implementation.delegatecall(data);\n    require(success);\n  }\n}\n",
  "sourcePath": "/Users/adrienblavier/Documents/settlemint/dxc/ethereum/contracts/upgradeability/OwnedUpgradeabilityProxy.sol",
  "compiler": {
    "name": "solc",
    "version": "0.5.7+commit.6da8b019.Emscripten.clang"
  },
  "schemaVersion": "3.0.5",
  "updatedAt": "2020-03-25T12:48:09.102Z",
  "devdoc": {
    "details": "This contract combines an upgradeability proxy with basic authorization control functionalities",
    "methods": {
      "constructor": {
        "details": "the constructor sets the original owner of the contract to the sender account."
      },
      "implementation()": {
        "details": "Tells the address of the current implementation",
        "return": "impl address of the current implementation"
      },
      "proxyOwner()": {
        "details": "Tells the address of the owner",
        "return": "owner the address of the owner"
      },
      "transferProxyOwnership(address)": {
        "details": "Allows the current owner to transfer control of the contract to a newOwner.",
        "params": {
          "newOwner": "The address to transfer ownership to."
        }
      },
      "upgradeTo(address)": {
        "details": "Allows the proxy owner to upgrade the current version of the proxy.",
        "params": {
          "implementation": "representing the address of the new implementation to be set."
        }
      },
      "upgradeToAndCall(address,bytes)": {
        "details": "Allows the proxy owner to upgrade the current version of the proxy and call the new implementation to initialize whatever is needed through a low level call.",
        "params": {
          "data": "represents the msg.data to bet sent in the low level call. This parameter may include the function signature of the implementation to be called with the needed payload",
          "implementation": "representing the address of the new implementation to be set."
        }
      }
    },
    "title": "OwnedUpgradeabilityProxy"
  },
  "userdoc": {
    "methods": {}
  }
}