{
  "contractName": "TokenUpgrade",
  "abi": [
    {
      "anonymous": false,
      "inputs": [
        {
          "indexed": true,
          "internalType": "address",
          "name": "owner",
          "type": "address"
        },
        {
          "indexed": true,
          "internalType": "address",
          "name": "spender",
          "type": "address"
        },
        {
          "indexed": false,
          "internalType": "uint256",
          "name": "value",
          "type": "uint256"
        }
      ],
      "name": "Approval",
      "type": "event"
    },
    {
      "anonymous": false,
      "inputs": [
        {
          "indexed": true,
          "internalType": "address",
          "name": "burner",
          "type": "address"
        },
        {
          "indexed": false,
          "internalType": "uint256",
          "name": "value",
          "type": "uint256"
        }
      ],
      "name": "Burn",
      "type": "event"
    },
    {
      "anonymous": false,
      "inputs": [
        {
          "indexed": false,
          "internalType": "address",
          "name": "previousOwner",
          "type": "address"
        },
        {
          "indexed": false,
          "internalType": "address",
          "name": "newOwner",
          "type": "address"
        }
      ],
      "name": "OwnershipTransferred",
      "type": "event"
    },
    {
      "anonymous": false,
      "inputs": [
        {
          "indexed": true,
          "internalType": "address",
          "name": "from",
          "type": "address"
        },
        {
          "indexed": true,
          "internalType": "address",
          "name": "to",
          "type": "address"
        },
        {
          "indexed": false,
          "internalType": "uint256",
          "name": "value",
          "type": "uint256"
        }
      ],
      "name": "Transfer",
      "type": "event"
    },
    {
      "constant": true,
      "inputs": [
        {
          "internalType": "address",
          "name": "owner",
          "type": "address"
        },
        {
          "internalType": "address",
          "name": "spender",
          "type": "address"
        }
      ],
      "name": "allowance",
      "outputs": [
        {
          "internalType": "uint256",
          "name": "",
          "type": "uint256"
        }
      ],
      "payable": false,
      "stateMutability": "view",
      "type": "function"
    },
    {
      "constant": false,
      "inputs": [
        {
          "internalType": "address",
          "name": "spender",
          "type": "address"
        },
        {
          "internalType": "uint256",
          "name": "value",
          "type": "uint256"
        }
      ],
      "name": "approve",
      "outputs": [],
      "payable": false,
      "stateMutability": "nonpayable",
      "type": "function"
    },
    {
      "constant": true,
      "inputs": [
        {
          "internalType": "address",
          "name": "owner",
          "type": "address"
        }
      ],
      "name": "balanceOf",
      "outputs": [
        {
          "internalType": "uint256",
          "name": "",
          "type": "uint256"
        }
      ],
      "payable": false,
      "stateMutability": "view",
      "type": "function"
    },
    {
      "constant": false,
      "inputs": [
        {
          "internalType": "address",
          "name": "spender",
          "type": "address"
        },
        {
          "internalType": "uint256",
          "name": "subtractedValue",
          "type": "uint256"
        }
      ],
      "name": "decreaseApproval",
      "outputs": [],
      "payable": false,
      "stateMutability": "nonpayable",
      "type": "function"
    },
    {
      "constant": false,
      "inputs": [
        {
          "internalType": "address",
          "name": "spender",
          "type": "address"
        },
        {
          "internalType": "uint256",
          "name": "addedValue",
          "type": "uint256"
        }
      ],
      "name": "increaseApproval",
      "outputs": [],
      "payable": false,
      "stateMutability": "nonpayable",
      "type": "function"
    },
    {
      "constant": false,
      "inputs": [
        {
          "internalType": "address",
          "name": "owner",
          "type": "address"
        }
      ],
      "name": "initialize",
      "outputs": [],
      "payable": false,
      "stateMutability": "nonpayable",
      "type": "function"
    },
    {
      "constant": false,
      "inputs": [
        {
          "internalType": "address",
          "name": "to",
          "type": "address"
        },
        {
          "internalType": "uint256",
          "name": "value",
          "type": "uint256"
        }
      ],
      "name": "mint",
      "outputs": [],
      "payable": false,
      "stateMutability": "nonpayable",
      "type": "function"
    },
    {
      "constant": true,
      "inputs": [],
      "name": "owner",
      "outputs": [
        {
          "internalType": "address",
          "name": "",
          "type": "address"
        }
      ],
      "payable": false,
      "stateMutability": "view",
      "type": "function"
    },
    {
      "constant": true,
      "inputs": [],
      "name": "totalSupply",
      "outputs": [
        {
          "internalType": "uint256",
          "name": "",
          "type": "uint256"
        }
      ],
      "payable": false,
      "stateMutability": "view",
      "type": "function"
    },
    {
      "constant": false,
      "inputs": [
        {
          "internalType": "address",
          "name": "to",
          "type": "address"
        },
        {
          "internalType": "uint256",
          "name": "value",
          "type": "uint256"
        }
      ],
      "name": "transfer",
      "outputs": [
        {
          "internalType": "bool",
          "name": "",
          "type": "bool"
        }
      ],
      "payable": false,
      "stateMutability": "nonpayable",
      "type": "function"
    },
    {
      "constant": false,
      "inputs": [
        {
          "internalType": "address",
          "name": "from",
          "type": "address"
        },
        {
          "internalType": "address",
          "name": "to",
          "type": "address"
        },
        {
          "internalType": "uint256",
          "name": "value",
          "type": "uint256"
        }
      ],
      "name": "transferFrom",
      "outputs": [
        {
          "internalType": "bool",
          "name": "",
          "type": "bool"
        }
      ],
      "payable": false,
      "stateMutability": "nonpayable",
      "type": "function"
    },
    {
      "constant": false,
      "inputs": [
        {
          "internalType": "address",
          "name": "newOwner",
          "type": "address"
        }
      ],
      "name": "transferOwnership",
      "outputs": [],
      "payable": false,
      "stateMutability": "nonpayable",
      "type": "function"
    },
    {
      "constant": false,
      "inputs": [
        {
          "internalType": "uint256",
          "name": "value",
          "type": "uint256"
        }
      ],
      "name": "burn",
      "outputs": [],
      "payable": false,
      "stateMutability": "nonpayable",
      "type": "function"
    }
  ],
  "bytecode": "0x60806040526100163364010000000061001b810204565b61003d565b60008054600160a060020a031916600160a060020a0392909216919091179055565b610bc88061004c6000396000f3fe608060405234801561001057600080fd5b50600436106100ec576000357c01000000000000000000000000000000000000000000000000000000009004806370a08231116100a9578063c4d66de811610083578063c4d66de81461026e578063d73dd62314610294578063dd62ed3e146102c0578063f2fde38b146102ee576100ec565b806370a08231146101f85780638da5cb5b1461021e578063a9059cbb14610242576100ec565b8063095ea7b3146100f157806318160ddd1461011f57806323b872dd1461013957806340c10f191461018357806342966c68146101af57806366188463146101cc575b600080fd5b61011d6004803603604081101561010757600080fd5b50600160a060020a038135169060200135610314565b005b610127610376565b60408051918252519081900360200190f35b61016f6004803603606081101561014f57600080fd5b50600160a060020a0381358116916020810135909116906040013561037c565b604080519115158252519081900360200190f35b61011d6004803603604081101561019957600080fd5b50600160a060020a0381351690602001356104f3565b61011d600480360360208110156101c557600080fd5b50356105b5565b61011d600480360360408110156101e257600080fd5b50600160a060020a038135169060200135610649565b6101276004803603602081101561020e57600080fd5b5035600160a060020a0316610734565b61022661074f565b60408051600160a060020a039092168252519081900360200190f35b61016f6004803603604081101561025857600080fd5b50600160a060020a03813516906020013561075e565b61011d6004803603602081101561028457600080fd5b5035600160a060020a031661083f565b61011d600480360360408110156102aa57600080fd5b50600160a060020a0381351690602001356108a8565b610127600480360360408110156102d657600080fd5b50600160a060020a038135811691602001351661093c565b61011d6004803603602081101561030457600080fd5b5035600160a060020a0316610967565b336000818152600360209081526040808320600160a060020a03871680855290835292819020859055805185815290519293927f8c5be1e5ebec7d5bd14f71427d1e84f3dd0314c0f7b2291e5b200ac8c7c3b925929181900390910190a35050565b60015490565b6000600160a060020a03831661039157600080fd5b600160a060020a0384166000908152600260205260409020548211156103b657600080fd5b600160a060020a03841660009081526003602090815260408083203384529091529020548211156103e657600080fd5b600160a060020a03841660009081526002602052604090205461040f908363ffffffff6109f616565b600160a060020a038086166000908152600260205260408082209390935590851681522054610444908363ffffffff610a3f16565b600160a060020a038085166000908152600260209081526040808320949094559187168152600382528281203382529091522054610488908363ffffffff6109f616565b600160a060020a03808616600081815260036020908152604080832033845282529182902094909455805186815290519287169391927fddf252ad1be2c89b69c2b068fc378daa952ba7f163c4a11628f55a4df523b3ef929181900390910190a35060019392505050565b6104fb61074f565b600160a060020a031633600160a060020a03161461051857600080fd5b600160a060020a038216600090815260026020526040902054610541908263ffffffff610a3f16565b600160a060020a03831660009081526002602052604090205560015461056d908263ffffffff610a3f16565b600155604080518281529051600160a060020a038416916000917fddf252ad1be2c89b69c2b068fc378daa952ba7f163c4a11628f55a4df523b3ef9181900360200190a35050565b806105bf33610734565b10156105ca57600080fd5b336000908152600260205260409020546105ea908263ffffffff6109f616565b3360009081526002602052604090205560015461060d908263ffffffff6109f616565b60015560408051828152905133917fcc16f5dbb4873280815c1ee09dbd06736cffcc184412cf7a71a0fdb75d397ca5919081900360200190a250565b336000908152600360209081526040808320600160a060020a03861684529091529020548082111561069e57336000908152600360209081526040808320600160a060020a03871684529091528120556106d3565b6106ae818363ffffffff6109f616565b336000908152600360209081526040808320600160a060020a03881684529091529020555b336000818152600360209081526040808320600160a060020a0388168085529083529281902054815190815290519293927f8c5be1e5ebec7d5bd14f71427d1e84f3dd0314c0f7b2291e5b200ac8c7c3b925929181900390910190a3505050565b600160a060020a031660009081526002602052604090205490565b600054600160a060020a031690565b6000600160a060020a03831661077357600080fd5b3360009081526002602052604090205482111561078f57600080fd5b336000908152600260205260409020546107af908363ffffffff6109f616565b3360009081526002602052604080822092909255600160a060020a038516815220546107e1908363ffffffff610a3f16565b600160a060020a0384166000818152600260209081526040918290209390935580518581529051919233927fddf252ad1be2c89b69c2b068fc378daa952ba7f163c4a11628f55a4df523b3ef9281900390910190a350600192915050565b60005474010000000000000000000000000000000000000000900460ff161561086757600080fd5b61087081610ab3565b506000805474ff0000000000000000000000000000000000000000191674010000000000000000000000000000000000000000179055565b336000908152600360209081526040808320600160a060020a03861684529091529020546108dc908263ffffffff610a3f16565b336000818152600360209081526040808320600160a060020a0388168085529083529281902085905580519485525191937f8c5be1e5ebec7d5bd14f71427d1e84f3dd0314c0f7b2291e5b200ac8c7c3b925929081900390910190a35050565b600160a060020a03918216600090815260036020908152604080832093909416825291909152205490565b61096f61074f565b600160a060020a031633600160a060020a03161461098c57600080fd5b600160a060020a03811661099f57600080fd5b7f8be0079c531659141344cd1fd0a4f28419497f9722a3daafe3b4186f6b6457e06109c861074f565b60408051600160a060020a03928316815291841660208301528051918290030190a16109f381610ab3565b50565b6000610a3883836040518060400160405280601e81526020017f536166654d6174683a207375627472616374696f6e206f766572666c6f770000815250610ae2565b9392505050565b600082820183811015610a3857604080517f08c379a000000000000000000000000000000000000000000000000000000000815260206004820152601b60248201527f536166654d6174683a206164646974696f6e206f766572666c6f770000000000604482015290519081900360640190fd5b6000805473ffffffffffffffffffffffffffffffffffffffff1916600160a060020a0392909216919091179055565b60008184841115610b8b576040517f08c379a00000000000000000000000000000000000000000000000000000000081526004018080602001828103825283818151815260200191508051906020019080838360005b83811015610b50578181015183820152602001610b38565b50505050905090810190601f168015610b7d5780820380516001836020036101000a031916815260200191505b509250505060405180910390fd5b50505090039056fea265627a7a723158208fec4fd78fef4d4406ef127e3eb1e5e89063438030589234e0361bbcb1aba28464736f6c634300050d0032",
  "source": "pragma solidity ^0.5.11;\n\nimport \"./Token.sol\";\n\n/**\n * @title Token_V1\n * @dev Version 1 of a token to show upgradeability.\n * The idea here is to extend a token behaviour providing burnable functionalities\n * in addition to what's provided in version 0\n */\ncontract TokenUpgrade is Token {\n  event Burn(address indexed burner, uint256 value);\n\n  function burn(uint256 value) public {\n    require(balanceOf(msg.sender) >= value);\n    _balances[msg.sender] = _balances[msg.sender].sub(value);\n    _totalSupply = _totalSupply.sub(value);\n    emit Burn(msg.sender, value);\n  }\n}",
  "sourcePath": "/Users/adrienblavier/Documents/settlemint/dxc/ethereum/contracts/testcontracts/TokenUpgrade.sol",
  "compiler": {
    "name": "solc",
    "version": "0.5.13+commit.5b0b510c.Emscripten.clang"
  },
  "schemaVersion": "3.0.19",
  "updatedAt": "2020-01-15T09:16:42.927Z",
  "devdoc": {
    "details": "Version 1 of a token to show upgradeability. The idea here is to extend a token behaviour providing burnable functionalities in addition to what's provided in version 0",
    "methods": {
      "owner()": {
        "details": "Tells the address of the owner",
        "return": "the address of the owner"
      },
      "transferOwnership(address)": {
        "details": "Allows the current owner to transfer control of the contract to a newOwner.",
        "params": {
          "newOwner": "The address to transfer ownership to."
        }
      }
    },
    "title": "Token_V1"
  },
  "userdoc": {
    "methods": {}
  }
}