{
  "contractName": "Controlled",
  "abi": [
    {
      "constant": true,
      "inputs": [],
      "name": "controller",
      "outputs": [
        {
          "name": "",
          "type": "address"
        }
      ],
      "payable": false,
      "stateMutability": "view",
      "type": "function"
    },
    {
      "inputs": [],
      "payable": false,
      "stateMutability": "nonpayable",
      "type": "constructor"
    },
    {
      "constant": false,
      "inputs": [
        {
          "name": "_newController",
          "type": "address"
        }
      ],
      "name": "changeController",
      "outputs": [],
      "payable": false,
      "stateMutability": "nonpayable",
      "type": "function"
    }
  ],
  "bytecode": "0x608060405234801561001057600080fd5b5060008054600160a060020a0319163317905561016e806100326000396000f3fe608060405234801561001057600080fd5b5060043610610052577c010000000000000000000000000000000000000000000000000000000060003504633cebb8238114610057578063f77c47911461008c575b600080fd5b61008a6004803603602081101561006d57600080fd5b503573ffffffffffffffffffffffffffffffffffffffff166100bd565b005b61009461011d565b6040805173ffffffffffffffffffffffffffffffffffffffff9092168252519081900360200190f35b60005473ffffffffffffffffffffffffffffffffffffffff1633146100e157600080fd5b6000805473ffffffffffffffffffffffffffffffffffffffff191673ffffffffffffffffffffffffffffffffffffffff92909216919091179055565b60005473ffffffffffffffffffffffffffffffffffffffff168156fea265627a7a723058200b5912a42de7836094ce86939ee592f3f23a3410069324e30f01efc66453eacd64736f6c634300050a0032",
  "source": "pragma solidity ^0.5.10;\n\ncontract Controlled {\n  /// @notice The address of the controller is the only address that can call\n  ///  a function with this modifier\n  modifier onlyController { require(msg.sender == controller); _; }\n\n  address payable public controller;\n\n  constructor() public { controller = msg.sender;}\n\n  /// @notice Changes the controller of the contract\n  /// @param _newController The new controller of the contract\n  function changeController(address payable _newController) public onlyController {\n    controller = _newController;\n  }\n}\n",
  "sourcePath": "/Users/roderik/Development/databrokerdao-dxc/contracts/contracts/external/Controlled.sol",
  "compiler": {
    "name": "solc",
    "version": "0.5.10+commit.5a6ea5b1.Emscripten.clang"
  },
  "schemaVersion": "3.0.11",
  "updatedAt": "2019-07-25T12:46:56.516Z",
  "devdoc": {
    "methods": {
      "changeController(address)": {
        "params": {
          "_newController": "The new controller of the contract"
        }
      }
    }
  },
  "userdoc": {
    "methods": {
      "changeController(address)": {
        "notice": "Changes the controller of the contract"
      }
    }
  }
}