{
  "contractName": "Controlled",
  "abi": [
    {
      "constant": true,
      "inputs": [],
      "name": "controller",
      "outputs": [
        {
          "name": "",
          "type": "address"
        }
      ],
      "payable": false,
      "stateMutability": "view",
      "type": "function"
    },
    {
      "inputs": [],
      "payable": false,
      "stateMutability": "nonpayable",
      "type": "constructor"
    },
    {
      "constant": false,
      "inputs": [
        {
          "name": "_newController",
          "type": "address"
        }
      ],
      "name": "changeController",
      "outputs": [],
      "payable": false,
      "stateMutability": "nonpayable",
      "type": "function"
    }
  ],
  "bytecode": "0x608060405234801561001057600080fd5b50600080546001600160a01b0319163317905560fa806100316000396000f3fe6080604052348015600f57600080fd5b506004361060325760003560e01c80633cebb823146037578063f77c479114605c575b600080fd5b605a60048036036020811015604b57600080fd5b50356001600160a01b0316607e565b005b606260b6565b604080516001600160a01b039092168252519081900360200190f35b6000546001600160a01b03163314609457600080fd5b600080546001600160a01b0319166001600160a01b0392909216919091179055565b6000546001600160a01b03168156fea265627a7a72305820ff393b13a1d61839ea56b1396d697077bdba9a84be65c11e3c297d18aff3e69f64736f6c634300050a0032",
  "source": "pragma solidity ^0.5.0;\n\ncontract Controlled {\n  /// @notice The address of the controller is the only address that can call\n  ///  a function with this modifier\n  modifier onlyController { require(msg.sender == controller); _; }\n\n  address payable public controller;\n\n  constructor() public { controller = msg.sender;}\n\n  /// @notice Changes the controller of the contract\n  /// @param _newController The new controller of the contract\n  function changeController(address payable _newController) public onlyController {\n    controller = _newController;\n  }\n}\n",
  "sourcePath": "/Users/roderik/Development/dxc/contracts/contracts/external/Controlled.sol",
  "compiler": {
    "name": "solc",
    "version": "0.5.10+commit.5a6ea5b1.Emscripten.clang"
  },
  "schemaVersion": "3.0.11",
  "updatedAt": "2019-07-27T19:53:16.470Z",
  "devdoc": {
    "methods": {
      "changeController(address)": {
        "params": {
          "_newController": "The new controller of the contract"
        }
      }
    }
  },
  "userdoc": {
    "methods": {
      "changeController(address)": {
        "notice": "Changes the controller of the contract"
      }
    }
  }
}