{
  "contractName": "DTXToken",
  "abi": [
    {
      "constant": true,
      "inputs": [],
      "name": "name",
      "outputs": [
        {
          "name": "",
          "type": "string"
        }
      ],
      "payable": false,
      "stateMutability": "view",
      "type": "function"
    },
    {
      "constant": false,
      "inputs": [
        {
          "name": "_spender",
          "type": "address"
        },
        {
          "name": "_amount",
          "type": "uint256"
        }
      ],
      "name": "approve",
      "outputs": [
        {
          "name": "success",
          "type": "bool"
        }
      ],
      "payable": false,
      "stateMutability": "nonpayable",
      "type": "function"
    },
    {
      "constant": true,
      "inputs": [],
      "name": "creationBlock",
      "outputs": [
        {
          "name": "",
          "type": "uint256"
        }
      ],
      "payable": false,
      "stateMutability": "view",
      "type": "function"
    },
    {
      "constant": true,
      "inputs": [],
      "name": "totalSupply",
      "outputs": [
        {
          "name": "",
          "type": "uint256"
        }
      ],
      "payable": false,
      "stateMutability": "view",
      "type": "function"
    },
    {
      "constant": false,
      "inputs": [
        {
          "name": "_from",
          "type": "address"
        },
        {
          "name": "_to",
          "type": "address"
        },
        {
          "name": "_amount",
          "type": "uint256"
        }
      ],
      "name": "transferFrom",
      "outputs": [
        {
          "name": "success",
          "type": "bool"
        }
      ],
      "payable": false,
      "stateMutability": "nonpayable",
      "type": "function"
    },
    {
      "constant": true,
      "inputs": [],
      "name": "decimals",
      "outputs": [
        {
          "name": "",
          "type": "uint8"
        }
      ],
      "payable": false,
      "stateMutability": "view",
      "type": "function"
    },
    {
      "constant": false,
      "inputs": [
        {
          "name": "_newController",
          "type": "address"
        }
      ],
      "name": "changeController",
      "outputs": [],
      "payable": false,
      "stateMutability": "nonpayable",
      "type": "function"
    },
    {
      "constant": true,
      "inputs": [
        {
          "name": "_owner",
          "type": "address"
        },
        {
          "name": "_blockNumber",
          "type": "uint256"
        }
      ],
      "name": "balanceOfAt",
      "outputs": [
        {
          "name": "",
          "type": "uint256"
        }
      ],
      "payable": false,
      "stateMutability": "view",
      "type": "function"
    },
    {
      "constant": true,
      "inputs": [],
      "name": "version",
      "outputs": [
        {
          "name": "",
          "type": "string"
        }
      ],
      "payable": false,
      "stateMutability": "view",
      "type": "function"
    },
    {
      "constant": false,
      "inputs": [
        {
          "name": "_cloneTokenName",
          "type": "string"
        },
        {
          "name": "_cloneDecimalUnits",
          "type": "uint8"
        },
        {
          "name": "_cloneTokenSymbol",
          "type": "string"
        },
        {
          "name": "_snapshotBlock",
          "type": "uint256"
        },
        {
          "name": "_transfersEnabled",
          "type": "bool"
        }
      ],
      "name": "createCloneToken",
      "outputs": [
        {
          "name": "",
          "type": "address"
        }
      ],
      "payable": false,
      "stateMutability": "nonpayable",
      "type": "function"
    },
    {
      "constant": true,
      "inputs": [
        {
          "name": "_owner",
          "type": "address"
        }
      ],
      "name": "balanceOf",
      "outputs": [
        {
          "name": "balance",
          "type": "uint256"
        }
      ],
      "payable": false,
      "stateMutability": "view",
      "type": "function"
    },
    {
      "constant": true,
      "inputs": [],
      "name": "parentToken",
      "outputs": [
        {
          "name": "",
          "type": "address"
        }
      ],
      "payable": false,
      "stateMutability": "view",
      "type": "function"
    },
    {
      "constant": false,
      "inputs": [
        {
          "name": "_owner",
          "type": "address"
        },
        {
          "name": "_amount",
          "type": "uint256"
        }
      ],
      "name": "generateTokens",
      "outputs": [
        {
          "name": "",
          "type": "bool"
        }
      ],
      "payable": false,
      "stateMutability": "nonpayable",
      "type": "function"
    },
    {
      "constant": true,
      "inputs": [],
      "name": "symbol",
      "outputs": [
        {
          "name": "",
          "type": "string"
        }
      ],
      "payable": false,
      "stateMutability": "view",
      "type": "function"
    },
    {
      "constant": true,
      "inputs": [
        {
          "name": "_blockNumber",
          "type": "uint256"
        }
      ],
      "name": "totalSupplyAt",
      "outputs": [
        {
          "name": "",
          "type": "uint256"
        }
      ],
      "payable": false,
      "stateMutability": "view",
      "type": "function"
    },
    {
      "constant": false,
      "inputs": [
        {
          "name": "_to",
          "type": "address"
        },
        {
          "name": "_amount",
          "type": "uint256"
        }
      ],
      "name": "transfer",
      "outputs": [
        {
          "name": "success",
          "type": "bool"
        }
      ],
      "payable": false,
      "stateMutability": "nonpayable",
      "type": "function"
    },
    {
      "constant": true,
      "inputs": [],
      "name": "transfersEnabled",
      "outputs": [
        {
          "name": "",
          "type": "bool"
        }
      ],
      "payable": false,
      "stateMutability": "view",
      "type": "function"
    },
    {
      "constant": true,
      "inputs": [],
      "name": "parentSnapShotBlock",
      "outputs": [
        {
          "name": "",
          "type": "uint256"
        }
      ],
      "payable": false,
      "stateMutability": "view",
      "type": "function"
    },
    {
      "constant": false,
      "inputs": [
        {
          "name": "_spender",
          "type": "address"
        },
        {
          "name": "_amount",
          "type": "uint256"
        },
        {
          "name": "_extraData",
          "type": "bytes"
        }
      ],
      "name": "approveAndCall",
      "outputs": [
        {
          "name": "success",
          "type": "bool"
        }
      ],
      "payable": false,
      "stateMutability": "nonpayable",
      "type": "function"
    },
    {
      "constant": false,
      "inputs": [
        {
          "name": "_owner",
          "type": "address"
        },
        {
          "name": "_amount",
          "type": "uint256"
        }
      ],
      "name": "destroyTokens",
      "outputs": [
        {
          "name": "",
          "type": "bool"
        }
      ],
      "payable": false,
      "stateMutability": "nonpayable",
      "type": "function"
    },
    {
      "constant": true,
      "inputs": [
        {
          "name": "_owner",
          "type": "address"
        },
        {
          "name": "_spender",
          "type": "address"
        }
      ],
      "name": "allowance",
      "outputs": [
        {
          "name": "remaining",
          "type": "uint256"
        }
      ],
      "payable": false,
      "stateMutability": "view",
      "type": "function"
    },
    {
      "constant": false,
      "inputs": [
        {
          "name": "_token",
          "type": "address"
        }
      ],
      "name": "claimTokens",
      "outputs": [],
      "payable": false,
      "stateMutability": "nonpayable",
      "type": "function"
    },
    {
      "constant": true,
      "inputs": [],
      "name": "tokenFactory",
      "outputs": [
        {
          "name": "",
          "type": "address"
        }
      ],
      "payable": false,
      "stateMutability": "view",
      "type": "function"
    },
    {
      "constant": false,
      "inputs": [
        {
          "name": "_transfersEnabled",
          "type": "bool"
        }
      ],
      "name": "enableTransfers",
      "outputs": [],
      "payable": false,
      "stateMutability": "nonpayable",
      "type": "function"
    },
    {
      "constant": true,
      "inputs": [],
      "name": "controller",
      "outputs": [
        {
          "name": "",
          "type": "address"
        }
      ],
      "payable": false,
      "stateMutability": "view",
      "type": "function"
    },
    {
      "inputs": [
        {
          "name": "_tokenFactory",
          "type": "address"
        }
      ],
      "payable": false,
      "stateMutability": "nonpayable",
      "type": "constructor"
    },
    {
      "payable": true,
      "stateMutability": "payable",
      "type": "fallback"
    },
    {
      "anonymous": false,
      "inputs": [
        {
          "indexed": true,
          "name": "_token",
          "type": "address"
        },
        {
          "indexed": true,
          "name": "_controller",
          "type": "address"
        },
        {
          "indexed": false,
          "name": "_amount",
          "type": "uint256"
        }
      ],
      "name": "ClaimedTokens",
      "type": "event"
    },
    {
      "anonymous": false,
      "inputs": [
        {
          "indexed": true,
          "name": "_from",
          "type": "address"
        },
        {
          "indexed": true,
          "name": "_to",
          "type": "address"
        },
        {
          "indexed": false,
          "name": "_amount",
          "type": "uint256"
        }
      ],
      "name": "Transfer",
      "type": "event"
    },
    {
      "anonymous": false,
      "inputs": [
        {
          "indexed": true,
          "name": "_cloneToken",
          "type": "address"
        },
        {
          "indexed": false,
          "name": "_snapshotBlock",
          "type": "uint256"
        }
      ],
      "name": "NewCloneToken",
      "type": "event"
    },
    {
      "anonymous": false,
      "inputs": [
        {
          "indexed": true,
          "name": "_owner",
          "type": "address"
        },
        {
          "indexed": true,
          "name": "_spender",
          "type": "address"
        },
        {
          "indexed": false,
          "name": "_amount",
          "type": "uint256"
        }
      ],
      "name": "Approval",
      "type": "event"
    }
  ],
  "bytecode": "0x60c0604052600760808190527f4d4d545f302e320000000000000000000000000000000000000000000000000060a09081526200004091600491906200019a565b503480156200004e57600080fd5b5060405162001d4738038062001d47833981810160405260208110156200007457600080fd5b5051604080518082018252601381527f446154612065586368616e676520546f6b656e0000000000000000000000000060208281019182528351808501909452600384527f44545800000000000000000000000000000000000000000000000000000000009084015260008054600160a060020a03191633178155600b8054600160a060020a0387166101000261010060a860020a0319909116179055825185949193849390926012929091600191620001309183916200019a565b506002805460ff191660ff85161790558151620001559060039060208501906200019a565b5060058054600160a060020a031916600160a060020a039790971696909617909555505050600655600b805460ff19169115159190911790555050436007556200023f565b828054600181600116156101000203166002900490600052602060002090601f016020900481019282601f10620001dd57805160ff19168380011785556200020d565b828001600101855582156200020d579182015b828111156200020d578251825591602001919060010190620001f0565b506200021b9291506200021f565b5090565b6200023c91905b808211156200021b576000815560010162000226565b90565b611af8806200024f6000396000f3fe60806040526004361061016a5760003560e060020a90048063827f32c0116100d5578063cae9ca511161008e578063df8de3e711610068578063df8de3e7146107ef578063e77772fe14610822578063f41e60c514610837578063f77c4791146108635761016a565b8063cae9ca51146106b3578063d3ce77fe1461077b578063dd62ed3e146107b45761016a565b8063827f32c0146105d857806395d89b4114610611578063981b24d014610626578063a9059cbb14610650578063bef97c8714610689578063c5bcc4f11461069e5761016a565b80633cebb823116101275780633cebb823146103a75780634ee2cd7e146103da57806354fd4d50146104135780636638c0871461042857806370a082311461059057806380a54001146105c35761016a565b806306fdde0314610226578063095ea7b3146102b057806317634514146102fd57806318160ddd1461032457806323b872dd14610339578063313ce5671461037c575b60005461017f90600160a060020a0316610878565b61018857600080fd5b600054604080517ff48c30540000000000000000000000000000000000000000000000000000000081523360048201529051600160a060020a039092169163f48c3054913491602480830192602092919082900301818588803b1580156101ee57600080fd5b505af1158015610202573d6000803e3d6000fd5b50505050506040513d602081101561021957600080fd5b505161022457600080fd5b005b34801561023257600080fd5b5061023b61089f565b6040805160208082528351818301528351919283929083019185019080838360005b8381101561027557818101518382015260200161025d565b50505050905090810190601f1680156102a25780820380516001836020036101000a031916815260200191505b509250505060405180910390f35b3480156102bc57600080fd5b506102e9600480360360408110156102d357600080fd5b50600160a060020a03813516906020013561092c565b604080519115158252519081900360200190f35b34801561030957600080fd5b50610312610aa4565b60408051918252519081900360200190f35b34801561033057600080fd5b50610312610aaa565b34801561034557600080fd5b506102e96004803603606081101561035c57600080fd5b50600160a060020a03813581169160208101359091169060400135610abb565b34801561038857600080fd5b50610391610b50565b6040805160ff9092168252519081900360200190f35b3480156103b357600080fd5b50610224600480360360208110156103ca57600080fd5b5035600160a060020a0316610b59565b3480156103e657600080fd5b50610312600480360360408110156103fd57600080fd5b50600160a060020a038135169060200135610b9f565b34801561041f57600080fd5b5061023b610ce8565b34801561043457600080fd5b50610574600480360360a081101561044b57600080fd5b81019060208101813564010000000081111561046657600080fd5b82018360208201111561047857600080fd5b8035906020019184600183028401116401000000008311171561049a57600080fd5b91908080601f016020809104026020016040519081016040528093929190818152602001838380828437600092019190915250929560ff8535169590949093506040810192506020013590506401000000008111156104f857600080fd5b82018360208201111561050a57600080fd5b8035906020019184600183028401116401000000008311171561052c57600080fd5b91908080601f01602080910402602001604051908101604052809392919081815260200183838082843760009201919091525092955050823593505050602001351515610d43565b60408051600160a060020a039092168252519081900360200190f35b34801561059c57600080fd5b50610312600480360360208110156105b357600080fd5b5035600160a060020a0316610fa4565b3480156105cf57600080fd5b50610574610fb0565b3480156105e457600080fd5b506102e9600480360360408110156105fb57600080fd5b50600160a060020a038135169060200135610fbf565b34801561061d57600080fd5b5061023b61108b565b34801561063257600080fd5b506103126004803603602081101561064957600080fd5b50356110e6565b34801561065c57600080fd5b506102e96004803603604081101561067357600080fd5b50600160a060020a0381351690602001356111d6565b34801561069557600080fd5b506102e96111f3565b3480156106aa57600080fd5b506103126111fc565b3480156106bf57600080fd5b506102e9600480360360608110156106d657600080fd5b600160a060020a038235169160208101359181019060608101604082013564010000000081111561070657600080fd5b82018360208201111561071857600080fd5b8035906020019184600183028401116401000000008311171561073a57600080fd5b91908080601f016020809104026020016040519081016040528093929190818152602001838380828437600092019190915250929550611202945050505050565b34801561078757600080fd5b506102e96004803603604081101561079e57600080fd5b50600160a060020a03813516906020013561131b565b3480156107c057600080fd5b50610312600480360360408110156107d757600080fd5b50600160a060020a03813581169160200135166113e3565b3480156107fb57600080fd5b506102246004803603602081101561081257600080fd5b5035600160a060020a031661140e565b34801561082e57600080fd5b506105746115f0565b34801561084357600080fd5b506102246004803603602081101561085a57600080fd5b50351515611604565b34801561086f57600080fd5b5061057461162e565b600080600160a060020a03831661089357600091505061089a565b5050803b15155b919050565b60018054604080516020600284861615610100026000190190941693909304601f810184900484028201840190925281815292918301828280156109245780601f106108f957610100808354040283529160200191610924565b820191906000526020600020905b81548152906001019060200180831161090757829003601f168201915b505050505081565b600b5460009060ff1661093e57600080fd5b81158061096c5750336000908152600960209081526040808320600160a060020a0387168452909152902054155b61097557600080fd5b60005461098a90600160a060020a0316610878565b15610a3c5760008054604080517fda682aeb000000000000000000000000000000000000000000000000000000008152336004820152600160a060020a038781166024830152604482018790529151919092169263da682aeb92606480820193602093909283900390910190829087803b158015610a0757600080fd5b505af1158015610a1b573d6000803e3d6000fd5b505050506040513d6020811015610a3157600080fd5b5051610a3c57600080fd5b336000818152600960209081526040808320600160a060020a03881680855290835292819020869055805186815290519293927f8c5be1e5ebec7d5bd14f71427d1e84f3dd0314c0f7b2291e5b200ac8c7c3b925929181900390910190a35060015b92915050565b60075481565b6000610ab5436110e6565b90505b90565b60008054600160a060020a03163314610b3b57600b5460ff16610add57600080fd5b600160a060020a0384166000908152600960209081526040808320338452909152902054821115610b1057506000610b49565b600160a060020a03841660009081526009602090815260408083203384529091529020805483900390555b610b4684848461163d565b90505b9392505050565b60025460ff1681565b600054600160a060020a03163314610b7057600080fd5b6000805473ffffffffffffffffffffffffffffffffffffffff1916600160a060020a0392909216919091179055565b600160a060020a0382166000908152600860205260408120541580610bf95750600160a060020a03831660009081526008602052604081208054849290610be257fe5b6000918252602090912001546001608060020a0316115b15610cbf57600554600160a060020a031615610cb757600554600654600160a060020a0390911690634ee2cd7e908590610c34908690611829565b6040518363ffffffff1660e060020a0281526004018083600160a060020a0316600160a060020a031681526020018281526020019250505060206040518083038186803b158015610c8457600080fd5b505afa158015610c98573d6000803e3d6000fd5b505050506040513d6020811015610cae57600080fd5b50519050610a9e565b506000610a9e565b600160a060020a0383166000908152600860205260409020610ce1908361183f565b9050610a9e565b6004805460408051602060026001851615610100026000190190941693909304601f810184900484028201840190925281815292918301828280156109245780601f106108f957610100808354040283529160200191610924565b600082610d4e574392505b6000600b60019054906101000a9004600160a060020a0316600160a060020a0316635b7b72c130868a8a8a896040518763ffffffff1660e060020a0281526004018087600160a060020a0316600160a060020a03168152602001868152602001806020018560ff1660ff1681526020018060200184151515158152602001838103835287818151815260200191508051906020019080838360005b83811015610e01578181015183820152602001610de9565b50505050905090810190601f168015610e2e5780820380516001836020036101000a031916815260200191505b50838103825285518152855160209182019187019080838360005b83811015610e61578181015183820152602001610e49565b50505050905090810190601f168015610e8e5780820380516001836020036101000a031916815260200191505b5098505050505050505050602060405180830381600087803b158015610eb357600080fd5b505af1158015610ec7573d6000803e3d6000fd5b505050506040513d6020811015610edd57600080fd5b5051604080517f3cebb8230000000000000000000000000000000000000000000000000000000081523360048201529051919250600160a060020a03831691633cebb8239160248082019260009290919082900301818387803b158015610f4357600080fd5b505af1158015610f57573d6000803e3d6000fd5b5050604080518781529051600160a060020a03851693507f086c875b377f900b07ce03575813022f05dd10ed7640b5282cf6d3c3fc352ade92509081900360200190a29695505050505050565b6000610a9e8243610b9f565b600554600160a060020a031681565b60008054600160a060020a03163314610fd757600080fd5b6000610fe1610aaa565b9050808382011015610ff257600080fd5b6000610ffd85610fa4565b905080848201101561100e57600080fd5b61101b600a858401611989565b600160a060020a038516600090815260086020526040902061103f90828601611989565b604080518581529051600160a060020a038716916000917fddf252ad1be2c89b69c2b068fc378daa952ba7f163c4a11628f55a4df523b3ef9181900360200190a3506001949350505050565b6003805460408051602060026001851615610100026000190190941693909304601f810184900484028201840190925281815292918301828280156109245780601f106108f957610100808354040283529160200191610924565b600a546000901580611119575081600a60008154811061110257fe5b6000918252602090912001546001608060020a0316115b156111c457600554600160a060020a0316156111bc57600554600654600160a060020a039091169063981b24d090611152908590611829565b6040518263ffffffff1660e060020a0281526004018082815260200191505060206040518083038186803b15801561118957600080fd5b505afa15801561119d573d6000803e3d6000fd5b505050506040513d60208110156111b357600080fd5b5051905061089a565b50600061089a565b6111cf600a8361183f565b905061089a565b600b5460009060ff166111e857600080fd5b610b4933848461163d565b600b5460ff1681565b60065481565b600061120e848461092c565b61121757600080fd5b6040517f8f4ffcb10000000000000000000000000000000000000000000000000000000081523360048201818152602483018690523060448401819052608060648501908152865160848601528651600160a060020a038a1695638f4ffcb195948a94938a939192909160a490910190602085019080838360005b838110156112aa578181015183820152602001611292565b50505050905090810190601f1680156112d75780820380516001836020036101000a031916815260200191505b5095505050505050600060405180830381600087803b1580156112f957600080fd5b505af115801561130d573d6000803e3d6000fd5b506001979650505050505050565b60008054600160a060020a0316331461133357600080fd5b600061133d610aaa565b90508281101561134c57600080fd5b600061135785610fa4565b90508381101561136657600080fd5b611373600a858403611989565b600160a060020a038516600090815260086020526040902061139790858303611989565b604080518581529051600091600160a060020a038816917fddf252ad1be2c89b69c2b068fc378daa952ba7f163c4a11628f55a4df523b3ef9181900360200190a3506001949350505050565b600160a060020a03918216600090815260096020908152604080832093909416825291909152205490565b600054600160a060020a0316331461142557600080fd5b600160a060020a0381166114745760008054604051600160a060020a0390911691303180156108fc02929091818181858888f1935050505015801561146e573d6000803e3d6000fd5b506115ed565b604080517f70a0823100000000000000000000000000000000000000000000000000000000815230600482015290518291600091600160a060020a038416916370a08231916024808301926020929190829003018186803b1580156114d857600080fd5b505afa1580156114ec573d6000803e3d6000fd5b505050506040513d602081101561150257600080fd5b505160008054604080517fa9059cbb000000000000000000000000000000000000000000000000000000008152600160a060020a0392831660048201526024810185905290519394509085169263a9059cbb92604480840193602093929083900390910190829087803b15801561157857600080fd5b505af115801561158c573d6000803e3d6000fd5b505050506040513d60208110156115a257600080fd5b5050600054604080518381529051600160a060020a03928316928616917ff931edb47c50b4b4104c187b5814a9aef5f709e17e2ecf9617e860cacade929c919081900360200190a350505b50565b600b546101009004600160a060020a031681565b600054600160a060020a0316331461161b57600080fd5b600b805460ff1916911515919091179055565b600054600160a060020a031681565b60008161164c57506001610b49565b436006541061165a57600080fd5b600160a060020a0383161580159061167b5750600160a060020a0383163014155b61168457600080fd5b60006116908543610b9f565b9050828110156116a4576000915050610b49565b6000546116b990600160a060020a0316610878565b1561176d5760008054604080517f4a393149000000000000000000000000000000000000000000000000000000008152600160a060020a03898116600483015288811660248301526044820188905291519190921692634a39314992606480820193602093909283900390910190829087803b15801561173857600080fd5b505af115801561174c573d6000803e3d6000fd5b505050506040513d602081101561176257600080fd5b505161176d57600080fd5b600160a060020a038516600090815260086020526040902061179190848303611989565b600061179d8543610b9f565b90508084820110156117ae57600080fd5b600160a060020a03851660009081526008602052604090206117d290828601611989565b84600160a060020a031686600160a060020a03167fddf252ad1be2c89b69c2b068fc378daa952ba7f163c4a11628f55a4df523b3ef866040518082815260200191505060405180910390a350600195945050505050565b60008183106118385781610b49565b5090919050565b815460009061185057506000610a9e565b82548390600019810190811061186257fe5b6000918252602090912001546001608060020a031682106118bf5782548390600019810190811061188f57fe5b60009182526020909120015470010000000000000000000000000000000090046001608060020a03169050610a9e565b826000815481106118cc57fe5b6000918252602090912001546001608060020a03168210156118f057506000610a9e565b8254600090600019015b8181111561194b57600060026001838501010490508486828154811061191c57fe5b6000918252602090912001546001608060020a03161161193e57809250611945565b6001810391505b506118fa565b84828154811061195757fe5b60009182526020909120015470010000000000000000000000000000000090046001608060020a031695945050505050565b815415806119bd575081544390839060001981019081106119a657fe5b6000918252602090912001546001608060020a0316105b15611a3157815460009083906119d68260018301611a7c565b815481106119e057fe5b600091825260209091200180546001608060020a03848116700100000000000000000000000000000000024382166fffffffffffffffffffffffffffffffff19909316929092171617905550611a78565b815460009083906000198101908110611a4657fe5b600091825260209091200180546001608060020a03808516700100000000000000000000000000000000029116179055505b5050565b815481835581811115611aa057600083815260209020611aa0918101908301611aa5565b505050565b610ab891905b80821115611abf5760008155600101611aab565b509056fea265627a7a72305820b12be6ac6fd3008069dc00e7472a0b3d5895ab8d4f0aff406d7dc7802b337e7f64736f6c634300050a0032",
  "source": "pragma solidity ^0.5.10;\n\nimport \"./external/MiniMeToken.sol\";\n\n\ncontract DTXToken is MiniMeToken {\n\n  constructor(address _tokenFactory) public MiniMeToken (\n    _tokenFactory,\n    address(0),             // no parent token\n    0,                      // no snapshot block number from parent\n    \"DaTa eXchange Token\",  // Token name\n    18,                     // Decimals\n    \"DTX\",                  // Symbol\n    true                    // Enable transfers\n    )\n  {}\n\n}\n",
  "sourcePath": "/Users/roderik/Development/databrokerdao-dxc/contracts/contracts/DTXToken.sol",
  "compiler": {
    "name": "solc",
    "version": "0.5.10+commit.5a6ea5b1.Emscripten.clang"
  },
  "schemaVersion": "3.0.11",
  "updatedAt": "2019-07-25T12:46:56.514Z",
  "devdoc": {
    "methods": {
      "allowance(address,address)": {
        "details": "This function makes it easy to read the `allowed[]` map",
        "params": {
          "_owner": "The address of the account that owns the token",
          "_spender": "The address of the account able to transfer the tokens"
        },
        "return": "Amount of remaining tokens of _owner that _spender is allowed  to spend"
      },
      "approve(address,uint256)": {
        "params": {
          "_amount": "The amount of tokens to be approved for transfer",
          "_spender": "The address of the account able to transfer the tokens"
        },
        "return": "True if the approval was successful"
      },
      "approveAndCall(address,uint256,bytes)": {
        "params": {
          "_amount": "The amount of tokens to be approved for transfer",
          "_spender": "The address of the contract able to transfer the tokens"
        },
        "return": "True if the function call was successful"
      },
      "balanceOf(address)": {
        "params": {
          "_owner": "The address that's balance is being requested"
        },
        "return": "The balance of `_owner` at the current block"
      },
      "balanceOfAt(address,uint256)": {
        "details": "Queries the balance of `_owner` at a specific `_blockNumber`",
        "params": {
          "_blockNumber": "The block number when the balance is queried",
          "_owner": "The address from which the balance will be retrieved"
        },
        "return": "The balance at `_blockNumber`"
      },
      "changeController(address)": {
        "params": {
          "_newController": "The new controller of the contract"
        }
      },
      "claimTokens(address)": {
        "params": {
          "_token": "The address of the token contract that you want to recover  set to 0 in case you want to extract ether."
        }
      },
      "createCloneToken(string,uint8,string,uint256,bool)": {
        "params": {
          "_cloneDecimalUnits": "Number of decimals of the smallest unit",
          "_cloneTokenName": "Name of the clone token",
          "_cloneTokenSymbol": "Symbol of the clone token",
          "_snapshotBlock": "Block when the distribution of the parent token is  copied to set the initial distribution of the new clone token;  if the block is zero than the actual block, the current block is used",
          "_transfersEnabled": "True if transfers are allowed in the clone"
        },
        "return": "The address of the new MiniMeToken Contract"
      },
      "destroyTokens(address,uint256)": {
        "params": {
          "_amount": "The quantity of tokens to burn",
          "_owner": "The address that will lose the tokens"
        },
        "return": "True if the tokens are burned correctly"
      },
      "enableTransfers(bool)": {
        "params": {
          "_transfersEnabled": "True if transfers are allowed in the clone"
        }
      },
      "generateTokens(address,uint256)": {
        "params": {
          "_amount": "The quantity of tokens generated",
          "_owner": "The address that will be assigned the new tokens"
        },
        "return": "True if the tokens are generated correctly"
      },
      "totalSupply()": {
        "details": "This function makes it easy to get the total number of tokens",
        "return": "The total number of tokens"
      },
      "totalSupplyAt(uint256)": {
        "params": {
          "_blockNumber": "The block number when the totalSupply is queried"
        },
        "return": "The total amount of tokens at `_blockNumber`"
      },
      "transfer(address,uint256)": {
        "params": {
          "_amount": "The amount of tokens to be transferred",
          "_to": "The address of the recipient"
        },
        "return": "Whether the transfer was successful or not"
      },
      "transferFrom(address,address,uint256)": {
        "params": {
          "_amount": "The amount of tokens to be transferred",
          "_from": "The address holding the tokens being transferred",
          "_to": "The address of the recipient"
        },
        "return": "True if the transfer was successful"
      }
    }
  },
  "userdoc": {
    "methods": {
      "approve(address,uint256)": {
        "notice": "`msg.sender` approves `_spender` to spend `_amount` tokens on  its behalf. This is a modified version of the ERC20 approve function  to be a little bit safer"
      },
      "approveAndCall(address,uint256,bytes)": {
        "notice": "`msg.sender` approves `_spender` to send `_amount` tokens on  its behalf, and then a function is triggered in the contract that is  being approved, `_spender`. This allows users to use their tokens to  interact with contracts in one function call instead of two"
      },
      "balanceOfAt(address,uint256)": {
        "notice": "/////////////"
      },
      "changeController(address)": {
        "notice": "Changes the controller of the contract"
      },
      "claimTokens(address)": {
        "notice": "///////This method can be used by the controller to extract mistakenly  sent tokens to this contract."
      },
      "createCloneToken(string,uint8,string,uint256,bool)": {
        "notice": "/////////////Creates a new clone token with the initial distribution being  this token at `_snapshotBlock`"
      },
      "destroyTokens(address,uint256)": {
        "notice": "Burns `_amount` tokens from `_owner`"
      },
      "enableTransfers(bool)": {
        "notice": "/////////////Enables token holders to transfer their tokens freely if true"
      },
      "generateTokens(address,uint256)": {
        "notice": "/////////////Generates `_amount` tokens that are assigned to `_owner`"
      },
      "totalSupplyAt(uint256)": {
        "notice": "Total amount of tokens at a specific `_blockNumber`."
      },
      "transfer(address,uint256)": {
        "notice": "////////////////Send `_amount` tokens to `_to` from `msg.sender`"
      },
      "transferFrom(address,address,uint256)": {
        "notice": "Send `_amount` tokens to `_to` from `_from` on the condition it  is approved by `_from`"
      }
    }
  }
}