{
  "contractName": "DXC",
  "abi": [
    {
      "constant": true,
      "inputs": [
        {
          "name": "",
          "type": "address"
        }
      ],
      "name": "balances",
      "outputs": [
        {
          "name": "balance",
          "type": "uint256"
        },
        {
          "name": "escrowOutgoing",
          "type": "uint256"
        },
        {
          "name": "escrowIncoming",
          "type": "uint256"
        }
      ],
      "payable": false,
      "stateMutability": "view",
      "type": "function"
    },
    {
      "constant": true,
      "inputs": [],
      "name": "dtxToken",
      "outputs": [
        {
          "name": "",
          "type": "address"
        }
      ],
      "payable": false,
      "stateMutability": "view",
      "type": "function"
    },
    {
      "constant": true,
      "inputs": [
        {
          "name": "",
          "type": "address"
        },
        {
          "name": "",
          "type": "uint256"
        }
      ],
      "name": "userToDeals",
      "outputs": [
        {
          "name": "did",
          "type": "string"
        },
        {
          "name": "owner",
          "type": "address"
        },
        {
          "name": "ownerPercentage",
          "type": "uint8"
        },
        {
          "name": "publisher",
          "type": "address"
        },
        {
          "name": "publisherPercentage",
          "type": "uint8"
        },
        {
          "name": "user",
          "type": "address"
        },
        {
          "name": "marketplace",
          "type": "address"
        },
        {
          "name": "marketplacePercentage",
          "type": "uint8"
        },
        {
          "name": "amount",
          "type": "uint256"
        },
        {
          "name": "validFrom",
          "type": "uint256"
        },
        {
          "name": "validUntil",
          "type": "uint256"
        }
      ],
      "payable": false,
      "stateMutability": "view",
      "type": "function"
    },
    {
      "constant": false,
      "inputs": [],
      "name": "renounceOwnership",
      "outputs": [],
      "payable": false,
      "stateMutability": "nonpayable",
      "type": "function"
    },
    {
      "constant": true,
      "inputs": [
        {
          "name": "",
          "type": "string"
        },
        {
          "name": "",
          "type": "uint256"
        }
      ],
      "name": "didToDeals",
      "outputs": [
        {
          "name": "did",
          "type": "string"
        },
        {
          "name": "owner",
          "type": "address"
        },
        {
          "name": "ownerPercentage",
          "type": "uint8"
        },
        {
          "name": "publisher",
          "type": "address"
        },
        {
          "name": "publisherPercentage",
          "type": "uint8"
        },
        {
          "name": "user",
          "type": "address"
        },
        {
          "name": "marketplace",
          "type": "address"
        },
        {
          "name": "marketplacePercentage",
          "type": "uint8"
        },
        {
          "name": "amount",
          "type": "uint256"
        },
        {
          "name": "validFrom",
          "type": "uint256"
        },
        {
          "name": "validUntil",
          "type": "uint256"
        }
      ],
      "payable": false,
      "stateMutability": "view",
      "type": "function"
    },
    {
      "constant": true,
      "inputs": [
        {
          "name": "",
          "type": "uint256"
        }
      ],
      "name": "dealsList",
      "outputs": [
        {
          "name": "did",
          "type": "string"
        },
        {
          "name": "owner",
          "type": "address"
        },
        {
          "name": "ownerPercentage",
          "type": "uint8"
        },
        {
          "name": "publisher",
          "type": "address"
        },
        {
          "name": "publisherPercentage",
          "type": "uint8"
        },
        {
          "name": "user",
          "type": "address"
        },
        {
          "name": "marketplace",
          "type": "address"
        },
        {
          "name": "marketplacePercentage",
          "type": "uint8"
        },
        {
          "name": "amount",
          "type": "uint256"
        },
        {
          "name": "validFrom",
          "type": "uint256"
        },
        {
          "name": "validUntil",
          "type": "uint256"
        }
      ],
      "payable": false,
      "stateMutability": "view",
      "type": "function"
    },
    {
      "constant": true,
      "inputs": [],
      "name": "owner",
      "outputs": [
        {
          "name": "",
          "type": "address"
        }
      ],
      "payable": false,
      "stateMutability": "view",
      "type": "function"
    },
    {
      "constant": true,
      "inputs": [],
      "name": "isOwner",
      "outputs": [
        {
          "name": "",
          "type": "bool"
        }
      ],
      "payable": false,
      "stateMutability": "view",
      "type": "function"
    },
    {
      "constant": true,
      "inputs": [],
      "name": "protocolPercentage",
      "outputs": [
        {
          "name": "",
          "type": "uint8"
        }
      ],
      "payable": false,
      "stateMutability": "view",
      "type": "function"
    },
    {
      "constant": true,
      "inputs": [],
      "name": "totalBalance",
      "outputs": [
        {
          "name": "",
          "type": "uint256"
        }
      ],
      "payable": false,
      "stateMutability": "view",
      "type": "function"
    },
    {
      "constant": false,
      "inputs": [
        {
          "name": "newOwner",
          "type": "address"
        }
      ],
      "name": "transferOwnership",
      "outputs": [],
      "payable": false,
      "stateMutability": "nonpayable",
      "type": "function"
    },
    {
      "constant": true,
      "inputs": [],
      "name": "totalEscrowed",
      "outputs": [
        {
          "name": "",
          "type": "uint256"
        }
      ],
      "payable": false,
      "stateMutability": "view",
      "type": "function"
    },
    {
      "inputs": [
        {
          "name": "token",
          "type": "address"
        }
      ],
      "payable": false,
      "stateMutability": "nonpayable",
      "type": "constructor"
    },
    {
      "anonymous": false,
      "inputs": [
        {
          "indexed": true,
          "name": "from",
          "type": "address"
        },
        {
          "indexed": false,
          "name": "amount",
          "type": "uint256"
        }
      ],
      "name": "DepositDTX",
      "type": "event"
    },
    {
      "anonymous": false,
      "inputs": [
        {
          "indexed": true,
          "name": "to",
          "type": "address"
        },
        {
          "indexed": false,
          "name": "amount",
          "type": "uint256"
        }
      ],
      "name": "WithdrawDTX",
      "type": "event"
    },
    {
      "anonymous": false,
      "inputs": [
        {
          "indexed": true,
          "name": "from",
          "type": "address"
        },
        {
          "indexed": true,
          "name": "to",
          "type": "address"
        },
        {
          "indexed": false,
          "name": "value",
          "type": "uint256"
        }
      ],
      "name": "TransferDTX",
      "type": "event"
    },
    {
      "anonymous": false,
      "inputs": [
        {
          "indexed": false,
          "name": "dealIndex",
          "type": "uint256"
        },
        {
          "indexed": false,
          "name": "did",
          "type": "string"
        },
        {
          "indexed": false,
          "name": "owner",
          "type": "address"
        },
        {
          "indexed": false,
          "name": "publisher",
          "type": "address"
        },
        {
          "indexed": false,
          "name": "user",
          "type": "address"
        },
        {
          "indexed": false,
          "name": "marketplace",
          "type": "address"
        },
        {
          "indexed": false,
          "name": "amount",
          "type": "uint256"
        },
        {
          "indexed": false,
          "name": "validFrom",
          "type": "uint256"
        },
        {
          "indexed": false,
          "name": "validUntil",
          "type": "uint256"
        }
      ],
      "name": "NewDeal",
      "type": "event"
    },
    {
      "anonymous": false,
      "inputs": [
        {
          "indexed": true,
          "name": "previousOwner",
          "type": "address"
        },
        {
          "indexed": true,
          "name": "newOwner",
          "type": "address"
        }
      ],
      "name": "OwnershipTransferred",
      "type": "event"
    },
    {
      "constant": false,
      "inputs": [
        {
          "name": "_protocolPercentage",
          "type": "uint8"
        }
      ],
      "name": "changeProtocolPercentage",
      "outputs": [],
      "payable": false,
      "stateMutability": "nonpayable",
      "type": "function"
    },
    {
      "constant": false,
      "inputs": [
        {
          "name": "token",
          "type": "address"
        }
      ],
      "name": "changeDTXToken",
      "outputs": [],
      "payable": false,
      "stateMutability": "nonpayable",
      "type": "function"
    },
    {
      "constant": true,
      "inputs": [],
      "name": "platformBalance",
      "outputs": [
        {
          "name": "",
          "type": "uint256"
        }
      ],
      "payable": false,
      "stateMutability": "view",
      "type": "function"
    },
    {
      "constant": true,
      "inputs": [
        {
          "name": "owner",
          "type": "address"
        }
      ],
      "name": "balanceOf",
      "outputs": [
        {
          "name": "balance",
          "type": "uint256"
        },
        {
          "name": "escrowOutgoing",
          "type": "uint256"
        },
        {
          "name": "escrowIncoming",
          "type": "uint256"
        },
        {
          "name": "available",
          "type": "uint256"
        }
      ],
      "payable": false,
      "stateMutability": "view",
      "type": "function"
    },
    {
      "constant": false,
      "inputs": [
        {
          "name": "to",
          "type": "address"
        },
        {
          "name": "amount",
          "type": "uint256"
        }
      ],
      "name": "convertFiatToToken",
      "outputs": [],
      "payable": false,
      "stateMutability": "nonpayable",
      "type": "function"
    },
    {
      "constant": false,
      "inputs": [
        {
          "name": "amount",
          "type": "uint256"
        }
      ],
      "name": "deposit",
      "outputs": [],
      "payable": false,
      "stateMutability": "nonpayable",
      "type": "function"
    },
    {
      "constant": false,
      "inputs": [],
      "name": "withdraw",
      "outputs": [],
      "payable": false,
      "stateMutability": "nonpayable",
      "type": "function"
    },
    {
      "constant": true,
      "inputs": [],
      "name": "allDeals",
      "outputs": [
        {
          "components": [
            {
              "name": "did",
              "type": "string"
            },
            {
              "name": "owner",
              "type": "address"
            },
            {
              "name": "ownerPercentage",
              "type": "uint8"
            },
            {
              "name": "publisher",
              "type": "address"
            },
            {
              "name": "publisherPercentage",
              "type": "uint8"
            },
            {
              "name": "user",
              "type": "address"
            },
            {
              "name": "marketplace",
              "type": "address"
            },
            {
              "name": "marketplacePercentage",
              "type": "uint8"
            },
            {
              "name": "amount",
              "type": "uint256"
            },
            {
              "name": "validFrom",
              "type": "uint256"
            },
            {
              "name": "validUntil",
              "type": "uint256"
            }
          ],
          "name": "",
          "type": "tuple[]"
        }
      ],
      "payable": false,
      "stateMutability": "view",
      "type": "function"
    },
    {
      "constant": true,
      "inputs": [
        {
          "name": "index",
          "type": "uint256"
        }
      ],
      "name": "deal",
      "outputs": [
        {
          "components": [
            {
              "name": "did",
              "type": "string"
            },
            {
              "name": "owner",
              "type": "address"
            },
            {
              "name": "ownerPercentage",
              "type": "uint8"
            },
            {
              "name": "publisher",
              "type": "address"
            },
            {
              "name": "publisherPercentage",
              "type": "uint8"
            },
            {
              "name": "user",
              "type": "address"
            },
            {
              "name": "marketplace",
              "type": "address"
            },
            {
              "name": "marketplacePercentage",
              "type": "uint8"
            },
            {
              "name": "amount",
              "type": "uint256"
            },
            {
              "name": "validFrom",
              "type": "uint256"
            },
            {
              "name": "validUntil",
              "type": "uint256"
            }
          ],
          "name": "",
          "type": "tuple"
        }
      ],
      "payable": false,
      "stateMutability": "view",
      "type": "function"
    },
    {
      "constant": true,
      "inputs": [
        {
          "name": "did",
          "type": "string"
        }
      ],
      "name": "dealsForDID",
      "outputs": [
        {
          "components": [
            {
              "name": "did",
              "type": "string"
            },
            {
              "name": "owner",
              "type": "address"
            },
            {
              "name": "ownerPercentage",
              "type": "uint8"
            },
            {
              "name": "publisher",
              "type": "address"
            },
            {
              "name": "publisherPercentage",
              "type": "uint8"
            },
            {
              "name": "user",
              "type": "address"
            },
            {
              "name": "marketplace",
              "type": "address"
            },
            {
              "name": "marketplacePercentage",
              "type": "uint8"
            },
            {
              "name": "amount",
              "type": "uint256"
            },
            {
              "name": "validFrom",
              "type": "uint256"
            },
            {
              "name": "validUntil",
              "type": "uint256"
            }
          ],
          "name": "",
          "type": "tuple[]"
        }
      ],
      "payable": false,
      "stateMutability": "view",
      "type": "function"
    },
    {
      "constant": true,
      "inputs": [
        {
          "name": "user",
          "type": "address"
        }
      ],
      "name": "dealsForAddress",
      "outputs": [
        {
          "components": [
            {
              "name": "did",
              "type": "string"
            },
            {
              "name": "owner",
              "type": "address"
            },
            {
              "name": "ownerPercentage",
              "type": "uint8"
            },
            {
              "name": "publisher",
              "type": "address"
            },
            {
              "name": "publisherPercentage",
              "type": "uint8"
            },
            {
              "name": "user",
              "type": "address"
            },
            {
              "name": "marketplace",
              "type": "address"
            },
            {
              "name": "marketplacePercentage",
              "type": "uint8"
            },
            {
              "name": "amount",
              "type": "uint256"
            },
            {
              "name": "validFrom",
              "type": "uint256"
            },
            {
              "name": "validUntil",
              "type": "uint256"
            }
          ],
          "name": "",
          "type": "tuple[]"
        }
      ],
      "payable": false,
      "stateMutability": "view",
      "type": "function"
    },
    {
      "constant": true,
      "inputs": [
        {
          "name": "did",
          "type": "string"
        },
        {
          "name": "user",
          "type": "address"
        }
      ],
      "name": "hasAccessToDiD",
      "outputs": [
        {
          "name": "",
          "type": "bool"
        }
      ],
      "payable": false,
      "stateMutability": "view",
      "type": "function"
    },
    {
      "constant": false,
      "inputs": [
        {
          "name": "did",
          "type": "string"
        },
        {
          "name": "owner",
          "type": "address"
        },
        {
          "name": "ownerPercentage",
          "type": "uint8"
        },
        {
          "name": "publisher",
          "type": "address"
        },
        {
          "name": "publisherPercentage",
          "type": "uint8"
        },
        {
          "name": "user",
          "type": "address"
        },
        {
          "name": "marketplace",
          "type": "address"
        },
        {
          "name": "marketplacePercentage",
          "type": "uint8"
        },
        {
          "name": "amount",
          "type": "uint256"
        },
        {
          "name": "validFrom",
          "type": "uint256"
        },
        {
          "name": "validUntil",
          "type": "uint256"
        }
      ],
      "name": "createDeal",
      "outputs": [],
      "payable": false,
      "stateMutability": "nonpayable",
      "type": "function"
    },
    {
      "constant": false,
      "inputs": [
        {
          "name": "dealIndex",
          "type": "uint256"
        }
      ],
      "name": "payout",
      "outputs": [],
      "payable": false,
      "stateMutability": "nonpayable",
      "type": "function"
    }
  ],
  "bytecode": "0x60806040526001805460a060020a60ff021916740500000000000000000000000000000000000000001790553480156200003857600080fd5b50604051620032d2380380620032d28339810160408190526200005b91620000dd565b60008054600160a060020a0319163317808255604051600160a060020a039190911691907f8be0079c531659141344cd1fd0a4f28419497f9722a3daafe3b4186f6b6457e0908290a360018054600160a060020a031916600160a060020a039290921691909117905562000132565b8051620000d78162000118565b92915050565b600060208284031215620000f057600080fd5b6000620000fe8484620000ca565b949350505050565b6000600160a060020a038216620000d7565b620001238162000106565b81146200012f57600080fd5b50565b61319080620001426000396000f3fe608060405234801561001057600080fd5b50600436106101ab576000357c01000000000000000000000000000000000000000000000000000000009004806380c3abe0116100fb578063ad7a672f116100b4578063e11523431161008e578063e11523431461038b578063e2b4d7b21461039e578063f2fde38b146103b1578063f9168231146103c4576101ab565b8063ad7a672f14610350578063b6b55f2514610358578063c959c42b1461036b576101ab565b806380c3abe0146102e557806389635756146102f85780638da5cb5b1461030b5780638f32d59b146103205780639089bb4814610328578063a26b90f21461033b576101ab565b8063518f3f061161016857806370a082311161014257806370a082311461029f578063715018a6146102c25780637186320c146102ca578063743ebb7f146102d2576101ab565b8063518f3f061461024057806362a5dbbc14610260578063655d4ece14610275576101ab565b8063034c3092146101b057806317adfe02146101d957806327e235e3146101ee5780633ae19474146102105780633ccfd60b1461022357806341bd5fd21461022b575b600080fd5b6101c36101be36600461240c565b6103cc565b6040516101d09190612d76565b60405180910390f35b6101ec6101e736600461234c565b6104db565b005b6102016101fc36600461234c565b61053a565b6040516101d093929190612fca565b6101ec61021e366004612461565b61055a565b6101ec610a56565b610233610baf565b6040516101d09190612d84565b61025361024e36600461234c565b610bbe565b6040516101d09190612d65565b610268610d4e565b6040516101d09190612f2f565b610288610283366004612372565b610dee565b6040516101d09b9a99989796959493929190612da4565b6102b26102ad36600461234c565b610f00565b6040516101d09493929190612fe5565b6101ec610f44565b610253610fc2565b6102886102e0366004612566565b61113c565b6102886102f336600461259c565b611164565b6102536103063660046123ca565b6111df565b61031361137b565b6040516101d09190612d06565b6101c361138a565b6101ec610336366004612372565b61139b565b610343611461565b6040516101d09190613023565b610268611471565b6101ec61036636600461259c565b611477565b61037e61037936600461259c565b611667565b6040516101d09190612f1e565b6101ec61039936600461259c565b6117b3565b6101ec6103ac3660046125d8565b611c42565b6101ec6103bf36600461234c565b611c9a565b610268611ccd565b600080805b600160a060020a0384166000908152600760205260409020548110156104d0578585604051602001610404929190612d92565b60408051601f198184030181529181528151602092830120600160a060020a03871660009081526007909352912080548390811061043e57fe5b906000526020600020906008020160000160405160200161045f9190612e4d565b604051602081830303815290604052805190602001201480156104b85750600160a060020a03841660009081526007602052604090208054429190839081106104a457fe5b906000526020600020906008020160070154115b156104c8576001925050506104d4565b6001016103d1565b5090505b9392505050565b6104e361138a565b61050b5760405160e560020a62461bcd02815260040161050290612eee565b60405180910390fd5b6001805473ffffffffffffffffffffffffffffffffffffffff1916600160a060020a0392909216919091179055565b600260208190526000918252604090912080546001820154919092015483565b61056261138a565b6105815760405160e560020a62461bcd02815260040161050290612eee565b6105918a8a8a8a8a8a8a8a611cd3565b610599612184565b5060408051610160810182528c8152600160a060020a03808d1660208084019190915260ff808e16948401949094528b821660608401528a8416608084015289821660a084015290881660c083015291861660e08201526101008101859052610120810184905261014081018390526005805460018181018084556000938452845180519596949592949193879360089091027f036b6384b5eca791c62761152d0c79bb0604c104a5fb6f4eb0703f3154bb3db0019261065d9284929101906121e0565b50602082015160018201805460408086015173ffffffffffffffffffffffffffffffffffffffff19928316600160a060020a039586161774ff00000000000000000000000000000000000000001990811660a060020a60ff938416810291909117909555606088015160028801805460808b0151908716928916929092178316918416870291909117905560a0880151600388018054861691881691909117905560c088015160048801805460e08b01519616919097161716921690920217909155610100830151600583015561012083015160068084019190915561014090930151600790920191909155519290910392509061075c908f90612cfa565b90815260405160209181900382019020805460018101808355600092835291839020855180519394879460089094029092019261079c92849201906121e0565b506020828101516001808401805460408088015160ff90811660a060020a90810274ff000000000000000000000000000000000000000019600160a060020a0398891673ffffffffffffffffffffffffffffffffffffffff199687161781169190911790955560608a015160028a01805460808d015185168402928a1690871617871691909117905560a08a015160038a01805491891691861691909117905560c08a015160048a01805460e08d01519094169092029088169290941691909117909316919091179091556101008601516005860155610120860151600686015561014090950151600794850155908d166000908152928252928220805493840180825590835291819020865180519395508794600802909101926108c492849201906121e0565b5060208201518160010160006101000a815481600160a060020a030219169083600160a060020a0316021790555060408201518160010160146101000a81548160ff021916908360ff16021790555060608201518160020160006101000a815481600160a060020a030219169083600160a060020a0316021790555060808201518160020160146101000a81548160ff021916908360ff16021790555060a08201518160030160006101000a815481600160a060020a030219169083600160a060020a0316021790555060c08201518160040160006101000a815481600160a060020a030219169083600160a060020a0316021790555060e08201518160040160146101000a81548160ff021916908360ff1602179055506101008201518160050155610120820151816006015561014082015181600701555050507fc03dfb2e53cc7a9868a03b235858db6648c1e9f761c1756dd70d8c96f10fde95818e8e8d8c8c8b8b8b604051610a3f99989796959493929190612f3d565b60405180910390a150505050505050505050505050565b6000610a6133610f00565b33600090815260026020526040902054909450610a899350915083905063ffffffff611f2d16565b33600090815260026020526040902055600354610aac908263ffffffff611f2d16565b6003556001546040517fa9059cbb000000000000000000000000000000000000000000000000000000008152600160a060020a039091169063a9059cbb90610afa9033908590600401612d4a565b602060405180830381600087803b158015610b1457600080fd5b505af1158015610b28573d6000803e3d6000fd5b505050506040513d601f19601f82011682018060405250610b4c91908101906123ac565b610b6b5760405160e560020a62461bcd02815260040161050290612e9e565b33600160a060020a03167fc28ed4035491dd3fc975f4d0a41ab56de1a5402b03b6c69a5265b65d1c7906dc82604051610ba49190612f2f565b60405180910390a250565b600154600160a060020a031681565b600160a060020a0381166000908152600760209081526040808320805482518185028101850190935280835260609492939192909184015b82821015610d435760008481526020908190206040805160088602909201805460026001821615610100026000190190911604601f81018590049094028301610180908101909252610160830184815292939092849290918491840182828015610ca15780601f10610c7657610100808354040283529160200191610ca1565b820191906000526020600020905b815481529060010190602001808311610c8457829003601f168201915b5050509183525050600182810154600160a060020a0380821660208086019190915260ff60a060020a938490048116604087015260028701548084166060880152849004811660808701526003870154831660a0870152600487015492831660c08701529290910490911660e0840152600584015461010084015260068401546101208401526007909301546101409092019190915291835292019101610bf6565b505050509050919050565b6001546040517f70a08231000000000000000000000000000000000000000000000000000000008152600091600160a060020a0316906370a0823190610d98903090600401612d06565b60206040518083038186803b158015610db057600080fd5b505afa158015610dc4573d6000803e3d6000fd5b505050506040513d601f19601f82011682018060405250610de891908101906125ba565b90505b90565b60076020528160005260406000208181548110610e0757fe5b60009182526020918290206008919091020180546040805160026001841615610100026000190190931692909204601f810185900485028301850190915280825291945092508391830182828015610ea05780601f10610e7557610100808354040283529160200191610ea0565b820191906000526020600020905b815481529060010190602001808311610e8357829003601f168201915b5050506001840154600285015460038601546004870154600588015460068901546007909901549798600160a060020a038087169960ff60a060020a9889900481169a50878316995096889004871697958216969185169590940416928b565b600160a060020a038116600090815260026020819052604082208054600182015491909201549192909190610f3b848463ffffffff611f2d16565b90509193509193565b610f4c61138a565b610f6b5760405160e560020a62461bcd02815260040161050290612eee565b60008054604051600160a060020a03909116907f8be0079c531659141344cd1fd0a4f28419497f9722a3daafe3b4186f6b6457e0908390a36000805473ffffffffffffffffffffffffffffffffffffffff19169055565b60606005805480602002602001604051908101604052809291908181526020016000905b828210156111335760008481526020908190206040805160088602909201805460026001821615610100026000190190911604601f810185900490940283016101809081019092526101608301848152929390928492909184918401828280156110915780601f1061106657610100808354040283529160200191611091565b820191906000526020600020905b81548152906001019060200180831161107457829003601f168201915b5050509183525050600182810154600160a060020a0380821660208086019190915260ff60a060020a938490048116604087015260028701548084166060880152849004811660808701526003870154831660a0870152600487015492831660c08701529290910490911660e0840152600584015461010084015260068401546101208401526007909301546101409092019190915291835292019101610fe6565b50505050905090565b81516020818401810180516006825292820191850191909120919052805482908110610e0757fe5b6005818154811061117157fe5b60009182526020918290206008919091020180546040805160026001841615610100026000190190931692909204601f810185900485028301850190915280825291935091839190830182828015610ea05780601f10610e7557610100808354040283529160200191610ea0565b6060600683836040516111f3929190612ced565b9081526020016040518091039020805480602002602001604051908101604052809291908181526020016000905b8282101561136e5760008481526020908190206040805160088602909201805460026001821615610100026000190190911604601f810185900490940283016101809081019092526101608301848152929390928492909184918401828280156112cc5780601f106112a1576101008083540402835291602001916112cc565b820191906000526020600020905b8154815290600101906020018083116112af57829003601f168201915b5050509183525050600182810154600160a060020a0380821660208086019190915260ff60a060020a938490048116604087015260028701548084166060880152849004811660808701526003870154831660a0870152600487015492831660c08701529290910490911660e0840152600584015461010084015260068401546101208401526007909301546101409092019190915291835292019101611221565b5050505090505b92915050565b600054600160a060020a031690565b600054600160a060020a0316331490565b6113a361138a565b6113c25760405160e560020a62461bcd02815260040161050290612eee565b600160a060020a0382166000908152600260205260409020546113eb908263ffffffff611f5816565b600160a060020a038316600090815260026020526040902055600354611417908263ffffffff611f5816565b600355604051600160a060020a038316907f4b19cef4d67ff9acd5ce891a32f323842b26f39c024bdd00047e1b74be2aea8f90611455908490612f2f565b60405180910390a25050565b60015460a060020a900460ff1681565b60035481565b6001546040517f70a082310000000000000000000000000000000000000000000000000000000081528291600160a060020a0316906370a08231906114c0903390600401612d14565b60206040518083038186803b1580156114d857600080fd5b505afa1580156114ec573d6000803e3d6000fd5b505050506040513d601f19601f8201168201806040525061151091908101906125ba565b10156115315760405160e560020a62461bcd02815260040161050290612ece565b6001546040517f23b872dd000000000000000000000000000000000000000000000000000000008152600160a060020a03909116906323b872dd9061157e90339030908690600401612d22565b602060405180830381600087803b15801561159857600080fd5b505af11580156115ac573d6000803e3d6000fd5b505050506040513d601f19601f820116820180604052506115d091908101906123ac565b6115ef5760405160e560020a62461bcd02815260040161050290612e5e565b3360009081526002602052604090205461160f908263ffffffff611f5816565b33600090815260026020526040902055600354611632908263ffffffff611f5816565b60035560405133907f4b19cef4d67ff9acd5ce891a32f323842b26f39c024bdd00047e1b74be2aea8f90610ba4908490612f2f565b61166f612184565b6005828154811061167c57fe5b600091825260209182902060408051600893909302909101805460026001821615610100026000190190911604601f810185900490940283016101809081019092526101608301848152929390928492909184918401828280156117215780601f106116f657610100808354040283529160200191611721565b820191906000526020600020905b81548152906001019060200180831161170457829003601f168201915b50505091835250506001820154600160a060020a03808216602084015260ff60a060020a928390048116604085015260028501548083166060860152839004811660808501526003850154821660a0850152600485015491821660c08501529190041660e082015260058201546101008201526006820154610120820152600790910154610140909101529050919050565b6117bb612184565b600582815481106117c857fe5b600091825260209182902060408051600893909302909101805460026001821615610100026000190190911604601f8101859004909402830161018090810190925261016083018481529293909284929091849184018282801561186d5780601f106118425761010080835404028352916020019161186d565b820191906000526020600020905b81548152906001019060200180831161185057829003601f168201915b50505091835250506001820154600160a060020a03808216602084015260ff60a060020a928390048116604085015260028501548083166060860152839004811660808501526003850154821660a0850152600485015491821660c08501529190041660e082015260058201546101008201526006820154610120808301919091526007909201546101409091015281015190915062127500014210156119295760405160e560020a62461bcd02815260040161050290612e8e565b61010081015160a0820151600160a060020a031660009081526002602052604090206001015461195e9163ffffffff611f2d16565b60a0820151600160a060020a031660009081526002602052604090819020600101919091558101516101008201516119e2916119b6916064916119aa919060ff1663ffffffff611f8016565b9063ffffffff611fbd16565b602080840151600160a060020a031660009081526002918290526040902001549063ffffffff611f2d16565b602080830151600160a060020a031660009081526002918290526040902001556080810151610100820151611a5891611a2b916064916119aa919060ff1663ffffffff611f8016565b6060830151600160a060020a0316600090815260026020819052604090912001549063ffffffff611f2d16565b6060820151600160a060020a03166000908152600260208190526040909120015560e0810151610100820151611acf91611aa2916064916119aa919060ff1663ffffffff611f8016565b60c0830151600160a060020a0316600090815260026020819052604090912001549063ffffffff611f5816565b600260008360c00151600160a060020a0316600160a060020a0316815260200190815260200160002060020181905550611b358160a001518260200151611b3060646119aa866040015160ff16876101000151611f8090919063ffffffff16565b611ff5565b611b668160a001518260600151611b3060646119aa866080015160ff16876101000151611f8090919063ffffffff16565b611b978160a001518260c00151611b3060646119aa8660e0015160ff16876101000151611f8090919063ffffffff16565b6000611c2c611c1a611bc360646119aa8660e0015160ff16876101000151611f8090919063ffffffff16565b611c0e611bea60646119aa886080015160ff16896101000151611f8090919063ffffffff16565b611c0e60646119aa896040015160ff168a6101000151611f8090919063ffffffff16565b9063ffffffff611f5816565b6101008401519063ffffffff611f2d16565b9050611c3d8260a001513083611ff5565b505050565b611c4a61138a565b611c695760405160e560020a62461bcd02815260040161050290612eee565b6001805460ff90921660a060020a0274ff000000000000000000000000000000000000000019909216919091179055565b611ca261138a565b611cc15760405160e560020a62461bcd02815260040161050290612eee565b611cca816120f3565b50565b60045481565b60015460a060020a900460ff90811686890184010116606414611d0b5760405160e560020a62461bcd02815260040161050290612efe565b600160a060020a038416600090815260026020526040902060010154611d37908263ffffffff611f5816565b600160a060020a038516600090815260026020526040902060010155600454611d66908263ffffffff611f5816565b6004556000611d7c82606463ffffffff611fbd16565b9050611dbd611d948260ff8b1663ffffffff611f8016565b600160a060020a038b16600090815260026020819052604090912001549063ffffffff611f5816565b600160a060020a038a1660009081526002602081905260409091200155611e19611df08260ff891663ffffffff611f8016565b600160a060020a038916600090815260026020819052604090912001549063ffffffff611f5816565b600160a060020a03881660009081526002602081905260409091200155611e75611e4c8260ff861663ffffffff611f8016565b600160a060020a038616600090815260026020819052604090912001549063ffffffff611f5816565b600160a060020a038516600090815260026020819052604082200191909155611ee6611ed9611ead8460ff881663ffffffff611f8016565b611c0e611ec38660ff8d1663ffffffff611f8016565b611c0e8e60ff1688611f8090919063ffffffff16565b849063ffffffff611f2d16565b3060009081526002602081905260409091200154909150611f0d908263ffffffff611f5816565b306000908152600260208190526040909120015550505050505050505050565b600082821115611f525760405160e560020a62461bcd02815260040161050290612eae565b50900390565b6000828201838110156104d45760405160e560020a62461bcd02815260040161050290612e7e565b600082611f8f57506000611375565b82820282848281611f9c57fe5b04146104d45760405160e560020a62461bcd02815260040161050290612ede565b6000808211611fe15760405160e560020a62461bcd02815260040161050290612ebe565b6000828481611fec57fe5b04949350505050565b600061200084610f00565b600160a060020a0388166000908152600260205260409020549094506120319350915084905063ffffffff611f2d16565b600160a060020a038086166000908152600260205260408082209390935590851681522054612066908363ffffffff611f5816565b600160a060020a038416600090815260026020526040902055808211156120a25760405160e560020a62461bcd02815260040161050290612f0e565b82600160a060020a031684600160a060020a03167f53129ad8bfbcb17159505d8d2b4fd53b6df72ef4a1651fa36883270be476cc44846040516120e59190612f2f565b60405180910390a350505050565b600160a060020a03811661211c5760405160e560020a62461bcd02815260040161050290612e6e565b60008054604051600160a060020a03808516939216917f8be0079c531659141344cd1fd0a4f28419497f9722a3daafe3b4186f6b6457e091a36000805473ffffffffffffffffffffffffffffffffffffffff1916600160a060020a0392909216919091179055565b6040805161016081018252606080825260006020830181905292820183905281018290526080810182905260a0810182905260c0810182905260e081018290526101008101829052610120810182905261014081019190915290565b828054600181600116156101000203166002900490600052602060002090601f016020900481019282601f1061222157805160ff191683800117855561224e565b8280016001018555821561224e579182015b8281111561224e578251825591602001919060010190612233565b5061225a92915061225e565b5090565b610deb91905b8082111561225a5760008155600101612264565b80356113758161311e565b805161137581613132565b60008083601f8401126122a057600080fd5b50813567ffffffffffffffff8111156122b857600080fd5b6020830191508360018202830111156122d057600080fd5b9250929050565b600082601f8301126122e857600080fd5b81356122fb6122f682613058565b613031565b9150808252602083016020830185838301111561231757600080fd5b6123228382846130d8565b50505092915050565b80356113758161313b565b80516113758161313b565b803561137581613144565b60006020828403121561235e57600080fd5b600061236a8484612278565b949350505050565b6000806040838503121561238557600080fd5b60006123918585612278565b92505060206123a28582860161232b565b9150509250929050565b6000602082840312156123be57600080fd5b600061236a8484612283565b600080602083850312156123dd57600080fd5b823567ffffffffffffffff8111156123f457600080fd5b6124008582860161228e565b92509250509250929050565b60008060006040848603121561242157600080fd5b833567ffffffffffffffff81111561243857600080fd5b6124448682870161228e565b9350935050602061245786828701612278565b9150509250925092565b60008060008060008060008060008060006101608c8e03121561248357600080fd5b8b3567ffffffffffffffff81111561249a57600080fd5b6124a68e828f016122d7565b9b505060206124b78e828f01612278565b9a505060406124c88e828f01612341565b99505060606124d98e828f01612278565b98505060806124ea8e828f01612341565b97505060a06124fb8e828f01612278565b96505060c061250c8e828f01612278565b95505060e061251d8e828f01612341565b94505061010061252f8e828f0161232b565b9350506101206125418e828f0161232b565b9250506101406125538e828f0161232b565b9150509295989b509295989b9093969950565b6000806040838503121561257957600080fd5b823567ffffffffffffffff81111561259057600080fd5b612391858286016122d7565b6000602082840312156125ae57600080fd5b600061236a848461232b565b6000602082840312156125cc57600080fd5b600061236a8484612336565b6000602082840312156125ea57600080fd5b600061236a8484612341565b60006104d48383612bf4565b61260b816130c6565b82525050565b61260b816130a4565b600061262582613092565b61262f8185613096565b93508360208202850161264185613080565b8060005b8581101561267b578484038952815161265e85826125f6565b945061266983613080565b60209a909a0199925050600101612645565b5091979650505050505050565b61260b816130af565b61260b816130cd565b60006126a68385613096565b93506126b38385846130d8565b6126bc83613114565b9093019392505050565b60006126d2838561309f565b93506126df8385846130d8565b50500190565b60006126f082613092565b6126fa8185613096565b935061270a8185602086016130e4565b6126bc81613114565b600061271e82613092565b612728818561309f565b93506127388185602086016130e4565b9290920192915050565b60008154600181166000811461275f5760018114612785576127c4565b607f60028304166127708187613096565b60ff19841681529550506020850192506127c4565b600282046127938187613096565b955061279e85613086565b60005b828110156127bd578154888201526001909101906020016127a1565b8701945050505b505092915050565b60006127d9603283613096565b7f445458207472616e73666572206661696c65642c2070726f6261626c7920746f81527f6f206c6974746c6520616c6c6f77616e63650000000000000000000000000000602082015260400192915050565b6000612838602683613096565b7f4f776e61626c653a206e6577206f776e657220697320746865207a65726f206181527f6464726573730000000000000000000000000000000000000000000000000000602082015260400192915050565b6000612897601b83613096565b7f536166654d6174683a206164646974696f6e206f766572666c6f770000000000815260200192915050565b60006128d0604783613096565b7f5061796f7574732063616e206f6e6c792068617070656e20313420646179732081527f616674657220746865207374617274206f6620746865206465616c202876616c60208201527f696446726f6d2900000000000000000000000000000000000000000000000000604082015260600192915050565b6000612955604383613096565b7f4e6f7420656e6f7567682044545820746f6b656e7320617661696c61626c652081527f746f2077697468647261772c20636f6e74616374204461746142726f6b65724460208201527f414f210000000000000000000000000000000000000000000000000000000000604082015260600192915050565b60006129da601e83613096565b7f536166654d6174683a207375627472616374696f6e206f766572666c6f770000815260200192915050565b6000612a13601a83613096565b7f536166654d6174683a206469766973696f6e206279207a65726f000000000000815260200192915050565b6000612a4c603783613096565b7f53656e6465722068617320746f6f206c6974746c652044545820746f206d616b81527f652074686973207472616e73616374696f6e20776f726b000000000000000000602082015260400192915050565b6000612aab602183613096565b7f536166654d6174683a206d756c7469706c69636174696f6e206f766572666c6f81527f7700000000000000000000000000000000000000000000000000000000000000602082015260400192915050565b6000612b0a602083613096565b7f4f776e61626c653a2063616c6c6572206973206e6f7420746865206f776e6572815260200192915050565b6000612b43602d83613096565b7f416c6c2070657263656e7461676573206e65656420746f20616464207570207481527f6f2065786163746c792031303000000000000000000000000000000000000000602082015260400192915050565b6000612ba2603183613096565b7f4e6f7420656e6f75676820617661696c616c62652044545820746f206578656381527f7574652074686973207472616e73666572000000000000000000000000000000602082015260400192915050565b805161016080845260009190840190612c0d82826126e5565b9150506020830151612c226020860182612611565b506040830151612c356040860182612ce4565b506060830151612c486060860182612611565b506080830151612c5b6080860182612ce4565b5060a0830151612c6e60a0860182612611565b5060c0830151612c8160c0860182612611565b5060e0830151612c9460e0860182612ce4565b50610100830151612ca9610100860182612cdb565b50610120830151612cbe610120860182612cdb565b50610140830151612cd3610140860182612cdb565b509392505050565b61260b81610deb565b61260b816130c0565b600061236a8284866126c6565b60006104d48284612713565b602081016113758284612611565b602081016113758284612602565b60608101612d308286612602565b612d3d6020830185612611565b61236a6040830184612cdb565b60408101612d588285612602565b6104d46020830184612cdb565b602080825281016104d4818461261a565b602081016113758284612688565b602081016113758284612691565b6020808252810161236a81848661269a565b6101608082528101612db6818e6126e5565b9050612dc5602083018d612611565b612dd2604083018c612ce4565b612ddf606083018b612611565b612dec608083018a612ce4565b612df960a0830189612611565b612e0660c0830188612611565b612e1360e0830187612ce4565b612e21610100830186612cdb565b612e2f610120830185612cdb565b612e3d610140830184612cdb565b9c9b505050505050505050505050565b602080825281016104d48184612742565b60208082528101611375816127cc565b602080825281016113758161282b565b602080825281016113758161288a565b60208082528101611375816128c3565b6020808252810161137581612948565b60208082528101611375816129cd565b6020808252810161137581612a06565b6020808252810161137581612a3f565b6020808252810161137581612a9e565b6020808252810161137581612afd565b6020808252810161137581612b36565b6020808252810161137581612b95565b602080825281016104d48184612bf4565b602081016113758284612cdb565b6101208101612f4c828c612cdb565b8181036020830152612f5e818b6126e5565b9050612f6d604083018a612611565b612f7a6060830189612611565b612f876080830188612611565b612f9460a0830187612611565b612fa160c0830186612cdb565b612fae60e0830185612cdb565b612fbc610100830184612cdb565b9a9950505050505050505050565b60608101612fd88286612cdb565b612d3d6020830185612cdb565b60808101612ff38287612cdb565b6130006020830186612cdb565b61300d6040830185612cdb565b61301a6060830184612cdb565b95945050505050565b602081016113758284612ce4565b60405181810167ffffffffffffffff8111828210171561305057600080fd5b604052919050565b600067ffffffffffffffff82111561306f57600080fd5b506020601f91909101601f19160190565b60200190565b60009081526020902090565b5190565b90815260200190565b919050565b6000611375826130b4565b151590565b600160a060020a031690565b60ff1690565b6000611375825b6000611375826130a4565b82818337506000910152565b60005b838110156130ff5781810151838201526020016130e7565b8381111561310e576000848401525b50505050565b601f01601f191690565b613127816130a4565b8114611cca57600080fd5b613127816130af565b61312781610deb565b613127816130c056fea365627a7a723058206dd35ce14cb0be70849be3d9f4e9d4bc74a71d8a271ad7517f6e0e2097b952d86c6578706572696d656e74616cf564736f6c634300050a0040",
  "source": "pragma solidity ^0.5.0;\npragma experimental ABIEncoderV2;\n\nimport \"../node_modules/openzeppelin-solidity/contracts/ownership/Ownable.sol\";\nimport \"../node_modules/openzeppelin-solidity/contracts/math/SafeMath.sol\";\nimport \"../node_modules/openzeppelin-solidity/contracts/token/ERC20/ERC20.sol\";\nimport \"../node_modules/openzeppelin-solidity/contracts/token/ERC20/SafeERC20.sol\";\n\ncontract DXC is Ownable {\n\n  using SafeMath for uint256;\n  using SafeMath for uint8;\n  using SafeERC20 for ERC20;\n\n  ERC20 public dtxToken;\n  uint8 public protocolPercentage = 5;\n\n  constructor(address token) public {\n    dtxToken = ERC20(token);\n  }\n\n  ///////////////////////////////////////////////////////////////////////////////////////\n  //// Mofifiers for default settings                                                ////\n  ///////////////////////////////////////////////////////////////////////////////////////\n\n  function changeProtocolPercentage(uint8 _protocolPercentage) public onlyOwner {\n    protocolPercentage = _protocolPercentage;\n  }\n\n  function changeDTXToken(address token) public onlyOwner {\n    dtxToken = ERC20(token);\n  }\n\n  ///////////////////////////////////////////////////////////////////////////////////////\n  //// DTX Bank                                                                      ////\n  ///////////////////////////////////////////////////////////////////////////////////////\n\n  struct TokenAvailabiltity {\n    uint256 balance;\n    uint256 escrowOutgoing;\n    uint256 escrowIncoming;\n  }\n\n  struct Escrow {\n    uint256 amount;\n    uint256 releaseAfter;\n    address to;\n    address from;\n  }\n\n  mapping(address => TokenAvailabiltity) public balances;\n  uint256 public totalBalance;\n  uint256 public totalEscrowed;\n\n  event DepositDTX(address indexed from, uint256 amount);\n  event WithdrawDTX(address indexed to, uint256 amount);\n  event TransferDTX(address indexed from, address indexed to, uint256 value);\n\n  function platformBalance() public view returns (uint256) {\n    return dtxToken.balanceOf(address(this));\n  }\n\n  function balanceOf(address owner) public view returns (uint256 balance, uint256 escrowOutgoing, uint256 escrowIncoming, uint256 available) {\n    balance = balances[owner].balance;\n    escrowOutgoing = balances[owner].escrowOutgoing;\n    escrowIncoming = balances[owner].escrowIncoming;\n    available = balances[owner].balance.sub(balances[owner].escrowOutgoing);\n  }\n\n  function convertFiatToToken(address to, uint256 amount) public onlyOwner {\n    balances[to].balance = balances[to].balance.add(amount);\n    totalBalance = totalBalance.add(amount);\n    emit DepositDTX(to, amount);\n  }\n\n  function deposit(uint256 amount) public {\n    require(dtxToken.balanceOf(msg.sender) >= amount, \"Sender has too little DTX to make this transaction work\");\n    require(dtxToken.transferFrom(msg.sender, address(this), amount), \"DTX transfer failed, probably too little allowance\");\n    balances[msg.sender].balance = balances[msg.sender].balance.add(amount);\n    totalBalance = totalBalance.add(amount);\n    emit DepositDTX(msg.sender, amount);\n  }\n\n  function withdraw() public {\n    (,,, uint256 available) = balanceOf(msg.sender);\n    balances[msg.sender].balance = balances[msg.sender].balance.sub(available);\n    totalBalance = totalBalance.sub(available);\n    require(dtxToken.transfer(msg.sender, available), \"Not enough DTX tokens available to withdraw, contact DataBrokerDAO!\");\n    emit WithdrawDTX(msg.sender, available);\n  }\n\n  /**\n   * address(0) is the address we use for escrowed funds, they are tracked in escrowedDTX\n   */\n  function transfer(address from, address to, uint256 amount) internal {\n    (,,, uint256 available) = balanceOf(from);\n    balances[from].balance = balances[from].balance.sub(amount);\n    balances[to].balance = balances[to].balance.add(amount);\n    require(amount <= available, \"Not enough availalbe DTX to execute this transfer\");\n    emit TransferDTX(from, to, amount);\n  }\n\n  function escrow(\n    address owner,\n    uint8 ownerPercentage,\n    address publisher,\n    uint8 publisherPercentage,\n    address user,\n    address marketplace,\n    uint8 marketplacePercentage,\n    uint256 amount) internal\n  {\n    require(ownerPercentage+publisherPercentage+marketplacePercentage+protocolPercentage == 100, \"All percentages need to add up to exactly 100\");\n    balances[user].escrowOutgoing = balances[user].escrowOutgoing.add(amount);\n    totalEscrowed = totalEscrowed.add(amount);\n    uint256 basePoint = amount.div(100);\n    balances[owner].escrowIncoming = balances[owner].escrowIncoming.add(basePoint.mul(ownerPercentage));\n    balances[publisher].escrowIncoming = balances[publisher].escrowIncoming.add(basePoint.mul(publisherPercentage));\n    balances[marketplace].escrowIncoming = balances[marketplace].escrowIncoming.add(basePoint.mul(marketplacePercentage));\n    uint256 protocolAmount = amount.sub((basePoint.mul(ownerPercentage)).add(basePoint.mul(publisherPercentage)).add(basePoint.mul(marketplacePercentage)));\n    balances[address(this)].escrowIncoming = balances[address(this)].escrowIncoming.add(protocolAmount);\n  }\n\n  ///////////////////////////////////////////////////////////////////////////////////////\n  //// Deals                                                                         ////\n  ///////////////////////////////////////////////////////////////////////////////////////\n\n  struct Deal {\n    string did; // the did of the data share in question\n    address owner;\n    uint8 ownerPercentage;\n    address publisher;\n    uint8 publisherPercentage;\n    address user;\n    address marketplace;\n    uint8 marketplacePercentage;\n    uint256 amount;\n    uint256 validFrom; // 0 means forever, all others are a timestamp\n    uint256 validUntil; // 0 means forever, all others are a timestamp\n  }\n\n  Deal[] public dealsList;\n\n  mapping(string => Deal[]) public didToDeals;\n  mapping(address => Deal[]) public userToDeals;\n\n  event NewDeal(\n    uint256 dealIndex,\n    string did,\n    address owner,\n    address publisher,\n    address user,\n    address marketplace,\n    uint256 amount,\n    uint256 validFrom,\n    uint256 validUntil\n  );\n\n  function allDeals() external view returns (Deal[] memory) {\n    return dealsList;\n  }\n\n  function deal(uint256 index) external view returns (Deal memory){\n    return dealsList[index];\n  }\n\n  function dealsForDID(string calldata did) external view returns (Deal[] memory){\n    return didToDeals[did];\n  }\n\n  function dealsForAddress(address user) external view returns (Deal[] memory){\n    return userToDeals[user];\n  }\n\n  function hasAccessToDiD(string calldata did, address user) external view returns (bool){\n    bool accessToDid = false;\n    for (uint256 i = 0; i < userToDeals[user].length; i++){\n      if (keccak256(abi.encode(userToDeals[user][i].did)) == keccak256(abi.encode(did)) && userToDeals[user][i].validUntil > now){\n        return true;\n      }\n    }\n    return accessToDid;\n  }\n\n  function createDeal(\n    string memory did,\n    address owner,\n    uint8 ownerPercentage,\n    address publisher,\n    uint8 publisherPercentage,\n    address user,\n    address marketplace,\n    uint8 marketplacePercentage,\n    uint256 amount,\n    uint256 validFrom,\n    uint256 validUntil\n  ) public onlyOwner {\n    escrow(\n      owner,\n      ownerPercentage,\n      publisher,\n      publisherPercentage,\n      user,\n      marketplace,\n      marketplacePercentage,\n      amount\n    );\n    Deal memory newDeal = Deal(\n      did,\n      owner,\n      ownerPercentage,\n      publisher,\n      publisherPercentage,\n      user,\n      marketplace,\n      marketplacePercentage,\n      amount,\n      validFrom,\n      validUntil\n    );\n    uint256 dealIndex = dealsList.push(newDeal) - 1;\n    didToDeals[did].push(newDeal);\n    userToDeals[user].push(newDeal);\n    emit NewDeal(\n      dealIndex,\n      did,\n      owner,\n      publisher,\n      user,\n      marketplace,\n      amount,\n      validFrom,\n      validUntil\n    );\n  }\n\n  function payout(uint256 dealIndex) public {\n    Deal memory _deal = dealsList[dealIndex];\n    require(now >= _deal.validFrom + 14 days, \"Payouts can only happen 14 days after the start of the deal (validFrom)\");\n    // release escrow\n    balances[_deal.user].escrowOutgoing = balances[_deal.user].escrowOutgoing.sub(_deal.amount);\n    balances[_deal.owner].escrowIncoming = balances[_deal.owner].escrowIncoming.sub(_deal.amount.mul(_deal.ownerPercentage).div(100));\n    balances[_deal.publisher].escrowIncoming = balances[_deal.publisher].escrowIncoming.sub(_deal.amount.mul(_deal.publisherPercentage).div(100));\n    balances[_deal.marketplace].escrowIncoming = balances[_deal.marketplace].escrowIncoming.add(_deal.amount.mul(_deal.marketplacePercentage).div(100));\n    // transfer DTX\n    transfer(_deal.user, _deal.owner, _deal.amount.mul(_deal.ownerPercentage).div(100));\n    transfer(_deal.user, _deal.publisher, _deal.amount.mul(_deal.publisherPercentage).div(100));\n    transfer(_deal.user, _deal.marketplace, _deal.amount.mul(_deal.marketplacePercentage).div(100));\n    uint256 protocolAmount = _deal.amount.sub((_deal.amount.mul(_deal.ownerPercentage).div(100)).add(_deal.amount.mul(_deal.publisherPercentage).div(100)).add(_deal.amount.mul(_deal.marketplacePercentage).div(100)));\n    transfer(_deal.user, address(this), protocolAmount);\n  }\n\n}\n",
  "sourcePath": "/Users/roderik/Development/dxc/contracts/contracts/DXC.sol",
  "compiler": {
    "name": "solc",
    "version": "0.5.10+commit.5a6ea5b1.Emscripten.clang"
  },
  "schemaVersion": "3.0.11",
  "updatedAt": "2019-08-05T12:27:03.824Z",
  "devdoc": {
    "methods": {
      "isOwner()": {
        "details": "Returns true if the caller is the current owner."
      },
      "owner()": {
        "details": "Returns the address of the current owner."
      },
      "renounceOwnership()": {
        "details": "Leaves the contract without owner. It will not be possible to call `onlyOwner` functions anymore. Can only be called by the current owner.     * > Note: Renouncing ownership will leave the contract without an owner, thereby removing any functionality that is only available to the owner."
      },
      "transferOwnership(address)": {
        "details": "Transfers ownership of the contract to a new account (`newOwner`). Can only be called by the current owner."
      }
    }
  },
  "userdoc": {
    "methods": {
      "changeProtocolPercentage(uint8)": {
        "notice": "//////////////////////////////////////////////////////////////////////////////////// / Mofifiers for default settings                                                //// ////////////////////////////////////////////////////////////////////////////////////"
      }
    }
  }
}