{
  "contractName": "DXC",
  "abi": [
    {
      "constant": true,
      "inputs": [
        {
          "name": "",
          "type": "address"
        }
      ],
      "name": "balances",
      "outputs": [
        {
          "name": "balance",
          "type": "uint256"
        },
        {
          "name": "escrowOutgoing",
          "type": "uint256"
        },
        {
          "name": "escrowIncoming",
          "type": "uint256"
        }
      ],
      "payable": false,
      "stateMutability": "view",
      "type": "function"
    },
    {
      "constant": true,
      "inputs": [],
      "name": "dtxToken",
      "outputs": [
        {
          "name": "",
          "type": "address"
        }
      ],
      "payable": false,
      "stateMutability": "view",
      "type": "function"
    },
    {
      "constant": true,
      "inputs": [
        {
          "name": "",
          "type": "address"
        },
        {
          "name": "",
          "type": "uint256"
        }
      ],
      "name": "userToDeals",
      "outputs": [
        {
          "name": "did",
          "type": "string"
        },
        {
          "name": "owner",
          "type": "address"
        },
        {
          "name": "ownerPercentage",
          "type": "uint8"
        },
        {
          "name": "publisher",
          "type": "address"
        },
        {
          "name": "publisherPercentage",
          "type": "uint8"
        },
        {
          "name": "user",
          "type": "address"
        },
        {
          "name": "marketplace",
          "type": "address"
        },
        {
          "name": "marketplacePercentage",
          "type": "uint8"
        },
        {
          "name": "amount",
          "type": "uint256"
        },
        {
          "name": "validFrom",
          "type": "uint256"
        },
        {
          "name": "validUntil",
          "type": "uint256"
        }
      ],
      "payable": false,
      "stateMutability": "view",
      "type": "function"
    },
    {
      "constant": false,
      "inputs": [],
      "name": "renounceOwnership",
      "outputs": [],
      "payable": false,
      "stateMutability": "nonpayable",
      "type": "function"
    },
    {
      "constant": true,
      "inputs": [
        {
          "name": "",
          "type": "string"
        },
        {
          "name": "",
          "type": "uint256"
        }
      ],
      "name": "didToDeals",
      "outputs": [
        {
          "name": "did",
          "type": "string"
        },
        {
          "name": "owner",
          "type": "address"
        },
        {
          "name": "ownerPercentage",
          "type": "uint8"
        },
        {
          "name": "publisher",
          "type": "address"
        },
        {
          "name": "publisherPercentage",
          "type": "uint8"
        },
        {
          "name": "user",
          "type": "address"
        },
        {
          "name": "marketplace",
          "type": "address"
        },
        {
          "name": "marketplacePercentage",
          "type": "uint8"
        },
        {
          "name": "amount",
          "type": "uint256"
        },
        {
          "name": "validFrom",
          "type": "uint256"
        },
        {
          "name": "validUntil",
          "type": "uint256"
        }
      ],
      "payable": false,
      "stateMutability": "view",
      "type": "function"
    },
    {
      "constant": true,
      "inputs": [
        {
          "name": "",
          "type": "uint256"
        }
      ],
      "name": "dealsList",
      "outputs": [
        {
          "name": "did",
          "type": "string"
        },
        {
          "name": "owner",
          "type": "address"
        },
        {
          "name": "ownerPercentage",
          "type": "uint8"
        },
        {
          "name": "publisher",
          "type": "address"
        },
        {
          "name": "publisherPercentage",
          "type": "uint8"
        },
        {
          "name": "user",
          "type": "address"
        },
        {
          "name": "marketplace",
          "type": "address"
        },
        {
          "name": "marketplacePercentage",
          "type": "uint8"
        },
        {
          "name": "amount",
          "type": "uint256"
        },
        {
          "name": "validFrom",
          "type": "uint256"
        },
        {
          "name": "validUntil",
          "type": "uint256"
        }
      ],
      "payable": false,
      "stateMutability": "view",
      "type": "function"
    },
    {
      "constant": true,
      "inputs": [],
      "name": "owner",
      "outputs": [
        {
          "name": "",
          "type": "address"
        }
      ],
      "payable": false,
      "stateMutability": "view",
      "type": "function"
    },
    {
      "constant": true,
      "inputs": [],
      "name": "isOwner",
      "outputs": [
        {
          "name": "",
          "type": "bool"
        }
      ],
      "payable": false,
      "stateMutability": "view",
      "type": "function"
    },
    {
      "constant": true,
      "inputs": [],
      "name": "protocolPercentage",
      "outputs": [
        {
          "name": "",
          "type": "uint8"
        }
      ],
      "payable": false,
      "stateMutability": "view",
      "type": "function"
    },
    {
      "constant": true,
      "inputs": [],
      "name": "totalBalance",
      "outputs": [
        {
          "name": "",
          "type": "uint256"
        }
      ],
      "payable": false,
      "stateMutability": "view",
      "type": "function"
    },
    {
      "constant": false,
      "inputs": [
        {
          "name": "newOwner",
          "type": "address"
        }
      ],
      "name": "transferOwnership",
      "outputs": [],
      "payable": false,
      "stateMutability": "nonpayable",
      "type": "function"
    },
    {
      "constant": true,
      "inputs": [],
      "name": "totalEscrowed",
      "outputs": [
        {
          "name": "",
          "type": "uint256"
        }
      ],
      "payable": false,
      "stateMutability": "view",
      "type": "function"
    },
    {
      "inputs": [
        {
          "name": "token",
          "type": "address"
        }
      ],
      "payable": false,
      "stateMutability": "nonpayable",
      "type": "constructor"
    },
    {
      "anonymous": false,
      "inputs": [
        {
          "indexed": true,
          "name": "from",
          "type": "address"
        },
        {
          "indexed": false,
          "name": "amount",
          "type": "uint256"
        }
      ],
      "name": "DepositDTX",
      "type": "event"
    },
    {
      "anonymous": false,
      "inputs": [
        {
          "indexed": true,
          "name": "to",
          "type": "address"
        },
        {
          "indexed": false,
          "name": "amount",
          "type": "uint256"
        }
      ],
      "name": "WithdrawDTX",
      "type": "event"
    },
    {
      "anonymous": false,
      "inputs": [
        {
          "indexed": true,
          "name": "from",
          "type": "address"
        },
        {
          "indexed": true,
          "name": "to",
          "type": "address"
        },
        {
          "indexed": false,
          "name": "value",
          "type": "uint256"
        }
      ],
      "name": "TransferDTX",
      "type": "event"
    },
    {
      "anonymous": false,
      "inputs": [
        {
          "indexed": false,
          "name": "dealIndex",
          "type": "uint256"
        },
        {
          "indexed": false,
          "name": "did",
          "type": "string"
        },
        {
          "indexed": false,
          "name": "owner",
          "type": "address"
        },
        {
          "indexed": false,
          "name": "publisher",
          "type": "address"
        },
        {
          "indexed": false,
          "name": "user",
          "type": "address"
        },
        {
          "indexed": false,
          "name": "marketplace",
          "type": "address"
        },
        {
          "indexed": false,
          "name": "amount",
          "type": "uint256"
        },
        {
          "indexed": false,
          "name": "validFrom",
          "type": "uint256"
        },
        {
          "indexed": false,
          "name": "validUntil",
          "type": "uint256"
        }
      ],
      "name": "NewDeal",
      "type": "event"
    },
    {
      "anonymous": false,
      "inputs": [
        {
          "indexed": true,
          "name": "previousOwner",
          "type": "address"
        },
        {
          "indexed": true,
          "name": "newOwner",
          "type": "address"
        }
      ],
      "name": "OwnershipTransferred",
      "type": "event"
    },
    {
      "constant": false,
      "inputs": [
        {
          "name": "_protocolPercentage",
          "type": "uint8"
        }
      ],
      "name": "changeProtocolPercentage",
      "outputs": [],
      "payable": false,
      "stateMutability": "nonpayable",
      "type": "function"
    },
    {
      "constant": false,
      "inputs": [
        {
          "name": "token",
          "type": "address"
        }
      ],
      "name": "changeDTXToken",
      "outputs": [],
      "payable": false,
      "stateMutability": "nonpayable",
      "type": "function"
    },
    {
      "constant": true,
      "inputs": [],
      "name": "platformBalance",
      "outputs": [
        {
          "name": "",
          "type": "uint256"
        }
      ],
      "payable": false,
      "stateMutability": "view",
      "type": "function"
    },
    {
      "constant": true,
      "inputs": [
        {
          "name": "owner",
          "type": "address"
        }
      ],
      "name": "balanceOf",
      "outputs": [
        {
          "name": "balance",
          "type": "uint256"
        },
        {
          "name": "escrowOutgoing",
          "type": "uint256"
        },
        {
          "name": "escrowIncoming",
          "type": "uint256"
        },
        {
          "name": "available",
          "type": "uint256"
        }
      ],
      "payable": false,
      "stateMutability": "view",
      "type": "function"
    },
    {
      "constant": false,
      "inputs": [
        {
          "name": "to",
          "type": "address"
        },
        {
          "name": "amount",
          "type": "uint256"
        }
      ],
      "name": "convertFiatToToken",
      "outputs": [],
      "payable": false,
      "stateMutability": "nonpayable",
      "type": "function"
    },
    {
      "constant": false,
      "inputs": [
        {
          "name": "amount",
          "type": "uint256"
        }
      ],
      "name": "deposit",
      "outputs": [],
      "payable": false,
      "stateMutability": "nonpayable",
      "type": "function"
    },
    {
      "constant": false,
      "inputs": [],
      "name": "withdraw",
      "outputs": [],
      "payable": false,
      "stateMutability": "nonpayable",
      "type": "function"
    },
    {
      "constant": true,
      "inputs": [],
      "name": "allDeals",
      "outputs": [
        {
          "components": [
            {
              "name": "did",
              "type": "string"
            },
            {
              "name": "owner",
              "type": "address"
            },
            {
              "name": "ownerPercentage",
              "type": "uint8"
            },
            {
              "name": "publisher",
              "type": "address"
            },
            {
              "name": "publisherPercentage",
              "type": "uint8"
            },
            {
              "name": "user",
              "type": "address"
            },
            {
              "name": "marketplace",
              "type": "address"
            },
            {
              "name": "marketplacePercentage",
              "type": "uint8"
            },
            {
              "name": "amount",
              "type": "uint256"
            },
            {
              "name": "validFrom",
              "type": "uint256"
            },
            {
              "name": "validUntil",
              "type": "uint256"
            }
          ],
          "name": "",
          "type": "tuple[]"
        }
      ],
      "payable": false,
      "stateMutability": "view",
      "type": "function"
    },
    {
      "constant": true,
      "inputs": [
        {
          "name": "index",
          "type": "uint256"
        }
      ],
      "name": "deal",
      "outputs": [
        {
          "components": [
            {
              "name": "did",
              "type": "string"
            },
            {
              "name": "owner",
              "type": "address"
            },
            {
              "name": "ownerPercentage",
              "type": "uint8"
            },
            {
              "name": "publisher",
              "type": "address"
            },
            {
              "name": "publisherPercentage",
              "type": "uint8"
            },
            {
              "name": "user",
              "type": "address"
            },
            {
              "name": "marketplace",
              "type": "address"
            },
            {
              "name": "marketplacePercentage",
              "type": "uint8"
            },
            {
              "name": "amount",
              "type": "uint256"
            },
            {
              "name": "validFrom",
              "type": "uint256"
            },
            {
              "name": "validUntil",
              "type": "uint256"
            }
          ],
          "name": "",
          "type": "tuple"
        }
      ],
      "payable": false,
      "stateMutability": "view",
      "type": "function"
    },
    {
      "constant": true,
      "inputs": [
        {
          "name": "did",
          "type": "string"
        }
      ],
      "name": "deals",
      "outputs": [
        {
          "components": [
            {
              "name": "did",
              "type": "string"
            },
            {
              "name": "owner",
              "type": "address"
            },
            {
              "name": "ownerPercentage",
              "type": "uint8"
            },
            {
              "name": "publisher",
              "type": "address"
            },
            {
              "name": "publisherPercentage",
              "type": "uint8"
            },
            {
              "name": "user",
              "type": "address"
            },
            {
              "name": "marketplace",
              "type": "address"
            },
            {
              "name": "marketplacePercentage",
              "type": "uint8"
            },
            {
              "name": "amount",
              "type": "uint256"
            },
            {
              "name": "validFrom",
              "type": "uint256"
            },
            {
              "name": "validUntil",
              "type": "uint256"
            }
          ],
          "name": "",
          "type": "tuple[]"
        }
      ],
      "payable": false,
      "stateMutability": "view",
      "type": "function"
    },
    {
      "constant": true,
      "inputs": [
        {
          "name": "did",
          "type": "string"
        },
        {
          "name": "user",
          "type": "address"
        }
      ],
      "name": "hasAccessToDiD",
      "outputs": [
        {
          "name": "",
          "type": "bool"
        }
      ],
      "payable": false,
      "stateMutability": "view",
      "type": "function"
    },
    {
      "constant": false,
      "inputs": [
        {
          "name": "did",
          "type": "string"
        },
        {
          "name": "owner",
          "type": "address"
        },
        {
          "name": "ownerPercentage",
          "type": "uint8"
        },
        {
          "name": "publisher",
          "type": "address"
        },
        {
          "name": "publisherPercentage",
          "type": "uint8"
        },
        {
          "name": "user",
          "type": "address"
        },
        {
          "name": "marketplace",
          "type": "address"
        },
        {
          "name": "marketplacePercentage",
          "type": "uint8"
        },
        {
          "name": "amount",
          "type": "uint256"
        },
        {
          "name": "validFrom",
          "type": "uint256"
        },
        {
          "name": "validUntil",
          "type": "uint256"
        }
      ],
      "name": "createDeal",
      "outputs": [],
      "payable": false,
      "stateMutability": "nonpayable",
      "type": "function"
    },
    {
      "constant": false,
      "inputs": [
        {
          "name": "dealIndex",
          "type": "uint256"
        }
      ],
      "name": "payout",
      "outputs": [],
      "payable": false,
      "stateMutability": "nonpayable",
      "type": "function"
    }
  ],
  "bytecode": "0x60806040526001805460ff60a01b1916740500000000000000000000000000000000000000001790553480156200003557600080fd5b5060405162002f5f38038062002f5f8339810160408190526200005891620000da565b600080546001600160a01b03191633178082556040516001600160a01b039190911691907f8be0079c531659141344cd1fd0a4f28419497f9722a3daafe3b4186f6b6457e0908290a3600180546001600160a01b0319166001600160a01b03929092169190911790556200012f565b8051620000d48162000115565b92915050565b600060208284031215620000ed57600080fd5b6000620000fb8484620000c7565b949350505050565b60006001600160a01b038216620000d4565b620001208162000103565b81146200012c57600080fd5b50565b612e20806200013f6000396000f3fe608060405234801561001057600080fd5b50600436106101735760003560e01c806380c3abe0116100de578063ad7a672f11610097578063e115234311610071578063e115234314610340578063e2b4d7b214610353578063f2fde38b14610366578063f91682311461037957610173565b8063ad7a672f14610305578063b6b55f251461030d578063c959c42b1461032057610173565b806380c3abe01461029a5780638da5cb5b146102ad5780638f32d59b146102c25780639089bb48146102ca578063a0a57dac146102dd578063a26b90f2146102f057610173565b806362a5dbbc1161013057806362a5dbbc14610208578063655d4ece1461021d57806370a0823114610247578063715018a61461026a5780637186320c14610272578063743ebb7f1461028757610173565b8063034c30921461017857806317adfe02146101a157806327e235e3146101b65780633ae19474146101d85780633ccfd60b146101eb57806341bd5fd2146101f3575b600080fd5b61018b610186366004612126565b610381565b6040516101989190612a06565b60405180910390f35b6101b46101af366004612066565b610490565b005b6101c96101c4366004612066565b6104df565b60405161019893929190612c5a565b6101b46101e636600461217b565b6104ff565b6101b46109bc565b6101fb610af9565b6040516101989190612a14565b610210610b08565b6040516101989190612bbf565b61023061022b36600461208c565b610b8f565b6040516101989b9a99989796959493929190612a34565b61025a610255366004612066565b610ca1565b6040516101989493929190612c75565b6101b4610ce5565b61027a610d53565b60405161019891906129f5565b610230610295366004612280565b610ecd565b6102306102a83660046122b6565b610ef5565b6102b5610f70565b6040516101989190612996565b61018b610f7f565b6101b46102d836600461208c565b610f90565b61027a6102eb3660046120e4565b611053565b6102f86111ef565b6040516101989190612cb3565b6102106111ff565b6101b461031b3660046122b6565b611205565b61033361032e3660046122b6565b6113bd565b6040516101989190612bae565b6101b461034e3660046122b6565b611509565b6101b46103613660046122f2565b611995565b6101b4610374366004612066565b6119d9565b610210611a09565b600080805b6001600160a01b0384166000908152600760205260409020548110156104855785856040516020016103b9929190612a22565b60408051601f1981840301815291815281516020928301206001600160a01b0387166000908152600790935291208054839081106103f357fe5b90600052602060002090600802016000016040516020016104149190612add565b6040516020818303038152906040528051906020012014801561046d57506001600160a01b038416600090815260076020526040902080544291908390811061045957fe5b906000526020600020906008020160070154115b1561047d57600192505050610489565b600101610386565b5090505b9392505050565b610498610f7f565b6104bd5760405162461bcd60e51b81526004016104b490612b7e565b60405180910390fd5b600180546001600160a01b0319166001600160a01b0392909216919091179055565b600260208190526000918252604090912080546001820154919092015483565b610507610f7f565b6105235760405162461bcd60e51b81526004016104b490612b7e565b6105338a8a8a8a8a8a8a8a611a0f565b61053b611e9e565b5060408051610160810182528c81526001600160a01b03808d1660208084019190915260ff808e16948401949094528b821660608401528a8416608084015289821660a084015290881660c083015291861660e08201526101008101859052610120810184905261014081018390526005805460018181018084556000938452845180519596949592949193879360089091027f036b6384b5eca791c62761152d0c79bb0604c104a5fb6f4eb0703f3154bb3db001926105ff928492910190611efa565b5060208201516001820180546040808601516001600160a01b03199283166001600160a01b039586161760ff60a01b19908116600160a01b60ff938416810291909117909555606088015160028801805460808b0151908716928916929092178316918416870291909117905560a0880151600388018054861691881691909117905560c088015160048801805460e08b0151961691909716171692169092021790915561010083015160058301556101208301516006808401919091556101409093015160079092019190915551929091039250906106e0908f9061298a565b9081526040516020918190038201902080546001810180835560009283529183902085518051939487946008909402909201926107209284920190611efa565b506020828101516001808401805460408088015160ff908116600160a01b90810260ff60a01b196001600160a01b039889166001600160a01b03199687161781169190911790955560608a015160028a01805460808d015185168402928a1690871617871691909117905560a08a015160038a01805491891691861691909117905560c08a015160048a01805460e08d01519094169092029088169290941691909117909316919091179091556101008601516005860155610120860151600686015561014090950151600794850155908d1660009081529282529282208054938401808255908352918190208651805193955087946008029091019261082a9284920190611efa565b5060208201518160010160006101000a8154816001600160a01b0302191690836001600160a01b0316021790555060408201518160010160146101000a81548160ff021916908360ff16021790555060608201518160020160006101000a8154816001600160a01b0302191690836001600160a01b0316021790555060808201518160020160146101000a81548160ff021916908360ff16021790555060a08201518160030160006101000a8154816001600160a01b0302191690836001600160a01b0316021790555060c08201518160040160006101000a8154816001600160a01b0302191690836001600160a01b0316021790555060e08201518160040160146101000a81548160ff021916908360ff1602179055506101008201518160050155610120820151816006015561014082015181600701555050507fc03dfb2e53cc7a9868a03b235858db6648c1e9f761c1756dd70d8c96f10fde95818e8e8d8c8c8b8b8b6040516109a599989796959493929190612bcd565b60405180910390a150505050505050505050505050565b60006109c733610ca1565b336000908152600260205260409020549094506109ef9350915083905063ffffffff611c6616565b33600090815260026020526040902055600354610a12908263ffffffff611c6616565b60035560015460405163a9059cbb60e01b81526001600160a01b039091169063a9059cbb90610a4790339085906004016129da565b602060405180830381600087803b158015610a6157600080fd5b505af1158015610a75573d6000803e3d6000fd5b505050506040513d601f19601f82011682018060405250610a9991908101906120c6565b610ab55760405162461bcd60e51b81526004016104b490612b2e565b336001600160a01b03167fc28ed4035491dd3fc975f4d0a41ab56de1a5402b03b6c69a5265b65d1c7906dc82604051610aee9190612bbf565b60405180910390a250565b6001546001600160a01b031681565b6001546040516370a0823160e01b81526000916001600160a01b0316906370a0823190610b39903090600401612996565b60206040518083038186803b158015610b5157600080fd5b505afa158015610b65573d6000803e3d6000fd5b505050506040513d601f19601f82011682018060405250610b8991908101906122d4565b90505b90565b60076020528160005260406000208181548110610ba857fe5b60009182526020918290206008919091020180546040805160026001841615610100026000190190931692909204601f810185900485028301850190915280825291945092508391830182828015610c415780601f10610c1657610100808354040283529160200191610c41565b820191906000526020600020905b815481529060010190602001808311610c2457829003601f168201915b50505060018401546002850154600386015460048701546005880154600689015460079099015497986001600160a01b038087169960ff600160a01b9889900481169a50878316995096889004871697958216969185169590940416928b565b6001600160a01b038116600090815260026020819052604082208054600182015491909201549192909190610cdc848463ffffffff611c6616565b90509193509193565b610ced610f7f565b610d095760405162461bcd60e51b81526004016104b490612b7e565b600080546040516001600160a01b03909116907f8be0079c531659141344cd1fd0a4f28419497f9722a3daafe3b4186f6b6457e0908390a3600080546001600160a01b0319169055565b60606005805480602002602001604051908101604052809291908181526020016000905b82821015610ec45760008481526020908190206040805160088602909201805460026001821615610100026000190190911604601f81018590049094028301610180908101909252610160830184815292939092849290918491840182828015610e225780601f10610df757610100808354040283529160200191610e22565b820191906000526020600020905b815481529060010190602001808311610e0557829003601f168201915b50505091835250506001828101546001600160a01b0380821660208086019190915260ff600160a01b938490048116604087015260028701548084166060880152849004811660808701526003870154831660a0870152600487015492831660c08701529290910490911660e0840152600584015461010084015260068401546101208401526007909301546101409092019190915291835292019101610d77565b50505050905090565b81516020818401810180516006825292820191850191909120919052805482908110610ba857fe5b60058181548110610f0257fe5b60009182526020918290206008919091020180546040805160026001841615610100026000190190931692909204601f810185900485028301850190915280825291935091839190830182828015610c415780601f10610c1657610100808354040283529160200191610c41565b6000546001600160a01b031690565b6000546001600160a01b0316331490565b610f98610f7f565b610fb45760405162461bcd60e51b81526004016104b490612b7e565b6001600160a01b038216600090815260026020526040902054610fdd908263ffffffff611c8e16565b6001600160a01b038316600090815260026020526040902055600354611009908263ffffffff611c8e16565b6003556040516001600160a01b038316907f4b19cef4d67ff9acd5ce891a32f323842b26f39c024bdd00047e1b74be2aea8f90611047908490612bbf565b60405180910390a25050565b60606006838360405161106792919061297d565b9081526020016040518091039020805480602002602001604051908101604052809291908181526020016000905b828210156111e25760008481526020908190206040805160088602909201805460026001821615610100026000190190911604601f810185900490940283016101809081019092526101608301848152929390928492909184918401828280156111405780601f1061111557610100808354040283529160200191611140565b820191906000526020600020905b81548152906001019060200180831161112357829003601f168201915b50505091835250506001828101546001600160a01b0380821660208086019190915260ff600160a01b938490048116604087015260028701548084166060880152849004811660808701526003870154831660a0870152600487015492831660c08701529290910490911660e0840152600584015461010084015260068401546101208401526007909301546101409092019190915291835292019101611095565b5050505090505b92915050565b600154600160a01b900460ff1681565b60035481565b6001546040516370a0823160e01b815282916001600160a01b0316906370a08231906112359033906004016129a4565b60206040518083038186803b15801561124d57600080fd5b505afa158015611261573d6000803e3d6000fd5b505050506040513d601f19601f8201168201806040525061128591908101906122d4565b10156112a35760405162461bcd60e51b81526004016104b490612b5e565b6001546040516323b872dd60e01b81526001600160a01b03909116906323b872dd906112d7903390309086906004016129b2565b602060405180830381600087803b1580156112f157600080fd5b505af1158015611305573d6000803e3d6000fd5b505050506040513d601f19601f8201168201806040525061132991908101906120c6565b6113455760405162461bcd60e51b81526004016104b490612aee565b33600090815260026020526040902054611365908263ffffffff611c8e16565b33600090815260026020526040902055600354611388908263ffffffff611c8e16565b60035560405133907f4b19cef4d67ff9acd5ce891a32f323842b26f39c024bdd00047e1b74be2aea8f90610aee908490612bbf565b6113c5611e9e565b600582815481106113d257fe5b600091825260209182902060408051600893909302909101805460026001821615610100026000190190911604601f810185900490940283016101809081019092526101608301848152929390928492909184918401828280156114775780601f1061144c57610100808354040283529160200191611477565b820191906000526020600020905b81548152906001019060200180831161145a57829003601f168201915b505050918352505060018201546001600160a01b03808216602084015260ff600160a01b928390048116604085015260028501548083166060860152839004811660808501526003850154821660a0850152600485015491821660c08501529190041660e082015260058201546101008201526006820154610120820152600790910154610140909101529050919050565b611511611e9e565b6005828154811061151e57fe5b600091825260209182902060408051600893909302909101805460026001821615610100026000190190911604601f810185900490940283016101809081019092526101608301848152929390928492909184918401828280156115c35780601f10611598576101008083540402835291602001916115c3565b820191906000526020600020905b8154815290600101906020018083116115a657829003601f168201915b505050918352505060018201546001600160a01b03808216602084015260ff600160a01b928390048116604085015260028501548083166060860152839004811660808501526003850154821660a0850152600485015491821660c08501529190041660e0820152600582015461010082015260068201546101208083019190915260079092015461014090910152810151909150621275000142101561167c5760405162461bcd60e51b81526004016104b490612b1e565b61010081015160a08201516001600160a01b03166000908152600260205260409020600101546116b19163ffffffff611c6616565b60a08201516001600160a01b0316600090815260026020526040908190206001019190915581015161010082015161173591611709916064916116fd919060ff1663ffffffff611cb316565b9063ffffffff611ced16565b6020808401516001600160a01b031660009081526002918290526040902001549063ffffffff611c6616565b6020808301516001600160a01b0316600090815260029182905260409020015560808101516101008201516117ab9161177e916064916116fd919060ff1663ffffffff611cb316565b60608301516001600160a01b0316600090815260026020819052604090912001549063ffffffff611c6616565b60608201516001600160a01b03166000908152600260208190526040909120015560e0810151610100820151611822916117f5916064916116fd919060ff1663ffffffff611cb316565b60c08301516001600160a01b0316600090815260026020819052604090912001549063ffffffff611c8e16565b600260008360c001516001600160a01b03166001600160a01b03168152602001908152602001600020600201819055506118888160a00151826020015161188360646116fd866040015160ff16876101000151611cb390919063ffffffff16565b611d22565b6118b98160a00151826060015161188360646116fd866080015160ff16876101000151611cb390919063ffffffff16565b6118ea8160a001518260c0015161188360646116fd8660e0015160ff16876101000151611cb390919063ffffffff16565b600061197f61196d61191660646116fd8660e0015160ff16876101000151611cb390919063ffffffff16565b61196161193d60646116fd886080015160ff16896101000151611cb390919063ffffffff16565b61196160646116fd896040015160ff168a6101000151611cb390919063ffffffff16565b9063ffffffff611c8e16565b6101008401519063ffffffff611c6616565b90506119908260a001513083611d22565b505050565b61199d610f7f565b6119b95760405162461bcd60e51b81526004016104b490612b7e565b6001805460ff909216600160a01b0260ff60a01b19909216919091179055565b6119e1610f7f565b6119fd5760405162461bcd60e51b81526004016104b490612b7e565b611a0681611e1d565b50565b60045481565b600154600160a01b900460ff90811686890184010116606414611a445760405162461bcd60e51b81526004016104b490612b8e565b6001600160a01b038416600090815260026020526040902060010154611a70908263ffffffff611c8e16565b6001600160a01b038516600090815260026020526040902060010155600454611a9f908263ffffffff611c8e16565b6004556000611ab582606463ffffffff611ced16565b9050611af6611acd8260ff8b1663ffffffff611cb316565b6001600160a01b038b16600090815260026020819052604090912001549063ffffffff611c8e16565b6001600160a01b038a1660009081526002602081905260409091200155611b52611b298260ff891663ffffffff611cb316565b6001600160a01b038916600090815260026020819052604090912001549063ffffffff611c8e16565b6001600160a01b03881660009081526002602081905260409091200155611bae611b858260ff861663ffffffff611cb316565b6001600160a01b038616600090815260026020819052604090912001549063ffffffff611c8e16565b6001600160a01b038516600090815260026020819052604082200191909155611c1f611c12611be68460ff881663ffffffff611cb316565b611961611bfc8660ff8d1663ffffffff611cb316565b6119618e60ff1688611cb390919063ffffffff16565b849063ffffffff611c6616565b3060009081526002602081905260409091200154909150611c46908263ffffffff611c8e16565b306000908152600260208190526040909120015550505050505050505050565b600082821115611c885760405162461bcd60e51b81526004016104b490612b3e565b50900390565b6000828201838110156104895760405162461bcd60e51b81526004016104b490612b0e565b600082611cc2575060006111e9565b82820282848281611ccf57fe5b04146104895760405162461bcd60e51b81526004016104b490612b6e565b6000808211611d0e5760405162461bcd60e51b81526004016104b490612b4e565b6000828481611d1957fe5b04949350505050565b6000611d2d84610ca1565b6001600160a01b038816600090815260026020526040902054909450611d5e9350915084905063ffffffff611c6616565b6001600160a01b038086166000908152600260205260408082209390935590851681522054611d93908363ffffffff611c8e16565b6001600160a01b03841660009081526002602052604090205580821115611dcc5760405162461bcd60e51b81526004016104b490612b9e565b826001600160a01b0316846001600160a01b03167f53129ad8bfbcb17159505d8d2b4fd53b6df72ef4a1651fa36883270be476cc4484604051611e0f9190612bbf565b60405180910390a350505050565b6001600160a01b038116611e435760405162461bcd60e51b81526004016104b490612afe565b600080546040516001600160a01b03808516939216917f8be0079c531659141344cd1fd0a4f28419497f9722a3daafe3b4186f6b6457e091a3600080546001600160a01b0319166001600160a01b0392909216919091179055565b6040805161016081018252606080825260006020830181905292820183905281018290526080810182905260a0810182905260c0810182905260e081018290526101008101829052610120810182905261014081019190915290565b828054600181600116156101000203166002900490600052602060002090601f016020900481019282601f10611f3b57805160ff1916838001178555611f68565b82800160010185558215611f68579182015b82811115611f68578251825591602001919060010190611f4d565b50611f74929150611f78565b5090565b610b8c91905b80821115611f745760008155600101611f7e565b80356111e981612dae565b80516111e981612dc2565b60008083601f840112611fba57600080fd5b50813567ffffffffffffffff811115611fd257600080fd5b602083019150836001820283011115611fea57600080fd5b9250929050565b600082601f83011261200257600080fd5b813561201561201082612ce8565b612cc1565b9150808252602083016020830185838301111561203157600080fd5b61203c838284612d68565b50505092915050565b80356111e981612dcb565b80516111e981612dcb565b80356111e981612dd4565b60006020828403121561207857600080fd5b60006120848484611f92565b949350505050565b6000806040838503121561209f57600080fd5b60006120ab8585611f92565b92505060206120bc85828601612045565b9150509250929050565b6000602082840312156120d857600080fd5b60006120848484611f9d565b600080602083850312156120f757600080fd5b823567ffffffffffffffff81111561210e57600080fd5b61211a85828601611fa8565b92509250509250929050565b60008060006040848603121561213b57600080fd5b833567ffffffffffffffff81111561215257600080fd5b61215e86828701611fa8565b9350935050602061217186828701611f92565b9150509250925092565b60008060008060008060008060008060006101608c8e03121561219d57600080fd5b8b3567ffffffffffffffff8111156121b457600080fd5b6121c08e828f01611ff1565b9b505060206121d18e828f01611f92565b9a505060406121e28e828f0161205b565b99505060606121f38e828f01611f92565b98505060806122048e828f0161205b565b97505060a06122158e828f01611f92565b96505060c06122268e828f01611f92565b95505060e06122378e828f0161205b565b9450506101006122498e828f01612045565b93505061012061225b8e828f01612045565b92505061014061226d8e828f01612045565b9150509295989b509295989b9093969950565b6000806040838503121561229357600080fd5b823567ffffffffffffffff8111156122aa57600080fd5b6120ab85828601611ff1565b6000602082840312156122c857600080fd5b60006120848484612045565b6000602082840312156122e657600080fd5b60006120848484612050565b60006020828403121561230457600080fd5b6000612084848461205b565b60006104898383612884565b61232581612d56565b82525050565b61232581612d34565b600061233f82612d22565b6123498185612d26565b93508360208202850161235b85612d10565b8060005b8581101561239557848403895281516123788582612310565b945061238383612d10565b60209a909a019992505060010161235f565b5091979650505050505050565b61232581612d3f565b61232581612d5d565b60006123c08385612d26565b93506123cd838584612d68565b6123d683612da4565b9093019392505050565b60006123ec8385612d2f565b93506123f9838584612d68565b50500190565b600061240a82612d22565b6124148185612d26565b9350612424818560208601612d74565b6123d681612da4565b600061243882612d22565b6124428185612d2f565b9350612452818560208601612d74565b9290920192915050565b600081546001811660008114612479576001811461249f576124de565b607f600283041661248a8187612d26565b60ff19841681529550506020850192506124de565b600282046124ad8187612d26565b95506124b885612d16565b60005b828110156124d7578154888201526001909101906020016124bb565b8701945050505b505092915050565b60006124f3603283612d26565b7f445458207472616e73666572206661696c65642c2070726f6261626c7920746f8152716f206c6974746c6520616c6c6f77616e636560701b602082015260400192915050565b6000612547602683612d26565b7f4f776e61626c653a206e6577206f776e657220697320746865207a65726f206181526564647265737360d01b602082015260400192915050565b600061258f601b83612d26565b7f536166654d6174683a206164646974696f6e206f766572666c6f770000000000815260200192915050565b60006125c8604783612d26565b7f5061796f7574732063616e206f6e6c792068617070656e20313420646179732081527f616674657220746865207374617274206f6620746865206465616c202876616c602082015266696446726f6d2960c81b604082015260600192915050565b6000612637604383612d26565b7f4e6f7420656e6f7567682044545820746f6b656e7320617661696c61626c652081527f746f2077697468647261772c20636f6e74616374204461746142726f6b657244602082015262414f2160e81b604082015260600192915050565b60006126a2601e83612d26565b7f536166654d6174683a207375627472616374696f6e206f766572666c6f770000815260200192915050565b60006126db601a83612d26565b7f536166654d6174683a206469766973696f6e206279207a65726f000000000000815260200192915050565b6000612714603783612d26565b7f53656e6465722068617320746f6f206c6974746c652044545820746f206d616b81527f652074686973207472616e73616374696f6e20776f726b000000000000000000602082015260400192915050565b6000612773602183612d26565b7f536166654d6174683a206d756c7469706c69636174696f6e206f766572666c6f8152607760f81b602082015260400192915050565b60006127b6602083612d26565b7f4f776e61626c653a2063616c6c6572206973206e6f7420746865206f776e6572815260200192915050565b60006127ef602d83612d26565b7f416c6c2070657263656e7461676573206e65656420746f20616464207570207481526c06f2065786163746c792031303609c1b602082015260400192915050565b600061283e603183612d26565b7f4e6f7420656e6f75676820617661696c616c62652044545820746f20657865638152703aba32903a3434b9903a3930b739b332b960791b602082015260400192915050565b80516101608084526000919084019061289d82826123ff565b91505060208301516128b2602086018261232b565b5060408301516128c56040860182612974565b5060608301516128d8606086018261232b565b5060808301516128eb6080860182612974565b5060a08301516128fe60a086018261232b565b5060c083015161291160c086018261232b565b5060e083015161292460e0860182612974565b5061010083015161293961010086018261296b565b5061012083015161294e61012086018261296b565b5061014083015161296361014086018261296b565b509392505050565b61232581610b8c565b61232581612d50565b60006120848284866123e0565b6000610489828461242d565b602081016111e9828461232b565b602081016111e9828461231c565b606081016129c0828661231c565b6129cd602083018561232b565b612084604083018461296b565b604081016129e8828561231c565b610489602083018461296b565b602080825281016104898184612334565b602081016111e982846123a2565b602081016111e982846123ab565b602080825281016120848184866123b4565b6101608082528101612a46818e6123ff565b9050612a55602083018d61232b565b612a62604083018c612974565b612a6f606083018b61232b565b612a7c608083018a612974565b612a8960a083018961232b565b612a9660c083018861232b565b612aa360e0830187612974565b612ab161010083018661296b565b612abf61012083018561296b565b612acd61014083018461296b565b9c9b505050505050505050505050565b60208082528101610489818461245c565b602080825281016111e9816124e6565b602080825281016111e98161253a565b602080825281016111e981612582565b602080825281016111e9816125bb565b602080825281016111e98161262a565b602080825281016111e981612695565b602080825281016111e9816126ce565b602080825281016111e981612707565b602080825281016111e981612766565b602080825281016111e9816127a9565b602080825281016111e9816127e2565b602080825281016111e981612831565b602080825281016104898184612884565b602081016111e9828461296b565b6101208101612bdc828c61296b565b8181036020830152612bee818b6123ff565b9050612bfd604083018a61232b565b612c0a606083018961232b565b612c17608083018861232b565b612c2460a083018761232b565b612c3160c083018661296b565b612c3e60e083018561296b565b612c4c61010083018461296b565b9a9950505050505050505050565b60608101612c68828661296b565b6129cd602083018561296b565b60808101612c83828761296b565b612c90602083018661296b565b612c9d604083018561296b565b612caa606083018461296b565b95945050505050565b602081016111e98284612974565b60405181810167ffffffffffffffff81118282101715612ce057600080fd5b604052919050565b600067ffffffffffffffff821115612cff57600080fd5b506020601f91909101601f19160190565b60200190565b60009081526020902090565b5190565b90815260200190565b919050565b60006111e982612d44565b151590565b6001600160a01b031690565b60ff1690565b60006111e9825b60006111e982612d34565b82818337506000910152565b60005b83811015612d8f578181015183820152602001612d77565b83811115612d9e576000848401525b50505050565b601f01601f191690565b612db781612d34565b8114611a0657600080fd5b612db781612d3f565b612db781610b8c565b612db781612d5056fea365627a7a7230582072d0189cc95bab22696fa859bea32e1f89dccca68a2cecb8ca510b69e9652e286c6578706572696d656e74616cf564736f6c634300050a0040",
  "source": "pragma solidity ^0.5.0;\npragma experimental ABIEncoderV2;\n\nimport \"../node_modules/openzeppelin-solidity/contracts/ownership/Ownable.sol\";\nimport \"../node_modules/openzeppelin-solidity/contracts/math/SafeMath.sol\";\nimport \"../node_modules/openzeppelin-solidity/contracts/token/ERC20/ERC20.sol\";\nimport \"../node_modules/openzeppelin-solidity/contracts/token/ERC20/SafeERC20.sol\";\n\ncontract DXC is Ownable {\n\n  using SafeMath for uint256;\n  using SafeMath for uint8;\n  using SafeERC20 for ERC20;\n\n  ERC20 public dtxToken;\n  uint8 public protocolPercentage = 5;\n\n  constructor(address token) public {\n    dtxToken = ERC20(token);\n  }\n\n  ///////////////////////////////////////////////////////////////////////////////////////\n  //// Mofifiers for default settings                                                ////\n  ///////////////////////////////////////////////////////////////////////////////////////\n\n  function changeProtocolPercentage(uint8 _protocolPercentage) public onlyOwner {\n    protocolPercentage = _protocolPercentage;\n  }\n\n  function changeDTXToken(address token) public onlyOwner {\n    dtxToken = ERC20(token);\n  }\n\n  ///////////////////////////////////////////////////////////////////////////////////////\n  //// DTX Bank                                                                      ////\n  ///////////////////////////////////////////////////////////////////////////////////////\n\n  struct TokenAvailabiltity {\n    uint256 balance;\n    uint256 escrowOutgoing;\n    uint256 escrowIncoming;\n  }\n\n  struct Escrow {\n    uint256 amount;\n    uint256 releaseAfter;\n    address to;\n    address from;\n  }\n\n  mapping(address => TokenAvailabiltity) public balances;\n  uint256 public totalBalance;\n  uint256 public totalEscrowed;\n\n  event DepositDTX(address indexed from, uint256 amount);\n  event WithdrawDTX(address indexed to, uint256 amount);\n  event TransferDTX(address indexed from, address indexed to, uint256 value);\n\n  function platformBalance() public view returns (uint256) {\n    return dtxToken.balanceOf(address(this));\n  }\n\n  function balanceOf(address owner) public view returns (uint256 balance, uint256 escrowOutgoing, uint256 escrowIncoming, uint256 available) {\n    balance = balances[owner].balance;\n    escrowOutgoing = balances[owner].escrowOutgoing;\n    escrowIncoming = balances[owner].escrowIncoming;\n    available = balances[owner].balance.sub(balances[owner].escrowOutgoing);\n  }\n\n  function convertFiatToToken(address to, uint256 amount) public onlyOwner {\n    balances[to].balance = balances[to].balance.add(amount);\n    totalBalance = totalBalance.add(amount);\n    emit DepositDTX(to, amount);\n  }\n\n  function deposit(uint256 amount) public {\n    require(dtxToken.balanceOf(msg.sender) >= amount, \"Sender has too little DTX to make this transaction work\");\n    require(dtxToken.transferFrom(msg.sender, address(this), amount), \"DTX transfer failed, probably too little allowance\");\n    balances[msg.sender].balance = balances[msg.sender].balance.add(amount);\n    totalBalance = totalBalance.add(amount);\n    emit DepositDTX(msg.sender, amount);\n  }\n\n  function withdraw() public {\n    (,,, uint256 available) = balanceOf(msg.sender);\n    balances[msg.sender].balance = balances[msg.sender].balance.sub(available);\n    totalBalance = totalBalance.sub(available);\n    require(dtxToken.transfer(msg.sender, available), \"Not enough DTX tokens available to withdraw, contact DataBrokerDAO!\");\n    emit WithdrawDTX(msg.sender, available);\n  }\n\n  /**\n   * address(0) is the address we use for escrowed funds, they are tracked in escrowedDTX\n   */\n  function transfer(address from, address to, uint256 amount) internal {\n    (,,, uint256 available) = balanceOf(from);\n    balances[from].balance = balances[from].balance.sub(amount);\n    balances[to].balance = balances[to].balance.add(amount);\n    require(amount <= available, \"Not enough availalbe DTX to execute this transfer\");\n    emit TransferDTX(from, to, amount);\n  }\n\n  function escrow(\n    address owner,\n    uint8 ownerPercentage,\n    address publisher,\n    uint8 publisherPercentage,\n    address user,\n    address marketplace,\n    uint8 marketplacePercentage,\n    uint256 amount) internal\n  {\n    require(ownerPercentage+publisherPercentage+marketplacePercentage+protocolPercentage == 100, \"All percentages need to add up to exactly 100\");\n    balances[user].escrowOutgoing = balances[user].escrowOutgoing.add(amount);\n    totalEscrowed = totalEscrowed.add(amount);\n    uint256 basePoint = amount.div(100);\n    balances[owner].escrowIncoming = balances[owner].escrowIncoming.add(basePoint.mul(ownerPercentage));\n    balances[publisher].escrowIncoming = balances[publisher].escrowIncoming.add(basePoint.mul(publisherPercentage));\n    balances[marketplace].escrowIncoming = balances[marketplace].escrowIncoming.add(basePoint.mul(marketplacePercentage));\n    uint256 protocolAmount = amount.sub((basePoint.mul(ownerPercentage)).add(basePoint.mul(publisherPercentage)).add(basePoint.mul(marketplacePercentage)));\n    balances[address(this)].escrowIncoming = balances[address(this)].escrowIncoming.add(protocolAmount);\n  }\n\n  ///////////////////////////////////////////////////////////////////////////////////////\n  //// Deals                                                                         ////\n  ///////////////////////////////////////////////////////////////////////////////////////\n\n  struct Deal {\n    string did; // the did of the data share in question\n    address owner;\n    uint8 ownerPercentage;\n    address publisher;\n    uint8 publisherPercentage;\n    address user;\n    address marketplace;\n    uint8 marketplacePercentage;\n    uint256 amount;\n    uint256 validFrom; // 0 means forever, all others are a timestamp\n    uint256 validUntil; // 0 means forever, all others are a timestamp\n  }\n\n  Deal[] public dealsList;\n\n  mapping(string => Deal[]) public didToDeals;\n  mapping(address => Deal[]) public userToDeals;\n\n  event NewDeal(\n    uint256 dealIndex,\n    string did,\n    address owner,\n    address publisher,\n    address user,\n    address marketplace,\n    uint256 amount,\n    uint256 validFrom,\n    uint256 validUntil\n  );\n\n  function allDeals() external view returns (Deal[] memory) {\n    return dealsList;\n  }\n\n  function deal(uint256 index) external view returns (Deal memory){\n    return dealsList[index];\n  }\n\n  function deals(string calldata did) external view returns (Deal[] memory){\n    return didToDeals[did];\n  }\n\n  function hasAccessToDiD(string calldata did, address user) external view returns (bool){\n    bool accessToDid = false;\n    for(uint256 i = 0; i < userToDeals[user].length; i++){\n      if(keccak256(abi.encode(userToDeals[user][i].did)) == keccak256(abi.encode(did)) && userToDeals[user][i].validUntil > now){\n        return true;\n      }\n    }\n    return accessToDid;\n  }\n\n  function createDeal(\n    string memory did,\n    address owner,\n    uint8 ownerPercentage,\n    address publisher,\n    uint8 publisherPercentage,\n    address user,\n    address marketplace,\n    uint8 marketplacePercentage,\n    uint256 amount,\n    uint256 validFrom,\n    uint256 validUntil\n  ) public onlyOwner {\n    escrow(\n      owner,\n      ownerPercentage,\n      publisher,\n      publisherPercentage,\n      user,\n      marketplace,\n      marketplacePercentage,\n      amount\n    );\n    Deal memory newDeal = Deal(\n      did,\n      owner,\n      ownerPercentage,\n      publisher,\n      publisherPercentage,\n      user,\n      marketplace,\n      marketplacePercentage,\n      amount,\n      validFrom,\n      validUntil\n    );\n    uint256 dealIndex = dealsList.push(newDeal) - 1;\n    didToDeals[did].push(newDeal);\n    userToDeals[user].push(newDeal);\n    emit NewDeal(\n      dealIndex,\n      did,\n      owner,\n      publisher,\n      user,\n      marketplace,\n      amount,\n      validFrom,\n      validUntil\n    );\n  }\n\n  function payout(uint256 dealIndex) public {\n    Deal memory _deal = dealsList[dealIndex];\n    require(now >= _deal.validFrom + 14 days, \"Payouts can only happen 14 days after the start of the deal (validFrom)\");\n    // release escrow\n    balances[_deal.user].escrowOutgoing = balances[_deal.user].escrowOutgoing.sub(_deal.amount);\n    balances[_deal.owner].escrowIncoming = balances[_deal.owner].escrowIncoming.sub(_deal.amount.mul(_deal.ownerPercentage).div(100));\n    balances[_deal.publisher].escrowIncoming = balances[_deal.publisher].escrowIncoming.sub(_deal.amount.mul(_deal.publisherPercentage).div(100));\n    balances[_deal.marketplace].escrowIncoming = balances[_deal.marketplace].escrowIncoming.add(_deal.amount.mul(_deal.marketplacePercentage).div(100));\n    // transfer DTX\n    transfer(_deal.user, _deal.owner, _deal.amount.mul(_deal.ownerPercentage).div(100));\n    transfer(_deal.user, _deal.publisher, _deal.amount.mul(_deal.publisherPercentage).div(100));\n    transfer(_deal.user, _deal.marketplace, _deal.amount.mul(_deal.marketplacePercentage).div(100));\n    uint256 protocolAmount = _deal.amount.sub((_deal.amount.mul(_deal.ownerPercentage).div(100)).add(_deal.amount.mul(_deal.publisherPercentage).div(100)).add(_deal.amount.mul(_deal.marketplacePercentage).div(100)));\n    transfer(_deal.user, address(this), protocolAmount);\n  }\n\n}\n",
  "sourcePath": "/Users/roderik/Development/dxc/contracts/contracts/DXC.sol",
  "compiler": {
    "name": "solc",
    "version": "0.5.10+commit.5a6ea5b1.Emscripten.clang"
  },
  "schemaVersion": "3.0.11",
  "updatedAt": "2019-07-30T14:40:49.938Z",
  "devdoc": {
    "methods": {
      "isOwner()": {
        "details": "Returns true if the caller is the current owner."
      },
      "owner()": {
        "details": "Returns the address of the current owner."
      },
      "renounceOwnership()": {
        "details": "Leaves the contract without owner. It will not be possible to call `onlyOwner` functions anymore. Can only be called by the current owner.     * > Note: Renouncing ownership will leave the contract without an owner, thereby removing any functionality that is only available to the owner."
      },
      "transferOwnership(address)": {
        "details": "Transfers ownership of the contract to a new account (`newOwner`). Can only be called by the current owner."
      }
    }
  },
  "userdoc": {
    "methods": {
      "changeProtocolPercentage(uint8)": {
        "notice": "//////////////////////////////////////////////////////////////////////////////////// / Mofifiers for default settings                                                //// ////////////////////////////////////////////////////////////////////////////////////"
      }
    }
  }
}