{
  "contractName": "DXC",
  "abi": [
    {
      "constant": true,
      "inputs": [
        {
          "name": "",
          "type": "uint256"
        }
      ],
      "name": "deals",
      "outputs": [
        {
          "name": "did",
          "type": "string"
        },
        {
          "name": "owner",
          "type": "address"
        },
        {
          "name": "ownerPercentage",
          "type": "uint8"
        },
        {
          "name": "publisher",
          "type": "address"
        },
        {
          "name": "publisherPercentage",
          "type": "uint8"
        },
        {
          "name": "user",
          "type": "address"
        },
        {
          "name": "marketplace",
          "type": "address"
        },
        {
          "name": "marketplacePercentage",
          "type": "uint8"
        },
        {
          "name": "amount",
          "type": "uint256"
        },
        {
          "name": "validFrom",
          "type": "uint256"
        },
        {
          "name": "validUntil",
          "type": "uint256"
        }
      ],
      "payable": false,
      "stateMutability": "view",
      "type": "function"
    },
    {
      "constant": true,
      "inputs": [
        {
          "name": "",
          "type": "address"
        }
      ],
      "name": "balances",
      "outputs": [
        {
          "name": "balance",
          "type": "uint256"
        },
        {
          "name": "escrowOutgoing",
          "type": "uint256"
        },
        {
          "name": "escrowIncoming",
          "type": "uint256"
        }
      ],
      "payable": false,
      "stateMutability": "view",
      "type": "function"
    },
    {
      "constant": true,
      "inputs": [],
      "name": "dtxToken",
      "outputs": [
        {
          "name": "",
          "type": "address"
        }
      ],
      "payable": false,
      "stateMutability": "view",
      "type": "function"
    },
    {
      "constant": false,
      "inputs": [],
      "name": "renounceOwnership",
      "outputs": [],
      "payable": false,
      "stateMutability": "nonpayable",
      "type": "function"
    },
    {
      "constant": true,
      "inputs": [],
      "name": "owner",
      "outputs": [
        {
          "name": "",
          "type": "address"
        }
      ],
      "payable": false,
      "stateMutability": "view",
      "type": "function"
    },
    {
      "constant": true,
      "inputs": [],
      "name": "isOwner",
      "outputs": [
        {
          "name": "",
          "type": "bool"
        }
      ],
      "payable": false,
      "stateMutability": "view",
      "type": "function"
    },
    {
      "constant": true,
      "inputs": [],
      "name": "protocolPercentage",
      "outputs": [
        {
          "name": "",
          "type": "uint8"
        }
      ],
      "payable": false,
      "stateMutability": "view",
      "type": "function"
    },
    {
      "constant": true,
      "inputs": [],
      "name": "totalBalance",
      "outputs": [
        {
          "name": "",
          "type": "uint256"
        }
      ],
      "payable": false,
      "stateMutability": "view",
      "type": "function"
    },
    {
      "constant": false,
      "inputs": [
        {
          "name": "newOwner",
          "type": "address"
        }
      ],
      "name": "transferOwnership",
      "outputs": [],
      "payable": false,
      "stateMutability": "nonpayable",
      "type": "function"
    },
    {
      "constant": true,
      "inputs": [],
      "name": "totalEscrowed",
      "outputs": [
        {
          "name": "",
          "type": "uint256"
        }
      ],
      "payable": false,
      "stateMutability": "view",
      "type": "function"
    },
    {
      "inputs": [
        {
          "name": "token",
          "type": "address"
        }
      ],
      "payable": false,
      "stateMutability": "nonpayable",
      "type": "constructor"
    },
    {
      "anonymous": false,
      "inputs": [
        {
          "indexed": true,
          "name": "from",
          "type": "address"
        },
        {
          "indexed": false,
          "name": "amount",
          "type": "uint256"
        }
      ],
      "name": "DepositDTX",
      "type": "event"
    },
    {
      "anonymous": false,
      "inputs": [
        {
          "indexed": true,
          "name": "to",
          "type": "address"
        },
        {
          "indexed": false,
          "name": "amount",
          "type": "uint256"
        }
      ],
      "name": "WithdrawDTX",
      "type": "event"
    },
    {
      "anonymous": false,
      "inputs": [
        {
          "indexed": true,
          "name": "from",
          "type": "address"
        },
        {
          "indexed": true,
          "name": "to",
          "type": "address"
        },
        {
          "indexed": false,
          "name": "value",
          "type": "uint256"
        }
      ],
      "name": "TransferDTX",
      "type": "event"
    },
    {
      "anonymous": false,
      "inputs": [
        {
          "indexed": false,
          "name": "dealIndex",
          "type": "uint256"
        },
        {
          "indexed": false,
          "name": "did",
          "type": "string"
        },
        {
          "indexed": false,
          "name": "owner",
          "type": "address"
        },
        {
          "indexed": false,
          "name": "publisher",
          "type": "address"
        },
        {
          "indexed": false,
          "name": "user",
          "type": "address"
        },
        {
          "indexed": false,
          "name": "marketplace",
          "type": "address"
        },
        {
          "indexed": false,
          "name": "amount",
          "type": "uint256"
        },
        {
          "indexed": false,
          "name": "validFrom",
          "type": "uint256"
        },
        {
          "indexed": false,
          "name": "validUntil",
          "type": "uint256"
        }
      ],
      "name": "NewDeal",
      "type": "event"
    },
    {
      "anonymous": false,
      "inputs": [
        {
          "indexed": true,
          "name": "previousOwner",
          "type": "address"
        },
        {
          "indexed": true,
          "name": "newOwner",
          "type": "address"
        }
      ],
      "name": "OwnershipTransferred",
      "type": "event"
    },
    {
      "constant": false,
      "inputs": [
        {
          "name": "_protocolPercentage",
          "type": "uint8"
        }
      ],
      "name": "changeProtocolPercentage",
      "outputs": [],
      "payable": false,
      "stateMutability": "nonpayable",
      "type": "function"
    },
    {
      "constant": false,
      "inputs": [
        {
          "name": "token",
          "type": "address"
        }
      ],
      "name": "changeDTXToken",
      "outputs": [],
      "payable": false,
      "stateMutability": "nonpayable",
      "type": "function"
    },
    {
      "constant": true,
      "inputs": [],
      "name": "platformBalance",
      "outputs": [
        {
          "name": "",
          "type": "uint256"
        }
      ],
      "payable": false,
      "stateMutability": "view",
      "type": "function"
    },
    {
      "constant": true,
      "inputs": [
        {
          "name": "owner",
          "type": "address"
        }
      ],
      "name": "balanceOf",
      "outputs": [
        {
          "name": "balance",
          "type": "uint256"
        },
        {
          "name": "escrowOutgoing",
          "type": "uint256"
        },
        {
          "name": "escrowIncoming",
          "type": "uint256"
        },
        {
          "name": "available",
          "type": "uint256"
        }
      ],
      "payable": false,
      "stateMutability": "view",
      "type": "function"
    },
    {
      "constant": false,
      "inputs": [
        {
          "name": "to",
          "type": "address"
        },
        {
          "name": "amount",
          "type": "uint256"
        }
      ],
      "name": "convertFiatToToken",
      "outputs": [],
      "payable": false,
      "stateMutability": "nonpayable",
      "type": "function"
    },
    {
      "constant": false,
      "inputs": [
        {
          "name": "amount",
          "type": "uint256"
        }
      ],
      "name": "deposit",
      "outputs": [],
      "payable": false,
      "stateMutability": "nonpayable",
      "type": "function"
    },
    {
      "constant": false,
      "inputs": [],
      "name": "withdraw",
      "outputs": [],
      "payable": false,
      "stateMutability": "nonpayable",
      "type": "function"
    },
    {
      "constant": true,
      "inputs": [],
      "name": "getAllDeals",
      "outputs": [
        {
          "components": [
            {
              "name": "did",
              "type": "string"
            },
            {
              "name": "owner",
              "type": "address"
            },
            {
              "name": "ownerPercentage",
              "type": "uint8"
            },
            {
              "name": "publisher",
              "type": "address"
            },
            {
              "name": "publisherPercentage",
              "type": "uint8"
            },
            {
              "name": "user",
              "type": "address"
            },
            {
              "name": "marketplace",
              "type": "address"
            },
            {
              "name": "marketplacePercentage",
              "type": "uint8"
            },
            {
              "name": "amount",
              "type": "uint256"
            },
            {
              "name": "validFrom",
              "type": "uint256"
            },
            {
              "name": "validUntil",
              "type": "uint256"
            }
          ],
          "name": "",
          "type": "tuple[]"
        }
      ],
      "payable": false,
      "stateMutability": "view",
      "type": "function"
    },
    {
      "constant": false,
      "inputs": [
        {
          "name": "did",
          "type": "string"
        },
        {
          "name": "owner",
          "type": "address"
        },
        {
          "name": "ownerPercentage",
          "type": "uint8"
        },
        {
          "name": "publisher",
          "type": "address"
        },
        {
          "name": "publisherPercentage",
          "type": "uint8"
        },
        {
          "name": "user",
          "type": "address"
        },
        {
          "name": "marketplace",
          "type": "address"
        },
        {
          "name": "marketplacePercentage",
          "type": "uint8"
        },
        {
          "name": "amount",
          "type": "uint256"
        },
        {
          "name": "validFrom",
          "type": "uint256"
        },
        {
          "name": "validUntil",
          "type": "uint256"
        }
      ],
      "name": "createDeal",
      "outputs": [],
      "payable": false,
      "stateMutability": "nonpayable",
      "type": "function"
    },
    {
      "constant": false,
      "inputs": [
        {
          "name": "dealIndex",
          "type": "uint256"
        }
      ],
      "name": "payout",
      "outputs": [],
      "payable": false,
      "stateMutability": "nonpayable",
      "type": "function"
    }
  ],
  "bytecode": "0x60806040526001805460a060020a60ff021916740500000000000000000000000000000000000000001790553480156200003857600080fd5b5060405162002545380380620025458339810160408190526200005b91620000dd565b60008054600160a060020a0319163317808255604051600160a060020a039190911691907f8be0079c531659141344cd1fd0a4f28419497f9722a3daafe3b4186f6b6457e0908290a360018054600160a060020a031916600160a060020a039290921691909117905562000132565b8051620000d78162000118565b92915050565b600060208284031215620000f057600080fd5b6000620000fe8484620000ca565b949350505050565b6000600160a060020a038216620000d7565b620001238162000106565b81146200012f57600080fd5b50565b61240380620001426000396000f3fe608060405234801561001057600080fd5b5060043610610149576000357c0100000000000000000000000000000000000000000000000000000000900480638f32d59b116100ca578063d514bbd31161008e578063d514bbd314610295578063e1152343146102aa578063e2b4d7b2146102bd578063f2fde38b146102d0578063f9168231146102e357610149565b80638f32d59b1461023d5780639089bb4814610252578063a26b90f214610265578063ad7a672f1461027a578063b6b55f251461028257610149565b806341bd5fd21161011157806341bd5fd2146101d357806362a5dbbc146101e857806370a08231146101fd578063715018a6146102205780638da5cb5b1461022857610149565b806303988f841461014e57806317adfe021461018157806327e235e3146101965780633ae19474146101b85780633ccfd60b146101cb575b600080fd5b61016161015c3660046119e4565b6102eb565b6040516101789b9a9998979695949392919061205a565b60405180910390f35b61019461018f366004611861565b6103f1565b005b6101a96101a4366004611861565b610450565b6040516101789392919061224e565b6101946101c63660046118df565b610470565b6101946106a5565b6101db6107f5565b604051610178919061204c565b6101f0610804565b60405161017891906121b3565b61021061020b366004611861565b6108a4565b6040516101789493929190612269565b6101946108e8565b610230610966565b6040516101789190611fdc565b610245610975565b604051610178919061203e565b610194610260366004611887565b610986565b61026d610a4c565b60405161017891906122a7565b6101f0610a5c565b6101946102903660046119e4565b610a62565b61029d610b98565b604051610178919061202d565b6101946102b83660046119e4565b610d12565b6101946102cb366004611a20565b6111a1565b6101946102de366004611861565b6111f9565b6101f061122c565b600581815481106102f857fe5b60009182526020918290206008919091020180546040805160026001841615610100026000190190931692909204601f8101859004850283018501909152808252919350918391908301828280156103915780601f1061036657610100808354040283529160200191610391565b820191906000526020600020905b81548152906001019060200180831161037457829003601f168201915b5050506001840154600285015460038601546004870154600588015460068901546007909901549798600160a060020a038087169960ff60a060020a9889900481169a50878316995096889004871697958216969185169590940416928b565b6103f9610975565b6104215760405160e560020a62461bcd02815260040161041890612183565b60405180910390fd5b6001805473ffffffffffffffffffffffffffffffffffffffff1916600160a060020a0392909216919091179055565b600260208190526000918252604090912080546001820154919092015483565b610478610975565b6104975760405160e560020a62461bcd02815260040161041890612183565b6104a78a8a8a8a8a8a8a8a611232565b60408051610160810182528c8152600160a060020a03808d1660208084019190915260ff808e16948401949094528b821660608401528a8416608084015289821660a084015290881660c083015291861660e082015261010081018590526101208101849052610140810183905260058054600181810180845560009384528451805194969295919491936008027f036b6384b5eca791c62761152d0c79bb0604c104a5fb6f4eb0703f3154bb3db00192610567928492909101906116e2565b50602082015160018201805460408086015173ffffffffffffffffffffffffffffffffffffffff19928316600160a060020a039586161774ff00000000000000000000000000000000000000001990811660a060020a60ff938416810291909117909555606088015160028801805460808b0151908716928916929092178316918416870291909117905560a0880151600388018054861691881691909117905560c088015160048801805460e08b0151961691909716171692169092021790915561010083015160058301556101208301516006830155610140909201516007909101555191900391507fc03dfb2e53cc7a9868a03b235858db6648c1e9f761c1756dd70d8c96f10fde959061068f9083908f908f908e908d908d908c908c908c906121c1565b60405180910390a1505050505050505050505050565b60006106b0336108a4565b6001546040517f23b872dd000000000000000000000000000000000000000000000000000000008152919550600160a060020a031693506323b872dd92506107019150309033908690600401612012565b602060405180830381600087803b15801561071b57600080fd5b505af115801561072f573d6000803e3d6000fd5b505050506040513d601f19601f8201168201806040525061075391908101906118c1565b6107725760405160e560020a62461bcd02815260040161041890612133565b33600090815260026020526040902054610792908263ffffffff61148c16565b336000908152600260205260409020556003546107b5908263ffffffff61148c16565b60035560405133907fc28ed4035491dd3fc975f4d0a41ab56de1a5402b03b6c69a5265b65d1c7906dc906107ea9084906121b3565b60405180910390a250565b600154600160a060020a031681565b6001546040517f70a08231000000000000000000000000000000000000000000000000000000008152600091600160a060020a0316906370a082319061084e903090600401611fdc565b60206040518083038186803b15801561086657600080fd5b505afa15801561087a573d6000803e3d6000fd5b505050506040513d601f19601f8201168201806040525061089e9190810190611a02565b90505b90565b600160a060020a0381166000908152600260208190526040822080546001820154919092015491929091906108df848463ffffffff61148c16565b90509193509193565b6108f0610975565b61090f5760405160e560020a62461bcd02815260040161041890612183565b60008054604051600160a060020a03909116907f8be0079c531659141344cd1fd0a4f28419497f9722a3daafe3b4186f6b6457e0908390a36000805473ffffffffffffffffffffffffffffffffffffffff19169055565b600054600160a060020a031690565b600054600160a060020a0316331490565b61098e610975565b6109ad5760405160e560020a62461bcd02815260040161041890612183565b600160a060020a0382166000908152600260205260409020546109d6908263ffffffff6114bc16565b600160a060020a038316600090815260026020526040902055600354610a02908263ffffffff6114bc16565b600355604051600160a060020a038316907f4b19cef4d67ff9acd5ce891a32f323842b26f39c024bdd00047e1b74be2aea8f90610a409084906121b3565b60405180910390a25050565b60015460a060020a900460ff1681565b60035481565b6001546040517f23b872dd000000000000000000000000000000000000000000000000000000008152600160a060020a03909116906323b872dd90610aaf90339030908690600401611fea565b602060405180830381600087803b158015610ac957600080fd5b505af1158015610add573d6000803e3d6000fd5b505050506040513d601f19601f82011682018060405250610b0191908101906118c1565b610b205760405160e560020a62461bcd02815260040161041890612163565b33600090815260026020526040902054610b40908263ffffffff6114bc16565b33600090815260026020526040902055600354610b63908263ffffffff6114bc16565b60035560405133907f4b19cef4d67ff9acd5ce891a32f323842b26f39c024bdd00047e1b74be2aea8f906107ea9084906121b3565b60606005805480602002602001604051908101604052809291908181526020016000905b82821015610d095760008481526020908190206040805160088602909201805460026001821615610100026000190190911604601f81018590049094028301610180908101909252610160830184815292939092849290918491840182828015610c675780601f10610c3c57610100808354040283529160200191610c67565b820191906000526020600020905b815481529060010190602001808311610c4a57829003601f168201915b5050509183525050600182810154600160a060020a0380821660208086019190915260ff60a060020a938490048116604087015260028701548084166060880152849004811660808701526003870154831660a0870152600487015492831660c08701529290910490911660e0840152600584015461010084015260068401546101208401526007909301546101409092019190915291835292019101610bbc565b50505050905090565b610d1a611760565b60058281548110610d2757fe5b600091825260209182902060408051600893909302909101805460026001821615610100026000190190911604601f81018590049094028301610180908101909252610160830184815292939092849290918491840182828015610dcc5780601f10610da157610100808354040283529160200191610dcc565b820191906000526020600020905b815481529060010190602001808311610daf57829003601f168201915b50505091835250506001820154600160a060020a03808216602084015260ff60a060020a928390048116604085015260028501548083166060860152839004811660808501526003850154821660a0850152600485015491821660c08501529190041660e08201526005820154610100820152600682015461012080830191909152600790920154610140909101528101519091506212750001421015610e885760405160e560020a62461bcd02815260040161041890612123565b61010081015160a0820151600160a060020a0316600090815260026020526040902060010154610ebd9163ffffffff61148c16565b60a0820151600160a060020a03166000908152600260205260409081902060010191909155810151610100820151610f4191610f1591606491610f09919060ff1663ffffffff6114eb16565b9063ffffffff61152816565b602080840151600160a060020a031660009081526002918290526040902001549063ffffffff61148c16565b602080830151600160a060020a031660009081526002918290526040902001556080810151610100820151610fb791610f8a91606491610f09919060ff1663ffffffff6114eb16565b6060830151600160a060020a0316600090815260026020819052604090912001549063ffffffff61148c16565b6060820151600160a060020a03166000908152600260208190526040909120015560e081015161010082015161102e9161100191606491610f09919060ff1663ffffffff6114eb16565b60c0830151600160a060020a0316600090815260026020819052604090912001549063ffffffff6114bc16565b600260008360c00151600160a060020a0316600160a060020a03168152602001908152602001600020600201819055506110948160a00151826020015161108f6064610f09866040015160ff168761010001516114eb90919063ffffffff16565b611560565b6110c58160a00151826060015161108f6064610f09866080015160ff168761010001516114eb90919063ffffffff16565b6110f68160a001518260c0015161108f6064610f098660e0015160ff168761010001516114eb90919063ffffffff16565b600061118b6111796111226064610f098660e0015160ff168761010001516114eb90919063ffffffff16565b61116d6111496064610f09886080015160ff168961010001516114eb90919063ffffffff16565b61116d6064610f09896040015160ff168a61010001516114eb90919063ffffffff16565b9063ffffffff6114bc16565b6101008401519063ffffffff61148c16565b905061119c8260a001513083611560565b505050565b6111a9610975565b6111c85760405160e560020a62461bcd02815260040161041890612183565b6001805460ff90921660a060020a0274ff000000000000000000000000000000000000000019909216919091179055565b611201610975565b6112205760405160e560020a62461bcd02815260040161041890612183565b61122981611651565b50565b60045481565b60015460a060020a900460ff9081168689018401011660641461126a5760405160e560020a62461bcd02815260040161041890612193565b600160a060020a038416600090815260026020526040902060010154611296908263ffffffff6114bc16565b600160a060020a0385166000908152600260205260409020600101556004546112c5908263ffffffff6114bc16565b60045560006112db82606463ffffffff61152816565b905061131c6112f38260ff8b1663ffffffff6114eb16565b600160a060020a038b16600090815260026020819052604090912001549063ffffffff6114bc16565b600160a060020a038a166000908152600260208190526040909120015561137861134f8260ff891663ffffffff6114eb16565b600160a060020a038916600090815260026020819052604090912001549063ffffffff6114bc16565b600160a060020a038816600090815260026020819052604090912001556113d46113ab8260ff861663ffffffff6114eb16565b600160a060020a038616600090815260026020819052604090912001549063ffffffff6114bc16565b600160a060020a03851660009081526002602081905260408220019190915561144561143861140c8460ff881663ffffffff6114eb16565b61116d6114228660ff8d1663ffffffff6114eb16565b61116d8e60ff16886114eb90919063ffffffff16565b849063ffffffff61148c16565b306000908152600260208190526040909120015490915061146c908263ffffffff6114bc16565b306000908152600260208190526040909120015550505050505050505050565b6000828211156114b15760405160e560020a62461bcd02815260040161041890612143565b508082035b92915050565b6000828201838110156114e45760405160e560020a62461bcd02815260040161041890612113565b9392505050565b6000826114fa575060006114b6565b8282028284828161150757fe5b04146114e45760405160e560020a62461bcd02815260040161041890612173565b600080821161154c5760405160e560020a62461bcd02815260040161041890612153565b600082848161155757fe5b04949350505050565b600061156b846108a4565b9350505050808211156115935760405160e560020a62461bcd028152600401610418906121a3565b600160a060020a0384166000908152600260205260409020546115bc908363ffffffff61148c16565b600160a060020a0380861660009081526002602052604080822093909355908516815220546115f1908363ffffffff6114bc16565b600160a060020a0380851660008181526002602052604090819020939093559151908616907f53129ad8bfbcb17159505d8d2b4fd53b6df72ef4a1651fa36883270be476cc44906116439086906121b3565b60405180910390a350505050565b600160a060020a03811661167a5760405160e560020a62461bcd02815260040161041890612103565b60008054604051600160a060020a03808516939216917f8be0079c531659141344cd1fd0a4f28419497f9722a3daafe3b4186f6b6457e091a36000805473ffffffffffffffffffffffffffffffffffffffff1916600160a060020a0392909216919091179055565b828054600181600116156101000203166002900490600052602060002090601f016020900481019282601f1061172357805160ff1916838001178555611750565b82800160010185558215611750579182015b82811115611750578251825591602001919060010190611735565b5061175c9291506117bc565b5090565b6040805161016081018252606080825260006020830181905292820183905281018290526080810182905260a0810182905260c0810182905260e081018290526101008101829052610120810182905261014081019190915290565b6108a191905b8082111561175c57600081556001016117c2565b80356114b681612391565b80516114b6816123a5565b600082601f8301126117fd57600080fd5b813561181061180b826122dc565b6122b5565b9150808252602083016020830185838301111561182c57600080fd5b61183783828461234b565b50505092915050565b80356114b6816123ae565b80516114b6816123ae565b80356114b6816123b7565b60006020828403121561187357600080fd5b600061187f84846117d6565b949350505050565b6000806040838503121561189a57600080fd5b60006118a685856117d6565b92505060206118b785828601611840565b9150509250929050565b6000602082840312156118d357600080fd5b600061187f84846117e1565b60008060008060008060008060008060006101608c8e03121561190157600080fd5b8b3567ffffffffffffffff81111561191857600080fd5b6119248e828f016117ec565b9b505060206119358e828f016117d6565b9a505060406119468e828f01611856565b99505060606119578e828f016117d6565b98505060806119688e828f01611856565b97505060a06119798e828f016117d6565b96505060c061198a8e828f016117d6565b95505060e061199b8e828f01611856565b9450506101006119ad8e828f01611840565b9350506101206119bf8e828f01611840565b9250506101406119d18e828f01611840565b9150509295989b509295989b9093969950565b6000602082840312156119f657600080fd5b600061187f8484611840565b600060208284031215611a1457600080fd5b600061187f848461184b565b600060208284031215611a3257600080fd5b600061187f8484611856565b60006114e48383611ee3565b611a5381612339565b82525050565b611a5381612317565b6000611a6d8261230a565b611a77818561230e565b935083602082028501611a8985612304565b8060005b85811015611ac35784840389528151611aa68582611a3e565b9450611ab183612304565b60209a909a0199925050600101611a8d565b5091979650505050505050565b611a5381612322565b611a5381612340565b6000611aed8261230a565b611af7818561230e565b9350611b07818560208601612357565b611b1081612387565b9093019392505050565b6000611b2760268361230e565b7f4f776e61626c653a206e6577206f776e657220697320746865207a65726f206181527f6464726573730000000000000000000000000000000000000000000000000000602082015260400192915050565b6000611b86601b8361230e565b7f536166654d6174683a206164646974696f6e206f766572666c6f770000000000815260200192915050565b6000611bbf60478361230e565b7f5061796f7574732063616e206f6e6c792068617070656e20313420646179732081527f616674657220746865207374617274206f6620746865206465616c202876616c60208201527f696446726f6d2900000000000000000000000000000000000000000000000000604082015260600192915050565b6000611c4460438361230e565b7f4e6f7420656e6f7567682044545820746f6b656e7320617661696c61626c652081527f746f2077697468647261772c20636f6e74616374204461746142726f6b65724460208201527f414f210000000000000000000000000000000000000000000000000000000000604082015260600192915050565b6000611cc9601e8361230e565b7f536166654d6174683a207375627472616374696f6e206f766572666c6f770000815260200192915050565b6000611d02601a8361230e565b7f536166654d6174683a206469766973696f6e206279207a65726f000000000000815260200192915050565b6000611d3b60278361230e565b7f4e6f7420656e6f7567682044545820746f6b656e732068617665206265656e2081527f616c6c6f77656400000000000000000000000000000000000000000000000000602082015260400192915050565b6000611d9a60218361230e565b7f536166654d6174683a206d756c7469706c69636174696f6e206f766572666c6f81527f7700000000000000000000000000000000000000000000000000000000000000602082015260400192915050565b6000611df960208361230e565b7f4f776e61626c653a2063616c6c6572206973206e6f7420746865206f776e6572815260200192915050565b6000611e32602d8361230e565b7f416c6c2070657263656e7461676573206e65656420746f20616464207570207481527f6f2065786163746c792031303000000000000000000000000000000000000000602082015260400192915050565b6000611e9160318361230e565b7f4e6f7420656e6f75676820617661696c616c62652044545820746f206578656381527f7574652074686973207472616e73666572000000000000000000000000000000602082015260400192915050565b805161016080845260009190840190611efc8282611ae2565b9150506020830151611f116020860182611a59565b506040830151611f246040860182611fd3565b506060830151611f376060860182611a59565b506080830151611f4a6080860182611fd3565b5060a0830151611f5d60a0860182611a59565b5060c0830151611f7060c0860182611a59565b5060e0830151611f8360e0860182611fd3565b50610100830151611f98610100860182611fca565b50610120830151611fad610120860182611fca565b50610140830151611fc2610140860182611fca565b509392505050565b611a53816108a1565b611a5381612333565b602081016114b68284611a59565b60608101611ff88286611a4a565b6120056020830185611a59565b61187f6040830184611fca565b606081016120208286611a59565b6120056020830185611a4a565b602080825281016114e48184611a62565b602081016114b68284611ad0565b602081016114b68284611ad9565b610160808252810161206c818e611ae2565b905061207b602083018d611a59565b612088604083018c611fd3565b612095606083018b611a59565b6120a2608083018a611fd3565b6120af60a0830189611a59565b6120bc60c0830188611a59565b6120c960e0830187611fd3565b6120d7610100830186611fca565b6120e5610120830185611fca565b6120f3610140830184611fca565b9c9b505050505050505050505050565b602080825281016114b681611b1a565b602080825281016114b681611b79565b602080825281016114b681611bb2565b602080825281016114b681611c37565b602080825281016114b681611cbc565b602080825281016114b681611cf5565b602080825281016114b681611d2e565b602080825281016114b681611d8d565b602080825281016114b681611dec565b602080825281016114b681611e25565b602080825281016114b681611e84565b602081016114b68284611fca565b61012081016121d0828c611fca565b81810360208301526121e2818b611ae2565b90506121f1604083018a611a59565b6121fe6060830189611a59565b61220b6080830188611a59565b61221860a0830187611a59565b61222560c0830186611fca565b61223260e0830185611fca565b612240610100830184611fca565b9a9950505050505050505050565b6060810161225c8286611fca565b6120056020830185611fca565b608081016122778287611fca565b6122846020830186611fca565b6122916040830185611fca565b61229e6060830184611fca565b95945050505050565b602081016114b68284611fd3565b60405181810167ffffffffffffffff811182821017156122d457600080fd5b604052919050565b600067ffffffffffffffff8211156122f357600080fd5b506020601f91909101601f19160190565b60200190565b5190565b90815260200190565b60006114b682612327565b151590565b600160a060020a031690565b60ff1690565b60006114b6825b60006114b682612317565b82818337506000910152565b60005b8381101561237257818101518382015260200161235a565b83811115612381576000848401525b50505050565b601f01601f191690565b61239a81612317565b811461122957600080fd5b61239a81612322565b61239a816108a1565b61239a8161233356fea365627a7a7230582070a7eaa174c973b8c5713aca389a1ef7384e2e4365b7f10d6609fe11f92edab26c6578706572696d656e74616cf564736f6c634300050a0040",
  "source": "pragma solidity ^0.5.10;\npragma experimental ABIEncoderV2;\n\nimport \"../node_modules/openzeppelin-solidity/contracts/ownership/Ownable.sol\";\nimport \"../node_modules/openzeppelin-solidity/contracts/math/SafeMath.sol\";\nimport \"../node_modules/openzeppelin-solidity/contracts/token/ERC20/ERC20.sol\";\nimport \"../node_modules/openzeppelin-solidity/contracts/token/ERC20/SafeERC20.sol\";\n\ncontract DXC is Ownable {\n\n  using SafeMath for uint256;\n  using SafeMath for uint8;\n  using SafeERC20 for ERC20;\n\n  ERC20 public dtxToken;\n  uint8 public protocolPercentage = 5;\n\n  constructor(address token) public {\n    dtxToken = ERC20(token);\n  }\n\n  ///////////////////////////////////////////////////////////////////////////////////////\n  //// Mofifiers for default settings                                                ////\n  ///////////////////////////////////////////////////////////////////////////////////////\n\n  function changeProtocolPercentage(uint8 _protocolPercentage) public onlyOwner {\n    protocolPercentage = _protocolPercentage;\n  }\n\n  function changeDTXToken(address token) public onlyOwner {\n    dtxToken = ERC20(token);\n  }\n\n  ///////////////////////////////////////////////////////////////////////////////////////\n  //// DTX Bank                                                                      ////\n  ///////////////////////////////////////////////////////////////////////////////////////\n\n  struct TokenAvailabiltity {\n    uint256 balance;\n    uint256 escrowOutgoing;\n    uint256 escrowIncoming;\n  }\n\n  struct Escrow {\n    uint256 amount;\n    uint256 releaseAfter;\n    address to;\n    address from;\n  }\n\n  mapping(address => TokenAvailabiltity) public balances;\n  uint256 public totalBalance;\n  uint256 public totalEscrowed;\n\n  event DepositDTX(address indexed from, uint256 amount);\n  event WithdrawDTX(address indexed to, uint256 amount);\n  event TransferDTX(address indexed from, address indexed to, uint256 value);\n\n  function platformBalance() public view returns (uint256) {\n    return dtxToken.balanceOf(address(this));\n  }\n\n  function balanceOf(address owner) public view returns (uint256 balance, uint256 escrowOutgoing, uint256 escrowIncoming, uint256 available) {\n    balance = balances[owner].balance;\n    escrowOutgoing = balances[owner].escrowOutgoing;\n    escrowIncoming = balances[owner].escrowIncoming;\n    available = balances[owner].balance.sub(balances[owner].escrowOutgoing);\n  }\n\n  function convertFiatToToken(address to, uint256 amount) public onlyOwner {\n    balances[to].balance = balances[to].balance.add(amount);\n    totalBalance = totalBalance.add(amount);\n    emit DepositDTX(to, amount);\n  }\n\n  function deposit(uint256 amount) public {\n    require(dtxToken.transferFrom(msg.sender, address(this), amount), \"Not enough DTX tokens have been allowed\");\n    balances[msg.sender].balance = balances[msg.sender].balance.add(amount);\n    totalBalance = totalBalance.add(amount);\n    emit DepositDTX(msg.sender, amount);\n  }\n\n  function withdraw() public {\n    (,,, uint256 available) = balanceOf(msg.sender);\n    require(dtxToken.transferFrom(address(this), msg.sender, available), \"Not enough DTX tokens available to withdraw, contact DataBrokerDAO!\");\n    balances[msg.sender].balance = balances[msg.sender].balance.sub(available);\n    totalBalance = totalBalance.sub(available);\n    emit WithdrawDTX(msg.sender, available);\n  }\n\n  /**\n   * address(0) is the address we use for escrowed funds, they are tracked in escrowedDTX\n   */\n  function transfer(address from, address to, uint256 amount) internal {\n    (,,, uint256 available) = balanceOf(from);\n    require(amount <= available, \"Not enough availalbe DTX to execute this transfer\");\n    balances[from].balance = balances[from].balance.sub(amount);\n    balances[to].balance = balances[to].balance.add(amount);\n    emit TransferDTX(from, to, amount);\n  }\n\n  function escrow(\n    address owner,\n    uint8 ownerPercentage,\n    address publisher,\n    uint8 publisherPercentage,\n    address user,\n    address marketplace,\n    uint8 marketplacePercentage,\n    uint256 amount) internal\n  {\n    require(ownerPercentage+publisherPercentage+marketplacePercentage+protocolPercentage == 100, \"All percentages need to add up to exactly 100\");\n    balances[user].escrowOutgoing = balances[user].escrowOutgoing.add(amount);\n    totalEscrowed = totalEscrowed.add(amount);\n    uint256 basePoint = amount.div(100);\n    balances[owner].escrowIncoming = balances[owner].escrowIncoming.add(basePoint.mul(ownerPercentage));\n    balances[publisher].escrowIncoming = balances[publisher].escrowIncoming.add(basePoint.mul(publisherPercentage));\n    balances[marketplace].escrowIncoming = balances[marketplace].escrowIncoming.add(basePoint.mul(marketplacePercentage));\n    uint256 protocolAmount = amount.sub((basePoint.mul(ownerPercentage)).add(basePoint.mul(publisherPercentage)).add(basePoint.mul(marketplacePercentage)));\n    balances[address(this)].escrowIncoming = balances[address(this)].escrowIncoming.add(protocolAmount);\n  }\n\n  ///////////////////////////////////////////////////////////////////////////////////////\n  //// Deals                                                                         ////\n  ///////////////////////////////////////////////////////////////////////////////////////\n\n  struct Deal {\n    string did; // the did of the data share in question\n    address owner;\n    uint8 ownerPercentage;\n    address publisher;\n    uint8 publisherPercentage;\n    address user;\n    address marketplace;\n    uint8 marketplacePercentage;\n    uint256 amount;\n    uint256 validFrom; // 0 means forever, all others are a timestamp\n    uint256 validUntil; // 0 means forever, all others are a timestamp\n  }\n\n  Deal[] public deals;\n\n  event NewDeal(\n    uint256 dealIndex,\n    string did,\n    address owner,\n    address publisher,\n    address user,\n    address marketplace,\n    uint256 amount,\n    uint256 validFrom,\n    uint256 validUntil\n  );\n\n  function getAllDeals() public view returns (Deal[] memory) {\n    return deals;\n  }\n\n  function createDeal(\n    string memory did,\n    address owner,\n    uint8 ownerPercentage,\n    address publisher,\n    uint8 publisherPercentage,\n    address user,\n    address marketplace,\n    uint8 marketplacePercentage,\n    uint256 amount,\n    uint256 validFrom,\n    uint256 validUntil\n  ) public onlyOwner {\n    escrow(\n      owner,\n      ownerPercentage,\n      publisher,\n      publisherPercentage,\n      user,\n      marketplace,\n      marketplacePercentage,\n      amount\n    );\n    uint256 dealIndex = deals.push(Deal(\n      did,\n      owner,\n      ownerPercentage,\n      publisher,\n      publisherPercentage,\n      user,\n      marketplace,\n      marketplacePercentage,\n      amount,\n      validFrom,\n      validUntil\n    )) - 1;\n    emit NewDeal(\n      dealIndex,\n      did,\n      owner,\n      publisher,\n      user,\n      marketplace,\n      amount,\n      validFrom,\n      validUntil\n    );\n  }\n\n  function payout(uint256 dealIndex) public {\n    Deal memory deal = deals[dealIndex];\n    require(now >= deal.validFrom + 14 days, \"Payouts can only happen 14 days after the start of the deal (validFrom)\");\n    // release escrow\n    balances[deal.user].escrowOutgoing = balances[deal.user].escrowOutgoing.sub(deal.amount);\n    balances[deal.owner].escrowIncoming = balances[deal.owner].escrowIncoming.sub(deal.amount.mul(deal.ownerPercentage).div(100));\n    balances[deal.publisher].escrowIncoming = balances[deal.publisher].escrowIncoming.sub(deal.amount.mul(deal.publisherPercentage).div(100));\n    balances[deal.marketplace].escrowIncoming = balances[deal.marketplace].escrowIncoming.add(deal.amount.mul(deal.marketplacePercentage).div(100));\n    // transfer DTX\n    transfer(deal.user, deal.owner, deal.amount.mul(deal.ownerPercentage).div(100));\n    transfer(deal.user, deal.publisher, deal.amount.mul(deal.publisherPercentage).div(100));\n    transfer(deal.user, deal.marketplace, deal.amount.mul(deal.marketplacePercentage).div(100));\n    uint256 protocolAmount = deal.amount.sub((deal.amount.mul(deal.ownerPercentage).div(100)).add(deal.amount.mul(deal.publisherPercentage).div(100)).add(deal.amount.mul(deal.marketplacePercentage).div(100)));\n    transfer(deal.user, address(this), protocolAmount);\n  }\n\n}\n",
  "sourcePath": "/Users/roderik/Development/databrokerdao-dxc/contracts/contracts/DXC.sol",
  "compiler": {
    "name": "solc",
    "version": "0.5.10+commit.5a6ea5b1.Emscripten.clang"
  },
  "schemaVersion": "3.0.11",
  "updatedAt": "2019-07-25T12:59:49.737Z",
  "devdoc": {
    "methods": {
      "isOwner()": {
        "details": "Returns true if the caller is the current owner."
      },
      "owner()": {
        "details": "Returns the address of the current owner."
      },
      "renounceOwnership()": {
        "details": "Leaves the contract without owner. It will not be possible to call `onlyOwner` functions anymore. Can only be called by the current owner.     * > Note: Renouncing ownership will leave the contract without an owner, thereby removing any functionality that is only available to the owner."
      },
      "transferOwnership(address)": {
        "details": "Transfers ownership of the contract to a new account (`newOwner`). Can only be called by the current owner."
      }
    }
  },
  "userdoc": {
    "methods": {
      "changeProtocolPercentage(uint8)": {
        "notice": "//////////////////////////////////////////////////////////////////////////////////// / Mofifiers for default settings                                                //// ////////////////////////////////////////////////////////////////////////////////////"
      }
    }
  }
}