{
  "contractName": "DXC",
  "abi": [
    {
      "constant": true,
      "inputs": [
        {
          "name": "",
          "type": "address"
        }
      ],
      "name": "balances",
      "outputs": [
        {
          "name": "balance",
          "type": "uint256"
        },
        {
          "name": "escrowOutgoing",
          "type": "uint256"
        },
        {
          "name": "escrowIncoming",
          "type": "uint256"
        }
      ],
      "payable": false,
      "stateMutability": "view",
      "type": "function"
    },
    {
      "constant": true,
      "inputs": [],
      "name": "dtxToken",
      "outputs": [
        {
          "name": "",
          "type": "address"
        }
      ],
      "payable": false,
      "stateMutability": "view",
      "type": "function"
    },
    {
      "constant": false,
      "inputs": [],
      "name": "renounceOwnership",
      "outputs": [],
      "payable": false,
      "stateMutability": "nonpayable",
      "type": "function"
    },
    {
      "constant": true,
      "inputs": [
        {
          "name": "",
          "type": "uint256"
        }
      ],
      "name": "dealsList",
      "outputs": [
        {
          "name": "did",
          "type": "string"
        },
        {
          "name": "owner",
          "type": "address"
        },
        {
          "name": "ownerPercentage",
          "type": "uint8"
        },
        {
          "name": "publisher",
          "type": "address"
        },
        {
          "name": "publisherPercentage",
          "type": "uint8"
        },
        {
          "name": "user",
          "type": "address"
        },
        {
          "name": "marketplace",
          "type": "address"
        },
        {
          "name": "marketplacePercentage",
          "type": "uint8"
        },
        {
          "name": "amount",
          "type": "uint256"
        },
        {
          "name": "validFrom",
          "type": "uint256"
        },
        {
          "name": "validUntil",
          "type": "uint256"
        }
      ],
      "payable": false,
      "stateMutability": "view",
      "type": "function"
    },
    {
      "constant": true,
      "inputs": [],
      "name": "owner",
      "outputs": [
        {
          "name": "",
          "type": "address"
        }
      ],
      "payable": false,
      "stateMutability": "view",
      "type": "function"
    },
    {
      "constant": true,
      "inputs": [],
      "name": "isOwner",
      "outputs": [
        {
          "name": "",
          "type": "bool"
        }
      ],
      "payable": false,
      "stateMutability": "view",
      "type": "function"
    },
    {
      "constant": true,
      "inputs": [],
      "name": "protocolPercentage",
      "outputs": [
        {
          "name": "",
          "type": "uint8"
        }
      ],
      "payable": false,
      "stateMutability": "view",
      "type": "function"
    },
    {
      "constant": true,
      "inputs": [],
      "name": "totalBalance",
      "outputs": [
        {
          "name": "",
          "type": "uint256"
        }
      ],
      "payable": false,
      "stateMutability": "view",
      "type": "function"
    },
    {
      "constant": false,
      "inputs": [
        {
          "name": "newOwner",
          "type": "address"
        }
      ],
      "name": "transferOwnership",
      "outputs": [],
      "payable": false,
      "stateMutability": "nonpayable",
      "type": "function"
    },
    {
      "constant": true,
      "inputs": [],
      "name": "totalEscrowed",
      "outputs": [
        {
          "name": "",
          "type": "uint256"
        }
      ],
      "payable": false,
      "stateMutability": "view",
      "type": "function"
    },
    {
      "inputs": [
        {
          "name": "token",
          "type": "address"
        }
      ],
      "payable": false,
      "stateMutability": "nonpayable",
      "type": "constructor"
    },
    {
      "anonymous": false,
      "inputs": [
        {
          "indexed": true,
          "name": "from",
          "type": "address"
        },
        {
          "indexed": false,
          "name": "amount",
          "type": "uint256"
        }
      ],
      "name": "DepositDTX",
      "type": "event"
    },
    {
      "anonymous": false,
      "inputs": [
        {
          "indexed": true,
          "name": "to",
          "type": "address"
        },
        {
          "indexed": false,
          "name": "amount",
          "type": "uint256"
        }
      ],
      "name": "WithdrawDTX",
      "type": "event"
    },
    {
      "anonymous": false,
      "inputs": [
        {
          "indexed": true,
          "name": "from",
          "type": "address"
        },
        {
          "indexed": true,
          "name": "to",
          "type": "address"
        },
        {
          "indexed": false,
          "name": "value",
          "type": "uint256"
        }
      ],
      "name": "TransferDTX",
      "type": "event"
    },
    {
      "anonymous": false,
      "inputs": [
        {
          "indexed": false,
          "name": "dealIndex",
          "type": "uint256"
        },
        {
          "indexed": false,
          "name": "did",
          "type": "string"
        },
        {
          "indexed": false,
          "name": "owner",
          "type": "address"
        },
        {
          "indexed": false,
          "name": "publisher",
          "type": "address"
        },
        {
          "indexed": false,
          "name": "user",
          "type": "address"
        },
        {
          "indexed": false,
          "name": "marketplace",
          "type": "address"
        },
        {
          "indexed": false,
          "name": "amount",
          "type": "uint256"
        },
        {
          "indexed": false,
          "name": "validFrom",
          "type": "uint256"
        },
        {
          "indexed": false,
          "name": "validUntil",
          "type": "uint256"
        }
      ],
      "name": "NewDeal",
      "type": "event"
    },
    {
      "anonymous": false,
      "inputs": [
        {
          "indexed": true,
          "name": "previousOwner",
          "type": "address"
        },
        {
          "indexed": true,
          "name": "newOwner",
          "type": "address"
        }
      ],
      "name": "OwnershipTransferred",
      "type": "event"
    },
    {
      "constant": false,
      "inputs": [
        {
          "name": "_protocolPercentage",
          "type": "uint8"
        }
      ],
      "name": "changeProtocolPercentage",
      "outputs": [],
      "payable": false,
      "stateMutability": "nonpayable",
      "type": "function"
    },
    {
      "constant": false,
      "inputs": [
        {
          "name": "token",
          "type": "address"
        }
      ],
      "name": "changeDTXToken",
      "outputs": [],
      "payable": false,
      "stateMutability": "nonpayable",
      "type": "function"
    },
    {
      "constant": true,
      "inputs": [],
      "name": "platformBalance",
      "outputs": [
        {
          "name": "",
          "type": "uint256"
        }
      ],
      "payable": false,
      "stateMutability": "view",
      "type": "function"
    },
    {
      "constant": true,
      "inputs": [
        {
          "name": "owner",
          "type": "address"
        }
      ],
      "name": "balanceOf",
      "outputs": [
        {
          "name": "balance",
          "type": "uint256"
        },
        {
          "name": "escrowOutgoing",
          "type": "uint256"
        },
        {
          "name": "escrowIncoming",
          "type": "uint256"
        },
        {
          "name": "available",
          "type": "uint256"
        }
      ],
      "payable": false,
      "stateMutability": "view",
      "type": "function"
    },
    {
      "constant": false,
      "inputs": [
        {
          "name": "to",
          "type": "address"
        },
        {
          "name": "amount",
          "type": "uint256"
        }
      ],
      "name": "convertFiatToToken",
      "outputs": [],
      "payable": false,
      "stateMutability": "nonpayable",
      "type": "function"
    },
    {
      "constant": false,
      "inputs": [
        {
          "name": "amount",
          "type": "uint256"
        }
      ],
      "name": "deposit",
      "outputs": [],
      "payable": false,
      "stateMutability": "nonpayable",
      "type": "function"
    },
    {
      "constant": false,
      "inputs": [],
      "name": "withdraw",
      "outputs": [],
      "payable": false,
      "stateMutability": "nonpayable",
      "type": "function"
    },
    {
      "constant": true,
      "inputs": [],
      "name": "allDeals",
      "outputs": [
        {
          "components": [
            {
              "name": "did",
              "type": "string"
            },
            {
              "name": "owner",
              "type": "address"
            },
            {
              "name": "ownerPercentage",
              "type": "uint8"
            },
            {
              "name": "publisher",
              "type": "address"
            },
            {
              "name": "publisherPercentage",
              "type": "uint8"
            },
            {
              "name": "user",
              "type": "address"
            },
            {
              "name": "marketplace",
              "type": "address"
            },
            {
              "name": "marketplacePercentage",
              "type": "uint8"
            },
            {
              "name": "amount",
              "type": "uint256"
            },
            {
              "name": "validFrom",
              "type": "uint256"
            },
            {
              "name": "validUntil",
              "type": "uint256"
            }
          ],
          "name": "",
          "type": "tuple[]"
        }
      ],
      "payable": false,
      "stateMutability": "view",
      "type": "function"
    },
    {
      "constant": true,
      "inputs": [
        {
          "name": "index",
          "type": "uint256"
        }
      ],
      "name": "deal",
      "outputs": [
        {
          "components": [
            {
              "name": "did",
              "type": "string"
            },
            {
              "name": "owner",
              "type": "address"
            },
            {
              "name": "ownerPercentage",
              "type": "uint8"
            },
            {
              "name": "publisher",
              "type": "address"
            },
            {
              "name": "publisherPercentage",
              "type": "uint8"
            },
            {
              "name": "user",
              "type": "address"
            },
            {
              "name": "marketplace",
              "type": "address"
            },
            {
              "name": "marketplacePercentage",
              "type": "uint8"
            },
            {
              "name": "amount",
              "type": "uint256"
            },
            {
              "name": "validFrom",
              "type": "uint256"
            },
            {
              "name": "validUntil",
              "type": "uint256"
            }
          ],
          "name": "",
          "type": "tuple"
        }
      ],
      "payable": false,
      "stateMutability": "view",
      "type": "function"
    },
    {
      "constant": true,
      "inputs": [
        {
          "name": "did",
          "type": "string"
        }
      ],
      "name": "deals",
      "outputs": [
        {
          "components": [
            {
              "name": "did",
              "type": "string"
            },
            {
              "name": "owner",
              "type": "address"
            },
            {
              "name": "ownerPercentage",
              "type": "uint8"
            },
            {
              "name": "publisher",
              "type": "address"
            },
            {
              "name": "publisherPercentage",
              "type": "uint8"
            },
            {
              "name": "user",
              "type": "address"
            },
            {
              "name": "marketplace",
              "type": "address"
            },
            {
              "name": "marketplacePercentage",
              "type": "uint8"
            },
            {
              "name": "amount",
              "type": "uint256"
            },
            {
              "name": "validFrom",
              "type": "uint256"
            },
            {
              "name": "validUntil",
              "type": "uint256"
            }
          ],
          "name": "",
          "type": "tuple[]"
        }
      ],
      "payable": false,
      "stateMutability": "view",
      "type": "function"
    },
    {
      "constant": false,
      "inputs": [
        {
          "name": "did",
          "type": "string"
        },
        {
          "name": "owner",
          "type": "address"
        },
        {
          "name": "ownerPercentage",
          "type": "uint8"
        },
        {
          "name": "publisher",
          "type": "address"
        },
        {
          "name": "publisherPercentage",
          "type": "uint8"
        },
        {
          "name": "user",
          "type": "address"
        },
        {
          "name": "marketplace",
          "type": "address"
        },
        {
          "name": "marketplacePercentage",
          "type": "uint8"
        },
        {
          "name": "amount",
          "type": "uint256"
        },
        {
          "name": "validFrom",
          "type": "uint256"
        },
        {
          "name": "validUntil",
          "type": "uint256"
        }
      ],
      "name": "createDeal",
      "outputs": [],
      "payable": false,
      "stateMutability": "nonpayable",
      "type": "function"
    },
    {
      "constant": false,
      "inputs": [
        {
          "name": "dealIndex",
          "type": "uint256"
        }
      ],
      "name": "payout",
      "outputs": [],
      "payable": false,
      "stateMutability": "nonpayable",
      "type": "function"
    }
  ],
  "bytecode": "0x60806040526001805460ff60a01b1916740500000000000000000000000000000000000000001790553480156200003557600080fd5b5060405162002a4d38038062002a4d8339810160408190526200005891620000da565b600080546001600160a01b03191633178082556040516001600160a01b039190911691907f8be0079c531659141344cd1fd0a4f28419497f9722a3daafe3b4186f6b6457e0908290a3600180546001600160a01b0319166001600160a01b03929092169190911790556200012f565b8051620000d48162000115565b92915050565b600060208284031215620000ed57600080fd5b6000620000fb8484620000c7565b949350505050565b60006001600160a01b038216620000d4565b620001208162000103565b81146200012c57600080fd5b50565b61290e806200013f6000396000f3fe608060405234801561001057600080fd5b50600436106101425760003560e01c80638f32d59b116100b8578063b6b55f251161007c578063b6b55f25146102a3578063c959c42b146102b6578063e1152343146102d6578063e2b4d7b2146102e9578063f2fde38b146102fc578063f91682311461030f57610142565b80638f32d59b1461024b5780639089bb4814610260578063a0a57dac14610273578063a26b90f214610286578063ad7a672f1461029b57610142565b806362a5dbbc1161010a57806362a5dbbc146101b757806370a08231146101cc578063715018a6146101ef5780637186320c146101f757806380c3abe01461020c5780638da5cb5b1461023657610142565b806317adfe021461014757806327e235e31461015c5780633ae19474146101875780633ccfd60b1461019a57806341bd5fd2146101a2575b600080fd5b61015a610155366004611cf3565b610317565b005b61016f61016a366004611cf3565b610366565b60405161017e93929190612754565b60405180910390f35b61015a610195366004611da6565b610386565b61015a610739565b6101aa610876565b60405161017e9190612531565b6101bf610885565b60405161017e91906126b9565b6101df6101da366004611cf3565b61090c565b60405161017e949392919061276f565b61015a610950565b6101ff6109be565b60405161017e9190612512565b61021f61021a366004611eab565b610b38565b60405161017e9b9a9998979695949392919061253f565b61023e610c3e565b60405161017e91906124b3565b610253610c4d565b60405161017e9190612523565b61015a61026e366004611d19565b610c5e565b6101ff610281366004611d71565b610d21565b61028e610eb9565b60405161017e91906127ad565b6101bf610ec9565b61015a6102b1366004611eab565b610ecf565b6102c96102c4366004611eab565b611087565b60405161017e91906126a8565b61015a6102e4366004611eab565b6111d3565b61015a6102f7366004611ee7565b61165f565b61015a61030a366004611cf3565b6116a3565b6101bf6116d3565b61031f610c4d565b6103445760405162461bcd60e51b815260040161033b90612678565b60405180910390fd5b600180546001600160a01b0319166001600160a01b0392909216919091179055565b600260208190526000918252604090912080546001820154919092015483565b61038e610c4d565b6103aa5760405162461bcd60e51b815260040161033b90612678565b6103ba8a8a8a8a8a8a8a8a6116d9565b6103c2611b74565b5060408051610160810182528c81526001600160a01b03808d1660208084019190915260ff808e16948401949094528b821660608401528a8416608084015289821660a084015290881660c083015291861660e08201526101008101859052610120810184905261014081018390526005805460018181018084556000938452845180519596949592949193879360089091027f036b6384b5eca791c62761152d0c79bb0604c104a5fb6f4eb0703f3154bb3db00192610486928492910190611bd0565b5060208201516001820180546040808601516001600160a01b03199283166001600160a01b039586161760ff60a01b19908116600160a01b60ff938416810291909117909555606088015160028801805460808b0151908716928916929092178316918416870291909117905560a0880151600388018054861691881691909117905560c088015160048801805460e08b015196169190971617169216909202179091556101008301516005830155610120830151600680840191909155610140909301516007909201919091555192909103925090610567908f906124a7565b9081526040516020918190038201902080546001810180835560009283529183902085518051939487946008909402909201926105a79284920190611bd0565b5060208201518160010160006101000a8154816001600160a01b0302191690836001600160a01b0316021790555060408201518160010160146101000a81548160ff021916908360ff16021790555060608201518160020160006101000a8154816001600160a01b0302191690836001600160a01b0316021790555060808201518160020160146101000a81548160ff021916908360ff16021790555060a08201518160030160006101000a8154816001600160a01b0302191690836001600160a01b0316021790555060c08201518160040160006101000a8154816001600160a01b0302191690836001600160a01b0316021790555060e08201518160040160146101000a81548160ff021916908360ff1602179055506101008201518160050155610120820151816006015561014082015181600701555050507fc03dfb2e53cc7a9868a03b235858db6648c1e9f761c1756dd70d8c96f10fde95818e8e8d8c8c8b8b8b604051610722999897969594939291906126c7565b60405180910390a150505050505050505050505050565b60006107443361090c565b3360009081526002602052604090205490945061076c9350915083905063ffffffff61193016565b3360009081526002602052604090205560035461078f908263ffffffff61193016565b60035560015460405163a9059cbb60e01b81526001600160a01b039091169063a9059cbb906107c490339085906004016124f7565b602060405180830381600087803b1580156107de57600080fd5b505af11580156107f2573d6000803e3d6000fd5b505050506040513d601f19601f820116820180604052506108169190810190611d53565b6108325760405162461bcd60e51b815260040161033b90612628565b336001600160a01b03167fc28ed4035491dd3fc975f4d0a41ab56de1a5402b03b6c69a5265b65d1c7906dc8260405161086b91906126b9565b60405180910390a250565b6001546001600160a01b031681565b6001546040516370a0823160e01b81526000916001600160a01b0316906370a08231906108b69030906004016124b3565b60206040518083038186803b1580156108ce57600080fd5b505afa1580156108e2573d6000803e3d6000fd5b505050506040513d601f19601f820116820180604052506109069190810190611ec9565b90505b90565b6001600160a01b038116600090815260026020819052604082208054600182015491909201549192909190610947848463ffffffff61193016565b90509193509193565b610958610c4d565b6109745760405162461bcd60e51b815260040161033b90612678565b600080546040516001600160a01b03909116907f8be0079c531659141344cd1fd0a4f28419497f9722a3daafe3b4186f6b6457e0908390a3600080546001600160a01b0319169055565b60606005805480602002602001604051908101604052809291908181526020016000905b82821015610b2f5760008481526020908190206040805160088602909201805460026001821615610100026000190190911604601f81018590049094028301610180908101909252610160830184815292939092849290918491840182828015610a8d5780601f10610a6257610100808354040283529160200191610a8d565b820191906000526020600020905b815481529060010190602001808311610a7057829003601f168201915b50505091835250506001828101546001600160a01b0380821660208086019190915260ff600160a01b938490048116604087015260028701548084166060880152849004811660808701526003870154831660a0870152600487015492831660c08701529290910490911660e08401526005840154610100840152600684015461012084015260079093015461014090920191909152918352920191016109e2565b50505050905090565b60058181548110610b4557fe5b60009182526020918290206008919091020180546040805160026001841615610100026000190190931692909204601f810185900485028301850190915280825291935091839190830182828015610bde5780601f10610bb357610100808354040283529160200191610bde565b820191906000526020600020905b815481529060010190602001808311610bc157829003601f168201915b50505060018401546002850154600386015460048701546005880154600689015460079099015497986001600160a01b038087169960ff600160a01b9889900481169a50878316995096889004871697958216969185169590940416928b565b6000546001600160a01b031690565b6000546001600160a01b0316331490565b610c66610c4d565b610c825760405162461bcd60e51b815260040161033b90612678565b6001600160a01b038216600090815260026020526040902054610cab908263ffffffff61195d16565b6001600160a01b038316600090815260026020526040902055600354610cd7908263ffffffff61195d16565b6003556040516001600160a01b038316907f4b19cef4d67ff9acd5ce891a32f323842b26f39c024bdd00047e1b74be2aea8f90610d159084906126b9565b60405180910390a25050565b6060600682604051610d3391906124a7565b9081526020016040518091039020805480602002602001604051908101604052809291908181526020016000905b82821015610eae5760008481526020908190206040805160088602909201805460026001821615610100026000190190911604601f81018590049094028301610180908101909252610160830184815292939092849290918491840182828015610e0c5780601f10610de157610100808354040283529160200191610e0c565b820191906000526020600020905b815481529060010190602001808311610def57829003601f168201915b50505091835250506001828101546001600160a01b0380821660208086019190915260ff600160a01b938490048116604087015260028701548084166060880152849004811660808701526003870154831660a0870152600487015492831660c08701529290910490911660e0840152600584015461010084015260068401546101208401526007909301546101409092019190915291835292019101610d61565b505050509050919050565b600154600160a01b900460ff1681565b60035481565b6001546040516370a0823160e01b815282916001600160a01b0316906370a0823190610eff9033906004016124c1565b60206040518083038186803b158015610f1757600080fd5b505afa158015610f2b573d6000803e3d6000fd5b505050506040513d601f19601f82011682018060405250610f4f9190810190611ec9565b1015610f6d5760405162461bcd60e51b815260040161033b90612658565b6001546040516323b872dd60e01b81526001600160a01b03909116906323b872dd90610fa1903390309086906004016124cf565b602060405180830381600087803b158015610fbb57600080fd5b505af1158015610fcf573d6000803e3d6000fd5b505050506040513d601f19601f82011682018060405250610ff39190810190611d53565b61100f5760405162461bcd60e51b815260040161033b906125e8565b3360009081526002602052604090205461102f908263ffffffff61195d16565b33600090815260026020526040902055600354611052908263ffffffff61195d16565b60035560405133907f4b19cef4d67ff9acd5ce891a32f323842b26f39c024bdd00047e1b74be2aea8f9061086b9084906126b9565b61108f611b74565b6005828154811061109c57fe5b600091825260209182902060408051600893909302909101805460026001821615610100026000190190911604601f810185900490940283016101809081019092526101608301848152929390928492909184918401828280156111415780601f1061111657610100808354040283529160200191611141565b820191906000526020600020905b81548152906001019060200180831161112457829003601f168201915b505050918352505060018201546001600160a01b03808216602084015260ff600160a01b928390048116604085015260028501548083166060860152839004811660808501526003850154821660a0850152600485015491821660c08501529190041660e082015260058201546101008201526006820154610120820152600790910154610140909101529050919050565b6111db611b74565b600582815481106111e857fe5b600091825260209182902060408051600893909302909101805460026001821615610100026000190190911604601f8101859004909402830161018090810190925261016083018481529293909284929091849184018282801561128d5780601f106112625761010080835404028352916020019161128d565b820191906000526020600020905b81548152906001019060200180831161127057829003601f168201915b505050918352505060018201546001600160a01b03808216602084015260ff600160a01b928390048116604085015260028501548083166060860152839004811660808501526003850154821660a0850152600485015491821660c08501529190041660e082015260058201546101008201526006820154610120808301919091526007909201546101409091015281015190915062127500014210156113465760405162461bcd60e51b815260040161033b90612618565b61010081015160a08201516001600160a01b031660009081526002602052604090206001015461137b9163ffffffff61193016565b60a08201516001600160a01b031660009081526002602052604090819020600101919091558101516101008201516113ff916113d3916064916113c7919060ff1663ffffffff61198916565b9063ffffffff6119c316565b6020808401516001600160a01b031660009081526002918290526040902001549063ffffffff61193016565b6020808301516001600160a01b03166000908152600291829052604090200155608081015161010082015161147591611448916064916113c7919060ff1663ffffffff61198916565b60608301516001600160a01b0316600090815260026020819052604090912001549063ffffffff61193016565b60608201516001600160a01b03166000908152600260208190526040909120015560e08101516101008201516114ec916114bf916064916113c7919060ff1663ffffffff61198916565b60c08301516001600160a01b0316600090815260026020819052604090912001549063ffffffff61195d16565b600260008360c001516001600160a01b03166001600160a01b03168152602001908152602001600020600201819055506115528160a00151826020015161154d60646113c7866040015160ff1687610100015161198990919063ffffffff16565b6119f8565b6115838160a00151826060015161154d60646113c7866080015160ff1687610100015161198990919063ffffffff16565b6115b48160a001518260c0015161154d60646113c78660e0015160ff1687610100015161198990919063ffffffff16565b60006116496116376115e060646113c78660e0015160ff1687610100015161198990919063ffffffff16565b61162b61160760646113c7886080015160ff1689610100015161198990919063ffffffff16565b61162b60646113c7896040015160ff168a610100015161198990919063ffffffff16565b9063ffffffff61195d16565b6101008401519063ffffffff61193016565b905061165a8260a0015130836119f8565b505050565b611667610c4d565b6116835760405162461bcd60e51b815260040161033b90612678565b6001805460ff909216600160a01b0260ff60a01b19909216919091179055565b6116ab610c4d565b6116c75760405162461bcd60e51b815260040161033b90612678565b6116d081611af3565b50565b60045481565b600154600160a01b900460ff9081168689018401011660641461170e5760405162461bcd60e51b815260040161033b90612688565b6001600160a01b03841660009081526002602052604090206001015461173a908263ffffffff61195d16565b6001600160a01b038516600090815260026020526040902060010155600454611769908263ffffffff61195d16565b600455600061177f82606463ffffffff6119c316565b90506117c06117978260ff8b1663ffffffff61198916565b6001600160a01b038b16600090815260026020819052604090912001549063ffffffff61195d16565b6001600160a01b038a166000908152600260208190526040909120015561181c6117f38260ff891663ffffffff61198916565b6001600160a01b038916600090815260026020819052604090912001549063ffffffff61195d16565b6001600160a01b0388166000908152600260208190526040909120015561187861184f8260ff861663ffffffff61198916565b6001600160a01b038616600090815260026020819052604090912001549063ffffffff61195d16565b6001600160a01b0385166000908152600260208190526040822001919091556118e96118dc6118b08460ff881663ffffffff61198916565b61162b6118c68660ff8d1663ffffffff61198916565b61162b8e60ff168861198990919063ffffffff16565b849063ffffffff61193016565b3060009081526002602081905260409091200154909150611910908263ffffffff61195d16565b306000908152600260208190526040909120015550505050505050505050565b6000828211156119525760405162461bcd60e51b815260040161033b90612638565b508082035b92915050565b6000828201838110156119825760405162461bcd60e51b815260040161033b90612608565b9392505050565b60008261199857506000611957565b828202828482816119a557fe5b04146119825760405162461bcd60e51b815260040161033b90612668565b60008082116119e45760405162461bcd60e51b815260040161033b90612648565b60008284816119ef57fe5b04949350505050565b6000611a038461090c565b6001600160a01b038816600090815260026020526040902054909450611a349350915084905063ffffffff61193016565b6001600160a01b038086166000908152600260205260408082209390935590851681522054611a69908363ffffffff61195d16565b6001600160a01b03841660009081526002602052604090205580821115611aa25760405162461bcd60e51b815260040161033b90612698565b826001600160a01b0316846001600160a01b03167f53129ad8bfbcb17159505d8d2b4fd53b6df72ef4a1651fa36883270be476cc4484604051611ae591906126b9565b60405180910390a350505050565b6001600160a01b038116611b195760405162461bcd60e51b815260040161033b906125f8565b600080546040516001600160a01b03808516939216917f8be0079c531659141344cd1fd0a4f28419497f9722a3daafe3b4186f6b6457e091a3600080546001600160a01b0319166001600160a01b0392909216919091179055565b6040805161016081018252606080825260006020830181905292820183905281018290526080810182905260a0810182905260c0810182905260e081018290526101008101829052610120810182905261014081019190915290565b828054600181600116156101000203166002900490600052602060002090601f016020900481019282601f10611c1157805160ff1916838001178555611c3e565b82800160010185558215611c3e579182015b82811115611c3e578251825591602001919060010190611c23565b50611c4a929150611c4e565b5090565b61090991905b80821115611c4a5760008155600101611c54565b80356119578161289c565b8051611957816128b0565b600082601f830112611c8f57600080fd5b8135611ca2611c9d826127e2565b6127bb565b91508082526020830160208301858383011115611cbe57600080fd5b611cc9838284612856565b50505092915050565b8035611957816128b9565b8051611957816128b9565b8035611957816128c2565b600060208284031215611d0557600080fd5b6000611d118484611c68565b949350505050565b60008060408385031215611d2c57600080fd5b6000611d388585611c68565b9250506020611d4985828601611cd2565b9150509250929050565b600060208284031215611d6557600080fd5b6000611d118484611c73565b600060208284031215611d8357600080fd5b813567ffffffffffffffff811115611d9a57600080fd5b611d1184828501611c7e565b60008060008060008060008060008060006101608c8e031215611dc857600080fd5b8b3567ffffffffffffffff811115611ddf57600080fd5b611deb8e828f01611c7e565b9b50506020611dfc8e828f01611c68565b9a50506040611e0d8e828f01611ce8565b9950506060611e1e8e828f01611c68565b9850506080611e2f8e828f01611ce8565b97505060a0611e408e828f01611c68565b96505060c0611e518e828f01611c68565b95505060e0611e628e828f01611ce8565b945050610100611e748e828f01611cd2565b935050610120611e868e828f01611cd2565b925050610140611e988e828f01611cd2565b9150509295989b509295989b9093969950565b600060208284031215611ebd57600080fd5b6000611d118484611cd2565b600060208284031215611edb57600080fd5b6000611d118484611cdd565b600060208284031215611ef957600080fd5b6000611d118484611ce8565b600061198283836123ae565b611f1a81612844565b82525050565b611f1a81612822565b6000611f3482612810565b611f3e8185612814565b935083602082028501611f508561280a565b8060005b85811015611f8a5784840389528151611f6d8582611f05565b9450611f788361280a565b60209a909a0199925050600101611f54565b5091979650505050505050565b611f1a8161282d565b611f1a8161284b565b6000611fb482612810565b611fbe8185612814565b9350611fce818560208601612862565b611fd781612892565b9093019392505050565b6000611fec82612810565b611ff6818561281d565b9350612006818560208601612862565b9290920192915050565b600061201d603283612814565b7f445458207472616e73666572206661696c65642c2070726f6261626c7920746f8152716f206c6974746c6520616c6c6f77616e636560701b602082015260400192915050565b6000612071602683612814565b7f4f776e61626c653a206e6577206f776e657220697320746865207a65726f206181526564647265737360d01b602082015260400192915050565b60006120b9601b83612814565b7f536166654d6174683a206164646974696f6e206f766572666c6f770000000000815260200192915050565b60006120f2604783612814565b7f5061796f7574732063616e206f6e6c792068617070656e20313420646179732081527f616674657220746865207374617274206f6620746865206465616c202876616c602082015266696446726f6d2960c81b604082015260600192915050565b6000612161604383612814565b7f4e6f7420656e6f7567682044545820746f6b656e7320617661696c61626c652081527f746f2077697468647261772c20636f6e74616374204461746142726f6b657244602082015262414f2160e81b604082015260600192915050565b60006121cc601e83612814565b7f536166654d6174683a207375627472616374696f6e206f766572666c6f770000815260200192915050565b6000612205601a83612814565b7f536166654d6174683a206469766973696f6e206279207a65726f000000000000815260200192915050565b600061223e603783612814565b7f53656e6465722068617320746f6f206c6974746c652044545820746f206d616b81527f652074686973207472616e73616374696f6e20776f726b000000000000000000602082015260400192915050565b600061229d602183612814565b7f536166654d6174683a206d756c7469706c69636174696f6e206f766572666c6f8152607760f81b602082015260400192915050565b60006122e0602083612814565b7f4f776e61626c653a2063616c6c6572206973206e6f7420746865206f776e6572815260200192915050565b6000612319602d83612814565b7f416c6c2070657263656e7461676573206e65656420746f20616464207570207481526c06f2065786163746c792031303609c1b602082015260400192915050565b6000612368603183612814565b7f4e6f7420656e6f75676820617661696c616c62652044545820746f20657865638152703aba32903a3434b9903a3930b739b332b960791b602082015260400192915050565b8051610160808452600091908401906123c78282611fa9565b91505060208301516123dc6020860182611f20565b5060408301516123ef604086018261249e565b5060608301516124026060860182611f20565b506080830151612415608086018261249e565b5060a083015161242860a0860182611f20565b5060c083015161243b60c0860182611f20565b5060e083015161244e60e086018261249e565b50610100830151612463610100860182612495565b50610120830151612478610120860182612495565b5061014083015161248d610140860182612495565b509392505050565b611f1a81610909565b611f1a8161283e565b60006119828284611fe1565b602081016119578284611f20565b602081016119578284611f11565b606081016124dd8286611f11565b6124ea6020830185611f20565b611d116040830184612495565b604081016125058285611f11565b6119826020830184612495565b602080825281016119828184611f29565b602081016119578284611f97565b602081016119578284611fa0565b6101608082528101612551818e611fa9565b9050612560602083018d611f20565b61256d604083018c61249e565b61257a606083018b611f20565b612587608083018a61249e565b61259460a0830189611f20565b6125a160c0830188611f20565b6125ae60e083018761249e565b6125bc610100830186612495565b6125ca610120830185612495565b6125d8610140830184612495565b9c9b505050505050505050505050565b6020808252810161195781612010565b6020808252810161195781612064565b60208082528101611957816120ac565b60208082528101611957816120e5565b6020808252810161195781612154565b60208082528101611957816121bf565b60208082528101611957816121f8565b6020808252810161195781612231565b6020808252810161195781612290565b60208082528101611957816122d3565b602080825281016119578161230c565b602080825281016119578161235b565b6020808252810161198281846123ae565b602081016119578284612495565b61012081016126d6828c612495565b81810360208301526126e8818b611fa9565b90506126f7604083018a611f20565b6127046060830189611f20565b6127116080830188611f20565b61271e60a0830187611f20565b61272b60c0830186612495565b61273860e0830185612495565b612746610100830184612495565b9a9950505050505050505050565b606081016127628286612495565b6124ea6020830185612495565b6080810161277d8287612495565b61278a6020830186612495565b6127976040830185612495565b6127a46060830184612495565b95945050505050565b60208101611957828461249e565b60405181810167ffffffffffffffff811182821017156127da57600080fd5b604052919050565b600067ffffffffffffffff8211156127f957600080fd5b506020601f91909101601f19160190565b60200190565b5190565b90815260200190565b919050565b600061195782612832565b151590565b6001600160a01b031690565b60ff1690565b6000611957825b600061195782612822565b82818337506000910152565b60005b8381101561287d578181015183820152602001612865565b8381111561288c576000848401525b50505050565b601f01601f191690565b6128a581612822565b81146116d057600080fd5b6128a58161282d565b6128a581610909565b6128a58161283e56fea365627a7a723058204e43bb0c8480f4baacbb6d2a86b1b254d7eb8a5f286305e7209f06ceda8a04b36c6578706572696d656e74616cf564736f6c634300050a0040",
  "source": "pragma solidity ^0.5.0;\npragma experimental ABIEncoderV2;\n\nimport \"../node_modules/openzeppelin-solidity/contracts/ownership/Ownable.sol\";\nimport \"../node_modules/openzeppelin-solidity/contracts/math/SafeMath.sol\";\nimport \"../node_modules/openzeppelin-solidity/contracts/token/ERC20/ERC20.sol\";\nimport \"../node_modules/openzeppelin-solidity/contracts/token/ERC20/SafeERC20.sol\";\n\ncontract DXC is Ownable {\n\n  using SafeMath for uint256;\n  using SafeMath for uint8;\n  using SafeERC20 for ERC20;\n\n  ERC20 public dtxToken;\n  uint8 public protocolPercentage = 5;\n\n  constructor(address token) public {\n    dtxToken = ERC20(token);\n  }\n\n  ///////////////////////////////////////////////////////////////////////////////////////\n  //// Mofifiers for default settings                                                ////\n  ///////////////////////////////////////////////////////////////////////////////////////\n\n  function changeProtocolPercentage(uint8 _protocolPercentage) public onlyOwner {\n    protocolPercentage = _protocolPercentage;\n  }\n\n  function changeDTXToken(address token) public onlyOwner {\n    dtxToken = ERC20(token);\n  }\n\n  ///////////////////////////////////////////////////////////////////////////////////////\n  //// DTX Bank                                                                      ////\n  ///////////////////////////////////////////////////////////////////////////////////////\n\n  struct TokenAvailabiltity {\n    uint256 balance;\n    uint256 escrowOutgoing;\n    uint256 escrowIncoming;\n  }\n\n  struct Escrow {\n    uint256 amount;\n    uint256 releaseAfter;\n    address to;\n    address from;\n  }\n\n  mapping(address => TokenAvailabiltity) public balances;\n  uint256 public totalBalance;\n  uint256 public totalEscrowed;\n\n  event DepositDTX(address indexed from, uint256 amount);\n  event WithdrawDTX(address indexed to, uint256 amount);\n  event TransferDTX(address indexed from, address indexed to, uint256 value);\n\n  function platformBalance() public view returns (uint256) {\n    return dtxToken.balanceOf(address(this));\n  }\n\n  function balanceOf(address owner) public view returns (uint256 balance, uint256 escrowOutgoing, uint256 escrowIncoming, uint256 available) {\n    balance = balances[owner].balance;\n    escrowOutgoing = balances[owner].escrowOutgoing;\n    escrowIncoming = balances[owner].escrowIncoming;\n    available = balances[owner].balance.sub(balances[owner].escrowOutgoing);\n  }\n\n  function convertFiatToToken(address to, uint256 amount) public onlyOwner {\n    balances[to].balance = balances[to].balance.add(amount);\n    totalBalance = totalBalance.add(amount);\n    emit DepositDTX(to, amount);\n  }\n\n  function deposit(uint256 amount) public {\n    require(dtxToken.balanceOf(msg.sender) >= amount, \"Sender has too little DTX to make this transaction work\");\n    require(dtxToken.transferFrom(msg.sender, address(this), amount), \"DTX transfer failed, probably too little allowance\");\n    balances[msg.sender].balance = balances[msg.sender].balance.add(amount);\n    totalBalance = totalBalance.add(amount);\n    emit DepositDTX(msg.sender, amount);\n  }\n\n  function withdraw() public {\n    (,,, uint256 available) = balanceOf(msg.sender);\n    balances[msg.sender].balance = balances[msg.sender].balance.sub(available);\n    totalBalance = totalBalance.sub(available);\n    require(dtxToken.transfer(msg.sender, available), \"Not enough DTX tokens available to withdraw, contact DataBrokerDAO!\");\n    emit WithdrawDTX(msg.sender, available);\n  }\n\n  /**\n   * address(0) is the address we use for escrowed funds, they are tracked in escrowedDTX\n   */\n  function transfer(address from, address to, uint256 amount) internal {\n    (,,, uint256 available) = balanceOf(from);\n    balances[from].balance = balances[from].balance.sub(amount);\n    balances[to].balance = balances[to].balance.add(amount);\n    require(amount <= available, \"Not enough availalbe DTX to execute this transfer\");\n    emit TransferDTX(from, to, amount);\n  }\n\n  function escrow(\n    address owner,\n    uint8 ownerPercentage,\n    address publisher,\n    uint8 publisherPercentage,\n    address user,\n    address marketplace,\n    uint8 marketplacePercentage,\n    uint256 amount) internal\n  {\n    require(ownerPercentage+publisherPercentage+marketplacePercentage+protocolPercentage == 100, \"All percentages need to add up to exactly 100\");\n    balances[user].escrowOutgoing = balances[user].escrowOutgoing.add(amount);\n    totalEscrowed = totalEscrowed.add(amount);\n    uint256 basePoint = amount.div(100);\n    balances[owner].escrowIncoming = balances[owner].escrowIncoming.add(basePoint.mul(ownerPercentage));\n    balances[publisher].escrowIncoming = balances[publisher].escrowIncoming.add(basePoint.mul(publisherPercentage));\n    balances[marketplace].escrowIncoming = balances[marketplace].escrowIncoming.add(basePoint.mul(marketplacePercentage));\n    uint256 protocolAmount = amount.sub((basePoint.mul(ownerPercentage)).add(basePoint.mul(publisherPercentage)).add(basePoint.mul(marketplacePercentage)));\n    balances[address(this)].escrowIncoming = balances[address(this)].escrowIncoming.add(protocolAmount);\n  }\n\n  ///////////////////////////////////////////////////////////////////////////////////////\n  //// Deals                                                                         ////\n  ///////////////////////////////////////////////////////////////////////////////////////\n\n  struct Deal {\n    string did; // the did of the data share in question\n    address owner;\n    uint8 ownerPercentage;\n    address publisher;\n    uint8 publisherPercentage;\n    address user;\n    address marketplace;\n    uint8 marketplacePercentage;\n    uint256 amount;\n    uint256 validFrom; // 0 means forever, all others are a timestamp\n    uint256 validUntil; // 0 means forever, all others are a timestamp\n  }\n\n  Deal[] public dealsList;\n\n  mapping(string => Deal[]) didToDeals;\n\n  event NewDeal(\n    uint256 dealIndex,\n    string did,\n    address owner,\n    address publisher,\n    address user,\n    address marketplace,\n    uint256 amount,\n    uint256 validFrom,\n    uint256 validUntil\n  );\n\n  function allDeals() public view returns (Deal[] memory) {\n    return dealsList;\n  }\n\n  function deal(uint256 index) public view returns (Deal memory){\n    return dealsList[index];\n  }\n\n  function deals(string memory did) public view returns (Deal[] memory){\n    return didToDeals[did];\n  }\n\n  function createDeal(\n    string memory did,\n    address owner,\n    uint8 ownerPercentage,\n    address publisher,\n    uint8 publisherPercentage,\n    address user,\n    address marketplace,\n    uint8 marketplacePercentage,\n    uint256 amount,\n    uint256 validFrom,\n    uint256 validUntil\n  ) public onlyOwner {\n    escrow(\n      owner,\n      ownerPercentage,\n      publisher,\n      publisherPercentage,\n      user,\n      marketplace,\n      marketplacePercentage,\n      amount\n    );\n    Deal memory newDeal = Deal(\n      did,\n      owner,\n      ownerPercentage,\n      publisher,\n      publisherPercentage,\n      user,\n      marketplace,\n      marketplacePercentage,\n      amount,\n      validFrom,\n      validUntil\n    );\n    uint256 dealIndex = dealsList.push(newDeal) - 1;\n    didToDeals[did].push(newDeal);\n    emit NewDeal(\n      dealIndex,\n      did,\n      owner,\n      publisher,\n      user,\n      marketplace,\n      amount,\n      validFrom,\n      validUntil\n    );\n  }\n\n  function payout(uint256 dealIndex) public {\n    Deal memory _deal = dealsList[dealIndex];\n    require(now >= _deal.validFrom + 14 days, \"Payouts can only happen 14 days after the start of the deal (validFrom)\");\n    // release escrow\n    balances[_deal.user].escrowOutgoing = balances[_deal.user].escrowOutgoing.sub(_deal.amount);\n    balances[_deal.owner].escrowIncoming = balances[_deal.owner].escrowIncoming.sub(_deal.amount.mul(_deal.ownerPercentage).div(100));\n    balances[_deal.publisher].escrowIncoming = balances[_deal.publisher].escrowIncoming.sub(_deal.amount.mul(_deal.publisherPercentage).div(100));\n    balances[_deal.marketplace].escrowIncoming = balances[_deal.marketplace].escrowIncoming.add(_deal.amount.mul(_deal.marketplacePercentage).div(100));\n    // transfer DTX\n    transfer(_deal.user, _deal.owner, _deal.amount.mul(_deal.ownerPercentage).div(100));\n    transfer(_deal.user, _deal.publisher, _deal.amount.mul(_deal.publisherPercentage).div(100));\n    transfer(_deal.user, _deal.marketplace, _deal.amount.mul(_deal.marketplacePercentage).div(100));\n    uint256 protocolAmount = _deal.amount.sub((_deal.amount.mul(_deal.ownerPercentage).div(100)).add(_deal.amount.mul(_deal.publisherPercentage).div(100)).add(_deal.amount.mul(_deal.marketplacePercentage).div(100)));\n    transfer(_deal.user, address(this), protocolAmount);\n  }\n\n}\n",
  "sourcePath": "/Users/roderik/Development/dxc/contracts/contracts/DXC.sol",
  "compiler": {
    "name": "solc",
    "version": "0.5.10+commit.5a6ea5b1.Emscripten.clang"
  },
  "schemaVersion": "3.0.11",
  "updatedAt": "2019-07-30T14:18:41.625Z",
  "devdoc": {
    "methods": {
      "isOwner()": {
        "details": "Returns true if the caller is the current owner."
      },
      "owner()": {
        "details": "Returns the address of the current owner."
      },
      "renounceOwnership()": {
        "details": "Leaves the contract without owner. It will not be possible to call `onlyOwner` functions anymore. Can only be called by the current owner.     * > Note: Renouncing ownership will leave the contract without an owner, thereby removing any functionality that is only available to the owner."
      },
      "transferOwnership(address)": {
        "details": "Transfers ownership of the contract to a new account (`newOwner`). Can only be called by the current owner."
      }
    }
  },
  "userdoc": {
    "methods": {
      "changeProtocolPercentage(uint8)": {
        "notice": "//////////////////////////////////////////////////////////////////////////////////// / Mofifiers for default settings                                                //// ////////////////////////////////////////////////////////////////////////////////////"
      }
    }
  }
}