{
  "contractName": "DXC",
  "abi": [
    {
      "constant": true,
      "inputs": [
        {
          "name": "",
          "type": "address"
        }
      ],
      "name": "balances",
      "outputs": [
        {
          "name": "balance",
          "type": "uint256"
        },
        {
          "name": "escrowOutgoing",
          "type": "uint256"
        },
        {
          "name": "escrowIncoming",
          "type": "uint256"
        }
      ],
      "payable": false,
      "stateMutability": "view",
      "type": "function"
    },
    {
      "constant": true,
      "inputs": [],
      "name": "dtxToken",
      "outputs": [
        {
          "name": "",
          "type": "address"
        }
      ],
      "payable": false,
      "stateMutability": "view",
      "type": "function"
    },
    {
      "constant": true,
      "inputs": [
        {
          "name": "",
          "type": "address"
        },
        {
          "name": "",
          "type": "uint256"
        }
      ],
      "name": "userToDeals",
      "outputs": [
        {
          "name": "did",
          "type": "string"
        },
        {
          "name": "owner",
          "type": "address"
        },
        {
          "name": "ownerPercentage",
          "type": "uint8"
        },
        {
          "name": "publisher",
          "type": "address"
        },
        {
          "name": "publisherPercentage",
          "type": "uint8"
        },
        {
          "name": "user",
          "type": "address"
        },
        {
          "name": "marketplace",
          "type": "address"
        },
        {
          "name": "marketplacePercentage",
          "type": "uint8"
        },
        {
          "name": "amount",
          "type": "uint256"
        },
        {
          "name": "validFrom",
          "type": "uint256"
        },
        {
          "name": "validUntil",
          "type": "uint256"
        }
      ],
      "payable": false,
      "stateMutability": "view",
      "type": "function"
    },
    {
      "constant": false,
      "inputs": [],
      "name": "renounceOwnership",
      "outputs": [],
      "payable": false,
      "stateMutability": "nonpayable",
      "type": "function"
    },
    {
      "constant": true,
      "inputs": [
        {
          "name": "",
          "type": "string"
        },
        {
          "name": "",
          "type": "uint256"
        }
      ],
      "name": "didToDeals",
      "outputs": [
        {
          "name": "did",
          "type": "string"
        },
        {
          "name": "owner",
          "type": "address"
        },
        {
          "name": "ownerPercentage",
          "type": "uint8"
        },
        {
          "name": "publisher",
          "type": "address"
        },
        {
          "name": "publisherPercentage",
          "type": "uint8"
        },
        {
          "name": "user",
          "type": "address"
        },
        {
          "name": "marketplace",
          "type": "address"
        },
        {
          "name": "marketplacePercentage",
          "type": "uint8"
        },
        {
          "name": "amount",
          "type": "uint256"
        },
        {
          "name": "validFrom",
          "type": "uint256"
        },
        {
          "name": "validUntil",
          "type": "uint256"
        }
      ],
      "payable": false,
      "stateMutability": "view",
      "type": "function"
    },
    {
      "constant": true,
      "inputs": [
        {
          "name": "",
          "type": "uint256"
        }
      ],
      "name": "dealsList",
      "outputs": [
        {
          "name": "did",
          "type": "string"
        },
        {
          "name": "owner",
          "type": "address"
        },
        {
          "name": "ownerPercentage",
          "type": "uint8"
        },
        {
          "name": "publisher",
          "type": "address"
        },
        {
          "name": "publisherPercentage",
          "type": "uint8"
        },
        {
          "name": "user",
          "type": "address"
        },
        {
          "name": "marketplace",
          "type": "address"
        },
        {
          "name": "marketplacePercentage",
          "type": "uint8"
        },
        {
          "name": "amount",
          "type": "uint256"
        },
        {
          "name": "validFrom",
          "type": "uint256"
        },
        {
          "name": "validUntil",
          "type": "uint256"
        }
      ],
      "payable": false,
      "stateMutability": "view",
      "type": "function"
    },
    {
      "constant": true,
      "inputs": [],
      "name": "owner",
      "outputs": [
        {
          "name": "",
          "type": "address"
        }
      ],
      "payable": false,
      "stateMutability": "view",
      "type": "function"
    },
    {
      "constant": true,
      "inputs": [],
      "name": "isOwner",
      "outputs": [
        {
          "name": "",
          "type": "bool"
        }
      ],
      "payable": false,
      "stateMutability": "view",
      "type": "function"
    },
    {
      "constant": true,
      "inputs": [],
      "name": "protocolPercentage",
      "outputs": [
        {
          "name": "",
          "type": "uint8"
        }
      ],
      "payable": false,
      "stateMutability": "view",
      "type": "function"
    },
    {
      "constant": true,
      "inputs": [],
      "name": "totalBalance",
      "outputs": [
        {
          "name": "",
          "type": "uint256"
        }
      ],
      "payable": false,
      "stateMutability": "view",
      "type": "function"
    },
    {
      "constant": false,
      "inputs": [
        {
          "name": "newOwner",
          "type": "address"
        }
      ],
      "name": "transferOwnership",
      "outputs": [],
      "payable": false,
      "stateMutability": "nonpayable",
      "type": "function"
    },
    {
      "constant": true,
      "inputs": [],
      "name": "totalEscrowed",
      "outputs": [
        {
          "name": "",
          "type": "uint256"
        }
      ],
      "payable": false,
      "stateMutability": "view",
      "type": "function"
    },
    {
      "inputs": [
        {
          "name": "token",
          "type": "address"
        }
      ],
      "payable": false,
      "stateMutability": "nonpayable",
      "type": "constructor"
    },
    {
      "anonymous": false,
      "inputs": [
        {
          "indexed": true,
          "name": "from",
          "type": "address"
        },
        {
          "indexed": false,
          "name": "amount",
          "type": "uint256"
        }
      ],
      "name": "DepositDTX",
      "type": "event"
    },
    {
      "anonymous": false,
      "inputs": [
        {
          "indexed": true,
          "name": "to",
          "type": "address"
        },
        {
          "indexed": false,
          "name": "amount",
          "type": "uint256"
        }
      ],
      "name": "WithdrawDTX",
      "type": "event"
    },
    {
      "anonymous": false,
      "inputs": [
        {
          "indexed": true,
          "name": "from",
          "type": "address"
        },
        {
          "indexed": true,
          "name": "to",
          "type": "address"
        },
        {
          "indexed": false,
          "name": "value",
          "type": "uint256"
        }
      ],
      "name": "TransferDTX",
      "type": "event"
    },
    {
      "anonymous": false,
      "inputs": [
        {
          "indexed": false,
          "name": "dealIndex",
          "type": "uint256"
        },
        {
          "indexed": false,
          "name": "did",
          "type": "string"
        },
        {
          "indexed": false,
          "name": "owner",
          "type": "address"
        },
        {
          "indexed": false,
          "name": "publisher",
          "type": "address"
        },
        {
          "indexed": false,
          "name": "user",
          "type": "address"
        },
        {
          "indexed": false,
          "name": "marketplace",
          "type": "address"
        },
        {
          "indexed": false,
          "name": "amount",
          "type": "uint256"
        },
        {
          "indexed": false,
          "name": "validFrom",
          "type": "uint256"
        },
        {
          "indexed": false,
          "name": "validUntil",
          "type": "uint256"
        }
      ],
      "name": "NewDeal",
      "type": "event"
    },
    {
      "anonymous": false,
      "inputs": [
        {
          "indexed": true,
          "name": "previousOwner",
          "type": "address"
        },
        {
          "indexed": true,
          "name": "newOwner",
          "type": "address"
        }
      ],
      "name": "OwnershipTransferred",
      "type": "event"
    },
    {
      "constant": false,
      "inputs": [
        {
          "name": "_protocolPercentage",
          "type": "uint8"
        }
      ],
      "name": "changeProtocolPercentage",
      "outputs": [],
      "payable": false,
      "stateMutability": "nonpayable",
      "type": "function"
    },
    {
      "constant": false,
      "inputs": [
        {
          "name": "token",
          "type": "address"
        }
      ],
      "name": "changeDTXToken",
      "outputs": [],
      "payable": false,
      "stateMutability": "nonpayable",
      "type": "function"
    },
    {
      "constant": true,
      "inputs": [],
      "name": "platformBalance",
      "outputs": [
        {
          "name": "",
          "type": "uint256"
        }
      ],
      "payable": false,
      "stateMutability": "view",
      "type": "function"
    },
    {
      "constant": true,
      "inputs": [
        {
          "name": "owner",
          "type": "address"
        }
      ],
      "name": "balanceOf",
      "outputs": [
        {
          "name": "balance",
          "type": "uint256"
        },
        {
          "name": "escrowOutgoing",
          "type": "uint256"
        },
        {
          "name": "escrowIncoming",
          "type": "uint256"
        },
        {
          "name": "available",
          "type": "uint256"
        },
        {
          "name": "globalBalance",
          "type": "uint256"
        }
      ],
      "payable": false,
      "stateMutability": "view",
      "type": "function"
    },
    {
      "constant": false,
      "inputs": [
        {
          "name": "to",
          "type": "address"
        },
        {
          "name": "amount",
          "type": "uint256"
        }
      ],
      "name": "convertFiatToToken",
      "outputs": [],
      "payable": false,
      "stateMutability": "nonpayable",
      "type": "function"
    },
    {
      "constant": false,
      "inputs": [
        {
          "name": "amount",
          "type": "uint256"
        }
      ],
      "name": "deposit",
      "outputs": [],
      "payable": false,
      "stateMutability": "nonpayable",
      "type": "function"
    },
    {
      "constant": false,
      "inputs": [
        {
          "name": "amount",
          "type": "uint256"
        }
      ],
      "name": "platformDeposit",
      "outputs": [],
      "payable": false,
      "stateMutability": "nonpayable",
      "type": "function"
    },
    {
      "constant": false,
      "inputs": [],
      "name": "withdraw",
      "outputs": [],
      "payable": false,
      "stateMutability": "nonpayable",
      "type": "function"
    },
    {
      "constant": false,
      "inputs": [
        {
          "name": "amount",
          "type": "uint256"
        }
      ],
      "name": "platformTokenWithdraw",
      "outputs": [],
      "payable": false,
      "stateMutability": "nonpayable",
      "type": "function"
    },
    {
      "constant": true,
      "inputs": [],
      "name": "allDeals",
      "outputs": [
        {
          "components": [
            {
              "name": "did",
              "type": "string"
            },
            {
              "name": "owner",
              "type": "address"
            },
            {
              "name": "ownerPercentage",
              "type": "uint8"
            },
            {
              "name": "publisher",
              "type": "address"
            },
            {
              "name": "publisherPercentage",
              "type": "uint8"
            },
            {
              "name": "user",
              "type": "address"
            },
            {
              "name": "marketplace",
              "type": "address"
            },
            {
              "name": "marketplacePercentage",
              "type": "uint8"
            },
            {
              "name": "amount",
              "type": "uint256"
            },
            {
              "name": "validFrom",
              "type": "uint256"
            },
            {
              "name": "validUntil",
              "type": "uint256"
            }
          ],
          "name": "",
          "type": "tuple[]"
        }
      ],
      "payable": false,
      "stateMutability": "view",
      "type": "function"
    },
    {
      "constant": true,
      "inputs": [
        {
          "name": "index",
          "type": "uint256"
        }
      ],
      "name": "deal",
      "outputs": [
        {
          "components": [
            {
              "name": "did",
              "type": "string"
            },
            {
              "name": "owner",
              "type": "address"
            },
            {
              "name": "ownerPercentage",
              "type": "uint8"
            },
            {
              "name": "publisher",
              "type": "address"
            },
            {
              "name": "publisherPercentage",
              "type": "uint8"
            },
            {
              "name": "user",
              "type": "address"
            },
            {
              "name": "marketplace",
              "type": "address"
            },
            {
              "name": "marketplacePercentage",
              "type": "uint8"
            },
            {
              "name": "amount",
              "type": "uint256"
            },
            {
              "name": "validFrom",
              "type": "uint256"
            },
            {
              "name": "validUntil",
              "type": "uint256"
            }
          ],
          "name": "",
          "type": "tuple"
        }
      ],
      "payable": false,
      "stateMutability": "view",
      "type": "function"
    },
    {
      "constant": true,
      "inputs": [
        {
          "name": "did",
          "type": "string"
        }
      ],
      "name": "dealsForDID",
      "outputs": [
        {
          "components": [
            {
              "name": "did",
              "type": "string"
            },
            {
              "name": "owner",
              "type": "address"
            },
            {
              "name": "ownerPercentage",
              "type": "uint8"
            },
            {
              "name": "publisher",
              "type": "address"
            },
            {
              "name": "publisherPercentage",
              "type": "uint8"
            },
            {
              "name": "user",
              "type": "address"
            },
            {
              "name": "marketplace",
              "type": "address"
            },
            {
              "name": "marketplacePercentage",
              "type": "uint8"
            },
            {
              "name": "amount",
              "type": "uint256"
            },
            {
              "name": "validFrom",
              "type": "uint256"
            },
            {
              "name": "validUntil",
              "type": "uint256"
            }
          ],
          "name": "",
          "type": "tuple[]"
        }
      ],
      "payable": false,
      "stateMutability": "view",
      "type": "function"
    },
    {
      "constant": true,
      "inputs": [
        {
          "name": "user",
          "type": "address"
        }
      ],
      "name": "dealsForAddress",
      "outputs": [
        {
          "components": [
            {
              "name": "did",
              "type": "string"
            },
            {
              "name": "owner",
              "type": "address"
            },
            {
              "name": "ownerPercentage",
              "type": "uint8"
            },
            {
              "name": "publisher",
              "type": "address"
            },
            {
              "name": "publisherPercentage",
              "type": "uint8"
            },
            {
              "name": "user",
              "type": "address"
            },
            {
              "name": "marketplace",
              "type": "address"
            },
            {
              "name": "marketplacePercentage",
              "type": "uint8"
            },
            {
              "name": "amount",
              "type": "uint256"
            },
            {
              "name": "validFrom",
              "type": "uint256"
            },
            {
              "name": "validUntil",
              "type": "uint256"
            }
          ],
          "name": "",
          "type": "tuple[]"
        }
      ],
      "payable": false,
      "stateMutability": "view",
      "type": "function"
    },
    {
      "constant": true,
      "inputs": [
        {
          "name": "did",
          "type": "string"
        },
        {
          "name": "user",
          "type": "address"
        }
      ],
      "name": "hasAccessToDiD",
      "outputs": [
        {
          "name": "",
          "type": "bool"
        }
      ],
      "payable": false,
      "stateMutability": "view",
      "type": "function"
    },
    {
      "constant": false,
      "inputs": [
        {
          "name": "did",
          "type": "string"
        },
        {
          "name": "owner",
          "type": "address"
        },
        {
          "name": "ownerPercentage",
          "type": "uint8"
        },
        {
          "name": "publisher",
          "type": "address"
        },
        {
          "name": "publisherPercentage",
          "type": "uint8"
        },
        {
          "name": "user",
          "type": "address"
        },
        {
          "name": "marketplace",
          "type": "address"
        },
        {
          "name": "marketplacePercentage",
          "type": "uint8"
        },
        {
          "name": "amount",
          "type": "uint256"
        },
        {
          "name": "validFrom",
          "type": "uint256"
        },
        {
          "name": "validUntil",
          "type": "uint256"
        }
      ],
      "name": "createDeal",
      "outputs": [],
      "payable": false,
      "stateMutability": "nonpayable",
      "type": "function"
    },
    {
      "constant": false,
      "inputs": [
        {
          "name": "dealIndex",
          "type": "uint256"
        }
      ],
      "name": "payout",
      "outputs": [],
      "payable": false,
      "stateMutability": "nonpayable",
      "type": "function"
    }
  ],
  "bytecode": "0x60806040526001805460a060020a60ff021916740500000000000000000000000000000000000000001790553480156200003857600080fd5b50604051620034b8380380620034b88339810160408190526200005b91620000dd565b60008054600160a060020a0319163317808255604051600160a060020a039190911691907f8be0079c531659141344cd1fd0a4f28419497f9722a3daafe3b4186f6b6457e0908290a360018054600160a060020a031916600160a060020a039290921691909117905562000132565b8051620000d78162000118565b92915050565b600060208284031215620000f057600080fd5b6000620000fe8484620000ca565b949350505050565b6000600160a060020a038216620000d7565b620001238162000106565b81146200012f57600080fd5b50565b61337680620001426000396000f3fe608060405234801561001057600080fd5b50600436106101e1576000357c01000000000000000000000000000000000000000000000000000000009004806380c3abe011610116578063b6b55f25116100b4578063e2b4d7b21161008e578063e2b4d7b2146103e8578063ebddf72b146103fb578063f2fde38b1461040e578063f916823114610421576101e1565b8063b6b55f25146103a2578063c959c42b146103b5578063e1152343146103d5576101e1565b80638f32d59b116100f05780638f32d59b1461036a5780639089bb4814610372578063a26b90f214610385578063ad7a672f1461039a576101e1565b806380c3abe01461032f57806389635756146103425780638da5cb5b14610355576101e1565b8063518f3f061161018357806370a082311161015d57806370a08231146102e8578063715018a61461030c5780637186320c14610314578063743ebb7f1461031c576101e1565b8063518f3f061461028957806362a5dbbc146102a9578063655d4ece146102be576101e1565b80633ae19474116101bf5780633ae19474146102465780633bb74427146102595780633ccfd60b1461026c57806341bd5fd214610274576101e1565b8063034c3092146101e657806317adfe021461020f57806327e235e314610224575b600080fd5b6101f96101f43660046125d6565b610429565b6040516102069190612f4e565b60405180910390f35b61022261021d366004612516565b610538565b005b610237610232366004612516565b610597565b604051610206939291906131a2565b61022261025436600461262b565b6105b7565b610222610267366004612766565b610ab3565b610222610b83565b61027c610cdd565b6040516102069190612f5c565b61029c610297366004612516565b610cec565b6040516102069190612f3d565b6102b1610e7c565b6040516102069190613107565b6102d16102cc36600461253c565b610f1c565b6040516102069b9a99989796959493929190612f7c565b6102fb6102f6366004612516565b61102e565b6040516102069594939291906131bd565b61022261110f565b61029c61118d565b6102d161032a366004612730565b611307565b6102d161033d366004612766565b61132f565b61029c610350366004612594565b6113aa565b61035d611546565b6040516102069190612ed0565b6101f9611555565b61022261038036600461253c565b611566565b61038d6115dd565b6040516102069190613209565b6102b16115ed565b6102226103b0366004612766565b6115f3565b6103c86103c3366004612766565b6117e3565b60405161020691906130f6565b6102226103e3366004612766565b61192f565b6102226103f63660046127a2565b611dbe565b610222610409366004612766565b611e16565b61022261041c366004612516565b611e70565b6102b1611ea3565b600080805b600160a060020a03841660009081526007602052604090205481101561052d578585604051602001610461929190612f6a565b60408051601f198184030181529181528151602092830120600160a060020a03871660009081526007909352912080548390811061049b57fe5b90600052602060002090600802016000016040516020016104bc9190613025565b604051602081830303815290604052805190602001201480156105155750600160a060020a038416600090815260076020526040902080544291908390811061050157fe5b906000526020600020906008020160070154115b1561052557600192505050610531565b60010161042e565b5090505b9392505050565b610540611555565b6105685760405160e560020a62461bcd02815260040161055f906130c6565b60405180910390fd5b6001805473ffffffffffffffffffffffffffffffffffffffff1916600160a060020a0392909216919091179055565b600260208190526000918252604090912080546001820154919092015483565b6105bf611555565b6105de5760405160e560020a62461bcd02815260040161055f906130c6565b6105ee8a8a8a8a8a8a8a8a611ea9565b6105f661234e565b5060408051610160810182528c8152600160a060020a03808d1660208084019190915260ff808e16948401949094528b821660608401528a8416608084015289821660a084015290881660c083015291861660e08201526101008101859052610120810184905261014081018390526005805460018181018084556000938452845180519596949592949193879360089091027f036b6384b5eca791c62761152d0c79bb0604c104a5fb6f4eb0703f3154bb3db001926106ba9284929101906123aa565b50602082015160018201805460408086015173ffffffffffffffffffffffffffffffffffffffff19928316600160a060020a039586161774ff00000000000000000000000000000000000000001990811660a060020a60ff938416810291909117909555606088015160028801805460808b0151908716928916929092178316918416870291909117905560a0880151600388018054861691881691909117905560c088015160048801805460e08b0151961691909716171692169092021790915561010083015160058301556101208301516006808401919091556101409093015160079092019190915551929091039250906107b9908f90612ec4565b9081526040516020918190038201902080546001810180835560009283529183902085518051939487946008909402909201926107f992849201906123aa565b506020828101516001808401805460408088015160ff90811660a060020a90810274ff000000000000000000000000000000000000000019600160a060020a0398891673ffffffffffffffffffffffffffffffffffffffff199687161781169190911790955560608a015160028a01805460808d015185168402928a1690871617871691909117905560a08a015160038a01805491891691861691909117905560c08a015160048a01805460e08d01519094169092029088169290941691909117909316919091179091556101008601516005860155610120860151600686015561014090950151600794850155908d1660009081529282529282208054938401808255908352918190208651805193955087946008029091019261092192849201906123aa565b5060208201518160010160006101000a815481600160a060020a030219169083600160a060020a0316021790555060408201518160010160146101000a81548160ff021916908360ff16021790555060608201518160020160006101000a815481600160a060020a030219169083600160a060020a0316021790555060808201518160020160146101000a81548160ff021916908360ff16021790555060a08201518160030160006101000a815481600160a060020a030219169083600160a060020a0316021790555060c08201518160040160006101000a815481600160a060020a030219169083600160a060020a0316021790555060e08201518160040160146101000a81548160ff021916908360ff1602179055506101008201518160050155610120820151816006015561014082015181600701555050507fc03dfb2e53cc7a9868a03b235858db6648c1e9f761c1756dd70d8c96f10fde95818e8e8d8c8c8b8b8b604051610a9c99989796959493929190613115565b60405180910390a150505050505050505050505050565b610abb611555565b610ada5760405160e560020a62461bcd02815260040161055f906130c6565b600154600160a060020a031663a9059cbb610af3611546565b836040518363ffffffff167c0100000000000000000000000000000000000000000000000000000000028152600401610b2d929190612f2f565b602060405180830381600087803b158015610b4757600080fd5b505af1158015610b5b573d6000803e3d6000fd5b505050506040513d601f19601f82011682018060405250610b7f9190810190612576565b5050565b6000610b8e3361102e565b5033600090815260026020526040902054909450610bb79350915083905063ffffffff61210316565b33600090815260026020526040902055600354610bda908263ffffffff61210316565b6003556001546040517fa9059cbb000000000000000000000000000000000000000000000000000000008152600160a060020a039091169063a9059cbb90610c289033908590600401612f14565b602060405180830381600087803b158015610c4257600080fd5b505af1158015610c56573d6000803e3d6000fd5b505050506040513d601f19601f82011682018060405250610c7a9190810190612576565b610c995760405160e560020a62461bcd02815260040161055f90613076565b33600160a060020a03167fc28ed4035491dd3fc975f4d0a41ab56de1a5402b03b6c69a5265b65d1c7906dc82604051610cd29190613107565b60405180910390a250565b600154600160a060020a031681565b600160a060020a0381166000908152600760209081526040808320805482518185028101850190935280835260609492939192909184015b82821015610e715760008481526020908190206040805160088602909201805460026001821615610100026000190190911604601f81018590049094028301610180908101909252610160830184815292939092849290918491840182828015610dcf5780601f10610da457610100808354040283529160200191610dcf565b820191906000526020600020905b815481529060010190602001808311610db257829003601f168201915b5050509183525050600182810154600160a060020a0380821660208086019190915260ff60a060020a938490048116604087015260028701548084166060880152849004811660808701526003870154831660a0870152600487015492831660c08701529290910490911660e0840152600584015461010084015260068401546101208401526007909301546101409092019190915291835292019101610d24565b505050509050919050565b6001546040517f70a08231000000000000000000000000000000000000000000000000000000008152600091600160a060020a0316906370a0823190610ec6903090600401612ed0565b60206040518083038186803b158015610ede57600080fd5b505afa158015610ef2573d6000803e3d6000fd5b505050506040513d601f19601f82011682018060405250610f169190810190612784565b90505b90565b60076020528160005260406000208181548110610f3557fe5b60009182526020918290206008919091020180546040805160026001841615610100026000190190931692909204601f810185900485028301850190915280825291945092508391830182828015610fce5780601f10610fa357610100808354040283529160200191610fce565b820191906000526020600020905b815481529060010190602001808311610fb157829003601f168201915b5050506001840154600285015460038601546004870154600588015460068901546007909901549798600160a060020a038087169960ff60a060020a9889900481169a50878316995096889004871697958216969185169590940416928b565b600160a060020a0381166000908152600260208190526040822080546001820154919092015491929091908061106a858563ffffffff61210316565b6001546040517f70a08231000000000000000000000000000000000000000000000000000000008152919350600160a060020a0316906370a08231906110b4908990600401612ed0565b60206040518083038186803b1580156110cc57600080fd5b505afa1580156110e0573d6000803e3d6000fd5b505050506040513d601f19601f820116820180604052506111049190810190612784565b905091939590929450565b611117611555565b6111365760405160e560020a62461bcd02815260040161055f906130c6565b60008054604051600160a060020a03909116907f8be0079c531659141344cd1fd0a4f28419497f9722a3daafe3b4186f6b6457e0908390a36000805473ffffffffffffffffffffffffffffffffffffffff19169055565b60606005805480602002602001604051908101604052809291908181526020016000905b828210156112fe5760008481526020908190206040805160088602909201805460026001821615610100026000190190911604601f8101859004909402830161018090810190925261016083018481529293909284929091849184018282801561125c5780601f106112315761010080835404028352916020019161125c565b820191906000526020600020905b81548152906001019060200180831161123f57829003601f168201915b5050509183525050600182810154600160a060020a0380821660208086019190915260ff60a060020a938490048116604087015260028701548084166060880152849004811660808701526003870154831660a0870152600487015492831660c08701529290910490911660e08401526005840154610100840152600684015461012084015260079093015461014090920191909152918352920191016111b1565b50505050905090565b81516020818401810180516006825292820191850191909120919052805482908110610f3557fe5b6005818154811061133c57fe5b60009182526020918290206008919091020180546040805160026001841615610100026000190190931692909204601f810185900485028301850190915280825291935091839190830182828015610fce5780601f10610fa357610100808354040283529160200191610fce565b6060600683836040516113be929190612eb7565b9081526020016040518091039020805480602002602001604051908101604052809291908181526020016000905b828210156115395760008481526020908190206040805160088602909201805460026001821615610100026000190190911604601f810185900490940283016101809081019092526101608301848152929390928492909184918401828280156114975780601f1061146c57610100808354040283529160200191611497565b820191906000526020600020905b81548152906001019060200180831161147a57829003601f168201915b5050509183525050600182810154600160a060020a0380821660208086019190915260ff60a060020a938490048116604087015260028701548084166060880152849004811660808701526003870154831660a0870152600487015492831660c08701529290910490911660e08401526005840154610100840152600684015461012084015260079093015461014090920191909152918352920191016113ec565b5050505090505b92915050565b600054600160a060020a031690565b600054600160a060020a0316331490565b61156e611555565b61158d5760405160e560020a62461bcd02815260040161055f906130c6565b61159830838361212e565b81600160a060020a03167f4b19cef4d67ff9acd5ce891a32f323842b26f39c024bdd00047e1b74be2aea8f826040516115d19190613107565b60405180910390a25050565b60015460a060020a900460ff1681565b60035481565b6001546040517f70a082310000000000000000000000000000000000000000000000000000000081528291600160a060020a0316906370a082319061163c903390600401612ede565b60206040518083038186803b15801561165457600080fd5b505afa158015611668573d6000803e3d6000fd5b505050506040513d601f19601f8201168201806040525061168c9190810190612784565b10156116ad5760405160e560020a62461bcd02815260040161055f906130a6565b6001546040517f23b872dd000000000000000000000000000000000000000000000000000000008152600160a060020a03909116906323b872dd906116fa90339030908690600401612eec565b602060405180830381600087803b15801561171457600080fd5b505af1158015611728573d6000803e3d6000fd5b505050506040513d601f19601f8201168201806040525061174c9190810190612576565b61176b5760405160e560020a62461bcd02815260040161055f90613036565b3360009081526002602052604090205461178b908263ffffffff61222016565b336000908152600260205260409020556003546117ae908263ffffffff61222016565b60035560405133907f4b19cef4d67ff9acd5ce891a32f323842b26f39c024bdd00047e1b74be2aea8f90610cd2908490613107565b6117eb61234e565b600582815481106117f857fe5b600091825260209182902060408051600893909302909101805460026001821615610100026000190190911604601f8101859004909402830161018090810190925261016083018481529293909284929091849184018282801561189d5780601f106118725761010080835404028352916020019161189d565b820191906000526020600020905b81548152906001019060200180831161188057829003601f168201915b50505091835250506001820154600160a060020a03808216602084015260ff60a060020a928390048116604085015260028501548083166060860152839004811660808501526003850154821660a0850152600485015491821660c08501529190041660e082015260058201546101008201526006820154610120820152600790910154610140909101529050919050565b61193761234e565b6005828154811061194457fe5b600091825260209182902060408051600893909302909101805460026001821615610100026000190190911604601f810185900490940283016101809081019092526101608301848152929390928492909184918401828280156119e95780601f106119be576101008083540402835291602001916119e9565b820191906000526020600020905b8154815290600101906020018083116119cc57829003601f168201915b50505091835250506001820154600160a060020a03808216602084015260ff60a060020a928390048116604085015260028501548083166060860152839004811660808501526003850154821660a0850152600485015491821660c08501529190041660e08201526005820154610100820152600682015461012080830191909152600790920154610140909101528101519091506212750001421015611aa55760405160e560020a62461bcd02815260040161055f90613066565b61010081015160a0820151600160a060020a0316600090815260026020526040902060010154611ada9163ffffffff61210316565b60a0820151600160a060020a03166000908152600260205260409081902060010191909155810151610100820151611b5e91611b3291606491611b26919060ff1663ffffffff61224816565b9063ffffffff61228516565b602080840151600160a060020a031660009081526002918290526040902001549063ffffffff61210316565b602080830151600160a060020a031660009081526002918290526040902001556080810151610100820151611bd491611ba791606491611b26919060ff1663ffffffff61224816565b6060830151600160a060020a0316600090815260026020819052604090912001549063ffffffff61210316565b6060820151600160a060020a03166000908152600260208190526040909120015560e0810151610100820151611c4b91611c1e91606491611b26919060ff1663ffffffff61224816565b60c0830151600160a060020a0316600090815260026020819052604090912001549063ffffffff61222016565b600260008360c00151600160a060020a0316600160a060020a0316815260200190815260200160002060020181905550611cb18160a001518260200151611cac6064611b26866040015160ff1687610100015161224890919063ffffffff16565b61212e565b611ce28160a001518260600151611cac6064611b26866080015160ff1687610100015161224890919063ffffffff16565b611d138160a001518260c00151611cac6064611b268660e0015160ff1687610100015161224890919063ffffffff16565b6000611da8611d96611d3f6064611b268660e0015160ff1687610100015161224890919063ffffffff16565b611d8a611d666064611b26886080015160ff1689610100015161224890919063ffffffff16565b611d8a6064611b26896040015160ff168a610100015161224890919063ffffffff16565b9063ffffffff61222016565b6101008401519063ffffffff61210316565b9050611db98260a00151308361212e565b505050565b611dc6611555565b611de55760405160e560020a62461bcd02815260040161055f906130c6565b6001805460ff90921660a060020a0274ff000000000000000000000000000000000000000019909216919091179055565b611e1e611555565b611e3d5760405160e560020a62461bcd02815260040161055f906130c6565b30600090815260026020526040902054611e5d908263ffffffff61222016565b3060009081526002602052604090205550565b611e78611555565b611e975760405160e560020a62461bcd02815260040161055f906130c6565b611ea0816122bd565b50565b60045481565b60015460a060020a900460ff90811686890184010116606414611ee15760405160e560020a62461bcd02815260040161055f906130e6565b600160a060020a038416600090815260026020526040902060010154611f0d908263ffffffff61222016565b600160a060020a038516600090815260026020526040902060010155600454611f3c908263ffffffff61222016565b6004556000611f5282606463ffffffff61228516565b9050611f93611f6a8260ff8b1663ffffffff61224816565b600160a060020a038b16600090815260026020819052604090912001549063ffffffff61222016565b600160a060020a038a1660009081526002602081905260409091200155611fef611fc68260ff891663ffffffff61224816565b600160a060020a038916600090815260026020819052604090912001549063ffffffff61222016565b600160a060020a0388166000908152600260208190526040909120015561204b6120228260ff861663ffffffff61224816565b600160a060020a038616600090815260026020819052604090912001549063ffffffff61222016565b600160a060020a0385166000908152600260208190526040822001919091556120bc6120af6120838460ff881663ffffffff61224816565b611d8a6120998660ff8d1663ffffffff61224816565b611d8a8e60ff168861224890919063ffffffff16565b849063ffffffff61210316565b30600090815260026020819052604090912001549091506120e3908263ffffffff61222016565b306000908152600260208190526040909120015550505050505050505050565b6000828211156121285760405160e560020a62461bcd02815260040161055f90613086565b50900390565b60006121398461102e565b509350505050808211156121625760405160e560020a62461bcd02815260040161055f906130d6565b600160a060020a03841660009081526002602052604090205461218b908363ffffffff61210316565b600160a060020a0380861660009081526002602052604080822093909355908516815220546121c0908363ffffffff61222016565b600160a060020a0380851660008181526002602052604090819020939093559151908616907f53129ad8bfbcb17159505d8d2b4fd53b6df72ef4a1651fa36883270be476cc4490612212908690613107565b60405180910390a350505050565b6000828201838110156105315760405160e560020a62461bcd02815260040161055f90613056565b60008261225757506000611540565b8282028284828161226457fe5b04146105315760405160e560020a62461bcd02815260040161055f906130b6565b60008082116122a95760405160e560020a62461bcd02815260040161055f90613096565b60008284816122b457fe5b04949350505050565b600160a060020a0381166122e65760405160e560020a62461bcd02815260040161055f90613046565b60008054604051600160a060020a03808516939216917f8be0079c531659141344cd1fd0a4f28419497f9722a3daafe3b4186f6b6457e091a36000805473ffffffffffffffffffffffffffffffffffffffff1916600160a060020a0392909216919091179055565b6040805161016081018252606080825260006020830181905292820183905281018290526080810182905260a0810182905260c0810182905260e081018290526101008101829052610120810182905261014081019190915290565b828054600181600116156101000203166002900490600052602060002090601f016020900481019282601f106123eb57805160ff1916838001178555612418565b82800160010185558215612418579182015b828111156124185782518255916020019190600101906123fd565b50612424929150612428565b5090565b610f1991905b80821115612424576000815560010161242e565b803561154081613304565b805161154081613318565b60008083601f84011261246a57600080fd5b50813567ffffffffffffffff81111561248257600080fd5b60208301915083600182028301111561249a57600080fd5b9250929050565b600082601f8301126124b257600080fd5b81356124c56124c08261323e565b613217565b915080825260208301602083018583830111156124e157600080fd5b6124ec8382846132be565b50505092915050565b803561154081613321565b805161154081613321565b80356115408161332a565b60006020828403121561252857600080fd5b60006125348484612442565b949350505050565b6000806040838503121561254f57600080fd5b600061255b8585612442565b925050602061256c858286016124f5565b9150509250929050565b60006020828403121561258857600080fd5b6000612534848461244d565b600080602083850312156125a757600080fd5b823567ffffffffffffffff8111156125be57600080fd5b6125ca85828601612458565b92509250509250929050565b6000806000604084860312156125eb57600080fd5b833567ffffffffffffffff81111561260257600080fd5b61260e86828701612458565b9350935050602061262186828701612442565b9150509250925092565b60008060008060008060008060008060006101608c8e03121561264d57600080fd5b8b3567ffffffffffffffff81111561266457600080fd5b6126708e828f016124a1565b9b505060206126818e828f01612442565b9a505060406126928e828f0161250b565b99505060606126a38e828f01612442565b98505060806126b48e828f0161250b565b97505060a06126c58e828f01612442565b96505060c06126d68e828f01612442565b95505060e06126e78e828f0161250b565b9450506101006126f98e828f016124f5565b93505061012061270b8e828f016124f5565b92505061014061271d8e828f016124f5565b9150509295989b509295989b9093969950565b6000806040838503121561274357600080fd5b823567ffffffffffffffff81111561275a57600080fd5b61255b858286016124a1565b60006020828403121561277857600080fd5b600061253484846124f5565b60006020828403121561279657600080fd5b60006125348484612500565b6000602082840312156127b457600080fd5b6000612534848461250b565b60006105318383612dbe565b6127d5816132ac565b82525050565b6127d58161328a565b60006127ef82613278565b6127f9818561327c565b93508360208202850161280b85613266565b8060005b85811015612845578484038952815161282885826127c0565b945061283383613266565b60209a909a019992505060010161280f565b5091979650505050505050565b6127d581613295565b6127d5816132b3565b6000612870838561327c565b935061287d8385846132be565b612886836132fa565b9093019392505050565b600061289c8385613285565b93506128a98385846132be565b50500190565b60006128ba82613278565b6128c4818561327c565b93506128d48185602086016132ca565b612886816132fa565b60006128e882613278565b6128f28185613285565b93506129028185602086016132ca565b9290920192915050565b600081546001811660008114612929576001811461294f5761298e565b607f600283041661293a818761327c565b60ff198416815295505060208501925061298e565b6002820461295d818761327c565b95506129688561326c565b60005b828110156129875781548882015260019091019060200161296b565b8701945050505b505092915050565b60006129a360328361327c565b7f445458207472616e73666572206661696c65642c2070726f6261626c7920746f81527f6f206c6974746c6520616c6c6f77616e63650000000000000000000000000000602082015260400192915050565b6000612a0260268361327c565b7f4f776e61626c653a206e6577206f776e657220697320746865207a65726f206181527f6464726573730000000000000000000000000000000000000000000000000000602082015260400192915050565b6000612a61601b8361327c565b7f536166654d6174683a206164646974696f6e206f766572666c6f770000000000815260200192915050565b6000612a9a60478361327c565b7f5061796f7574732063616e206f6e6c792068617070656e20313420646179732081527f616674657220746865207374617274206f6620746865206465616c202876616c60208201527f696446726f6d2900000000000000000000000000000000000000000000000000604082015260600192915050565b6000612b1f60438361327c565b7f4e6f7420656e6f7567682044545820746f6b656e7320617661696c61626c652081527f746f2077697468647261772c20636f6e74616374204461746142726f6b65724460208201527f414f210000000000000000000000000000000000000000000000000000000000604082015260600192915050565b6000612ba4601e8361327c565b7f536166654d6174683a207375627472616374696f6e206f766572666c6f770000815260200192915050565b6000612bdd601a8361327c565b7f536166654d6174683a206469766973696f6e206279207a65726f000000000000815260200192915050565b6000612c1660378361327c565b7f53656e6465722068617320746f6f206c6974746c652044545820746f206d616b81527f652074686973207472616e73616374696f6e20776f726b000000000000000000602082015260400192915050565b6000612c7560218361327c565b7f536166654d6174683a206d756c7469706c69636174696f6e206f766572666c6f81527f7700000000000000000000000000000000000000000000000000000000000000602082015260400192915050565b6000612cd460208361327c565b7f4f776e61626c653a2063616c6c6572206973206e6f7420746865206f776e6572815260200192915050565b6000612d0d60318361327c565b7f4e6f7420656e6f75676820617661696c61626c652044545820746f206578656381527f7574652074686973207472616e73666572000000000000000000000000000000602082015260400192915050565b6000612d6c602d8361327c565b7f416c6c2070657263656e7461676573206e65656420746f20616464207570207481527f6f2065786163746c792031303000000000000000000000000000000000000000602082015260400192915050565b805161016080845260009190840190612dd782826128af565b9150506020830151612dec60208601826127db565b506040830151612dff6040860182612eae565b506060830151612e1260608601826127db565b506080830151612e256080860182612eae565b5060a0830151612e3860a08601826127db565b5060c0830151612e4b60c08601826127db565b5060e0830151612e5e60e0860182612eae565b50610100830151612e73610100860182612ea5565b50610120830151612e88610120860182612ea5565b50610140830151612e9d610140860182612ea5565b509392505050565b6127d581610f19565b6127d5816132a6565b6000612534828486612890565b600061053182846128dd565b6020810161154082846127db565b6020810161154082846127cc565b60608101612efa82866127cc565b612f0760208301856127db565b6125346040830184612ea5565b60408101612f2282856127cc565b6105316020830184612ea5565b60408101612f2282856127db565b6020808252810161053181846127e4565b602081016115408284612852565b60208101611540828461285b565b60208082528101612534818486612864565b6101608082528101612f8e818e6128af565b9050612f9d602083018d6127db565b612faa604083018c612eae565b612fb7606083018b6127db565b612fc4608083018a612eae565b612fd160a08301896127db565b612fde60c08301886127db565b612feb60e0830187612eae565b612ff9610100830186612ea5565b613007610120830185612ea5565b613015610140830184612ea5565b9c9b505050505050505050505050565b60208082528101610531818461290c565b6020808252810161154081612996565b60208082528101611540816129f5565b6020808252810161154081612a54565b6020808252810161154081612a8d565b6020808252810161154081612b12565b6020808252810161154081612b97565b6020808252810161154081612bd0565b6020808252810161154081612c09565b6020808252810161154081612c68565b6020808252810161154081612cc7565b6020808252810161154081612d00565b6020808252810161154081612d5f565b602080825281016105318184612dbe565b602081016115408284612ea5565b6101208101613124828c612ea5565b8181036020830152613136818b6128af565b9050613145604083018a6127db565b61315260608301896127db565b61315f60808301886127db565b61316c60a08301876127db565b61317960c0830186612ea5565b61318660e0830185612ea5565b613194610100830184612ea5565b9a9950505050505050505050565b606081016131b08286612ea5565b612f076020830185612ea5565b60a081016131cb8288612ea5565b6131d86020830187612ea5565b6131e56040830186612ea5565b6131f26060830185612ea5565b6131ff6080830184612ea5565b9695505050505050565b602081016115408284612eae565b60405181810167ffffffffffffffff8111828210171561323657600080fd5b604052919050565b600067ffffffffffffffff82111561325557600080fd5b506020601f91909101601f19160190565b60200190565b60009081526020902090565b5190565b90815260200190565b919050565b60006115408261329a565b151590565b600160a060020a031690565b60ff1690565b6000611540825b60006115408261328a565b82818337506000910152565b60005b838110156132e55781810151838201526020016132cd565b838111156132f4576000848401525b50505050565b601f01601f191690565b61330d8161328a565b8114611ea057600080fd5b61330d81613295565b61330d81610f19565b61330d816132a656fea365627a7a723058204245a803aac3e2d47b7203d171dedce89bff18a5705feadbcb95e2e19ac4cd086c6578706572696d656e74616cf564736f6c634300050a0040",
  "source": "pragma solidity ^0.5.0;\npragma experimental ABIEncoderV2;\n\nimport \"../node_modules/openzeppelin-solidity/contracts/ownership/Ownable.sol\";\nimport \"../node_modules/openzeppelin-solidity/contracts/math/SafeMath.sol\";\nimport \"../node_modules/openzeppelin-solidity/contracts/token/ERC20/ERC20.sol\";\nimport \"../node_modules/openzeppelin-solidity/contracts/token/ERC20/SafeERC20.sol\";\n\ncontract DXC is Ownable {\n\n  using SafeMath for uint256;\n  using SafeMath for uint8;\n  using SafeERC20 for ERC20;\n\n  ERC20 public dtxToken;\n  uint8 public protocolPercentage = 5;\n\n  constructor(address token) public {\n    dtxToken = ERC20(token);\n  }\n\n  ///////////////////////////////////////////////////////////////////////////////////////\n  //// Mofifiers for default settings                                                ////\n  ///////////////////////////////////////////////////////////////////////////////////////\n\n  function changeProtocolPercentage(uint8 _protocolPercentage) public onlyOwner {\n    protocolPercentage = _protocolPercentage;\n  }\n\n  function changeDTXToken(address token) public onlyOwner {\n    dtxToken = ERC20(token);\n  }\n\n  ///////////////////////////////////////////////////////////////////////////////////////\n  //// DTX Bank                                                                      ////\n  ///////////////////////////////////////////////////////////////////////////////////////\n\n  struct TokenAvailabiltity {\n    uint256 balance;\n    uint256 escrowOutgoing;\n    uint256 escrowIncoming;\n  }\n\n  struct Escrow {\n    uint256 amount;\n    uint256 releaseAfter;\n    address to;\n    address from;\n  }\n\n  mapping(address => TokenAvailabiltity) public balances;\n  uint256 public totalBalance;\n  uint256 public totalEscrowed;\n\n  event DepositDTX(address indexed from, uint256 amount);\n  event WithdrawDTX(address indexed to, uint256 amount);\n  event TransferDTX(address indexed from, address indexed to, uint256 value);\n\n  function platformBalance() public view returns (uint256) {\n    return dtxToken.balanceOf(address(this));\n  }\n\n  function balanceOf(address owner) public view returns (uint256 balance, uint256 escrowOutgoing, uint256 escrowIncoming, uint256 available, uint256 globalBalance) {\n    balance = balances[owner].balance;\n    escrowOutgoing = balances[owner].escrowOutgoing;\n    escrowIncoming = balances[owner].escrowIncoming;\n    available = balances[owner].balance.sub(balances[owner].escrowOutgoing);\n    globalBalance = dtxToken.balanceOf(owner);\n  }\n\n  function convertFiatToToken(address to, uint256 amount) public onlyOwner {\n    transfer(address(this), to, amount);\n    emit DepositDTX(to, amount);\n  }\n\n  function deposit(uint256 amount) public {\n    require(dtxToken.balanceOf(msg.sender) >= amount, \"Sender has too little DTX to make this transaction work\");\n    require(dtxToken.transferFrom(msg.sender, address(this), amount), \"DTX transfer failed, probably too little allowance\");\n    balances[msg.sender].balance = balances[msg.sender].balance.add(amount);\n    totalBalance = totalBalance.add(amount);\n    emit DepositDTX(msg.sender, amount);\n  }\n\n  function platformDeposit(uint256 amount) public onlyOwner {\n    balances[address(this)].balance = balances[address(this)].balance.add(amount);\n  }\n\n  function withdraw() public {\n    (,,, uint256 available,) = balanceOf(msg.sender);\n    balances[msg.sender].balance = balances[msg.sender].balance.sub(available);\n    totalBalance = totalBalance.sub(available);\n    require(dtxToken.transfer(msg.sender, available), \"Not enough DTX tokens available to withdraw, contact DataBrokerDAO!\");\n    emit WithdrawDTX(msg.sender, available);\n  }\n\n  function platformTokenWithdraw(uint256 amount) public onlyOwner {\n    dtxToken.transfer(owner(), amount);\n  }\n\n  function transfer(address from, address to, uint256 amount) internal {\n    (,,, uint256 available,) = balanceOf(from);\n    require(amount <= available, \"Not enough available DTX to execute this transfer\");\n    balances[from].balance = balances[from].balance.sub(amount);\n    balances[to].balance = balances[to].balance.add(amount);\n    emit TransferDTX(from, to, amount);\n  }\n\n  function escrow(\n    address owner,\n    uint8 ownerPercentage,\n    address publisher,\n    uint8 publisherPercentage,\n    address user,\n    address marketplace,\n    uint8 marketplacePercentage,\n    uint256 amount) internal\n  {\n    require(ownerPercentage+publisherPercentage+marketplacePercentage+protocolPercentage == 100, \"All percentages need to add up to exactly 100\");\n    balances[user].escrowOutgoing = balances[user].escrowOutgoing.add(amount);\n    totalEscrowed = totalEscrowed.add(amount);\n    uint256 basePoint = amount.div(100);\n    balances[owner].escrowIncoming = balances[owner].escrowIncoming.add(basePoint.mul(ownerPercentage));\n    balances[publisher].escrowIncoming = balances[publisher].escrowIncoming.add(basePoint.mul(publisherPercentage));\n    balances[marketplace].escrowIncoming = balances[marketplace].escrowIncoming.add(basePoint.mul(marketplacePercentage));\n    uint256 protocolAmount = amount.sub((basePoint.mul(ownerPercentage)).add(basePoint.mul(publisherPercentage)).add(basePoint.mul(marketplacePercentage)));\n    balances[address(this)].escrowIncoming = balances[address(this)].escrowIncoming.add(protocolAmount);\n  }\n\n  ///////////////////////////////////////////////////////////////////////////////////////\n  //// Deals                                                                         ////\n  ///////////////////////////////////////////////////////////////////////////////////////\n\n  struct Deal {\n    string did; // the did of the data share in question\n    address owner;\n    uint8 ownerPercentage;\n    address publisher;\n    uint8 publisherPercentage;\n    address user;\n    address marketplace;\n    uint8 marketplacePercentage;\n    uint256 amount;\n    uint256 validFrom; // 0 means forever, all others are a timestamp\n    uint256 validUntil; // 0 means forever, all others are a timestamp\n  }\n\n  Deal[] public dealsList;\n\n  mapping(string => Deal[]) public didToDeals;\n  mapping(address => Deal[]) public userToDeals;\n\n  event NewDeal(\n    uint256 dealIndex,\n    string did,\n    address owner,\n    address publisher,\n    address user,\n    address marketplace,\n    uint256 amount,\n    uint256 validFrom,\n    uint256 validUntil\n  );\n\n  function allDeals() external view returns (Deal[] memory) {\n    return dealsList;\n  }\n\n  function deal(uint256 index) external view returns (Deal memory){\n    return dealsList[index];\n  }\n\n  function dealsForDID(string calldata did) external view returns (Deal[] memory){\n    return didToDeals[did];\n  }\n\n  function dealsForAddress(address user) external view returns (Deal[] memory){\n    return userToDeals[user];\n  }\n\n  function hasAccessToDiD(string calldata did, address user) external view returns (bool){\n    bool accessToDid = false;\n    for (uint256 i = 0; i < userToDeals[user].length; i++){\n      if (keccak256(abi.encode(userToDeals[user][i].did)) == keccak256(abi.encode(did)) && userToDeals[user][i].validUntil > now){\n        return true;\n      }\n    }\n    return accessToDid;\n  }\n\n  function createDeal(\n    string memory did,\n    address owner,\n    uint8 ownerPercentage,\n    address publisher,\n    uint8 publisherPercentage,\n    address user,\n    address marketplace,\n    uint8 marketplacePercentage,\n    uint256 amount,\n    uint256 validFrom,\n    uint256 validUntil\n  ) public onlyOwner {\n    escrow(\n      owner,\n      ownerPercentage,\n      publisher,\n      publisherPercentage,\n      user,\n      marketplace,\n      marketplacePercentage,\n      amount\n    );\n    Deal memory newDeal = Deal(\n      did,\n      owner,\n      ownerPercentage,\n      publisher,\n      publisherPercentage,\n      user,\n      marketplace,\n      marketplacePercentage,\n      amount,\n      validFrom,\n      validUntil\n    );\n    uint256 dealIndex = dealsList.push(newDeal) - 1;\n    didToDeals[did].push(newDeal);\n    userToDeals[user].push(newDeal);\n    emit NewDeal(\n      dealIndex,\n      did,\n      owner,\n      publisher,\n      user,\n      marketplace,\n      amount,\n      validFrom,\n      validUntil\n    );\n  }\n\n  function payout(uint256 dealIndex) public {\n    Deal memory _deal = dealsList[dealIndex];\n    require(now >= _deal.validFrom + 14 days, \"Payouts can only happen 14 days after the start of the deal (validFrom)\");\n    // release escrow\n    balances[_deal.user].escrowOutgoing = balances[_deal.user].escrowOutgoing.sub(_deal.amount);\n    balances[_deal.owner].escrowIncoming = balances[_deal.owner].escrowIncoming.sub(_deal.amount.mul(_deal.ownerPercentage).div(100));\n    balances[_deal.publisher].escrowIncoming = balances[_deal.publisher].escrowIncoming.sub(_deal.amount.mul(_deal.publisherPercentage).div(100));\n    balances[_deal.marketplace].escrowIncoming = balances[_deal.marketplace].escrowIncoming.add(_deal.amount.mul(_deal.marketplacePercentage).div(100));\n    // transfer DTX\n    transfer(_deal.user, _deal.owner, _deal.amount.mul(_deal.ownerPercentage).div(100));\n    transfer(_deal.user, _deal.publisher, _deal.amount.mul(_deal.publisherPercentage).div(100));\n    transfer(_deal.user, _deal.marketplace, _deal.amount.mul(_deal.marketplacePercentage).div(100));\n    uint256 protocolAmount = _deal.amount.sub((_deal.amount.mul(_deal.ownerPercentage).div(100)).add(_deal.amount.mul(_deal.publisherPercentage).div(100)).add(_deal.amount.mul(_deal.marketplacePercentage).div(100)));\n    transfer(_deal.user, address(this), protocolAmount);\n  }\n\n}\n",
  "sourcePath": "/Users/roderik/Development/dxc/contracts/contracts/DXC.sol",
  "compiler": {
    "name": "solc",
    "version": "0.5.10+commit.5a6ea5b1.Emscripten.clang"
  },
  "schemaVersion": "3.0.11",
  "updatedAt": "2019-08-06T07:40:38.087Z",
  "devdoc": {
    "methods": {
      "isOwner()": {
        "details": "Returns true if the caller is the current owner."
      },
      "owner()": {
        "details": "Returns the address of the current owner."
      },
      "renounceOwnership()": {
        "details": "Leaves the contract without owner. It will not be possible to call `onlyOwner` functions anymore. Can only be called by the current owner.     * > Note: Renouncing ownership will leave the contract without an owner, thereby removing any functionality that is only available to the owner."
      },
      "transferOwnership(address)": {
        "details": "Transfers ownership of the contract to a new account (`newOwner`). Can only be called by the current owner."
      }
    }
  },
  "userdoc": {
    "methods": {
      "changeProtocolPercentage(uint8)": {
        "notice": "//////////////////////////////////////////////////////////////////////////////////// / Mofifiers for default settings                                                //// ////////////////////////////////////////////////////////////////////////////////////"
      }
    }
  }
}