{
  "contractName": "DXC",
  "abi": [
    {
      "constant": true,
      "inputs": [
        {
          "name": "",
          "type": "uint256"
        }
      ],
      "name": "deals",
      "outputs": [
        {
          "name": "did",
          "type": "string"
        },
        {
          "name": "owner",
          "type": "address"
        },
        {
          "name": "ownerPercentage",
          "type": "uint8"
        },
        {
          "name": "publisher",
          "type": "address"
        },
        {
          "name": "publisherPercentage",
          "type": "uint8"
        },
        {
          "name": "user",
          "type": "address"
        },
        {
          "name": "marketplace",
          "type": "address"
        },
        {
          "name": "marketplacePercentage",
          "type": "uint8"
        },
        {
          "name": "amount",
          "type": "uint256"
        },
        {
          "name": "validFrom",
          "type": "uint256"
        },
        {
          "name": "validUntil",
          "type": "uint256"
        }
      ],
      "payable": false,
      "stateMutability": "view",
      "type": "function"
    },
    {
      "constant": true,
      "inputs": [
        {
          "name": "",
          "type": "address"
        }
      ],
      "name": "balances",
      "outputs": [
        {
          "name": "balance",
          "type": "uint256"
        },
        {
          "name": "escrowOutgoing",
          "type": "uint256"
        },
        {
          "name": "escrowIncoming",
          "type": "uint256"
        }
      ],
      "payable": false,
      "stateMutability": "view",
      "type": "function"
    },
    {
      "constant": true,
      "inputs": [],
      "name": "dtxToken",
      "outputs": [
        {
          "name": "",
          "type": "address"
        }
      ],
      "payable": false,
      "stateMutability": "view",
      "type": "function"
    },
    {
      "constant": false,
      "inputs": [],
      "name": "renounceOwnership",
      "outputs": [],
      "payable": false,
      "stateMutability": "nonpayable",
      "type": "function"
    },
    {
      "constant": true,
      "inputs": [],
      "name": "owner",
      "outputs": [
        {
          "name": "",
          "type": "address"
        }
      ],
      "payable": false,
      "stateMutability": "view",
      "type": "function"
    },
    {
      "constant": true,
      "inputs": [],
      "name": "isOwner",
      "outputs": [
        {
          "name": "",
          "type": "bool"
        }
      ],
      "payable": false,
      "stateMutability": "view",
      "type": "function"
    },
    {
      "constant": true,
      "inputs": [],
      "name": "protocolPercentage",
      "outputs": [
        {
          "name": "",
          "type": "uint8"
        }
      ],
      "payable": false,
      "stateMutability": "view",
      "type": "function"
    },
    {
      "constant": true,
      "inputs": [],
      "name": "totalBalance",
      "outputs": [
        {
          "name": "",
          "type": "uint256"
        }
      ],
      "payable": false,
      "stateMutability": "view",
      "type": "function"
    },
    {
      "constant": false,
      "inputs": [
        {
          "name": "newOwner",
          "type": "address"
        }
      ],
      "name": "transferOwnership",
      "outputs": [],
      "payable": false,
      "stateMutability": "nonpayable",
      "type": "function"
    },
    {
      "constant": true,
      "inputs": [],
      "name": "totalEscrowed",
      "outputs": [
        {
          "name": "",
          "type": "uint256"
        }
      ],
      "payable": false,
      "stateMutability": "view",
      "type": "function"
    },
    {
      "inputs": [
        {
          "name": "token",
          "type": "address"
        }
      ],
      "payable": false,
      "stateMutability": "nonpayable",
      "type": "constructor"
    },
    {
      "anonymous": false,
      "inputs": [
        {
          "indexed": true,
          "name": "from",
          "type": "address"
        },
        {
          "indexed": false,
          "name": "amount",
          "type": "uint256"
        }
      ],
      "name": "DepositDTX",
      "type": "event"
    },
    {
      "anonymous": false,
      "inputs": [
        {
          "indexed": true,
          "name": "to",
          "type": "address"
        },
        {
          "indexed": false,
          "name": "amount",
          "type": "uint256"
        }
      ],
      "name": "WithdrawDTX",
      "type": "event"
    },
    {
      "anonymous": false,
      "inputs": [
        {
          "indexed": true,
          "name": "from",
          "type": "address"
        },
        {
          "indexed": true,
          "name": "to",
          "type": "address"
        },
        {
          "indexed": false,
          "name": "value",
          "type": "uint256"
        }
      ],
      "name": "TransferDTX",
      "type": "event"
    },
    {
      "anonymous": false,
      "inputs": [
        {
          "indexed": false,
          "name": "dealIndex",
          "type": "uint256"
        },
        {
          "indexed": false,
          "name": "did",
          "type": "string"
        },
        {
          "indexed": false,
          "name": "owner",
          "type": "address"
        },
        {
          "indexed": false,
          "name": "publisher",
          "type": "address"
        },
        {
          "indexed": false,
          "name": "user",
          "type": "address"
        },
        {
          "indexed": false,
          "name": "marketplace",
          "type": "address"
        },
        {
          "indexed": false,
          "name": "amount",
          "type": "uint256"
        },
        {
          "indexed": false,
          "name": "validFrom",
          "type": "uint256"
        },
        {
          "indexed": false,
          "name": "validUntil",
          "type": "uint256"
        }
      ],
      "name": "NewDeal",
      "type": "event"
    },
    {
      "anonymous": false,
      "inputs": [
        {
          "indexed": true,
          "name": "previousOwner",
          "type": "address"
        },
        {
          "indexed": true,
          "name": "newOwner",
          "type": "address"
        }
      ],
      "name": "OwnershipTransferred",
      "type": "event"
    },
    {
      "constant": false,
      "inputs": [
        {
          "name": "_protocolPercentage",
          "type": "uint8"
        }
      ],
      "name": "changeProtocolPercentage",
      "outputs": [],
      "payable": false,
      "stateMutability": "nonpayable",
      "type": "function"
    },
    {
      "constant": false,
      "inputs": [
        {
          "name": "token",
          "type": "address"
        }
      ],
      "name": "changeDTXToken",
      "outputs": [],
      "payable": false,
      "stateMutability": "nonpayable",
      "type": "function"
    },
    {
      "constant": true,
      "inputs": [],
      "name": "platformBalance",
      "outputs": [
        {
          "name": "",
          "type": "uint256"
        }
      ],
      "payable": false,
      "stateMutability": "view",
      "type": "function"
    },
    {
      "constant": true,
      "inputs": [
        {
          "name": "owner",
          "type": "address"
        }
      ],
      "name": "balanceOf",
      "outputs": [
        {
          "name": "balance",
          "type": "uint256"
        },
        {
          "name": "escrowOutgoing",
          "type": "uint256"
        },
        {
          "name": "escrowIncoming",
          "type": "uint256"
        },
        {
          "name": "available",
          "type": "uint256"
        }
      ],
      "payable": false,
      "stateMutability": "view",
      "type": "function"
    },
    {
      "constant": false,
      "inputs": [
        {
          "name": "to",
          "type": "address"
        },
        {
          "name": "amount",
          "type": "uint256"
        }
      ],
      "name": "convertFiatToToken",
      "outputs": [],
      "payable": false,
      "stateMutability": "nonpayable",
      "type": "function"
    },
    {
      "constant": false,
      "inputs": [
        {
          "name": "amount",
          "type": "uint256"
        }
      ],
      "name": "deposit",
      "outputs": [],
      "payable": false,
      "stateMutability": "nonpayable",
      "type": "function"
    },
    {
      "constant": false,
      "inputs": [],
      "name": "withdraw",
      "outputs": [],
      "payable": false,
      "stateMutability": "nonpayable",
      "type": "function"
    },
    {
      "constant": true,
      "inputs": [],
      "name": "getAllDeals",
      "outputs": [
        {
          "components": [
            {
              "name": "did",
              "type": "string"
            },
            {
              "name": "owner",
              "type": "address"
            },
            {
              "name": "ownerPercentage",
              "type": "uint8"
            },
            {
              "name": "publisher",
              "type": "address"
            },
            {
              "name": "publisherPercentage",
              "type": "uint8"
            },
            {
              "name": "user",
              "type": "address"
            },
            {
              "name": "marketplace",
              "type": "address"
            },
            {
              "name": "marketplacePercentage",
              "type": "uint8"
            },
            {
              "name": "amount",
              "type": "uint256"
            },
            {
              "name": "validFrom",
              "type": "uint256"
            },
            {
              "name": "validUntil",
              "type": "uint256"
            }
          ],
          "name": "",
          "type": "tuple[]"
        }
      ],
      "payable": false,
      "stateMutability": "view",
      "type": "function"
    },
    {
      "constant": false,
      "inputs": [
        {
          "name": "did",
          "type": "string"
        },
        {
          "name": "owner",
          "type": "address"
        },
        {
          "name": "ownerPercentage",
          "type": "uint8"
        },
        {
          "name": "publisher",
          "type": "address"
        },
        {
          "name": "publisherPercentage",
          "type": "uint8"
        },
        {
          "name": "user",
          "type": "address"
        },
        {
          "name": "marketplace",
          "type": "address"
        },
        {
          "name": "marketplacePercentage",
          "type": "uint8"
        },
        {
          "name": "amount",
          "type": "uint256"
        },
        {
          "name": "validFrom",
          "type": "uint256"
        },
        {
          "name": "validUntil",
          "type": "uint256"
        }
      ],
      "name": "createDeal",
      "outputs": [],
      "payable": false,
      "stateMutability": "nonpayable",
      "type": "function"
    },
    {
      "constant": false,
      "inputs": [
        {
          "name": "dealIndex",
          "type": "uint256"
        }
      ],
      "name": "payout",
      "outputs": [],
      "payable": false,
      "stateMutability": "nonpayable",
      "type": "function"
    }
  ],
  "bytecode": "0x60806040526001805460ff60a01b1916740500000000000000000000000000000000000000001790553480156200003557600080fd5b50604051620024e3380380620024e38339810160408190526200005891620000da565b600080546001600160a01b03191633178082556040516001600160a01b039190911691907f8be0079c531659141344cd1fd0a4f28419497f9722a3daafe3b4186f6b6457e0908290a3600180546001600160a01b0319166001600160a01b03929092169190911790556200012f565b8051620000d48162000115565b92915050565b600060208284031215620000ed57600080fd5b6000620000fb8484620000c7565b949350505050565b60006001600160a01b038216620000d4565b620001208162000103565b81146200012c57600080fd5b50565b6123a4806200013f6000396000f3fe608060405234801561001057600080fd5b506004361061012c5760003560e01c80638f32d59b116100ad578063d514bbd311610071578063d514bbd314610278578063e11523431461028d578063e2b4d7b2146102a0578063f2fde38b146102b3578063f9168231146102c65761012c565b80638f32d59b146102205780639089bb4814610235578063a26b90f214610248578063ad7a672f1461025d578063b6b55f25146102655761012c565b806341bd5fd2116100f457806341bd5fd2146101b657806362a5dbbc146101cb57806370a08231146101e0578063715018a6146102035780638da5cb5b1461020b5761012c565b806303988f841461013157806317adfe021461016457806327e235e3146101795780633ae194741461019b5780633ccfd60b146101ae575b600080fd5b61014461013f366004611992565b6102ce565b60405161015b9b9a99989796959493929190611feb565b60405180910390f35b61017761017236600461180f565b6103d4565b005b61018c61018736600461180f565b610423565b60405161015b939291906121ef565b6101776101a936600461188d565b610443565b610177610657565b6101be610789565b60405161015b9190611fdd565b6101d3610798565b60405161015b9190612154565b6101f36101ee36600461180f565b61081f565b60405161015b949392919061220a565b610177610863565b6102136108d1565b60405161015b9190611f5f565b6102286108e0565b60405161015b9190611fcf565b610177610243366004611835565b6108f1565b6102506109b4565b60405161015b9190612248565b6101d36109c4565b610177610273366004611992565b6109ca565b610280610b82565b60405161015b9190611fbe565b61017761029b366004611992565b610cfc565b6101776102ae3660046119ce565b611188565b6101776102c136600461180f565b6111cc565b6101d36111fc565b600581815481106102db57fe5b60009182526020918290206008919091020180546040805160026001841615610100026000190190931692909204601f8101859004850283018501909152808252919350918391908301828280156103745780601f1061034957610100808354040283529160200191610374565b820191906000526020600020905b81548152906001019060200180831161035757829003601f168201915b50505060018401546002850154600386015460048701546005880154600689015460079099015497986001600160a01b038087169960ff600160a01b9889900481169a50878316995096889004871697958216969185169590940416928b565b6103dc6108e0565b6104015760405162461bcd60e51b81526004016103f890612124565b60405180910390fd5b600180546001600160a01b0319166001600160a01b0392909216919091179055565b600260208190526000918252604090912080546001820154919092015483565b61044b6108e0565b6104675760405162461bcd60e51b81526004016103f890612124565b6104778a8a8a8a8a8a8a8a611202565b60408051610160810182528c81526001600160a01b03808d1660208084019190915260ff808e16948401949094528b821660608401528a8416608084015289821660a084015290881660c083015291861660e082015261010081018590526101208101849052610140810183905260058054600181810180845560009384528451805194969295919491936008027f036b6384b5eca791c62761152d0c79bb0604c104a5fb6f4eb0703f3154bb3db0019261053792849290910190611690565b5060208201516001820180546040808601516001600160a01b03199283166001600160a01b039586161760ff60a01b19908116600160a01b60ff938416810291909117909555606088015160028801805460808b0151908716928916929092178316918416870291909117905560a0880151600388018054861691881691909117905560c088015160048801805460e08b0151961691909716171692169092021790915561010083015160058301556101208301516006830155610140909201516007909101555191900391507fc03dfb2e53cc7a9868a03b235858db6648c1e9f761c1756dd70d8c96f10fde95906106419083908f908f908e908d908d908c908c908c90612162565b60405180910390a1505050505050505050505050565b60006106623361081f565b60015460405163a9059cbb60e01b81529195506001600160a01b0316935063a9059cbb9250610698915033908590600401611fa3565b602060405180830381600087803b1580156106b257600080fd5b505af11580156106c6573d6000803e3d6000fd5b505050506040513d601f19601f820116820180604052506106ea919081019061186f565b6107065760405162461bcd60e51b81526004016103f8906120d4565b33600090815260026020526040902054610726908263ffffffff61145916565b33600090815260026020526040902055600354610749908263ffffffff61145916565b60035560405133907fc28ed4035491dd3fc975f4d0a41ab56de1a5402b03b6c69a5265b65d1c7906dc9061077e908490612154565b60405180910390a250565b6001546001600160a01b031681565b6001546040516370a0823160e01b81526000916001600160a01b0316906370a08231906107c9903090600401611f5f565b60206040518083038186803b1580156107e157600080fd5b505afa1580156107f5573d6000803e3d6000fd5b505050506040513d601f19601f8201168201806040525061081991908101906119b0565b90505b90565b6001600160a01b03811660009081526002602081905260408220805460018201549190920154919290919061085a848463ffffffff61145916565b90509193509193565b61086b6108e0565b6108875760405162461bcd60e51b81526004016103f890612124565b600080546040516001600160a01b03909116907f8be0079c531659141344cd1fd0a4f28419497f9722a3daafe3b4186f6b6457e0908390a3600080546001600160a01b0319169055565b6000546001600160a01b031690565b6000546001600160a01b0316331490565b6108f96108e0565b6109155760405162461bcd60e51b81526004016103f890612124565b6001600160a01b03821660009081526002602052604090205461093e908263ffffffff61148616565b6001600160a01b03831660009081526002602052604090205560035461096a908263ffffffff61148616565b6003556040516001600160a01b038316907f4b19cef4d67ff9acd5ce891a32f323842b26f39c024bdd00047e1b74be2aea8f906109a8908490612154565b60405180910390a25050565b600154600160a01b900460ff1681565b60035481565b6001546040516370a0823160e01b815282916001600160a01b0316906370a08231906109fa903390600401611f6d565b60206040518083038186803b158015610a1257600080fd5b505afa158015610a26573d6000803e3d6000fd5b505050506040513d601f19601f82011682018060405250610a4a91908101906119b0565b1015610a685760405162461bcd60e51b81526004016103f890612104565b6001546040516323b872dd60e01b81526001600160a01b03909116906323b872dd90610a9c90339030908690600401611f7b565b602060405180830381600087803b158015610ab657600080fd5b505af1158015610aca573d6000803e3d6000fd5b505050506040513d601f19601f82011682018060405250610aee919081019061186f565b610b0a5760405162461bcd60e51b81526004016103f890612094565b33600090815260026020526040902054610b2a908263ffffffff61148616565b33600090815260026020526040902055600354610b4d908263ffffffff61148616565b60035560405133907f4b19cef4d67ff9acd5ce891a32f323842b26f39c024bdd00047e1b74be2aea8f9061077e908490612154565b60606005805480602002602001604051908101604052809291908181526020016000905b82821015610cf35760008481526020908190206040805160088602909201805460026001821615610100026000190190911604601f81018590049094028301610180908101909252610160830184815292939092849290918491840182828015610c515780601f10610c2657610100808354040283529160200191610c51565b820191906000526020600020905b815481529060010190602001808311610c3457829003601f168201915b50505091835250506001828101546001600160a01b0380821660208086019190915260ff600160a01b938490048116604087015260028701548084166060880152849004811660808701526003870154831660a0870152600487015492831660c08701529290910490911660e0840152600584015461010084015260068401546101208401526007909301546101409092019190915291835292019101610ba6565b50505050905090565b610d0461170e565b60058281548110610d1157fe5b600091825260209182902060408051600893909302909101805460026001821615610100026000190190911604601f81018590049094028301610180908101909252610160830184815292939092849290918491840182828015610db65780601f10610d8b57610100808354040283529160200191610db6565b820191906000526020600020905b815481529060010190602001808311610d9957829003601f168201915b505050918352505060018201546001600160a01b03808216602084015260ff600160a01b928390048116604085015260028501548083166060860152839004811660808501526003850154821660a0850152600485015491821660c08501529190041660e08201526005820154610100820152600682015461012080830191909152600790920154610140909101528101519091506212750001421015610e6f5760405162461bcd60e51b81526004016103f8906120c4565b61010081015160a08201516001600160a01b0316600090815260026020526040902060010154610ea49163ffffffff61145916565b60a08201516001600160a01b03166000908152600260205260409081902060010191909155810151610100820151610f2891610efc91606491610ef0919060ff1663ffffffff6114b216565b9063ffffffff6114ec16565b6020808401516001600160a01b031660009081526002918290526040902001549063ffffffff61145916565b6020808301516001600160a01b031660009081526002918290526040902001556080810151610100820151610f9e91610f7191606491610ef0919060ff1663ffffffff6114b216565b60608301516001600160a01b0316600090815260026020819052604090912001549063ffffffff61145916565b60608201516001600160a01b03166000908152600260208190526040909120015560e081015161010082015161101591610fe891606491610ef0919060ff1663ffffffff6114b216565b60c08301516001600160a01b0316600090815260026020819052604090912001549063ffffffff61148616565b600260008360c001516001600160a01b03166001600160a01b031681526020019081526020016000206002018190555061107b8160a0015182602001516110766064610ef0866040015160ff168761010001516114b290919063ffffffff16565b611521565b6110ac8160a0015182606001516110766064610ef0866080015160ff168761010001516114b290919063ffffffff16565b6110dd8160a001518260c001516110766064610ef08660e0015160ff168761010001516114b290919063ffffffff16565b60006111726111606111096064610ef08660e0015160ff168761010001516114b290919063ffffffff16565b6111546111306064610ef0886080015160ff168961010001516114b290919063ffffffff16565b6111546064610ef0896040015160ff168a61010001516114b290919063ffffffff16565b9063ffffffff61148616565b6101008401519063ffffffff61145916565b90506111838260a001513083611521565b505050565b6111906108e0565b6111ac5760405162461bcd60e51b81526004016103f890612124565b6001805460ff909216600160a01b0260ff60a01b19909216919091179055565b6111d46108e0565b6111f05760405162461bcd60e51b81526004016103f890612124565b6111f98161160f565b50565b60045481565b600154600160a01b900460ff908116868901840101166064146112375760405162461bcd60e51b81526004016103f890612134565b6001600160a01b038416600090815260026020526040902060010154611263908263ffffffff61148616565b6001600160a01b038516600090815260026020526040902060010155600454611292908263ffffffff61148616565b60045560006112a882606463ffffffff6114ec16565b90506112e96112c08260ff8b1663ffffffff6114b216565b6001600160a01b038b16600090815260026020819052604090912001549063ffffffff61148616565b6001600160a01b038a166000908152600260208190526040909120015561134561131c8260ff891663ffffffff6114b216565b6001600160a01b038916600090815260026020819052604090912001549063ffffffff61148616565b6001600160a01b038816600090815260026020819052604090912001556113a16113788260ff861663ffffffff6114b216565b6001600160a01b038616600090815260026020819052604090912001549063ffffffff61148616565b6001600160a01b0385166000908152600260208190526040822001919091556114126114056113d98460ff881663ffffffff6114b216565b6111546113ef8660ff8d1663ffffffff6114b216565b6111548e60ff16886114b290919063ffffffff16565b849063ffffffff61145916565b3060009081526002602081905260409091200154909150611439908263ffffffff61148616565b306000908152600260208190526040909120015550505050505050505050565b60008282111561147b5760405162461bcd60e51b81526004016103f8906120e4565b508082035b92915050565b6000828201838110156114ab5760405162461bcd60e51b81526004016103f8906120b4565b9392505050565b6000826114c157506000611480565b828202828482816114ce57fe5b04146114ab5760405162461bcd60e51b81526004016103f890612114565b600080821161150d5760405162461bcd60e51b81526004016103f8906120f4565b600082848161151857fe5b04949350505050565b600061152c8461081f565b9350505050808211156115515760405162461bcd60e51b81526004016103f890612144565b6001600160a01b03841660009081526002602052604090205461157a908363ffffffff61145916565b6001600160a01b0380861660009081526002602052604080822093909355908516815220546115af908363ffffffff61148616565b6001600160a01b0380851660008181526002602052604090819020939093559151908616907f53129ad8bfbcb17159505d8d2b4fd53b6df72ef4a1651fa36883270be476cc4490611601908690612154565b60405180910390a350505050565b6001600160a01b0381166116355760405162461bcd60e51b81526004016103f8906120a4565b600080546040516001600160a01b03808516939216917f8be0079c531659141344cd1fd0a4f28419497f9722a3daafe3b4186f6b6457e091a3600080546001600160a01b0319166001600160a01b0392909216919091179055565b828054600181600116156101000203166002900490600052602060002090601f016020900481019282601f106116d157805160ff19168380011785556116fe565b828001600101855582156116fe579182015b828111156116fe5782518255916020019190600101906116e3565b5061170a92915061176a565b5090565b6040805161016081018252606080825260006020830181905292820183905281018290526080810182905260a0810182905260c0810182905260e081018290526101008101829052610120810182905261014081019190915290565b61081c91905b8082111561170a5760008155600101611770565b803561148081612332565b805161148081612346565b600082601f8301126117ab57600080fd5b81356117be6117b98261227d565b612256565b915080825260208301602083018583830111156117da57600080fd5b6117e58382846122ec565b50505092915050565b80356114808161234f565b80516114808161234f565b803561148081612358565b60006020828403121561182157600080fd5b600061182d8484611784565b949350505050565b6000806040838503121561184857600080fd5b60006118548585611784565b9250506020611865858286016117ee565b9150509250929050565b60006020828403121561188157600080fd5b600061182d848461178f565b60008060008060008060008060008060006101608c8e0312156118af57600080fd5b8b3567ffffffffffffffff8111156118c657600080fd5b6118d28e828f0161179a565b9b505060206118e38e828f01611784565b9a505060406118f48e828f01611804565b99505060606119058e828f01611784565b98505060806119168e828f01611804565b97505060a06119278e828f01611784565b96505060c06119388e828f01611784565b95505060e06119498e828f01611804565b94505061010061195b8e828f016117ee565b93505061012061196d8e828f016117ee565b92505061014061197f8e828f016117ee565b9150509295989b509295989b9093969950565b6000602082840312156119a457600080fd5b600061182d84846117ee565b6000602082840312156119c257600080fd5b600061182d84846117f9565b6000602082840312156119e057600080fd5b600061182d8484611804565b60006114ab8383611e66565b611a01816122da565b82525050565b611a01816122b8565b6000611a1b826122ab565b611a2581856122af565b935083602082028501611a37856122a5565b8060005b85811015611a715784840389528151611a5485826119ec565b9450611a5f836122a5565b60209a909a0199925050600101611a3b565b5091979650505050505050565b611a01816122c3565b611a01816122e1565b6000611a9b826122ab565b611aa581856122af565b9350611ab58185602086016122f8565b611abe81612328565b9093019392505050565b6000611ad56032836122af565b7f445458207472616e73666572206661696c65642c2070726f6261626c7920746f8152716f206c6974746c6520616c6c6f77616e636560701b602082015260400192915050565b6000611b296026836122af565b7f4f776e61626c653a206e6577206f776e657220697320746865207a65726f206181526564647265737360d01b602082015260400192915050565b6000611b71601b836122af565b7f536166654d6174683a206164646974696f6e206f766572666c6f770000000000815260200192915050565b6000611baa6047836122af565b7f5061796f7574732063616e206f6e6c792068617070656e20313420646179732081527f616674657220746865207374617274206f6620746865206465616c202876616c602082015266696446726f6d2960c81b604082015260600192915050565b6000611c196043836122af565b7f4e6f7420656e6f7567682044545820746f6b656e7320617661696c61626c652081527f746f2077697468647261772c20636f6e74616374204461746142726f6b657244602082015262414f2160e81b604082015260600192915050565b6000611c84601e836122af565b7f536166654d6174683a207375627472616374696f6e206f766572666c6f770000815260200192915050565b6000611cbd601a836122af565b7f536166654d6174683a206469766973696f6e206279207a65726f000000000000815260200192915050565b6000611cf66037836122af565b7f53656e6465722068617320746f6f206c6974746c652044545820746f206d616b81527f652074686973207472616e73616374696f6e20776f726b000000000000000000602082015260400192915050565b6000611d556021836122af565b7f536166654d6174683a206d756c7469706c69636174696f6e206f766572666c6f8152607760f81b602082015260400192915050565b6000611d986020836122af565b7f4f776e61626c653a2063616c6c6572206973206e6f7420746865206f776e6572815260200192915050565b6000611dd1602d836122af565b7f416c6c2070657263656e7461676573206e65656420746f20616464207570207481526c06f2065786163746c792031303609c1b602082015260400192915050565b6000611e206031836122af565b7f4e6f7420656e6f75676820617661696c616c62652044545820746f20657865638152703aba32903a3434b9903a3930b739b332b960791b602082015260400192915050565b805161016080845260009190840190611e7f8282611a90565b9150506020830151611e946020860182611a07565b506040830151611ea76040860182611f56565b506060830151611eba6060860182611a07565b506080830151611ecd6080860182611f56565b5060a0830151611ee060a0860182611a07565b5060c0830151611ef360c0860182611a07565b5060e0830151611f0660e0860182611f56565b50610100830151611f1b610100860182611f4d565b50610120830151611f30610120860182611f4d565b50610140830151611f45610140860182611f4d565b509392505050565b611a018161081c565b611a01816122d4565b602081016114808284611a07565b6020810161148082846119f8565b60608101611f8982866119f8565b611f966020830185611a07565b61182d6040830184611f4d565b60408101611fb182856119f8565b6114ab6020830184611f4d565b602080825281016114ab8184611a10565b602081016114808284611a7e565b602081016114808284611a87565b6101608082528101611ffd818e611a90565b905061200c602083018d611a07565b612019604083018c611f56565b612026606083018b611a07565b612033608083018a611f56565b61204060a0830189611a07565b61204d60c0830188611a07565b61205a60e0830187611f56565b612068610100830186611f4d565b612076610120830185611f4d565b612084610140830184611f4d565b9c9b505050505050505050505050565b6020808252810161148081611ac8565b6020808252810161148081611b1c565b6020808252810161148081611b64565b6020808252810161148081611b9d565b6020808252810161148081611c0c565b6020808252810161148081611c77565b6020808252810161148081611cb0565b6020808252810161148081611ce9565b6020808252810161148081611d48565b6020808252810161148081611d8b565b6020808252810161148081611dc4565b6020808252810161148081611e13565b602081016114808284611f4d565b6101208101612171828c611f4d565b8181036020830152612183818b611a90565b9050612192604083018a611a07565b61219f6060830189611a07565b6121ac6080830188611a07565b6121b960a0830187611a07565b6121c660c0830186611f4d565b6121d360e0830185611f4d565b6121e1610100830184611f4d565b9a9950505050505050505050565b606081016121fd8286611f4d565b611f966020830185611f4d565b608081016122188287611f4d565b6122256020830186611f4d565b6122326040830185611f4d565b61223f6060830184611f4d565b95945050505050565b602081016114808284611f56565b60405181810167ffffffffffffffff8111828210171561227557600080fd5b604052919050565b600067ffffffffffffffff82111561229457600080fd5b506020601f91909101601f19160190565b60200190565b5190565b90815260200190565b6000611480826122c8565b151590565b6001600160a01b031690565b60ff1690565b6000611480825b6000611480826122b8565b82818337506000910152565b60005b838110156123135781810151838201526020016122fb565b83811115612322576000848401525b50505050565b601f01601f191690565b61233b816122b8565b81146111f957600080fd5b61233b816122c3565b61233b8161081c565b61233b816122d456fea365627a7a723058204838a701a0271191ad7239124f06a31c6ddfb2fa3aa738d0515ee801f3f5cc146c6578706572696d656e74616cf564736f6c634300050a0040",
  "source": "pragma solidity ^0.5.0;\npragma experimental ABIEncoderV2;\n\nimport \"../node_modules/openzeppelin-solidity/contracts/ownership/Ownable.sol\";\nimport \"../node_modules/openzeppelin-solidity/contracts/math/SafeMath.sol\";\nimport \"../node_modules/openzeppelin-solidity/contracts/token/ERC20/ERC20.sol\";\nimport \"../node_modules/openzeppelin-solidity/contracts/token/ERC20/SafeERC20.sol\";\n\ncontract DXC is Ownable {\n\n  using SafeMath for uint256;\n  using SafeMath for uint8;\n  using SafeERC20 for ERC20;\n\n  ERC20 public dtxToken;\n  uint8 public protocolPercentage = 5;\n\n  constructor(address token) public {\n    dtxToken = ERC20(token);\n  }\n\n  ///////////////////////////////////////////////////////////////////////////////////////\n  //// Mofifiers for default settings                                                ////\n  ///////////////////////////////////////////////////////////////////////////////////////\n\n  function changeProtocolPercentage(uint8 _protocolPercentage) public onlyOwner {\n    protocolPercentage = _protocolPercentage;\n  }\n\n  function changeDTXToken(address token) public onlyOwner {\n    dtxToken = ERC20(token);\n  }\n\n  ///////////////////////////////////////////////////////////////////////////////////////\n  //// DTX Bank                                                                      ////\n  ///////////////////////////////////////////////////////////////////////////////////////\n\n  struct TokenAvailabiltity {\n    uint256 balance;\n    uint256 escrowOutgoing;\n    uint256 escrowIncoming;\n  }\n\n  struct Escrow {\n    uint256 amount;\n    uint256 releaseAfter;\n    address to;\n    address from;\n  }\n\n  mapping(address => TokenAvailabiltity) public balances;\n  uint256 public totalBalance;\n  uint256 public totalEscrowed;\n\n  event DepositDTX(address indexed from, uint256 amount);\n  event WithdrawDTX(address indexed to, uint256 amount);\n  event TransferDTX(address indexed from, address indexed to, uint256 value);\n\n  function platformBalance() public view returns (uint256) {\n    return dtxToken.balanceOf(address(this));\n  }\n\n  function balanceOf(address owner) public view returns (uint256 balance, uint256 escrowOutgoing, uint256 escrowIncoming, uint256 available) {\n    balance = balances[owner].balance;\n    escrowOutgoing = balances[owner].escrowOutgoing;\n    escrowIncoming = balances[owner].escrowIncoming;\n    available = balances[owner].balance.sub(balances[owner].escrowOutgoing);\n  }\n\n  function convertFiatToToken(address to, uint256 amount) public onlyOwner {\n    balances[to].balance = balances[to].balance.add(amount);\n    totalBalance = totalBalance.add(amount);\n    emit DepositDTX(to, amount);\n  }\n\n  function deposit(uint256 amount) public {\n    require(dtxToken.balanceOf(msg.sender) >= amount, \"Sender has too little DTX to make this transaction work\");\n    require(dtxToken.transferFrom(msg.sender, address(this), amount), \"DTX transfer failed, probably too little allowance\");\n    balances[msg.sender].balance = balances[msg.sender].balance.add(amount);\n    totalBalance = totalBalance.add(amount);\n    emit DepositDTX(msg.sender, amount);\n  }\n\n  function withdraw() public {\n    (,,, uint256 available) = balanceOf(msg.sender);\n    require(dtxToken.transfer(msg.sender, available), \"Not enough DTX tokens available to withdraw, contact DataBrokerDAO!\");\n    balances[msg.sender].balance = balances[msg.sender].balance.sub(available);\n    totalBalance = totalBalance.sub(available);\n    emit WithdrawDTX(msg.sender, available);\n  }\n\n\n  /**\n   * address(0) is the address we use for escrowed funds, they are tracked in escrowedDTX\n   */\n  function transfer(address from, address to, uint256 amount) internal {\n    (,,, uint256 available) = balanceOf(from);\n    require(amount <= available, \"Not enough availalbe DTX to execute this transfer\");\n    balances[from].balance = balances[from].balance.sub(amount);\n    balances[to].balance = balances[to].balance.add(amount);\n    emit TransferDTX(from, to, amount);\n  }\n\n  function escrow(\n    address owner,\n    uint8 ownerPercentage,\n    address publisher,\n    uint8 publisherPercentage,\n    address user,\n    address marketplace,\n    uint8 marketplacePercentage,\n    uint256 amount) internal\n  {\n    require(ownerPercentage+publisherPercentage+marketplacePercentage+protocolPercentage == 100, \"All percentages need to add up to exactly 100\");\n    balances[user].escrowOutgoing = balances[user].escrowOutgoing.add(amount);\n    totalEscrowed = totalEscrowed.add(amount);\n    uint256 basePoint = amount.div(100);\n    balances[owner].escrowIncoming = balances[owner].escrowIncoming.add(basePoint.mul(ownerPercentage));\n    balances[publisher].escrowIncoming = balances[publisher].escrowIncoming.add(basePoint.mul(publisherPercentage));\n    balances[marketplace].escrowIncoming = balances[marketplace].escrowIncoming.add(basePoint.mul(marketplacePercentage));\n    uint256 protocolAmount = amount.sub((basePoint.mul(ownerPercentage)).add(basePoint.mul(publisherPercentage)).add(basePoint.mul(marketplacePercentage)));\n    balances[address(this)].escrowIncoming = balances[address(this)].escrowIncoming.add(protocolAmount);\n  }\n\n  ///////////////////////////////////////////////////////////////////////////////////////\n  //// Deals                                                                         ////\n  ///////////////////////////////////////////////////////////////////////////////////////\n\n  struct Deal {\n    string did; // the did of the data share in question\n    address owner;\n    uint8 ownerPercentage;\n    address publisher;\n    uint8 publisherPercentage;\n    address user;\n    address marketplace;\n    uint8 marketplacePercentage;\n    uint256 amount;\n    uint256 validFrom; // 0 means forever, all others are a timestamp\n    uint256 validUntil; // 0 means forever, all others are a timestamp\n  }\n\n  Deal[] public deals;\n\n  event NewDeal(\n    uint256 dealIndex,\n    string did,\n    address owner,\n    address publisher,\n    address user,\n    address marketplace,\n    uint256 amount,\n    uint256 validFrom,\n    uint256 validUntil\n  );\n\n  function getAllDeals() public view returns (Deal[] memory) {\n    return deals;\n  }\n\n  function createDeal(\n    string memory did,\n    address owner,\n    uint8 ownerPercentage,\n    address publisher,\n    uint8 publisherPercentage,\n    address user,\n    address marketplace,\n    uint8 marketplacePercentage,\n    uint256 amount,\n    uint256 validFrom,\n    uint256 validUntil\n  ) public onlyOwner {\n    escrow(\n      owner,\n      ownerPercentage,\n      publisher,\n      publisherPercentage,\n      user,\n      marketplace,\n      marketplacePercentage,\n      amount\n    );\n    uint256 dealIndex = deals.push(Deal(\n      did,\n      owner,\n      ownerPercentage,\n      publisher,\n      publisherPercentage,\n      user,\n      marketplace,\n      marketplacePercentage,\n      amount,\n      validFrom,\n      validUntil\n    )) - 1;\n    emit NewDeal(\n      dealIndex,\n      did,\n      owner,\n      publisher,\n      user,\n      marketplace,\n      amount,\n      validFrom,\n      validUntil\n    );\n  }\n\n  function payout(uint256 dealIndex) public {\n    Deal memory deal = deals[dealIndex];\n    require(now >= deal.validFrom + 14 days, \"Payouts can only happen 14 days after the start of the deal (validFrom)\");\n    // release escrow\n    balances[deal.user].escrowOutgoing = balances[deal.user].escrowOutgoing.sub(deal.amount);\n    balances[deal.owner].escrowIncoming = balances[deal.owner].escrowIncoming.sub(deal.amount.mul(deal.ownerPercentage).div(100));\n    balances[deal.publisher].escrowIncoming = balances[deal.publisher].escrowIncoming.sub(deal.amount.mul(deal.publisherPercentage).div(100));\n    balances[deal.marketplace].escrowIncoming = balances[deal.marketplace].escrowIncoming.add(deal.amount.mul(deal.marketplacePercentage).div(100));\n    // transfer DTX\n    transfer(deal.user, deal.owner, deal.amount.mul(deal.ownerPercentage).div(100));\n    transfer(deal.user, deal.publisher, deal.amount.mul(deal.publisherPercentage).div(100));\n    transfer(deal.user, deal.marketplace, deal.amount.mul(deal.marketplacePercentage).div(100));\n    uint256 protocolAmount = deal.amount.sub((deal.amount.mul(deal.ownerPercentage).div(100)).add(deal.amount.mul(deal.publisherPercentage).div(100)).add(deal.amount.mul(deal.marketplacePercentage).div(100)));\n    transfer(deal.user, address(this), protocolAmount);\n  }\n\n}\n",
  "sourcePath": "/Users/roderik/Development/dxc/contracts/contracts/DXC.sol",
  "compiler": {
    "name": "solc",
    "version": "0.5.10+commit.5a6ea5b1.Emscripten.clang"
  },
  "schemaVersion": "3.0.11",
  "updatedAt": "2019-07-29T17:37:24.836Z",
  "devdoc": {
    "methods": {
      "isOwner()": {
        "details": "Returns true if the caller is the current owner."
      },
      "owner()": {
        "details": "Returns the address of the current owner."
      },
      "renounceOwnership()": {
        "details": "Leaves the contract without owner. It will not be possible to call `onlyOwner` functions anymore. Can only be called by the current owner.     * > Note: Renouncing ownership will leave the contract without an owner, thereby removing any functionality that is only available to the owner."
      },
      "transferOwnership(address)": {
        "details": "Transfers ownership of the contract to a new account (`newOwner`). Can only be called by the current owner."
      }
    }
  },
  "userdoc": {
    "methods": {
      "changeProtocolPercentage(uint8)": {
        "notice": "//////////////////////////////////////////////////////////////////////////////////// / Mofifiers for default settings                                                //// ////////////////////////////////////////////////////////////////////////////////////"
      }
    }
  }
}