{
  "contractName": "DXC",
  "abi": [
    {
      "constant": true,
      "inputs": [
        {
          "name": "",
          "type": "address"
        }
      ],
      "name": "balances",
      "outputs": [
        {
          "name": "balance",
          "type": "uint256"
        },
        {
          "name": "escrowOutgoing",
          "type": "uint256"
        },
        {
          "name": "escrowIncoming",
          "type": "uint256"
        }
      ],
      "payable": false,
      "stateMutability": "view",
      "type": "function"
    },
    {
      "constant": true,
      "inputs": [],
      "name": "dtxToken",
      "outputs": [
        {
          "name": "",
          "type": "address"
        }
      ],
      "payable": false,
      "stateMutability": "view",
      "type": "function"
    },
    {
      "constant": true,
      "inputs": [
        {
          "name": "",
          "type": "address"
        },
        {
          "name": "",
          "type": "uint256"
        }
      ],
      "name": "userToDeals",
      "outputs": [
        {
          "name": "did",
          "type": "string"
        },
        {
          "name": "owner",
          "type": "address"
        },
        {
          "name": "ownerPercentage",
          "type": "uint8"
        },
        {
          "name": "publisher",
          "type": "address"
        },
        {
          "name": "publisherPercentage",
          "type": "uint8"
        },
        {
          "name": "user",
          "type": "address"
        },
        {
          "name": "marketplace",
          "type": "address"
        },
        {
          "name": "marketplacePercentage",
          "type": "uint8"
        },
        {
          "name": "amount",
          "type": "uint256"
        },
        {
          "name": "validFrom",
          "type": "uint256"
        },
        {
          "name": "validUntil",
          "type": "uint256"
        }
      ],
      "payable": false,
      "stateMutability": "view",
      "type": "function"
    },
    {
      "constant": false,
      "inputs": [],
      "name": "renounceOwnership",
      "outputs": [],
      "payable": false,
      "stateMutability": "nonpayable",
      "type": "function"
    },
    {
      "constant": true,
      "inputs": [
        {
          "name": "",
          "type": "string"
        },
        {
          "name": "",
          "type": "uint256"
        }
      ],
      "name": "didToDeals",
      "outputs": [
        {
          "name": "did",
          "type": "string"
        },
        {
          "name": "owner",
          "type": "address"
        },
        {
          "name": "ownerPercentage",
          "type": "uint8"
        },
        {
          "name": "publisher",
          "type": "address"
        },
        {
          "name": "publisherPercentage",
          "type": "uint8"
        },
        {
          "name": "user",
          "type": "address"
        },
        {
          "name": "marketplace",
          "type": "address"
        },
        {
          "name": "marketplacePercentage",
          "type": "uint8"
        },
        {
          "name": "amount",
          "type": "uint256"
        },
        {
          "name": "validFrom",
          "type": "uint256"
        },
        {
          "name": "validUntil",
          "type": "uint256"
        }
      ],
      "payable": false,
      "stateMutability": "view",
      "type": "function"
    },
    {
      "constant": true,
      "inputs": [
        {
          "name": "",
          "type": "uint256"
        }
      ],
      "name": "dealsList",
      "outputs": [
        {
          "name": "did",
          "type": "string"
        },
        {
          "name": "owner",
          "type": "address"
        },
        {
          "name": "ownerPercentage",
          "type": "uint8"
        },
        {
          "name": "publisher",
          "type": "address"
        },
        {
          "name": "publisherPercentage",
          "type": "uint8"
        },
        {
          "name": "user",
          "type": "address"
        },
        {
          "name": "marketplace",
          "type": "address"
        },
        {
          "name": "marketplacePercentage",
          "type": "uint8"
        },
        {
          "name": "amount",
          "type": "uint256"
        },
        {
          "name": "validFrom",
          "type": "uint256"
        },
        {
          "name": "validUntil",
          "type": "uint256"
        }
      ],
      "payable": false,
      "stateMutability": "view",
      "type": "function"
    },
    {
      "constant": true,
      "inputs": [],
      "name": "owner",
      "outputs": [
        {
          "name": "",
          "type": "address"
        }
      ],
      "payable": false,
      "stateMutability": "view",
      "type": "function"
    },
    {
      "constant": true,
      "inputs": [],
      "name": "isOwner",
      "outputs": [
        {
          "name": "",
          "type": "bool"
        }
      ],
      "payable": false,
      "stateMutability": "view",
      "type": "function"
    },
    {
      "constant": true,
      "inputs": [],
      "name": "protocolPercentage",
      "outputs": [
        {
          "name": "",
          "type": "uint8"
        }
      ],
      "payable": false,
      "stateMutability": "view",
      "type": "function"
    },
    {
      "constant": true,
      "inputs": [],
      "name": "totalBalance",
      "outputs": [
        {
          "name": "",
          "type": "uint256"
        }
      ],
      "payable": false,
      "stateMutability": "view",
      "type": "function"
    },
    {
      "constant": false,
      "inputs": [
        {
          "name": "newOwner",
          "type": "address"
        }
      ],
      "name": "transferOwnership",
      "outputs": [],
      "payable": false,
      "stateMutability": "nonpayable",
      "type": "function"
    },
    {
      "constant": true,
      "inputs": [],
      "name": "totalEscrowed",
      "outputs": [
        {
          "name": "",
          "type": "uint256"
        }
      ],
      "payable": false,
      "stateMutability": "view",
      "type": "function"
    },
    {
      "inputs": [
        {
          "name": "token",
          "type": "address"
        }
      ],
      "payable": false,
      "stateMutability": "nonpayable",
      "type": "constructor"
    },
    {
      "anonymous": false,
      "inputs": [
        {
          "indexed": true,
          "name": "from",
          "type": "address"
        },
        {
          "indexed": false,
          "name": "amount",
          "type": "uint256"
        }
      ],
      "name": "DepositDTX",
      "type": "event"
    },
    {
      "anonymous": false,
      "inputs": [
        {
          "indexed": true,
          "name": "to",
          "type": "address"
        },
        {
          "indexed": false,
          "name": "amount",
          "type": "uint256"
        }
      ],
      "name": "WithdrawDTX",
      "type": "event"
    },
    {
      "anonymous": false,
      "inputs": [
        {
          "indexed": true,
          "name": "from",
          "type": "address"
        },
        {
          "indexed": true,
          "name": "to",
          "type": "address"
        },
        {
          "indexed": false,
          "name": "value",
          "type": "uint256"
        }
      ],
      "name": "TransferDTX",
      "type": "event"
    },
    {
      "anonymous": false,
      "inputs": [
        {
          "indexed": false,
          "name": "dealIndex",
          "type": "uint256"
        },
        {
          "indexed": false,
          "name": "did",
          "type": "string"
        },
        {
          "indexed": false,
          "name": "owner",
          "type": "address"
        },
        {
          "indexed": false,
          "name": "publisher",
          "type": "address"
        },
        {
          "indexed": false,
          "name": "user",
          "type": "address"
        },
        {
          "indexed": false,
          "name": "marketplace",
          "type": "address"
        },
        {
          "indexed": false,
          "name": "amount",
          "type": "uint256"
        },
        {
          "indexed": false,
          "name": "validFrom",
          "type": "uint256"
        },
        {
          "indexed": false,
          "name": "validUntil",
          "type": "uint256"
        }
      ],
      "name": "NewDeal",
      "type": "event"
    },
    {
      "anonymous": false,
      "inputs": [
        {
          "indexed": true,
          "name": "previousOwner",
          "type": "address"
        },
        {
          "indexed": true,
          "name": "newOwner",
          "type": "address"
        }
      ],
      "name": "OwnershipTransferred",
      "type": "event"
    },
    {
      "constant": false,
      "inputs": [
        {
          "name": "_protocolPercentage",
          "type": "uint8"
        }
      ],
      "name": "changeProtocolPercentage",
      "outputs": [],
      "payable": false,
      "stateMutability": "nonpayable",
      "type": "function"
    },
    {
      "constant": false,
      "inputs": [
        {
          "name": "token",
          "type": "address"
        }
      ],
      "name": "changeDTXToken",
      "outputs": [],
      "payable": false,
      "stateMutability": "nonpayable",
      "type": "function"
    },
    {
      "constant": true,
      "inputs": [],
      "name": "platformBalance",
      "outputs": [
        {
          "name": "",
          "type": "uint256"
        }
      ],
      "payable": false,
      "stateMutability": "view",
      "type": "function"
    },
    {
      "constant": true,
      "inputs": [
        {
          "name": "owner",
          "type": "address"
        }
      ],
      "name": "balanceOf",
      "outputs": [
        {
          "name": "balance",
          "type": "uint256"
        },
        {
          "name": "escrowOutgoing",
          "type": "uint256"
        },
        {
          "name": "escrowIncoming",
          "type": "uint256"
        },
        {
          "name": "available",
          "type": "uint256"
        }
      ],
      "payable": false,
      "stateMutability": "view",
      "type": "function"
    },
    {
      "constant": false,
      "inputs": [
        {
          "name": "to",
          "type": "address"
        },
        {
          "name": "amount",
          "type": "uint256"
        }
      ],
      "name": "convertFiatToToken",
      "outputs": [],
      "payable": false,
      "stateMutability": "nonpayable",
      "type": "function"
    },
    {
      "constant": false,
      "inputs": [
        {
          "name": "amount",
          "type": "uint256"
        }
      ],
      "name": "deposit",
      "outputs": [],
      "payable": false,
      "stateMutability": "nonpayable",
      "type": "function"
    },
    {
      "constant": false,
      "inputs": [],
      "name": "withdraw",
      "outputs": [],
      "payable": false,
      "stateMutability": "nonpayable",
      "type": "function"
    },
    {
      "constant": true,
      "inputs": [],
      "name": "allDeals",
      "outputs": [
        {
          "components": [
            {
              "name": "did",
              "type": "string"
            },
            {
              "name": "owner",
              "type": "address"
            },
            {
              "name": "ownerPercentage",
              "type": "uint8"
            },
            {
              "name": "publisher",
              "type": "address"
            },
            {
              "name": "publisherPercentage",
              "type": "uint8"
            },
            {
              "name": "user",
              "type": "address"
            },
            {
              "name": "marketplace",
              "type": "address"
            },
            {
              "name": "marketplacePercentage",
              "type": "uint8"
            },
            {
              "name": "amount",
              "type": "uint256"
            },
            {
              "name": "validFrom",
              "type": "uint256"
            },
            {
              "name": "validUntil",
              "type": "uint256"
            }
          ],
          "name": "",
          "type": "tuple[]"
        }
      ],
      "payable": false,
      "stateMutability": "view",
      "type": "function"
    },
    {
      "constant": true,
      "inputs": [
        {
          "name": "index",
          "type": "uint256"
        }
      ],
      "name": "deal",
      "outputs": [
        {
          "components": [
            {
              "name": "did",
              "type": "string"
            },
            {
              "name": "owner",
              "type": "address"
            },
            {
              "name": "ownerPercentage",
              "type": "uint8"
            },
            {
              "name": "publisher",
              "type": "address"
            },
            {
              "name": "publisherPercentage",
              "type": "uint8"
            },
            {
              "name": "user",
              "type": "address"
            },
            {
              "name": "marketplace",
              "type": "address"
            },
            {
              "name": "marketplacePercentage",
              "type": "uint8"
            },
            {
              "name": "amount",
              "type": "uint256"
            },
            {
              "name": "validFrom",
              "type": "uint256"
            },
            {
              "name": "validUntil",
              "type": "uint256"
            }
          ],
          "name": "",
          "type": "tuple"
        }
      ],
      "payable": false,
      "stateMutability": "view",
      "type": "function"
    },
    {
      "constant": true,
      "inputs": [
        {
          "name": "did",
          "type": "string"
        }
      ],
      "name": "deals",
      "outputs": [
        {
          "components": [
            {
              "name": "did",
              "type": "string"
            },
            {
              "name": "owner",
              "type": "address"
            },
            {
              "name": "ownerPercentage",
              "type": "uint8"
            },
            {
              "name": "publisher",
              "type": "address"
            },
            {
              "name": "publisherPercentage",
              "type": "uint8"
            },
            {
              "name": "user",
              "type": "address"
            },
            {
              "name": "marketplace",
              "type": "address"
            },
            {
              "name": "marketplacePercentage",
              "type": "uint8"
            },
            {
              "name": "amount",
              "type": "uint256"
            },
            {
              "name": "validFrom",
              "type": "uint256"
            },
            {
              "name": "validUntil",
              "type": "uint256"
            }
          ],
          "name": "",
          "type": "tuple[]"
        }
      ],
      "payable": false,
      "stateMutability": "view",
      "type": "function"
    },
    {
      "constant": true,
      "inputs": [
        {
          "name": "did",
          "type": "string"
        },
        {
          "name": "user",
          "type": "address"
        }
      ],
      "name": "hasAccessToDiD",
      "outputs": [
        {
          "name": "",
          "type": "bool"
        }
      ],
      "payable": false,
      "stateMutability": "view",
      "type": "function"
    },
    {
      "constant": false,
      "inputs": [
        {
          "name": "did",
          "type": "string"
        },
        {
          "name": "owner",
          "type": "address"
        },
        {
          "name": "ownerPercentage",
          "type": "uint8"
        },
        {
          "name": "publisher",
          "type": "address"
        },
        {
          "name": "publisherPercentage",
          "type": "uint8"
        },
        {
          "name": "user",
          "type": "address"
        },
        {
          "name": "marketplace",
          "type": "address"
        },
        {
          "name": "marketplacePercentage",
          "type": "uint8"
        },
        {
          "name": "amount",
          "type": "uint256"
        },
        {
          "name": "validFrom",
          "type": "uint256"
        },
        {
          "name": "validUntil",
          "type": "uint256"
        }
      ],
      "name": "createDeal",
      "outputs": [],
      "payable": false,
      "stateMutability": "nonpayable",
      "type": "function"
    },
    {
      "constant": false,
      "inputs": [
        {
          "name": "dealIndex",
          "type": "uint256"
        }
      ],
      "name": "payout",
      "outputs": [],
      "payable": false,
      "stateMutability": "nonpayable",
      "type": "function"
    }
  ],
  "bytecode": "0x60806040526001805460a060020a60ff021916740500000000000000000000000000000000000000001790553480156200003857600080fd5b5060405162003114380380620031148339810160408190526200005b91620000dd565b60008054600160a060020a0319163317808255604051600160a060020a039190911691907f8be0079c531659141344cd1fd0a4f28419497f9722a3daafe3b4186f6b6457e0908290a360018054600160a060020a031916600160a060020a039290921691909117905562000132565b8051620000d78162000118565b92915050565b600060208284031215620000f057600080fd5b6000620000fe8484620000ca565b949350505050565b6000600160a060020a038216620000d7565b620001238162000106565b81146200012f57600080fd5b50565b612fd280620001426000396000f3fe608060405234801561001057600080fd5b5060043610610190576000357c01000000000000000000000000000000000000000000000000000000009004806380c3abe0116100fb578063ad7a672f116100b4578063e11523431161008e578063e11523431461035d578063e2b4d7b214610370578063f2fde38b14610383578063f91682311461039657610190565b8063ad7a672f14610322578063b6b55f251461032a578063c959c42b1461033d57610190565b806380c3abe0146102b75780638da5cb5b146102ca5780638f32d59b146102df5780639089bb48146102e7578063a0a57dac146102fa578063a26b90f21461030d57610190565b806362a5dbbc1161014d57806362a5dbbc14610225578063655d4ece1461023a57806370a0823114610264578063715018a6146102875780637186320c1461028f578063743ebb7f146102a457610190565b8063034c30921461019557806317adfe02146101be57806327e235e3146101d35780633ae19474146101f55780633ccfd60b1461020857806341bd5fd214610210575b600080fd5b6101a86101a336600461224e565b61039e565b6040516101b59190612bb8565b60405180910390f35b6101d16101cc36600461218e565b6104ad565b005b6101e66101e136600461218e565b61050c565b6040516101b593929190612e0c565b6101d16102033660046122a3565b61052c565b6101d1610a28565b610218610b81565b6040516101b59190612bc6565b61022d610b90565b6040516101b59190612d71565b61024d6102483660046121b4565b610c30565b6040516101b59b9a99989796959493929190612be6565b61027761027236600461218e565b610d42565b6040516101b59493929190612e27565b6101d1610d86565b610297610e04565b6040516101b59190612ba7565b61024d6102b23660046123a8565b610f7e565b61024d6102c53660046123de565b610fa6565b6102d2611021565b6040516101b59190612b48565b6101a8611030565b6101d16102f53660046121b4565b611041565b61029761030836600461220c565b611107565b6103156112a3565b6040516101b59190612e65565b61022d6112b3565b6101d16103383660046123de565b6112b9565b61035061034b3660046123de565b6114a9565b6040516101b59190612d60565b6101d161036b3660046123de565b6115f5565b6101d161037e36600461241a565b611a84565b6101d161039136600461218e565b611adc565b61022d611b0f565b600080805b600160a060020a0384166000908152600760205260409020548110156104a25785856040516020016103d6929190612bd4565b60408051601f198184030181529181528151602092830120600160a060020a03871660009081526007909352912080548390811061041057fe5b90600052602060002090600802016000016040516020016104319190612c8f565b6040516020818303038152906040528051906020012014801561048a5750600160a060020a038416600090815260076020526040902080544291908390811061047657fe5b906000526020600020906008020160070154115b1561049a576001925050506104a6565b6001016103a3565b5090505b9392505050565b6104b5611030565b6104dd5760405160e560020a62461bcd0281526004016104d490612d30565b60405180910390fd5b6001805473ffffffffffffffffffffffffffffffffffffffff1916600160a060020a0392909216919091179055565b600260208190526000918252604090912080546001820154919092015483565b610534611030565b6105535760405160e560020a62461bcd0281526004016104d490612d30565b6105638a8a8a8a8a8a8a8a611b15565b61056b611fc6565b5060408051610160810182528c8152600160a060020a03808d1660208084019190915260ff808e16948401949094528b821660608401528a8416608084015289821660a084015290881660c083015291861660e08201526101008101859052610120810184905261014081018390526005805460018181018084556000938452845180519596949592949193879360089091027f036b6384b5eca791c62761152d0c79bb0604c104a5fb6f4eb0703f3154bb3db0019261062f928492910190612022565b50602082015160018201805460408086015173ffffffffffffffffffffffffffffffffffffffff19928316600160a060020a039586161774ff00000000000000000000000000000000000000001990811660a060020a60ff938416810291909117909555606088015160028801805460808b0151908716928916929092178316918416870291909117905560a0880151600388018054861691881691909117905560c088015160048801805460e08b01519616919097161716921690920217909155610100830151600583015561012083015160068084019190915561014090930151600790920191909155519290910392509061072e908f90612b3c565b90815260405160209181900382019020805460018101808355600092835291839020855180519394879460089094029092019261076e9284920190612022565b506020828101516001808401805460408088015160ff90811660a060020a90810274ff000000000000000000000000000000000000000019600160a060020a0398891673ffffffffffffffffffffffffffffffffffffffff199687161781169190911790955560608a015160028a01805460808d015185168402928a1690871617871691909117905560a08a015160038a01805491891691861691909117905560c08a015160048a01805460e08d01519094169092029088169290941691909117909316919091179091556101008601516005860155610120860151600686015561014090950151600794850155908d166000908152928252928220805493840180825590835291819020865180519395508794600802909101926108969284920190612022565b5060208201518160010160006101000a815481600160a060020a030219169083600160a060020a0316021790555060408201518160010160146101000a81548160ff021916908360ff16021790555060608201518160020160006101000a815481600160a060020a030219169083600160a060020a0316021790555060808201518160020160146101000a81548160ff021916908360ff16021790555060a08201518160030160006101000a815481600160a060020a030219169083600160a060020a0316021790555060c08201518160040160006101000a815481600160a060020a030219169083600160a060020a0316021790555060e08201518160040160146101000a81548160ff021916908360ff1602179055506101008201518160050155610120820151816006015561014082015181600701555050507fc03dfb2e53cc7a9868a03b235858db6648c1e9f761c1756dd70d8c96f10fde95818e8e8d8c8c8b8b8b604051610a1199989796959493929190612d7f565b60405180910390a150505050505050505050505050565b6000610a3333610d42565b33600090815260026020526040902054909450610a5b9350915083905063ffffffff611d6f16565b33600090815260026020526040902055600354610a7e908263ffffffff611d6f16565b6003556001546040517fa9059cbb000000000000000000000000000000000000000000000000000000008152600160a060020a039091169063a9059cbb90610acc9033908590600401612b8c565b602060405180830381600087803b158015610ae657600080fd5b505af1158015610afa573d6000803e3d6000fd5b505050506040513d601f19601f82011682018060405250610b1e91908101906121ee565b610b3d5760405160e560020a62461bcd0281526004016104d490612ce0565b33600160a060020a03167fc28ed4035491dd3fc975f4d0a41ab56de1a5402b03b6c69a5265b65d1c7906dc82604051610b769190612d71565b60405180910390a250565b600154600160a060020a031681565b6001546040517f70a08231000000000000000000000000000000000000000000000000000000008152600091600160a060020a0316906370a0823190610bda903090600401612b48565b60206040518083038186803b158015610bf257600080fd5b505afa158015610c06573d6000803e3d6000fd5b505050506040513d601f19601f82011682018060405250610c2a91908101906123fc565b90505b90565b60076020528160005260406000208181548110610c4957fe5b60009182526020918290206008919091020180546040805160026001841615610100026000190190931692909204601f810185900485028301850190915280825291945092508391830182828015610ce25780601f10610cb757610100808354040283529160200191610ce2565b820191906000526020600020905b815481529060010190602001808311610cc557829003601f168201915b5050506001840154600285015460038601546004870154600588015460068901546007909901549798600160a060020a038087169960ff60a060020a9889900481169a50878316995096889004871697958216969185169590940416928b565b600160a060020a038116600090815260026020819052604082208054600182015491909201549192909190610d7d848463ffffffff611d6f16565b90509193509193565b610d8e611030565b610dad5760405160e560020a62461bcd0281526004016104d490612d30565b60008054604051600160a060020a03909116907f8be0079c531659141344cd1fd0a4f28419497f9722a3daafe3b4186f6b6457e0908390a36000805473ffffffffffffffffffffffffffffffffffffffff19169055565b60606005805480602002602001604051908101604052809291908181526020016000905b82821015610f755760008481526020908190206040805160088602909201805460026001821615610100026000190190911604601f81018590049094028301610180908101909252610160830184815292939092849290918491840182828015610ed35780601f10610ea857610100808354040283529160200191610ed3565b820191906000526020600020905b815481529060010190602001808311610eb657829003601f168201915b5050509183525050600182810154600160a060020a0380821660208086019190915260ff60a060020a938490048116604087015260028701548084166060880152849004811660808701526003870154831660a0870152600487015492831660c08701529290910490911660e0840152600584015461010084015260068401546101208401526007909301546101409092019190915291835292019101610e28565b50505050905090565b81516020818401810180516006825292820191850191909120919052805482908110610c4957fe5b60058181548110610fb357fe5b60009182526020918290206008919091020180546040805160026001841615610100026000190190931692909204601f810185900485028301850190915280825291935091839190830182828015610ce25780601f10610cb757610100808354040283529160200191610ce2565b600054600160a060020a031690565b600054600160a060020a0316331490565b611049611030565b6110685760405160e560020a62461bcd0281526004016104d490612d30565b600160a060020a038216600090815260026020526040902054611091908263ffffffff611d9a16565b600160a060020a0383166000908152600260205260409020556003546110bd908263ffffffff611d9a16565b600355604051600160a060020a038316907f4b19cef4d67ff9acd5ce891a32f323842b26f39c024bdd00047e1b74be2aea8f906110fb908490612d71565b60405180910390a25050565b60606006838360405161111b929190612b2f565b9081526020016040518091039020805480602002602001604051908101604052809291908181526020016000905b828210156112965760008481526020908190206040805160088602909201805460026001821615610100026000190190911604601f810185900490940283016101809081019092526101608301848152929390928492909184918401828280156111f45780601f106111c9576101008083540402835291602001916111f4565b820191906000526020600020905b8154815290600101906020018083116111d757829003601f168201915b5050509183525050600182810154600160a060020a0380821660208086019190915260ff60a060020a938490048116604087015260028701548084166060880152849004811660808701526003870154831660a0870152600487015492831660c08701529290910490911660e0840152600584015461010084015260068401546101208401526007909301546101409092019190915291835292019101611149565b5050505090505b92915050565b60015460a060020a900460ff1681565b60035481565b6001546040517f70a082310000000000000000000000000000000000000000000000000000000081528291600160a060020a0316906370a0823190611302903390600401612b56565b60206040518083038186803b15801561131a57600080fd5b505afa15801561132e573d6000803e3d6000fd5b505050506040513d601f19601f8201168201806040525061135291908101906123fc565b10156113735760405160e560020a62461bcd0281526004016104d490612d10565b6001546040517f23b872dd000000000000000000000000000000000000000000000000000000008152600160a060020a03909116906323b872dd906113c090339030908690600401612b64565b602060405180830381600087803b1580156113da57600080fd5b505af11580156113ee573d6000803e3d6000fd5b505050506040513d601f19601f8201168201806040525061141291908101906121ee565b6114315760405160e560020a62461bcd0281526004016104d490612ca0565b33600090815260026020526040902054611451908263ffffffff611d9a16565b33600090815260026020526040902055600354611474908263ffffffff611d9a16565b60035560405133907f4b19cef4d67ff9acd5ce891a32f323842b26f39c024bdd00047e1b74be2aea8f90610b76908490612d71565b6114b1611fc6565b600582815481106114be57fe5b600091825260209182902060408051600893909302909101805460026001821615610100026000190190911604601f810185900490940283016101809081019092526101608301848152929390928492909184918401828280156115635780601f1061153857610100808354040283529160200191611563565b820191906000526020600020905b81548152906001019060200180831161154657829003601f168201915b50505091835250506001820154600160a060020a03808216602084015260ff60a060020a928390048116604085015260028501548083166060860152839004811660808501526003850154821660a0850152600485015491821660c08501529190041660e082015260058201546101008201526006820154610120820152600790910154610140909101529050919050565b6115fd611fc6565b6005828154811061160a57fe5b600091825260209182902060408051600893909302909101805460026001821615610100026000190190911604601f810185900490940283016101809081019092526101608301848152929390928492909184918401828280156116af5780601f10611684576101008083540402835291602001916116af565b820191906000526020600020905b81548152906001019060200180831161169257829003601f168201915b50505091835250506001820154600160a060020a03808216602084015260ff60a060020a928390048116604085015260028501548083166060860152839004811660808501526003850154821660a0850152600485015491821660c08501529190041660e0820152600582015461010082015260068201546101208083019190915260079092015461014090910152810151909150621275000142101561176b5760405160e560020a62461bcd0281526004016104d490612cd0565b61010081015160a0820151600160a060020a03166000908152600260205260409020600101546117a09163ffffffff611d6f16565b60a0820151600160a060020a03166000908152600260205260409081902060010191909155810151610100820151611824916117f8916064916117ec919060ff1663ffffffff611dc216565b9063ffffffff611dff16565b602080840151600160a060020a031660009081526002918290526040902001549063ffffffff611d6f16565b602080830151600160a060020a03166000908152600291829052604090200155608081015161010082015161189a9161186d916064916117ec919060ff1663ffffffff611dc216565b6060830151600160a060020a0316600090815260026020819052604090912001549063ffffffff611d6f16565b6060820151600160a060020a03166000908152600260208190526040909120015560e0810151610100820151611911916118e4916064916117ec919060ff1663ffffffff611dc216565b60c0830151600160a060020a0316600090815260026020819052604090912001549063ffffffff611d9a16565b600260008360c00151600160a060020a0316600160a060020a03168152602001908152602001600020600201819055506119778160a00151826020015161197260646117ec866040015160ff16876101000151611dc290919063ffffffff16565b611e37565b6119a88160a00151826060015161197260646117ec866080015160ff16876101000151611dc290919063ffffffff16565b6119d98160a001518260c0015161197260646117ec8660e0015160ff16876101000151611dc290919063ffffffff16565b6000611a6e611a5c611a0560646117ec8660e0015160ff16876101000151611dc290919063ffffffff16565b611a50611a2c60646117ec886080015160ff16896101000151611dc290919063ffffffff16565b611a5060646117ec896040015160ff168a6101000151611dc290919063ffffffff16565b9063ffffffff611d9a16565b6101008401519063ffffffff611d6f16565b9050611a7f8260a001513083611e37565b505050565b611a8c611030565b611aab5760405160e560020a62461bcd0281526004016104d490612d30565b6001805460ff90921660a060020a0274ff000000000000000000000000000000000000000019909216919091179055565b611ae4611030565b611b035760405160e560020a62461bcd0281526004016104d490612d30565b611b0c81611f35565b50565b60045481565b60015460a060020a900460ff90811686890184010116606414611b4d5760405160e560020a62461bcd0281526004016104d490612d40565b600160a060020a038416600090815260026020526040902060010154611b79908263ffffffff611d9a16565b600160a060020a038516600090815260026020526040902060010155600454611ba8908263ffffffff611d9a16565b6004556000611bbe82606463ffffffff611dff16565b9050611bff611bd68260ff8b1663ffffffff611dc216565b600160a060020a038b16600090815260026020819052604090912001549063ffffffff611d9a16565b600160a060020a038a1660009081526002602081905260409091200155611c5b611c328260ff891663ffffffff611dc216565b600160a060020a038916600090815260026020819052604090912001549063ffffffff611d9a16565b600160a060020a03881660009081526002602081905260409091200155611cb7611c8e8260ff861663ffffffff611dc216565b600160a060020a038616600090815260026020819052604090912001549063ffffffff611d9a16565b600160a060020a038516600090815260026020819052604082200191909155611d28611d1b611cef8460ff881663ffffffff611dc216565b611a50611d058660ff8d1663ffffffff611dc216565b611a508e60ff1688611dc290919063ffffffff16565b849063ffffffff611d6f16565b3060009081526002602081905260409091200154909150611d4f908263ffffffff611d9a16565b306000908152600260208190526040909120015550505050505050505050565b600082821115611d945760405160e560020a62461bcd0281526004016104d490612cf0565b50900390565b6000828201838110156104a65760405160e560020a62461bcd0281526004016104d490612cc0565b600082611dd15750600061129d565b82820282848281611dde57fe5b04146104a65760405160e560020a62461bcd0281526004016104d490612d20565b6000808211611e235760405160e560020a62461bcd0281526004016104d490612d00565b6000828481611e2e57fe5b04949350505050565b6000611e4284610d42565b600160a060020a038816600090815260026020526040902054909450611e739350915084905063ffffffff611d6f16565b600160a060020a038086166000908152600260205260408082209390935590851681522054611ea8908363ffffffff611d9a16565b600160a060020a03841660009081526002602052604090205580821115611ee45760405160e560020a62461bcd0281526004016104d490612d50565b82600160a060020a031684600160a060020a03167f53129ad8bfbcb17159505d8d2b4fd53b6df72ef4a1651fa36883270be476cc4484604051611f279190612d71565b60405180910390a350505050565b600160a060020a038116611f5e5760405160e560020a62461bcd0281526004016104d490612cb0565b60008054604051600160a060020a03808516939216917f8be0079c531659141344cd1fd0a4f28419497f9722a3daafe3b4186f6b6457e091a36000805473ffffffffffffffffffffffffffffffffffffffff1916600160a060020a0392909216919091179055565b6040805161016081018252606080825260006020830181905292820183905281018290526080810182905260a0810182905260c0810182905260e081018290526101008101829052610120810182905261014081019190915290565b828054600181600116156101000203166002900490600052602060002090601f016020900481019282601f1061206357805160ff1916838001178555612090565b82800160010185558215612090579182015b82811115612090578251825591602001919060010190612075565b5061209c9291506120a0565b5090565b610c2d91905b8082111561209c57600081556001016120a6565b803561129d81612f60565b805161129d81612f74565b60008083601f8401126120e257600080fd5b50813567ffffffffffffffff8111156120fa57600080fd5b60208301915083600182028301111561211257600080fd5b9250929050565b600082601f83011261212a57600080fd5b813561213d61213882612e9a565b612e73565b9150808252602083016020830185838301111561215957600080fd5b612164838284612f1a565b50505092915050565b803561129d81612f7d565b805161129d81612f7d565b803561129d81612f86565b6000602082840312156121a057600080fd5b60006121ac84846120ba565b949350505050565b600080604083850312156121c757600080fd5b60006121d385856120ba565b92505060206121e48582860161216d565b9150509250929050565b60006020828403121561220057600080fd5b60006121ac84846120c5565b6000806020838503121561221f57600080fd5b823567ffffffffffffffff81111561223657600080fd5b612242858286016120d0565b92509250509250929050565b60008060006040848603121561226357600080fd5b833567ffffffffffffffff81111561227a57600080fd5b612286868287016120d0565b93509350506020612299868287016120ba565b9150509250925092565b60008060008060008060008060008060006101608c8e0312156122c557600080fd5b8b3567ffffffffffffffff8111156122dc57600080fd5b6122e88e828f01612119565b9b505060206122f98e828f016120ba565b9a5050604061230a8e828f01612183565b995050606061231b8e828f016120ba565b985050608061232c8e828f01612183565b97505060a061233d8e828f016120ba565b96505060c061234e8e828f016120ba565b95505060e061235f8e828f01612183565b9450506101006123718e828f0161216d565b9350506101206123838e828f0161216d565b9250506101406123958e828f0161216d565b9150509295989b509295989b9093969950565b600080604083850312156123bb57600080fd5b823567ffffffffffffffff8111156123d257600080fd5b6121d385828601612119565b6000602082840312156123f057600080fd5b60006121ac848461216d565b60006020828403121561240e57600080fd5b60006121ac8484612178565b60006020828403121561242c57600080fd5b60006121ac8484612183565b60006104a68383612a36565b61244d81612f08565b82525050565b61244d81612ee6565b600061246782612ed4565b6124718185612ed8565b93508360208202850161248385612ec2565b8060005b858110156124bd57848403895281516124a08582612438565b94506124ab83612ec2565b60209a909a0199925050600101612487565b5091979650505050505050565b61244d81612ef1565b61244d81612f0f565b60006124e88385612ed8565b93506124f5838584612f1a565b6124fe83612f56565b9093019392505050565b60006125148385612ee1565b9350612521838584612f1a565b50500190565b600061253282612ed4565b61253c8185612ed8565b935061254c818560208601612f26565b6124fe81612f56565b600061256082612ed4565b61256a8185612ee1565b935061257a818560208601612f26565b9290920192915050565b6000815460018116600081146125a157600181146125c757612606565b607f60028304166125b28187612ed8565b60ff1984168152955050602085019250612606565b600282046125d58187612ed8565b95506125e085612ec8565b60005b828110156125ff578154888201526001909101906020016125e3565b8701945050505b505092915050565b600061261b603283612ed8565b7f445458207472616e73666572206661696c65642c2070726f6261626c7920746f81527f6f206c6974746c6520616c6c6f77616e63650000000000000000000000000000602082015260400192915050565b600061267a602683612ed8565b7f4f776e61626c653a206e6577206f776e657220697320746865207a65726f206181527f6464726573730000000000000000000000000000000000000000000000000000602082015260400192915050565b60006126d9601b83612ed8565b7f536166654d6174683a206164646974696f6e206f766572666c6f770000000000815260200192915050565b6000612712604783612ed8565b7f5061796f7574732063616e206f6e6c792068617070656e20313420646179732081527f616674657220746865207374617274206f6620746865206465616c202876616c60208201527f696446726f6d2900000000000000000000000000000000000000000000000000604082015260600192915050565b6000612797604383612ed8565b7f4e6f7420656e6f7567682044545820746f6b656e7320617661696c61626c652081527f746f2077697468647261772c20636f6e74616374204461746142726f6b65724460208201527f414f210000000000000000000000000000000000000000000000000000000000604082015260600192915050565b600061281c601e83612ed8565b7f536166654d6174683a207375627472616374696f6e206f766572666c6f770000815260200192915050565b6000612855601a83612ed8565b7f536166654d6174683a206469766973696f6e206279207a65726f000000000000815260200192915050565b600061288e603783612ed8565b7f53656e6465722068617320746f6f206c6974746c652044545820746f206d616b81527f652074686973207472616e73616374696f6e20776f726b000000000000000000602082015260400192915050565b60006128ed602183612ed8565b7f536166654d6174683a206d756c7469706c69636174696f6e206f766572666c6f81527f7700000000000000000000000000000000000000000000000000000000000000602082015260400192915050565b600061294c602083612ed8565b7f4f776e61626c653a2063616c6c6572206973206e6f7420746865206f776e6572815260200192915050565b6000612985602d83612ed8565b7f416c6c2070657263656e7461676573206e65656420746f20616464207570207481527f6f2065786163746c792031303000000000000000000000000000000000000000602082015260400192915050565b60006129e4603183612ed8565b7f4e6f7420656e6f75676820617661696c616c62652044545820746f206578656381527f7574652074686973207472616e73666572000000000000000000000000000000602082015260400192915050565b805161016080845260009190840190612a4f8282612527565b9150506020830151612a646020860182612453565b506040830151612a776040860182612b26565b506060830151612a8a6060860182612453565b506080830151612a9d6080860182612b26565b5060a0830151612ab060a0860182612453565b5060c0830151612ac360c0860182612453565b5060e0830151612ad660e0860182612b26565b50610100830151612aeb610100860182612b1d565b50610120830151612b00610120860182612b1d565b50610140830151612b15610140860182612b1d565b509392505050565b61244d81610c2d565b61244d81612f02565b60006121ac828486612508565b60006104a68284612555565b6020810161129d8284612453565b6020810161129d8284612444565b60608101612b728286612444565b612b7f6020830185612453565b6121ac6040830184612b1d565b60408101612b9a8285612444565b6104a66020830184612b1d565b602080825281016104a6818461245c565b6020810161129d82846124ca565b6020810161129d82846124d3565b602080825281016121ac8184866124dc565b6101608082528101612bf8818e612527565b9050612c07602083018d612453565b612c14604083018c612b26565b612c21606083018b612453565b612c2e608083018a612b26565b612c3b60a0830189612453565b612c4860c0830188612453565b612c5560e0830187612b26565b612c63610100830186612b1d565b612c71610120830185612b1d565b612c7f610140830184612b1d565b9c9b505050505050505050505050565b602080825281016104a68184612584565b6020808252810161129d8161260e565b6020808252810161129d8161266d565b6020808252810161129d816126cc565b6020808252810161129d81612705565b6020808252810161129d8161278a565b6020808252810161129d8161280f565b6020808252810161129d81612848565b6020808252810161129d81612881565b6020808252810161129d816128e0565b6020808252810161129d8161293f565b6020808252810161129d81612978565b6020808252810161129d816129d7565b602080825281016104a68184612a36565b6020810161129d8284612b1d565b6101208101612d8e828c612b1d565b8181036020830152612da0818b612527565b9050612daf604083018a612453565b612dbc6060830189612453565b612dc96080830188612453565b612dd660a0830187612453565b612de360c0830186612b1d565b612df060e0830185612b1d565b612dfe610100830184612b1d565b9a9950505050505050505050565b60608101612e1a8286612b1d565b612b7f6020830185612b1d565b60808101612e358287612b1d565b612e426020830186612b1d565b612e4f6040830185612b1d565b612e5c6060830184612b1d565b95945050505050565b6020810161129d8284612b26565b60405181810167ffffffffffffffff81118282101715612e9257600080fd5b604052919050565b600067ffffffffffffffff821115612eb157600080fd5b506020601f91909101601f19160190565b60200190565b60009081526020902090565b5190565b90815260200190565b919050565b600061129d82612ef6565b151590565b600160a060020a031690565b60ff1690565b600061129d825b600061129d82612ee6565b82818337506000910152565b60005b83811015612f41578181015183820152602001612f29565b83811115612f50576000848401525b50505050565b601f01601f191690565b612f6981612ee6565b8114611b0c57600080fd5b612f6981612ef1565b612f6981610c2d565b612f6981612f0256fea365627a7a72305820ade118fe55d631a4b4470d1998b5230332035de3212fe50c43450ab6f96f041b6c6578706572696d656e74616cf564736f6c634300050a0040",
  "source": "pragma solidity ^0.5.0;\npragma experimental ABIEncoderV2;\n\nimport \"../node_modules/openzeppelin-solidity/contracts/ownership/Ownable.sol\";\nimport \"../node_modules/openzeppelin-solidity/contracts/math/SafeMath.sol\";\nimport \"../node_modules/openzeppelin-solidity/contracts/token/ERC20/ERC20.sol\";\nimport \"../node_modules/openzeppelin-solidity/contracts/token/ERC20/SafeERC20.sol\";\n\ncontract DXC is Ownable {\n\n  using SafeMath for uint256;\n  using SafeMath for uint8;\n  using SafeERC20 for ERC20;\n\n  ERC20 public dtxToken;\n  uint8 public protocolPercentage = 5;\n\n  constructor(address token) public {\n    dtxToken = ERC20(token);\n  }\n\n  ///////////////////////////////////////////////////////////////////////////////////////\n  //// Mofifiers for default settings                                                ////\n  ///////////////////////////////////////////////////////////////////////////////////////\n\n  function changeProtocolPercentage(uint8 _protocolPercentage) public onlyOwner {\n    protocolPercentage = _protocolPercentage;\n  }\n\n  function changeDTXToken(address token) public onlyOwner {\n    dtxToken = ERC20(token);\n  }\n\n  ///////////////////////////////////////////////////////////////////////////////////////\n  //// DTX Bank                                                                      ////\n  ///////////////////////////////////////////////////////////////////////////////////////\n\n  struct TokenAvailabiltity {\n    uint256 balance;\n    uint256 escrowOutgoing;\n    uint256 escrowIncoming;\n  }\n\n  struct Escrow {\n    uint256 amount;\n    uint256 releaseAfter;\n    address to;\n    address from;\n  }\n\n  mapping(address => TokenAvailabiltity) public balances;\n  uint256 public totalBalance;\n  uint256 public totalEscrowed;\n\n  event DepositDTX(address indexed from, uint256 amount);\n  event WithdrawDTX(address indexed to, uint256 amount);\n  event TransferDTX(address indexed from, address indexed to, uint256 value);\n\n  function platformBalance() public view returns (uint256) {\n    return dtxToken.balanceOf(address(this));\n  }\n\n  function balanceOf(address owner) public view returns (uint256 balance, uint256 escrowOutgoing, uint256 escrowIncoming, uint256 available) {\n    balance = balances[owner].balance;\n    escrowOutgoing = balances[owner].escrowOutgoing;\n    escrowIncoming = balances[owner].escrowIncoming;\n    available = balances[owner].balance.sub(balances[owner].escrowOutgoing);\n  }\n\n  function convertFiatToToken(address to, uint256 amount) public onlyOwner {\n    balances[to].balance = balances[to].balance.add(amount);\n    totalBalance = totalBalance.add(amount);\n    emit DepositDTX(to, amount);\n  }\n\n  function deposit(uint256 amount) public {\n    require(dtxToken.balanceOf(msg.sender) >= amount, \"Sender has too little DTX to make this transaction work\");\n    require(dtxToken.transferFrom(msg.sender, address(this), amount), \"DTX transfer failed, probably too little allowance\");\n    balances[msg.sender].balance = balances[msg.sender].balance.add(amount);\n    totalBalance = totalBalance.add(amount);\n    emit DepositDTX(msg.sender, amount);\n  }\n\n  function withdraw() public {\n    (,,, uint256 available) = balanceOf(msg.sender);\n    balances[msg.sender].balance = balances[msg.sender].balance.sub(available);\n    totalBalance = totalBalance.sub(available);\n    require(dtxToken.transfer(msg.sender, available), \"Not enough DTX tokens available to withdraw, contact DataBrokerDAO!\");\n    emit WithdrawDTX(msg.sender, available);\n  }\n\n  /**\n   * address(0) is the address we use for escrowed funds, they are tracked in escrowedDTX\n   */\n  function transfer(address from, address to, uint256 amount) internal {\n    (,,, uint256 available) = balanceOf(from);\n    balances[from].balance = balances[from].balance.sub(amount);\n    balances[to].balance = balances[to].balance.add(amount);\n    require(amount <= available, \"Not enough availalbe DTX to execute this transfer\");\n    emit TransferDTX(from, to, amount);\n  }\n\n  function escrow(\n    address owner,\n    uint8 ownerPercentage,\n    address publisher,\n    uint8 publisherPercentage,\n    address user,\n    address marketplace,\n    uint8 marketplacePercentage,\n    uint256 amount) internal\n  {\n    require(ownerPercentage+publisherPercentage+marketplacePercentage+protocolPercentage == 100, \"All percentages need to add up to exactly 100\");\n    balances[user].escrowOutgoing = balances[user].escrowOutgoing.add(amount);\n    totalEscrowed = totalEscrowed.add(amount);\n    uint256 basePoint = amount.div(100);\n    balances[owner].escrowIncoming = balances[owner].escrowIncoming.add(basePoint.mul(ownerPercentage));\n    balances[publisher].escrowIncoming = balances[publisher].escrowIncoming.add(basePoint.mul(publisherPercentage));\n    balances[marketplace].escrowIncoming = balances[marketplace].escrowIncoming.add(basePoint.mul(marketplacePercentage));\n    uint256 protocolAmount = amount.sub((basePoint.mul(ownerPercentage)).add(basePoint.mul(publisherPercentage)).add(basePoint.mul(marketplacePercentage)));\n    balances[address(this)].escrowIncoming = balances[address(this)].escrowIncoming.add(protocolAmount);\n  }\n\n  ///////////////////////////////////////////////////////////////////////////////////////\n  //// Deals                                                                         ////\n  ///////////////////////////////////////////////////////////////////////////////////////\n\n  struct Deal {\n    string did; // the did of the data share in question\n    address owner;\n    uint8 ownerPercentage;\n    address publisher;\n    uint8 publisherPercentage;\n    address user;\n    address marketplace;\n    uint8 marketplacePercentage;\n    uint256 amount;\n    uint256 validFrom; // 0 means forever, all others are a timestamp\n    uint256 validUntil; // 0 means forever, all others are a timestamp\n  }\n\n  Deal[] public dealsList;\n\n  mapping(string => Deal[]) public didToDeals;\n  mapping(address => Deal[]) public userToDeals;\n\n  event NewDeal(\n    uint256 dealIndex,\n    string did,\n    address owner,\n    address publisher,\n    address user,\n    address marketplace,\n    uint256 amount,\n    uint256 validFrom,\n    uint256 validUntil\n  );\n\n  function allDeals() external view returns (Deal[] memory) {\n    return dealsList;\n  }\n\n  function deal(uint256 index) external view returns (Deal memory){\n    return dealsList[index];\n  }\n\n  function deals(string calldata did) external view returns (Deal[] memory){\n    return didToDeals[did];\n  }\n\n  function hasAccessToDiD(string calldata did, address user) external view returns (bool){\n    bool accessToDid = false;\n    for (uint256 i = 0; i < userToDeals[user].length; i++){\n      if (keccak256(abi.encode(userToDeals[user][i].did)) == keccak256(abi.encode(did)) && userToDeals[user][i].validUntil > now){\n        return true;\n      }\n    }\n    return accessToDid;\n  }\n\n  function createDeal(\n    string memory did,\n    address owner,\n    uint8 ownerPercentage,\n    address publisher,\n    uint8 publisherPercentage,\n    address user,\n    address marketplace,\n    uint8 marketplacePercentage,\n    uint256 amount,\n    uint256 validFrom,\n    uint256 validUntil\n  ) public onlyOwner {\n    escrow(\n      owner,\n      ownerPercentage,\n      publisher,\n      publisherPercentage,\n      user,\n      marketplace,\n      marketplacePercentage,\n      amount\n    );\n    Deal memory newDeal = Deal(\n      did,\n      owner,\n      ownerPercentage,\n      publisher,\n      publisherPercentage,\n      user,\n      marketplace,\n      marketplacePercentage,\n      amount,\n      validFrom,\n      validUntil\n    );\n    uint256 dealIndex = dealsList.push(newDeal) - 1;\n    didToDeals[did].push(newDeal);\n    userToDeals[user].push(newDeal);\n    emit NewDeal(\n      dealIndex,\n      did,\n      owner,\n      publisher,\n      user,\n      marketplace,\n      amount,\n      validFrom,\n      validUntil\n    );\n  }\n\n  function payout(uint256 dealIndex) public {\n    Deal memory _deal = dealsList[dealIndex];\n    require(now >= _deal.validFrom + 14 days, \"Payouts can only happen 14 days after the start of the deal (validFrom)\");\n    // release escrow\n    balances[_deal.user].escrowOutgoing = balances[_deal.user].escrowOutgoing.sub(_deal.amount);\n    balances[_deal.owner].escrowIncoming = balances[_deal.owner].escrowIncoming.sub(_deal.amount.mul(_deal.ownerPercentage).div(100));\n    balances[_deal.publisher].escrowIncoming = balances[_deal.publisher].escrowIncoming.sub(_deal.amount.mul(_deal.publisherPercentage).div(100));\n    balances[_deal.marketplace].escrowIncoming = balances[_deal.marketplace].escrowIncoming.add(_deal.amount.mul(_deal.marketplacePercentage).div(100));\n    // transfer DTX\n    transfer(_deal.user, _deal.owner, _deal.amount.mul(_deal.ownerPercentage).div(100));\n    transfer(_deal.user, _deal.publisher, _deal.amount.mul(_deal.publisherPercentage).div(100));\n    transfer(_deal.user, _deal.marketplace, _deal.amount.mul(_deal.marketplacePercentage).div(100));\n    uint256 protocolAmount = _deal.amount.sub((_deal.amount.mul(_deal.ownerPercentage).div(100)).add(_deal.amount.mul(_deal.publisherPercentage).div(100)).add(_deal.amount.mul(_deal.marketplacePercentage).div(100)));\n    transfer(_deal.user, address(this), protocolAmount);\n  }\n\n}\n",
  "sourcePath": "/Users/roderik/Development/dxc/contracts/contracts/DXC.sol",
  "compiler": {
    "name": "solc",
    "version": "0.5.10+commit.5a6ea5b1.Emscripten.clang"
  },
  "schemaVersion": "3.0.11",
  "updatedAt": "2019-07-30T15:42:35.183Z",
  "devdoc": {
    "methods": {
      "isOwner()": {
        "details": "Returns true if the caller is the current owner."
      },
      "owner()": {
        "details": "Returns the address of the current owner."
      },
      "renounceOwnership()": {
        "details": "Leaves the contract without owner. It will not be possible to call `onlyOwner` functions anymore. Can only be called by the current owner.     * > Note: Renouncing ownership will leave the contract without an owner, thereby removing any functionality that is only available to the owner."
      },
      "transferOwnership(address)": {
        "details": "Transfers ownership of the contract to a new account (`newOwner`). Can only be called by the current owner."
      }
    }
  },
  "userdoc": {
    "methods": {
      "changeProtocolPercentage(uint8)": {
        "notice": "//////////////////////////////////////////////////////////////////////////////////// / Mofifiers for default settings                                                //// ////////////////////////////////////////////////////////////////////////////////////"
      }
    }
  }
}