{
  "contractName": "Migrations",
  "abi": [
    {
      "constant": true,
      "inputs": [],
      "name": "owner",
      "outputs": [
        {
          "name": "",
          "type": "address"
        }
      ],
      "payable": false,
      "stateMutability": "view",
      "type": "function"
    },
    {
      "constant": true,
      "inputs": [],
      "name": "lastCompletedMigration",
      "outputs": [
        {
          "name": "",
          "type": "uint256"
        }
      ],
      "payable": false,
      "stateMutability": "view",
      "type": "function"
    },
    {
      "inputs": [],
      "payable": false,
      "stateMutability": "nonpayable",
      "type": "constructor"
    },
    {
      "constant": false,
      "inputs": [
        {
          "name": "completed",
          "type": "uint256"
        }
      ],
      "name": "setCompleted",
      "outputs": [],
      "payable": false,
      "stateMutability": "nonpayable",
      "type": "function"
    },
    {
      "constant": false,
      "inputs": [
        {
          "name": "newAddress",
          "type": "address"
        }
      ],
      "name": "upgrade",
      "outputs": [],
      "payable": false,
      "stateMutability": "nonpayable",
      "type": "function"
    }
  ],
  "bytecode": "0x608060405234801561001057600080fd5b5060008054600160a060020a0319163317905561031e806100326000396000f3fe608060405234801561001057600080fd5b5060043610610068577c010000000000000000000000000000000000000000000000000000000060003504630900f010811461006d5780638da5cb5b146100a2578063fbdbad3c146100d3578063fdacd576146100ed575b600080fd5b6100a06004803603602081101561008357600080fd5b503573ffffffffffffffffffffffffffffffffffffffff1661010a565b005b6100aa61020c565b6040805173ffffffffffffffffffffffffffffffffffffffff9092168252519081900360200190f35b6100db610228565b60408051918252519081900360200190f35b6100a06004803603602081101561010357600080fd5b503561022e565b60005473ffffffffffffffffffffffffffffffffffffffff16331461017a576040517f08c379a00000000000000000000000000000000000000000000000000000000081526004018080602001828103825260468152602001806102a46046913960600191505060405180910390fd5b60008190508073ffffffffffffffffffffffffffffffffffffffff1663fdacd5766001546040518263ffffffff167c010000000000000000000000000000000000000000000000000000000002815260040180828152602001915050600060405180830381600087803b1580156101f057600080fd5b505af1158015610204573d6000803e3d6000fd5b505050505050565b60005473ffffffffffffffffffffffffffffffffffffffff1681565b60015481565b60005473ffffffffffffffffffffffffffffffffffffffff16331461029e576040517f08c379a00000000000000000000000000000000000000000000000000000000081526004018080602001828103825260468152602001806102a46046913960600191505060405180910390fd5b60015556fe746865206163636f756e742073656e64696e672074686973207472616e73616374696f6e206973206e6f7420746865206f776e6572206f66207468697320636f6e7472616374a265627a7a72305820be8bd10b5b4366f8ea6da7b5e961643a0c5b2bbe3e93f5ff1a592a5746e7128f64736f6c634300050a0032",
  "source": "pragma solidity ^0.5.10;\n\n\ncontract Migrations {\n  address public owner;\n  uint public lastCompletedMigration;\n\n  constructor() public {\n    owner = msg.sender;\n  }\n\n  modifier restricted() {\n    require(msg.sender == owner, \"the account sending this transaction is not the owner of this contract\");\n    _;\n  }\n\n  function setCompleted(uint completed) public restricted {\n    lastCompletedMigration = completed;\n  }\n\n  function upgrade(address newAddress) public restricted {\n    Migrations upgraded = Migrations(newAddress);\n    upgraded.setCompleted(lastCompletedMigration);\n  }\n}\n",
  "sourcePath": "/Users/roderik/Development/databrokerdao-dxc/contracts/contracts/Migrations.sol",
  "compiler": {
    "name": "solc",
    "version": "0.5.10+commit.5a6ea5b1.Emscripten.clang"
  },
  "schemaVersion": "3.0.11",
  "updatedAt": "2019-07-25T12:46:56.516Z",
  "devdoc": {
    "methods": {}
  },
  "userdoc": {
    "methods": {}
  }
}