{
  "contractName": "MiniMeTokenFactory",
  "abi": [
    {
      "constant": false,
      "inputs": [
        {
          "name": "_parentToken",
          "type": "address"
        },
        {
          "name": "_snapshotBlock",
          "type": "uint256"
        },
        {
          "name": "_tokenName",
          "type": "string"
        },
        {
          "name": "_decimalUnits",
          "type": "uint8"
        },
        {
          "name": "_tokenSymbol",
          "type": "string"
        },
        {
          "name": "_transfersEnabled",
          "type": "bool"
        }
      ],
      "name": "createCloneToken",
      "outputs": [
        {
          "name": "",
          "type": "address"
        }
      ],
      "payable": false,
      "stateMutability": "nonpayable",
      "type": "function"
    }
  ],
  "bytecode": "0x608060405234801561001057600080fd5b50612020806100206000396000f3fe608060405234801561001057600080fd5b506004361061002b5760003560e01c80635b7b72c114610030575b600080fd5b61017f600480360360c081101561004657600080fd5b6001600160a01b038235169160208101359181019060608101604082013564010000000081111561007657600080fd5b82018360208201111561008857600080fd5b803590602001918460018302840111640100000000831117156100aa57600080fd5b91908080601f016020809104026020016040519081016040528093929190818152602001838380828437600092019190915250929560ff85351695909490935060408101925060200135905064010000000081111561010857600080fd5b82018360208201111561011a57600080fd5b8035906020019184600183028401116401000000008311171561013c57600080fd5b91908080601f016020809104026020016040519081016040528093929190818152602001838380828437600092019190915250929550505050351515905061019b565b604080516001600160a01b039092168252519081900360200190f35b600080308888888888886040516101b190610348565b6001600160a01b03808916825287166020808301919091526040820187905260ff8516608083015282151560c083015260e0606083018181528751918401919091528651909160a084019161010085019189019080838360005b8381101561022357818101518382015260200161020b565b50505050905090810190601f1680156102505780820380516001836020036101000a031916815260200191505b50838103825285518152855160209182019187019080838360005b8381101561028357818101518382015260200161026b565b50505050905090810190601f1680156102b05780820380516001836020036101000a031916815260200191505b509950505050505050505050604051809103906000f0801580156102d8573d6000803e3d6000fd5b5060408051633cebb82360e01b815233600482015290519192506001600160a01b03831691633cebb8239160248082019260009290919082900301818387803b15801561032457600080fd5b505af1158015610338573d6000803e3d6000fd5b50929a9950505050505050505050565b611c96806103568339019056fe60c0604052600760808190527f4d4d545f302e320000000000000000000000000000000000000000000000000060a0908152620000409160049190620001e6565b503480156200004e57600080fd5b5060405162001c9638038062001c96833981810160405260e08110156200007457600080fd5b8151602083015160408401516060850180519395929491939183019291640100000000811115620000a457600080fd5b82016020810184811115620000b857600080fd5b8151640100000000811182820187101715620000d357600080fd5b50506020820151604090920180519194929391640100000000811115620000f957600080fd5b820160208101848111156200010d57600080fd5b81516401000000008111828201871017156200012857600080fd5b5050602091820151600080546001600160a01b03191633179055600b80546001600160a01b038c1661010002610100600160a81b0319909116179055865191945092506200017d9160019190870190620001e6565b506002805460ff191660ff85161790558151620001a2906003906020850190620001e6565b50600580546001600160a01b0319166001600160a01b039790971696909617909555505050600655600b805460ff191691151591909117905550436007556200028b565b828054600181600116156101000203166002900490600052602060002090601f016020900481019282601f106200022957805160ff191683800117855562000259565b8280016001018555821562000259579182015b82811115620002595782518255916020019190600101906200023c565b50620002679291506200026b565b5090565b6200028891905b8082111562000267576000815560010162000272565b90565b6119fb806200029b6000396000f3fe6080604052600436106101665760003560e01c8063827f32c0116100d1578063cae9ca511161008a578063df8de3e711610064578063df8de3e7146107d2578063e77772fe14610805578063f41e60c51461081a578063f77c47911461084657610166565b8063cae9ca5114610696578063d3ce77fe1461075e578063dd62ed3e1461079757610166565b8063827f32c0146105bb57806395d89b41146105f4578063981b24d014610609578063a9059cbb14610633578063bef97c871461066c578063c5bcc4f11461068157610166565b80633cebb823116101235780633cebb8231461038a5780634ee2cd7e146103bd57806354fd4d50146103f65780636638c0871461040b57806370a082311461057357806380a54001146105a657610166565b806306fdde0314610209578063095ea7b31461029357806317634514146102e057806318160ddd1461030757806323b872dd1461031c578063313ce5671461035f575b60005461017b906001600160a01b031661085b565b61018457600080fd5b60005460408051633d230c1560e21b815233600482015290516001600160a01b039092169163f48c3054913491602480830192602092919082900301818588803b1580156101d157600080fd5b505af11580156101e5573d6000803e3d6000fd5b50505050506040513d60208110156101fc57600080fd5b505161020757600080fd5b005b34801561021557600080fd5b5061021e610882565b6040805160208082528351818301528351919283929083019185019080838360005b83811015610258578181015183820152602001610240565b50505050905090810190601f1680156102855780820380516001836020036101000a031916815260200191505b509250505060405180910390f35b34801561029f57600080fd5b506102cc600480360360408110156102b657600080fd5b506001600160a01b03813516906020013561090f565b604080519115158252519081900360200190f35b3480156102ec57600080fd5b506102f5610a6e565b60408051918252519081900360200190f35b34801561031357600080fd5b506102f5610a74565b34801561032857600080fd5b506102cc6004803603606081101561033f57600080fd5b506001600160a01b03813581169160208101359091169060400135610a85565b34801561036b57600080fd5b50610374610b1a565b6040805160ff9092168252519081900360200190f35b34801561039657600080fd5b50610207600480360360208110156103ad57600080fd5b50356001600160a01b0316610b23565b3480156103c957600080fd5b506102f5600480360360408110156103e057600080fd5b506001600160a01b038135169060200135610b5c565b34801561040257600080fd5b5061021e610ca2565b34801561041757600080fd5b50610557600480360360a081101561042e57600080fd5b81019060208101813564010000000081111561044957600080fd5b82018360208201111561045b57600080fd5b8035906020019184600183028401116401000000008311171561047d57600080fd5b91908080601f016020809104026020016040519081016040528093929190818152602001838380828437600092019190915250929560ff8535169590949093506040810192506020013590506401000000008111156104db57600080fd5b8201836020820111156104ed57600080fd5b8035906020019184600183028401116401000000008311171561050f57600080fd5b91908080601f01602080910402602001604051908101604052809392919081815260200183838082843760009201919091525092955050823593505050602001351515610cfd565b604080516001600160a01b039092168252519081900360200190f35b34801561057f57600080fd5b506102f56004803603602081101561059657600080fd5b50356001600160a01b0316610f42565b3480156105b257600080fd5b50610557610f4e565b3480156105c757600080fd5b506102cc600480360360408110156105de57600080fd5b506001600160a01b038135169060200135610f5d565b34801561060057600080fd5b5061021e611029565b34801561061557600080fd5b506102f56004803603602081101561062c57600080fd5b5035611084565b34801561063f57600080fd5b506102cc6004803603604081101561065657600080fd5b506001600160a01b038135169060200135611171565b34801561067857600080fd5b506102cc61118e565b34801561068d57600080fd5b506102f5611197565b3480156106a257600080fd5b506102cc600480360360608110156106b957600080fd5b6001600160a01b03823516916020810135918101906060810160408201356401000000008111156106e957600080fd5b8201836020820111156106fb57600080fd5b8035906020019184600183028401116401000000008311171561071d57600080fd5b91908080601f01602080910402602001604051908101604052809392919081815260200183838082843760009201919091525092955061119d945050505050565b34801561076a57600080fd5b506102cc6004803603604081101561078157600080fd5b506001600160a01b03813516906020013561129d565b3480156107a357600080fd5b506102f5600480360360408110156107ba57600080fd5b506001600160a01b0381358116916020013516611365565b3480156107de57600080fd5b50610207600480360360208110156107f557600080fd5b50356001600160a01b0316611390565b34801561081157600080fd5b50610557611540565b34801561082657600080fd5b506102076004803603602081101561083d57600080fd5b50351515611554565b34801561085257600080fd5b5061055761157e565b6000806001600160a01b03831661087657600091505061087d565b5050803b15155b919050565b60018054604080516020600284861615610100026000190190941693909304601f810184900484028201840190925281815292918301828280156109075780601f106108dc57610100808354040283529160200191610907565b820191906000526020600020905b8154815290600101906020018083116108ea57829003601f168201915b505050505081565b600b5460009060ff1661092157600080fd5b81158061094f57503360009081526009602090815260408083206001600160a01b0387168452909152902054155b61095857600080fd5b60005461096d906001600160a01b031661085b565b15610a0657600080546040805163da682aeb60e01b81523360048201526001600160a01b038781166024830152604482018790529151919092169263da682aeb92606480820193602093909283900390910190829087803b1580156109d157600080fd5b505af11580156109e5573d6000803e3d6000fd5b505050506040513d60208110156109fb57600080fd5b5051610a0657600080fd5b3360008181526009602090815260408083206001600160a01b03881680855290835292819020869055805186815290519293927f8c5be1e5ebec7d5bd14f71427d1e84f3dd0314c0f7b2291e5b200ac8c7c3b925929181900390910190a35060015b92915050565b60075481565b6000610a7f43611084565b90505b90565b600080546001600160a01b03163314610b0557600b5460ff16610aa757600080fd5b6001600160a01b0384166000908152600960209081526040808320338452909152902054821115610ada57506000610b13565b6001600160a01b03841660009081526009602090815260408083203384529091529020805483900390555b610b1084848461158d565b90505b9392505050565b60025460ff1681565b6000546001600160a01b03163314610b3a57600080fd5b600080546001600160a01b0319166001600160a01b0392909216919091179055565b6001600160a01b0382166000908152600860205260408120541580610bb657506001600160a01b03831660009081526008602052604081208054849290610b9f57fe5b6000918252602090912001546001600160801b0316115b15610c79576005546001600160a01b031615610c71576005546006546001600160a01b0390911690634ee2cd7e908590610bf1908690611760565b6040518363ffffffff1660e01b815260040180836001600160a01b03166001600160a01b031681526020018281526020019250505060206040518083038186803b158015610c3e57600080fd5b505afa158015610c52573d6000803e3d6000fd5b505050506040513d6020811015610c6857600080fd5b50519050610a68565b506000610a68565b6001600160a01b0383166000908152600860205260409020610c9b9083611776565b9050610a68565b6004805460408051602060026001851615610100026000190190941693909304601f810184900484028201840190925281815292918301828280156109075780601f106108dc57610100808354040283529160200191610907565b600082610d08574392505b6000600b60019054906101000a90046001600160a01b03166001600160a01b0316635b7b72c130868a8a8a896040518763ffffffff1660e01b815260040180876001600160a01b03166001600160a01b03168152602001868152602001806020018560ff1660ff1681526020018060200184151515158152602001838103835287818151815260200191508051906020019080838360005b83811015610db8578181015183820152602001610da0565b50505050905090810190601f168015610de55780820380516001836020036101000a031916815260200191505b50838103825285518152855160209182019187019080838360005b83811015610e18578181015183820152602001610e00565b50505050905090810190601f168015610e455780820380516001836020036101000a031916815260200191505b5098505050505050505050602060405180830381600087803b158015610e6a57600080fd5b505af1158015610e7e573d6000803e3d6000fd5b505050506040513d6020811015610e9457600080fd5b505160408051633cebb82360e01b815233600482015290519192506001600160a01b03831691633cebb8239160248082019260009290919082900301818387803b158015610ee157600080fd5b505af1158015610ef5573d6000803e3d6000fd5b50506040805187815290516001600160a01b03851693507f086c875b377f900b07ce03575813022f05dd10ed7640b5282cf6d3c3fc352ade92509081900360200190a29695505050505050565b6000610a688243610b5c565b6005546001600160a01b031681565b600080546001600160a01b03163314610f7557600080fd5b6000610f7f610a74565b9050808382011015610f9057600080fd5b6000610f9b85610f42565b9050808482011015610fac57600080fd5b610fb9600a8584016118a6565b6001600160a01b0385166000908152600860205260409020610fdd908286016118a6565b6040805185815290516001600160a01b038716916000917fddf252ad1be2c89b69c2b068fc378daa952ba7f163c4a11628f55a4df523b3ef9181900360200190a3506001949350505050565b6003805460408051602060026001851615610100026000190190941693909304601f810184900484028201840190925281815292918301828280156109075780601f106108dc57610100808354040283529160200191610907565b600a5460009015806110b7575081600a6000815481106110a057fe5b6000918252602090912001546001600160801b0316115b1561115f576005546001600160a01b031615611157576005546006546001600160a01b039091169063981b24d0906110f0908590611760565b6040518263ffffffff1660e01b81526004018082815260200191505060206040518083038186803b15801561112457600080fd5b505afa158015611138573d6000803e3d6000fd5b505050506040513d602081101561114e57600080fd5b5051905061087d565b50600061087d565b61116a600a83611776565b905061087d565b600b5460009060ff1661118357600080fd5b610b1333848461158d565b600b5460ff1681565b60065481565b60006111a9848461090f565b6111b257600080fd5b604051638f4ffcb160e01b815233600482018181526024830186905230604484018190526080606485019081528651608486015286516001600160a01b038a1695638f4ffcb195948a94938a939192909160a490910190602085019080838360005b8381101561122c578181015183820152602001611214565b50505050905090810190601f1680156112595780820380516001836020036101000a031916815260200191505b5095505050505050600060405180830381600087803b15801561127b57600080fd5b505af115801561128f573d6000803e3d6000fd5b506001979650505050505050565b600080546001600160a01b031633146112b557600080fd5b60006112bf610a74565b9050828110156112ce57600080fd5b60006112d985610f42565b9050838110156112e857600080fd5b6112f5600a8584036118a6565b6001600160a01b0385166000908152600860205260409020611319908583036118a6565b6040805185815290516000916001600160a01b038816917fddf252ad1be2c89b69c2b068fc378daa952ba7f163c4a11628f55a4df523b3ef9181900360200190a3506001949350505050565b6001600160a01b03918216600090815260096020908152604080832093909416825291909152205490565b6000546001600160a01b031633146113a757600080fd5b6001600160a01b0381166113f657600080546040516001600160a01b0390911691303180156108fc02929091818181858888f193505050501580156113f0573d6000803e3d6000fd5b5061153d565b604080516370a0823160e01b8152306004820152905182916000916001600160a01b038416916370a08231916024808301926020929190829003018186803b15801561144157600080fd5b505afa158015611455573d6000803e3d6000fd5b505050506040513d602081101561146b57600080fd5b5051600080546040805163a9059cbb60e01b81526001600160a01b0392831660048201526024810185905290519394509085169263a9059cbb92604480840193602093929083900390910190829087803b1580156114c857600080fd5b505af11580156114dc573d6000803e3d6000fd5b505050506040513d60208110156114f257600080fd5b50506000546040805183815290516001600160a01b03928316928616917ff931edb47c50b4b4104c187b5814a9aef5f709e17e2ecf9617e860cacade929c919081900360200190a350505b50565b600b5461010090046001600160a01b031681565b6000546001600160a01b0316331461156b57600080fd5b600b805460ff1916911515919091179055565b6000546001600160a01b031681565b60008161159c57506001610b13565b43600654106115aa57600080fd5b6001600160a01b038316158015906115cb57506001600160a01b0383163014155b6115d457600080fd5b60006115e08543610b5c565b9050828110156115f4576000915050610b13565b600054611609906001600160a01b031661085b565b156116a4576000805460408051634a39314960e01b81526001600160a01b03898116600483015288811660248301526044820188905291519190921692634a39314992606480820193602093909283900390910190829087803b15801561166f57600080fd5b505af1158015611683573d6000803e3d6000fd5b505050506040513d602081101561169957600080fd5b50516116a457600080fd5b6001600160a01b03851660009081526008602052604090206116c8908483036118a6565b60006116d48543610b5c565b90508084820110156116e557600080fd5b6001600160a01b0385166000908152600860205260409020611709908286016118a6565b846001600160a01b0316866001600160a01b03167fddf252ad1be2c89b69c2b068fc378daa952ba7f163c4a11628f55a4df523b3ef866040518082815260200191505060405180910390a350600195945050505050565b600081831061176f5781610b13565b5090919050565b815460009061178757506000610a68565b82548390600019810190811061179957fe5b6000918252602090912001546001600160801b031682106117e9578254839060001981019081106117c657fe5b600091825260209091200154600160801b90046001600160801b03169050610a68565b826000815481106117f657fe5b6000918252602090912001546001600160801b031682101561181a57506000610a68565b8254600090600019015b8181111561187557600060026001838501010490508486828154811061184657fe5b6000918252602090912001546001600160801b0316116118685780925061186f565b6001810391505b50611824565b84828154811061188157fe5b600091825260209091200154600160801b90046001600160801b031695945050505050565b815415806118da575081544390839060001981019081106118c357fe5b6000918252602090912001546001600160801b0316105b1561194157815460009083906118f3826001830161197f565b815481106118fd57fe5b600091825260209091200180546001600160801b03848116600160801b024382166fffffffffffffffffffffffffffffffff1990931692909217161790555061197b565b81546000908390600019810190811061195657fe5b600091825260209091200180546001600160801b03808516600160801b029116179055505b5050565b8154818355818111156119a3576000838152602090206119a39181019083016119a8565b505050565b610a8291905b808211156119c257600081556001016119ae565b509056fea265627a7a723058207acec991c7c328a203a210054115f624d6cea0e38d1362112a7adad40ac28e2a64736f6c634300050a0032a265627a7a72305820196bce388b32d85e5b3187f95ee165a171cd081d04a97cc0e95a998e16c0280664736f6c634300050a0032",
  "source": "pragma solidity ^0.5.0;\n\n/*\n    Copyright 2016, Jordi Baylina\n\n    This program is free software: you can redistribute it and/or modify\n    it under the terms of the GNU General Public License as published by\n    the Free Software Foundation, either version 3 of the License, or\n    (at your option) any later version.\n\n    This program is distributed in the hope that it will be useful,\n    but WITHOUT ANY WARRANTY; without even the implied warranty of\n    MERCHANTABILITY or FITNESS FOR A PARTICULAR PURPOSE.  See the\n    GNU General Public License for more details.\n\n    You should have received a copy of the GNU General Public License\n    along with this program.  If not, see <http://www.gnu.org/licenses/>.\n */\n\n/// @title MiniMeToken Contract\n/// @author Jordi Baylina\n/// @dev This token contract's goal is to make it easy for anyone to clone this\n///  token using the token distribution at a given block, this will allow DAO's\n///  and DApps to upgrade their features in a decentralized manner without\n///  affecting the original token\n/// @dev It is ERC20 compliant, but still needs to under go further testing.\n\nimport \"./Controlled.sol\";\nimport \"./TokenController.sol\";\n\ncontract ApproveAndCallFallBack {\n  function receiveApproval(address from, uint256 _amount, address _token, bytes memory _data) public;\n}\n\n/// @dev The actual token contract, the default controller is the msg.sender\n///  that deploys the contract, so usually this token will be deployed by a\n///  token controller contract, which Giveth will call a \"Campaign\"\ncontract MiniMeToken is Controlled {\n\n  string public name;                //The Token's name: e.g. DigixDAO Tokens\n  uint8 public decimals;             //Number of decimals of the smallest unit\n  string public symbol;              //An identifier: e.g. REP\n  string public version = 'MMT_0.2'; //An arbitrary versioning scheme\n\n\n  /// @dev `Checkpoint` is the structure that attaches a block number to a\n  ///  given value, the block number attached is the one that last changed the\n  ///  value\n  struct  Checkpoint {\n    // `fromBlock` is the block number that the value was generated from\n    uint128 fromBlock;\n\n    // `value` is the amount of tokens at a specific block number\n    uint128 value;\n  }\n\n  // `parentToken` is the Token address that was cloned to produce this token;\n  //  it will be 0x0 for a token that was not cloned\n  MiniMeToken public parentToken;\n\n  // `parentSnapShotBlock` is the block number from the Parent Token that was\n  //  used to determine the initial distribution of the Clone Token\n  uint public parentSnapShotBlock;\n\n  // `creationBlock` is the block number that the Clone Token was created\n  uint public creationBlock;\n\n  // `balances` is the map that tracks the balance of each address, in this\n  //  contract when the balance changes the block number that the change\n  //  occurred is also included in the map\n  mapping (address => Checkpoint[]) balances;\n\n  // `allowed` tracks any extra transfer rights as in all ERC20 tokens\n  mapping (address => mapping (address => uint256)) allowed;\n\n  // Tracks the history of the `totalSupply` of the token\n  Checkpoint[] totalSupplyHistory;\n\n  // Flag that determines if the token is transferable or not.\n  bool public transfersEnabled;\n\n  // The factory used to create new clone tokens\n  MiniMeTokenFactory public tokenFactory;\n\n////////////////\n// Constructor\n////////////////\n\n  /// @notice Constructor to create a MiniMeToken\n  /// @param _tokenFactory The address of the MiniMeTokenFactory contract that\n  ///  will create the Clone token contracts, the token factory needs to be\n  ///  deployed first\n  /// @param _parentToken Address of the parent token, set to 0x0 if it is a\n  ///  new token\n  /// @param _parentSnapShotBlock Block of the parent token that will\n  ///  determine the initial distribution of the clone token, set to 0 if it\n  ///  is a new token\n  /// @param _tokenName Name of the new token\n  /// @param _decimalUnits Number of decimals of the new token\n  /// @param _tokenSymbol Token Symbol for the new token\n  /// @param _transfersEnabled If true, tokens will be able to be transferred\n  constructor(\n      address _tokenFactory,\n      address payable _parentToken,\n      uint _parentSnapShotBlock,\n      string memory _tokenName,\n      uint8 _decimalUnits,\n      string memory _tokenSymbol,\n      bool _transfersEnabled\n  ) public {\n    tokenFactory = MiniMeTokenFactory(_tokenFactory);\n    name = _tokenName;                                 // Set the name\n    decimals = _decimalUnits;                          // Set the decimals\n    symbol = _tokenSymbol;                             // Set the symbol\n    parentToken = MiniMeToken(_parentToken);\n    parentSnapShotBlock = _parentSnapShotBlock;\n    transfersEnabled = _transfersEnabled;\n    creationBlock = block.number;\n  }\n\n\n///////////////////\n// ERC20 Methods\n///////////////////\n\n  /// @notice Send `_amount` tokens to `_to` from `msg.sender`\n  /// @param _to The address of the recipient\n  /// @param _amount The amount of tokens to be transferred\n  /// @return Whether the transfer was successful or not\n  function transfer(address _to, uint256 _amount) public returns (bool success) {\n    require(transfersEnabled);\n    return doTransfer(msg.sender, _to, _amount);\n  }\n\n  /// @notice Send `_amount` tokens to `_to` from `_from` on the condition it\n  ///  is approved by `_from`\n  /// @param _from The address holding the tokens being transferred\n  /// @param _to The address of the recipient\n  /// @param _amount The amount of tokens to be transferred\n  /// @return True if the transfer was successful\n  function transferFrom(address _from, address _to, uint256 _amount\n  ) public returns (bool success) {\n    // The controller of this contract can move tokens around at will,\n    //  this is important to recognize! Confirm that you trust the\n    //  controller of this contract, which in most situations should be\n    //  another open source smart contract or 0x0\n    if (msg.sender != controller) {\n      require(transfersEnabled);\n      // The standard ERC 20 transferFrom functionality\n      if (allowed[_from][msg.sender] < _amount) return false;\n      allowed[_from][msg.sender] -= _amount;\n    }\n    return doTransfer(_from, _to, _amount);\n  }\n\n  /// @dev This is the actual transfer function in the token contract, it can\n  ///  only be called by other functions in this contract.\n  /// @param _from The address holding the tokens being transferred\n  /// @param _to The address of the recipient\n  /// @param _amount The amount of tokens to be transferred\n  /// @return True if the transfer was successful\n  function doTransfer(address _from, address _to, uint _amount\n  ) internal returns(bool) {\n    if (_amount == 0) {\n      return true;\n    }\n\n    require(parentSnapShotBlock < block.number);\n\n    // Do not allow transfer to 0x0 or the token contract itself\n    require((_to != address(0)) && (_to != address(this)));\n\n    // If the amount being transfered is more than the balance of the\n    //  account the transfer returns false\n    uint previousBalanceFrom = balanceOfAt(_from, block.number);\n    if (previousBalanceFrom < _amount) {\n      return false;\n    }\n\n    // Alerts the token controller of the transfer\n    if (isContract(controller)) {\n      require(TokenController(controller).onTransfer(_from, _to, _amount));\n    }\n\n    // First update the balance array with the new value for the address\n    //  sending the tokens\n    updateValueAtNow(balances[_from], previousBalanceFrom - _amount);\n\n    // Then update the balance array with the new value for the address\n    //  receiving the tokens\n    uint previousBalanceTo = balanceOfAt(_to, block.number);\n    require(previousBalanceTo + _amount >= previousBalanceTo); // Check for overflow\n    updateValueAtNow(balances[_to], previousBalanceTo + _amount);\n\n    // An event to make the transfer easy to find on the blockchain\n    emit Transfer(_from, _to, _amount);\n\n    return true;\n  }\n\n  /// @param _owner The address that's balance is being requested\n  /// @return The balance of `_owner` at the current block\n  function balanceOf(address _owner) public view returns (uint256 balance) {\n    return balanceOfAt(_owner, block.number);\n  }\n\n  /// @notice `msg.sender` approves `_spender` to spend `_amount` tokens on\n  ///  its behalf. This is a modified version of the ERC20 approve function\n  ///  to be a little bit safer\n  /// @param _spender The address of the account able to transfer the tokens\n  /// @param _amount The amount of tokens to be approved for transfer\n  /// @return True if the approval was successful\n  function approve(address _spender, uint256 _amount) public returns (bool success) {\n    require(transfersEnabled);\n\n    // To change the approve amount you first have to reduce the addresses`\n    //  allowance to zero by calling `approve(_spender,0)` if it is not\n    //  already 0 to mitigate the race condition described here:\n    //  https://github.com/ethereum/EIPs/issues/20#issuecomment-263524729\n    require((_amount == 0) || (allowed[msg.sender][_spender] == 0));\n\n    // Alerts the token controller of the approve function call\n    if (isContract(controller)) {\n      require(TokenController(controller).onApprove(msg.sender, _spender, _amount));\n    }\n\n    allowed[msg.sender][_spender] = _amount;\n    emit Approval(msg.sender, _spender, _amount);\n    return true;\n  }\n\n  /// @dev This function makes it easy to read the `allowed[]` map\n  /// @param _owner The address of the account that owns the token\n  /// @param _spender The address of the account able to transfer the tokens\n  /// @return Amount of remaining tokens of _owner that _spender is allowed\n  ///  to spend\n  function allowance(address _owner, address _spender\n  ) public view returns (uint256 remaining) {\n    return allowed[_owner][_spender];\n  }\n\n  /// @notice `msg.sender` approves `_spender` to send `_amount` tokens on\n  ///  its behalf, and then a function is triggered in the contract that is\n  ///  being approved, `_spender`. This allows users to use their tokens to\n  ///  interact with contracts in one function call instead of two\n  /// @param _spender The address of the contract able to transfer the tokens\n  /// @param _amount The amount of tokens to be approved for transfer\n  /// @return True if the function call was successful\n  function approveAndCall(address _spender, uint256 _amount, bytes memory _extraData\n  ) public returns (bool success) {\n    require(approve(_spender, _amount));\n\n    ApproveAndCallFallBack(_spender).receiveApproval(\n        msg.sender,\n        _amount,\n        address(this),\n        _extraData\n    );\n\n    return true;\n  }\n\n  /// @dev This function makes it easy to get the total number of tokens\n  /// @return The total number of tokens\n  function totalSupply() public view returns (uint) {\n    return totalSupplyAt(block.number);\n  }\n\n\n////////////////\n// Query balance and totalSupply in History\n////////////////\n\n  /// @dev Queries the balance of `_owner` at a specific `_blockNumber`\n  /// @param _owner The address from which the balance will be retrieved\n  /// @param _blockNumber The block number when the balance is queried\n  /// @return The balance at `_blockNumber`\n  function balanceOfAt(address _owner, uint _blockNumber) public view\n    returns (uint) {\n\n      // These next few lines are used when the balance of the token is\n      //  requested before a check point was ever created for this token, it\n      //  requires that the `parentToken.balanceOfAt` be queried at the\n      //  genesis block for that token as this contains initial balance of\n      //  this token\n      if ((balances[_owner].length == 0)\n          || (balances[_owner][0].fromBlock > _blockNumber)) {\n        if (address(parentToken) != address(0)) {\n          return parentToken.balanceOfAt(_owner, min(_blockNumber, parentSnapShotBlock));\n        } else {\n            // Has no parent\n          return 0;\n        }\n\n      // This will return the expected balance during normal situations\n      } else {\n        return getValueAt(balances[_owner], _blockNumber);\n      }\n    }\n\n  /// @notice Total amount of tokens at a specific `_blockNumber`.\n  /// @param _blockNumber The block number when the totalSupply is queried\n  /// @return The total amount of tokens at `_blockNumber`\n  function totalSupplyAt(uint _blockNumber) public view returns(uint) {\n\n    // These next few lines are used when the totalSupply of the token is\n    //  requested before a check point was ever created for this token, it\n    //  requires that the `parentToken.totalSupplyAt` be queried at the\n    //  genesis block for this token as that contains totalSupply of this\n    //  token at this block number.\n    if ((totalSupplyHistory.length == 0)\n        || (totalSupplyHistory[0].fromBlock > _blockNumber)) {\n      if (address(parentToken) != address(0)) {\n        return parentToken.totalSupplyAt(min(_blockNumber, parentSnapShotBlock));\n      } else {\n        return 0;\n      }\n\n    // This will return the expected totalSupply during normal situations\n    } else {\n      return getValueAt(totalSupplyHistory, _blockNumber);\n    }\n  }\n\n////////////////\n// Clone Token Method\n////////////////\n\n  /// @notice Creates a new clone token with the initial distribution being\n  ///  this token at `_snapshotBlock`\n  /// @param _cloneTokenName Name of the clone token\n  /// @param _cloneDecimalUnits Number of decimals of the smallest unit\n  /// @param _cloneTokenSymbol Symbol of the clone token\n  /// @param _snapshotBlock Block when the distribution of the parent token is\n  ///  copied to set the initial distribution of the new clone token;\n  ///  if the block is zero than the actual block, the current block is used\n  /// @param _transfersEnabled True if transfers are allowed in the clone\n  /// @return The address of the new MiniMeToken Contract\n  function createCloneToken(\n      string memory _cloneTokenName,\n      uint8 _cloneDecimalUnits,\n      string memory _cloneTokenSymbol,\n      uint _snapshotBlock,\n      bool _transfersEnabled\n      ) public returns(address) {\n    if (_snapshotBlock == 0) _snapshotBlock = block.number;\n    MiniMeToken cloneToken = tokenFactory.createCloneToken(\n        address(this),\n        _snapshotBlock,\n        _cloneTokenName,\n        _cloneDecimalUnits,\n        _cloneTokenSymbol,\n        _transfersEnabled\n        );\n\n    cloneToken.changeController(msg.sender);\n\n    // An event to make the token easy to find on the blockchain\n    emit NewCloneToken(address(cloneToken), _snapshotBlock);\n    return address(cloneToken);\n  }\n\n////////////////\n// Generate and destroy tokens\n////////////////\n\n  /// @notice Generates `_amount` tokens that are assigned to `_owner`\n  /// @param _owner The address that will be assigned the new tokens\n  /// @param _amount The quantity of tokens generated\n  /// @return True if the tokens are generated correctly\n  function generateTokens(address _owner, uint _amount\n  ) public onlyController returns (bool) {\n    uint curTotalSupply = totalSupply();\n    require(curTotalSupply + _amount >= curTotalSupply); // Check for overflow\n    uint previousBalanceTo = balanceOf(_owner);\n    require(previousBalanceTo + _amount >= previousBalanceTo); // Check for overflow\n    updateValueAtNow(totalSupplyHistory, curTotalSupply + _amount);\n    updateValueAtNow(balances[_owner], previousBalanceTo + _amount);\n    emit Transfer(address(0), _owner, _amount);\n    return true;\n  }\n\n\n  /// @notice Burns `_amount` tokens from `_owner`\n  /// @param _owner The address that will lose the tokens\n  /// @param _amount The quantity of tokens to burn\n  /// @return True if the tokens are burned correctly\n  function destroyTokens(address _owner, uint _amount\n  ) onlyController public returns (bool) {\n    uint curTotalSupply = totalSupply();\n    require(curTotalSupply >= _amount);\n    uint previousBalanceFrom = balanceOf(_owner);\n    require(previousBalanceFrom >= _amount);\n    updateValueAtNow(totalSupplyHistory, curTotalSupply - _amount);\n    updateValueAtNow(balances[_owner], previousBalanceFrom - _amount);\n    emit Transfer(_owner, address(0), _amount);\n    return true;\n  }\n\n////////////////\n// Enable tokens transfers\n////////////////\n\n\n  /// @notice Enables token holders to transfer their tokens freely if true\n  /// @param _transfersEnabled True if transfers are allowed in the clone\n  function enableTransfers(bool _transfersEnabled) public onlyController {\n    transfersEnabled = _transfersEnabled;\n  }\n\n////////////////\n// Internal helper functions to query and set a value in a snapshot array\n////////////////\n\n  /// @dev `getValueAt` retrieves the number of tokens at a given block number\n  /// @param checkpoints The history of values being queried\n  /// @param _block The block number to retrieve the value at\n  /// @return The number of tokens being queried\n  function getValueAt(Checkpoint[] storage checkpoints, uint _block\n  ) view internal returns (uint) {\n    if (checkpoints.length == 0) return 0;\n\n    // Shortcut for the actual value\n    if (_block >= checkpoints[checkpoints.length-1].fromBlock)\n      return checkpoints[checkpoints.length-1].value;\n    if (_block < checkpoints[0].fromBlock) return 0;\n\n    // Binary search of the value in the array\n    uint min = 0;\n    uint max = checkpoints.length-1;\n    while (max > min) {\n      uint mid = (max + min + 1)/ 2;\n      if (checkpoints[mid].fromBlock<=_block) {\n        min = mid;\n      } else {\n        max = mid-1;\n      }\n    }\n    return checkpoints[min].value;\n  }\n\n  /// @dev `updateValueAtNow` used to update the `balances` map and the\n  ///  `totalSupplyHistory`\n  /// @param checkpoints The history of data being updated\n  /// @param _value The new number of tokens\n  function updateValueAtNow(Checkpoint[] storage checkpoints, uint _value\n  ) internal  {\n    if ((checkpoints.length == 0)\n    || (checkpoints[checkpoints.length -1].fromBlock < block.number)) {\n      Checkpoint storage newCheckPoint = checkpoints[ checkpoints.length++ ];\n      newCheckPoint.fromBlock =  uint128(block.number);\n      newCheckPoint.value = uint128(_value);\n    } else {\n      Checkpoint storage oldCheckPoint = checkpoints[checkpoints.length-1];\n      oldCheckPoint.value = uint128(_value);\n    }\n  }\n\n  /// @dev Internal function to determine if an address is a contract\n  /// @param _addr The address being queried\n  /// @return True if `_addr` is a contract\n  function isContract(address _addr) view internal returns(bool) {\n    uint size;\n    if (_addr == address(0)) return false;\n    assembly {\n      size := extcodesize(_addr)\n    }\n    return size>0;\n  }\n\n  /// @dev Helper function to return a min betwen the two uints\n  function min(uint a, uint b) pure internal returns (uint) {\n    return a < b ? a : b;\n  }\n\n  /// @notice The fallback function: If the contract's controller has not been\n  ///  set to 0, then the `proxyPayment` method is called which relays the\n  ///  ether and creates tokens as described in the token controller contract\n  function () external payable {\n    require(isContract(controller));\n    require(TokenController(controller).proxyPayment.value(msg.value)(msg.sender));\n  }\n\n//////////\n// Safety Methods\n//////////\n\n  /// @notice This method can be used by the controller to extract mistakenly\n  ///  sent tokens to this contract.\n  /// @param _token The address of the token contract that you want to recover\n  ///  set to 0 in case you want to extract ether.\n  function claimTokens(address payable _token) public onlyController {\n    if (_token == address(0x0)) {\n      controller.transfer(address(this).balance);\n      return;\n    }\n\n    MiniMeToken token = MiniMeToken(_token);\n    uint balance = token.balanceOf(address(this));\n    token.transfer(controller, balance);\n    emit ClaimedTokens(_token, controller, balance);\n  }\n\n////////////////\n// Events\n////////////////\n  event ClaimedTokens(address indexed _token, address indexed _controller, uint _amount);\n  event Transfer(address indexed _from, address indexed _to, uint256 _amount);\n  event NewCloneToken(address indexed _cloneToken, uint _snapshotBlock);\n  event Approval(\n      address indexed _owner,\n      address indexed _spender,\n      uint256 _amount\n      );\n\n}\n\n\n////////////////\n// MiniMeTokenFactory\n////////////////\n\n/// @dev This contract is used to generate clone contracts from a contract.\n///  In solidity this is the way to create a contract from a contract of the\n///  same class\ncontract MiniMeTokenFactory {\n\n  /// @notice Update the DApp by creating a new token with new functionalities\n  ///  the msg.sender becomes the controller of this clone token\n  /// @param _parentToken Address of the token being cloned\n  /// @param _snapshotBlock Block of the parent token that will\n  ///  determine the initial distribution of the clone token\n  /// @param _tokenName Name of the new token\n  /// @param _decimalUnits Number of decimals of the new token\n  /// @param _tokenSymbol Token Symbol for the new token\n  /// @param _transfersEnabled If true, tokens will be able to be transferred\n  /// @return The address of the new token contract\n  function createCloneToken(\n      address payable _parentToken,\n      uint _snapshotBlock,\n      string memory _tokenName,\n      uint8 _decimalUnits,\n      string memory _tokenSymbol,\n      bool _transfersEnabled\n  ) public returns (MiniMeToken) {\n    MiniMeToken newToken = new MiniMeToken(\n        address(this),\n        _parentToken,\n        _snapshotBlock,\n        _tokenName,\n        _decimalUnits,\n        _tokenSymbol,\n        _transfersEnabled\n        );\n\n    newToken.changeController(msg.sender);\n    return newToken;\n  }\n}\n",
  "sourcePath": "/Users/roderik/Development/databrokerdao-dxc/contracts/contracts/external/MiniMeToken.sol",
  "compiler": {
    "name": "solc",
    "version": "0.5.10+commit.5a6ea5b1.Emscripten.clang"
  },
  "schemaVersion": "3.0.11",
  "updatedAt": "2019-07-25T20:45:22.195Z",
  "devdoc": {
    "details": "This contract is used to generate clone contracts from a contract.  In solidity this is the way to create a contract from a contract of the  same class",
    "methods": {
      "createCloneToken(address,uint256,string,uint8,string,bool)": {
        "params": {
          "_decimalUnits": "Number of decimals of the new token",
          "_parentToken": "Address of the token being cloned",
          "_snapshotBlock": "Block of the parent token that will  determine the initial distribution of the clone token",
          "_tokenName": "Name of the new token",
          "_tokenSymbol": "Token Symbol for the new token",
          "_transfersEnabled": "If true, tokens will be able to be transferred"
        },
        "return": "The address of the new token contract"
      }
    }
  },
  "userdoc": {
    "methods": {
      "createCloneToken(address,uint256,string,uint8,string,bool)": {
        "notice": "Update the DApp by creating a new token with new functionalities  the msg.sender becomes the controller of this clone token"
      }
    },
    "notice": "/////////////"
  }
}