{
  "contractName": "MiniMeTokenFactory",
  "abi": [
    {
      "constant": false,
      "inputs": [
        {
          "name": "_parentToken",
          "type": "address"
        },
        {
          "name": "_snapshotBlock",
          "type": "uint256"
        },
        {
          "name": "_tokenName",
          "type": "string"
        },
        {
          "name": "_decimalUnits",
          "type": "uint8"
        },
        {
          "name": "_tokenSymbol",
          "type": "string"
        },
        {
          "name": "_transfersEnabled",
          "type": "bool"
        }
      ],
      "name": "createCloneToken",
      "outputs": [
        {
          "name": "",
          "type": "address"
        }
      ],
      "payable": false,
      "stateMutability": "nonpayable",
      "type": "function"
    }
  ],
  "bytecode": "0x608060405234801561001057600080fd5b50612186806100206000396000f3fe608060405234801561001057600080fd5b5060043610610047577c010000000000000000000000000000000000000000000000000000000060003504635b7b72c1811461004c575b600080fd5b6101a8600480360360c081101561006257600080fd5b73ffffffffffffffffffffffffffffffffffffffff8235169160208101359181019060608101604082013564010000000081111561009f57600080fd5b8201836020820111156100b157600080fd5b803590602001918460018302840111640100000000831117156100d357600080fd5b91908080601f016020809104026020016040519081016040528093929190818152602001838380828437600092019190915250929560ff85351695909490935060408101925060200135905064010000000081111561013157600080fd5b82018360208201111561014357600080fd5b8035906020019184600183028401116401000000008311171561016557600080fd5b91908080601f01602080910402602001604051908101604052809392919081815260200183838082843760009201919091525092955050505035151590506101d1565b6040805173ffffffffffffffffffffffffffffffffffffffff9092168252519081900360200190f35b600080308888888888886040516101e7906103b1565b73ffffffffffffffffffffffffffffffffffffffff808916825287166020808301919091526040820187905260ff8516608083015282151560c083015260e0606083018181528751918401919091528651909160a084019161010085019189019080838360005b8381101561026657818101518382015260200161024e565b50505050905090810190601f1680156102935780820380516001836020036101000a031916815260200191505b50838103825285518152855160209182019187019080838360005b838110156102c65781810151838201526020016102ae565b50505050905090810190601f1680156102f35780820380516001836020036101000a031916815260200191505b509950505050505050505050604051809103906000f08015801561031b573d6000803e3d6000fd5b50604080517f3cebb823000000000000000000000000000000000000000000000000000000008152336004820152905191925073ffffffffffffffffffffffffffffffffffffffff831691633cebb8239160248082019260009290919082900301818387803b15801561038d57600080fd5b505af11580156103a1573d6000803e3d6000fd5b50929a9950505050505050505050565b611d93806103bf8339019056fe60c0604052600760808190527f4d4d545f302e320000000000000000000000000000000000000000000000000060a0908152620000409160049190620001e6565b503480156200004e57600080fd5b5060405162001d9338038062001d93833981810160405260e08110156200007457600080fd5b8151602083015160408401516060850180519395929491939183019291640100000000811115620000a457600080fd5b82016020810184811115620000b857600080fd5b8151640100000000811182820187101715620000d357600080fd5b50506020820151604090920180519194929391640100000000811115620000f957600080fd5b820160208101848111156200010d57600080fd5b81516401000000008111828201871017156200012857600080fd5b505060209182015160008054600160a060020a03191633179055600b8054600160a060020a038c166101000261010060a860020a0319909116179055865191945092506200017d9160019190870190620001e6565b506002805460ff191660ff85161790558151620001a2906003906020850190620001e6565b5060058054600160a060020a031916600160a060020a039790971696909617909555505050600655600b805460ff191691151591909117905550436007556200028b565b828054600181600116156101000203166002900490600052602060002090601f016020900481019282601f106200022957805160ff191683800117855562000259565b8280016001018555821562000259579182015b82811115620002595782518255916020019190600101906200023c565b50620002679291506200026b565b5090565b6200028891905b8082111562000267576000815560010162000272565b90565b611af8806200029b6000396000f3fe60806040526004361061016a5760003560e060020a90048063827f32c0116100d5578063cae9ca511161008e578063df8de3e711610068578063df8de3e7146107ef578063e77772fe14610822578063f41e60c514610837578063f77c4791146108635761016a565b8063cae9ca51146106b3578063d3ce77fe1461077b578063dd62ed3e146107b45761016a565b8063827f32c0146105d857806395d89b4114610611578063981b24d014610626578063a9059cbb14610650578063bef97c8714610689578063c5bcc4f11461069e5761016a565b80633cebb823116101275780633cebb823146103a75780634ee2cd7e146103da57806354fd4d50146104135780636638c0871461042857806370a082311461059057806380a54001146105c35761016a565b806306fdde0314610226578063095ea7b3146102b057806317634514146102fd57806318160ddd1461032457806323b872dd14610339578063313ce5671461037c575b60005461017f90600160a060020a0316610878565b61018857600080fd5b600054604080517ff48c30540000000000000000000000000000000000000000000000000000000081523360048201529051600160a060020a039092169163f48c3054913491602480830192602092919082900301818588803b1580156101ee57600080fd5b505af1158015610202573d6000803e3d6000fd5b50505050506040513d602081101561021957600080fd5b505161022457600080fd5b005b34801561023257600080fd5b5061023b61089f565b6040805160208082528351818301528351919283929083019185019080838360005b8381101561027557818101518382015260200161025d565b50505050905090810190601f1680156102a25780820380516001836020036101000a031916815260200191505b509250505060405180910390f35b3480156102bc57600080fd5b506102e9600480360360408110156102d357600080fd5b50600160a060020a03813516906020013561092c565b604080519115158252519081900360200190f35b34801561030957600080fd5b50610312610aa4565b60408051918252519081900360200190f35b34801561033057600080fd5b50610312610aaa565b34801561034557600080fd5b506102e96004803603606081101561035c57600080fd5b50600160a060020a03813581169160208101359091169060400135610abb565b34801561038857600080fd5b50610391610b50565b6040805160ff9092168252519081900360200190f35b3480156103b357600080fd5b50610224600480360360208110156103ca57600080fd5b5035600160a060020a0316610b59565b3480156103e657600080fd5b50610312600480360360408110156103fd57600080fd5b50600160a060020a038135169060200135610b9f565b34801561041f57600080fd5b5061023b610ce8565b34801561043457600080fd5b50610574600480360360a081101561044b57600080fd5b81019060208101813564010000000081111561046657600080fd5b82018360208201111561047857600080fd5b8035906020019184600183028401116401000000008311171561049a57600080fd5b91908080601f016020809104026020016040519081016040528093929190818152602001838380828437600092019190915250929560ff8535169590949093506040810192506020013590506401000000008111156104f857600080fd5b82018360208201111561050a57600080fd5b8035906020019184600183028401116401000000008311171561052c57600080fd5b91908080601f01602080910402602001604051908101604052809392919081815260200183838082843760009201919091525092955050823593505050602001351515610d43565b60408051600160a060020a039092168252519081900360200190f35b34801561059c57600080fd5b50610312600480360360208110156105b357600080fd5b5035600160a060020a0316610fa4565b3480156105cf57600080fd5b50610574610fb0565b3480156105e457600080fd5b506102e9600480360360408110156105fb57600080fd5b50600160a060020a038135169060200135610fbf565b34801561061d57600080fd5b5061023b61108b565b34801561063257600080fd5b506103126004803603602081101561064957600080fd5b50356110e6565b34801561065c57600080fd5b506102e96004803603604081101561067357600080fd5b50600160a060020a0381351690602001356111d6565b34801561069557600080fd5b506102e96111f3565b3480156106aa57600080fd5b506103126111fc565b3480156106bf57600080fd5b506102e9600480360360608110156106d657600080fd5b600160a060020a038235169160208101359181019060608101604082013564010000000081111561070657600080fd5b82018360208201111561071857600080fd5b8035906020019184600183028401116401000000008311171561073a57600080fd5b91908080601f016020809104026020016040519081016040528093929190818152602001838380828437600092019190915250929550611202945050505050565b34801561078757600080fd5b506102e96004803603604081101561079e57600080fd5b50600160a060020a03813516906020013561131b565b3480156107c057600080fd5b50610312600480360360408110156107d757600080fd5b50600160a060020a03813581169160200135166113e3565b3480156107fb57600080fd5b506102246004803603602081101561081257600080fd5b5035600160a060020a031661140e565b34801561082e57600080fd5b506105746115f0565b34801561084357600080fd5b506102246004803603602081101561085a57600080fd5b50351515611604565b34801561086f57600080fd5b5061057461162e565b600080600160a060020a03831661089357600091505061089a565b5050803b15155b919050565b60018054604080516020600284861615610100026000190190941693909304601f810184900484028201840190925281815292918301828280156109245780601f106108f957610100808354040283529160200191610924565b820191906000526020600020905b81548152906001019060200180831161090757829003601f168201915b505050505081565b600b5460009060ff1661093e57600080fd5b81158061096c5750336000908152600960209081526040808320600160a060020a0387168452909152902054155b61097557600080fd5b60005461098a90600160a060020a0316610878565b15610a3c5760008054604080517fda682aeb000000000000000000000000000000000000000000000000000000008152336004820152600160a060020a038781166024830152604482018790529151919092169263da682aeb92606480820193602093909283900390910190829087803b158015610a0757600080fd5b505af1158015610a1b573d6000803e3d6000fd5b505050506040513d6020811015610a3157600080fd5b5051610a3c57600080fd5b336000818152600960209081526040808320600160a060020a03881680855290835292819020869055805186815290519293927f8c5be1e5ebec7d5bd14f71427d1e84f3dd0314c0f7b2291e5b200ac8c7c3b925929181900390910190a35060015b92915050565b60075481565b6000610ab5436110e6565b90505b90565b60008054600160a060020a03163314610b3b57600b5460ff16610add57600080fd5b600160a060020a0384166000908152600960209081526040808320338452909152902054821115610b1057506000610b49565b600160a060020a03841660009081526009602090815260408083203384529091529020805483900390555b610b4684848461163d565b90505b9392505050565b60025460ff1681565b600054600160a060020a03163314610b7057600080fd5b6000805473ffffffffffffffffffffffffffffffffffffffff1916600160a060020a0392909216919091179055565b600160a060020a0382166000908152600860205260408120541580610bf95750600160a060020a03831660009081526008602052604081208054849290610be257fe5b6000918252602090912001546001608060020a0316115b15610cbf57600554600160a060020a031615610cb757600554600654600160a060020a0390911690634ee2cd7e908590610c34908690611829565b6040518363ffffffff1660e060020a0281526004018083600160a060020a0316600160a060020a031681526020018281526020019250505060206040518083038186803b158015610c8457600080fd5b505afa158015610c98573d6000803e3d6000fd5b505050506040513d6020811015610cae57600080fd5b50519050610a9e565b506000610a9e565b600160a060020a0383166000908152600860205260409020610ce1908361183f565b9050610a9e565b6004805460408051602060026001851615610100026000190190941693909304601f810184900484028201840190925281815292918301828280156109245780601f106108f957610100808354040283529160200191610924565b600082610d4e574392505b6000600b60019054906101000a9004600160a060020a0316600160a060020a0316635b7b72c130868a8a8a896040518763ffffffff1660e060020a0281526004018087600160a060020a0316600160a060020a03168152602001868152602001806020018560ff1660ff1681526020018060200184151515158152602001838103835287818151815260200191508051906020019080838360005b83811015610e01578181015183820152602001610de9565b50505050905090810190601f168015610e2e5780820380516001836020036101000a031916815260200191505b50838103825285518152855160209182019187019080838360005b83811015610e61578181015183820152602001610e49565b50505050905090810190601f168015610e8e5780820380516001836020036101000a031916815260200191505b5098505050505050505050602060405180830381600087803b158015610eb357600080fd5b505af1158015610ec7573d6000803e3d6000fd5b505050506040513d6020811015610edd57600080fd5b5051604080517f3cebb8230000000000000000000000000000000000000000000000000000000081523360048201529051919250600160a060020a03831691633cebb8239160248082019260009290919082900301818387803b158015610f4357600080fd5b505af1158015610f57573d6000803e3d6000fd5b5050604080518781529051600160a060020a03851693507f086c875b377f900b07ce03575813022f05dd10ed7640b5282cf6d3c3fc352ade92509081900360200190a29695505050505050565b6000610a9e8243610b9f565b600554600160a060020a031681565b60008054600160a060020a03163314610fd757600080fd5b6000610fe1610aaa565b9050808382011015610ff257600080fd5b6000610ffd85610fa4565b905080848201101561100e57600080fd5b61101b600a858401611989565b600160a060020a038516600090815260086020526040902061103f90828601611989565b604080518581529051600160a060020a038716916000917fddf252ad1be2c89b69c2b068fc378daa952ba7f163c4a11628f55a4df523b3ef9181900360200190a3506001949350505050565b6003805460408051602060026001851615610100026000190190941693909304601f810184900484028201840190925281815292918301828280156109245780601f106108f957610100808354040283529160200191610924565b600a546000901580611119575081600a60008154811061110257fe5b6000918252602090912001546001608060020a0316115b156111c457600554600160a060020a0316156111bc57600554600654600160a060020a039091169063981b24d090611152908590611829565b6040518263ffffffff1660e060020a0281526004018082815260200191505060206040518083038186803b15801561118957600080fd5b505afa15801561119d573d6000803e3d6000fd5b505050506040513d60208110156111b357600080fd5b5051905061089a565b50600061089a565b6111cf600a8361183f565b905061089a565b600b5460009060ff166111e857600080fd5b610b4933848461163d565b600b5460ff1681565b60065481565b600061120e848461092c565b61121757600080fd5b6040517f8f4ffcb10000000000000000000000000000000000000000000000000000000081523360048201818152602483018690523060448401819052608060648501908152865160848601528651600160a060020a038a1695638f4ffcb195948a94938a939192909160a490910190602085019080838360005b838110156112aa578181015183820152602001611292565b50505050905090810190601f1680156112d75780820380516001836020036101000a031916815260200191505b5095505050505050600060405180830381600087803b1580156112f957600080fd5b505af115801561130d573d6000803e3d6000fd5b506001979650505050505050565b60008054600160a060020a0316331461133357600080fd5b600061133d610aaa565b90508281101561134c57600080fd5b600061135785610fa4565b90508381101561136657600080fd5b611373600a858403611989565b600160a060020a038516600090815260086020526040902061139790858303611989565b604080518581529051600091600160a060020a038816917fddf252ad1be2c89b69c2b068fc378daa952ba7f163c4a11628f55a4df523b3ef9181900360200190a3506001949350505050565b600160a060020a03918216600090815260096020908152604080832093909416825291909152205490565b600054600160a060020a0316331461142557600080fd5b600160a060020a0381166114745760008054604051600160a060020a0390911691303180156108fc02929091818181858888f1935050505015801561146e573d6000803e3d6000fd5b506115ed565b604080517f70a0823100000000000000000000000000000000000000000000000000000000815230600482015290518291600091600160a060020a038416916370a08231916024808301926020929190829003018186803b1580156114d857600080fd5b505afa1580156114ec573d6000803e3d6000fd5b505050506040513d602081101561150257600080fd5b505160008054604080517fa9059cbb000000000000000000000000000000000000000000000000000000008152600160a060020a0392831660048201526024810185905290519394509085169263a9059cbb92604480840193602093929083900390910190829087803b15801561157857600080fd5b505af115801561158c573d6000803e3d6000fd5b505050506040513d60208110156115a257600080fd5b5050600054604080518381529051600160a060020a03928316928616917ff931edb47c50b4b4104c187b5814a9aef5f709e17e2ecf9617e860cacade929c919081900360200190a350505b50565b600b546101009004600160a060020a031681565b600054600160a060020a0316331461161b57600080fd5b600b805460ff1916911515919091179055565b600054600160a060020a031681565b60008161164c57506001610b49565b436006541061165a57600080fd5b600160a060020a0383161580159061167b5750600160a060020a0383163014155b61168457600080fd5b60006116908543610b9f565b9050828110156116a4576000915050610b49565b6000546116b990600160a060020a0316610878565b1561176d5760008054604080517f4a393149000000000000000000000000000000000000000000000000000000008152600160a060020a03898116600483015288811660248301526044820188905291519190921692634a39314992606480820193602093909283900390910190829087803b15801561173857600080fd5b505af115801561174c573d6000803e3d6000fd5b505050506040513d602081101561176257600080fd5b505161176d57600080fd5b600160a060020a038516600090815260086020526040902061179190848303611989565b600061179d8543610b9f565b90508084820110156117ae57600080fd5b600160a060020a03851660009081526008602052604090206117d290828601611989565b84600160a060020a031686600160a060020a03167fddf252ad1be2c89b69c2b068fc378daa952ba7f163c4a11628f55a4df523b3ef866040518082815260200191505060405180910390a350600195945050505050565b60008183106118385781610b49565b5090919050565b815460009061185057506000610a9e565b82548390600019810190811061186257fe5b6000918252602090912001546001608060020a031682106118bf5782548390600019810190811061188f57fe5b60009182526020909120015470010000000000000000000000000000000090046001608060020a03169050610a9e565b826000815481106118cc57fe5b6000918252602090912001546001608060020a03168210156118f057506000610a9e565b8254600090600019015b8181111561194b57600060026001838501010490508486828154811061191c57fe5b6000918252602090912001546001608060020a03161161193e57809250611945565b6001810391505b506118fa565b84828154811061195757fe5b60009182526020909120015470010000000000000000000000000000000090046001608060020a031695945050505050565b815415806119bd575081544390839060001981019081106119a657fe5b6000918252602090912001546001608060020a0316105b15611a3157815460009083906119d68260018301611a7c565b815481106119e057fe5b600091825260209091200180546001608060020a03848116700100000000000000000000000000000000024382166fffffffffffffffffffffffffffffffff19909316929092171617905550611a78565b815460009083906000198101908110611a4657fe5b600091825260209091200180546001608060020a03808516700100000000000000000000000000000000029116179055505b5050565b815481835581811115611aa057600083815260209020611aa0918101908301611aa5565b505050565b610ab891905b80821115611abf5760008155600101611aab565b509056fea265627a7a723058204c714ba4a4a3d0a3e5560e60eefd86c0cc62ea42cb1f98ff7d149397aa184ded64736f6c634300050a0032a265627a7a7230582081e92fff2d820f70874cb255388646edd398dbfe400990a46704b270dfe73a8064736f6c634300050a0032",
  "source": "pragma solidity ^0.5.10;\n\n/*\n    Copyright 2016, Jordi Baylina\n\n    This program is free software: you can redistribute it and/or modify\n    it under the terms of the GNU General Public License as published by\n    the Free Software Foundation, either version 3 of the License, or\n    (at your option) any later version.\n\n    This program is distributed in the hope that it will be useful,\n    but WITHOUT ANY WARRANTY; without even the implied warranty of\n    MERCHANTABILITY or FITNESS FOR A PARTICULAR PURPOSE.  See the\n    GNU General Public License for more details.\n\n    You should have received a copy of the GNU General Public License\n    along with this program.  If not, see <http://www.gnu.org/licenses/>.\n */\n\n/// @title MiniMeToken Contract\n/// @author Jordi Baylina\n/// @dev This token contract's goal is to make it easy for anyone to clone this\n///  token using the token distribution at a given block, this will allow DAO's\n///  and DApps to upgrade their features in a decentralized manner without\n///  affecting the original token\n/// @dev It is ERC20 compliant, but still needs to under go further testing.\n\nimport \"./Controlled.sol\";\nimport \"./TokenController.sol\";\n\ncontract ApproveAndCallFallBack {\n  function receiveApproval(address from, uint256 _amount, address _token, bytes memory _data) public;\n}\n\n/// @dev The actual token contract, the default controller is the msg.sender\n///  that deploys the contract, so usually this token will be deployed by a\n///  token controller contract, which Giveth will call a \"Campaign\"\ncontract MiniMeToken is Controlled {\n\n  string public name;                //The Token's name: e.g. DigixDAO Tokens\n  uint8 public decimals;             //Number of decimals of the smallest unit\n  string public symbol;              //An identifier: e.g. REP\n  string public version = 'MMT_0.2'; //An arbitrary versioning scheme\n\n\n  /// @dev `Checkpoint` is the structure that attaches a block number to a\n  ///  given value, the block number attached is the one that last changed the\n  ///  value\n  struct  Checkpoint {\n    // `fromBlock` is the block number that the value was generated from\n    uint128 fromBlock;\n\n    // `value` is the amount of tokens at a specific block number\n    uint128 value;\n  }\n\n  // `parentToken` is the Token address that was cloned to produce this token;\n  //  it will be 0x0 for a token that was not cloned\n  MiniMeToken public parentToken;\n\n  // `parentSnapShotBlock` is the block number from the Parent Token that was\n  //  used to determine the initial distribution of the Clone Token\n  uint public parentSnapShotBlock;\n\n  // `creationBlock` is the block number that the Clone Token was created\n  uint public creationBlock;\n\n  // `balances` is the map that tracks the balance of each address, in this\n  //  contract when the balance changes the block number that the change\n  //  occurred is also included in the map\n  mapping (address => Checkpoint[]) balances;\n\n  // `allowed` tracks any extra transfer rights as in all ERC20 tokens\n  mapping (address => mapping (address => uint256)) allowed;\n\n  // Tracks the history of the `totalSupply` of the token\n  Checkpoint[] totalSupplyHistory;\n\n  // Flag that determines if the token is transferable or not.\n  bool public transfersEnabled;\n\n  // The factory used to create new clone tokens\n  MiniMeTokenFactory public tokenFactory;\n\n////////////////\n// Constructor\n////////////////\n\n  /// @notice Constructor to create a MiniMeToken\n  /// @param _tokenFactory The address of the MiniMeTokenFactory contract that\n  ///  will create the Clone token contracts, the token factory needs to be\n  ///  deployed first\n  /// @param _parentToken Address of the parent token, set to 0x0 if it is a\n  ///  new token\n  /// @param _parentSnapShotBlock Block of the parent token that will\n  ///  determine the initial distribution of the clone token, set to 0 if it\n  ///  is a new token\n  /// @param _tokenName Name of the new token\n  /// @param _decimalUnits Number of decimals of the new token\n  /// @param _tokenSymbol Token Symbol for the new token\n  /// @param _transfersEnabled If true, tokens will be able to be transferred\n  constructor(\n      address _tokenFactory,\n      address payable _parentToken,\n      uint _parentSnapShotBlock,\n      string memory _tokenName,\n      uint8 _decimalUnits,\n      string memory _tokenSymbol,\n      bool _transfersEnabled\n  ) public {\n    tokenFactory = MiniMeTokenFactory(_tokenFactory);\n    name = _tokenName;                                 // Set the name\n    decimals = _decimalUnits;                          // Set the decimals\n    symbol = _tokenSymbol;                             // Set the symbol\n    parentToken = MiniMeToken(_parentToken);\n    parentSnapShotBlock = _parentSnapShotBlock;\n    transfersEnabled = _transfersEnabled;\n    creationBlock = block.number;\n  }\n\n\n///////////////////\n// ERC20 Methods\n///////////////////\n\n  /// @notice Send `_amount` tokens to `_to` from `msg.sender`\n  /// @param _to The address of the recipient\n  /// @param _amount The amount of tokens to be transferred\n  /// @return Whether the transfer was successful or not\n  function transfer(address _to, uint256 _amount) public returns (bool success) {\n    require(transfersEnabled);\n    return doTransfer(msg.sender, _to, _amount);\n  }\n\n  /// @notice Send `_amount` tokens to `_to` from `_from` on the condition it\n  ///  is approved by `_from`\n  /// @param _from The address holding the tokens being transferred\n  /// @param _to The address of the recipient\n  /// @param _amount The amount of tokens to be transferred\n  /// @return True if the transfer was successful\n  function transferFrom(address _from, address _to, uint256 _amount\n  ) public returns (bool success) {\n    // The controller of this contract can move tokens around at will,\n    //  this is important to recognize! Confirm that you trust the\n    //  controller of this contract, which in most situations should be\n    //  another open source smart contract or 0x0\n    if (msg.sender != controller) {\n      require(transfersEnabled);\n      // The standard ERC 20 transferFrom functionality\n      if (allowed[_from][msg.sender] < _amount) return false;\n      allowed[_from][msg.sender] -= _amount;\n    }\n    return doTransfer(_from, _to, _amount);\n  }\n\n  /// @dev This is the actual transfer function in the token contract, it can\n  ///  only be called by other functions in this contract.\n  /// @param _from The address holding the tokens being transferred\n  /// @param _to The address of the recipient\n  /// @param _amount The amount of tokens to be transferred\n  /// @return True if the transfer was successful\n  function doTransfer(address _from, address _to, uint _amount\n  ) internal returns(bool) {\n    if (_amount == 0) {\n      return true;\n    }\n\n    require(parentSnapShotBlock < block.number);\n\n    // Do not allow transfer to 0x0 or the token contract itself\n    require((_to != address(0)) && (_to != address(this)));\n\n    // If the amount being transfered is more than the balance of the\n    //  account the transfer returns false\n    uint previousBalanceFrom = balanceOfAt(_from, block.number);\n    if (previousBalanceFrom < _amount) {\n      return false;\n    }\n\n    // Alerts the token controller of the transfer\n    if (isContract(controller)) {\n      require(TokenController(controller).onTransfer(_from, _to, _amount));\n    }\n\n    // First update the balance array with the new value for the address\n    //  sending the tokens\n    updateValueAtNow(balances[_from], previousBalanceFrom - _amount);\n\n    // Then update the balance array with the new value for the address\n    //  receiving the tokens\n    uint previousBalanceTo = balanceOfAt(_to, block.number);\n    require(previousBalanceTo + _amount >= previousBalanceTo); // Check for overflow\n    updateValueAtNow(balances[_to], previousBalanceTo + _amount);\n\n    // An event to make the transfer easy to find on the blockchain\n    emit Transfer(_from, _to, _amount);\n\n    return true;\n  }\n\n  /// @param _owner The address that's balance is being requested\n  /// @return The balance of `_owner` at the current block\n  function balanceOf(address _owner) public view returns (uint256 balance) {\n    return balanceOfAt(_owner, block.number);\n  }\n\n  /// @notice `msg.sender` approves `_spender` to spend `_amount` tokens on\n  ///  its behalf. This is a modified version of the ERC20 approve function\n  ///  to be a little bit safer\n  /// @param _spender The address of the account able to transfer the tokens\n  /// @param _amount The amount of tokens to be approved for transfer\n  /// @return True if the approval was successful\n  function approve(address _spender, uint256 _amount) public returns (bool success) {\n    require(transfersEnabled);\n\n    // To change the approve amount you first have to reduce the addresses`\n    //  allowance to zero by calling `approve(_spender,0)` if it is not\n    //  already 0 to mitigate the race condition described here:\n    //  https://github.com/ethereum/EIPs/issues/20#issuecomment-263524729\n    require((_amount == 0) || (allowed[msg.sender][_spender] == 0));\n\n    // Alerts the token controller of the approve function call\n    if (isContract(controller)) {\n      require(TokenController(controller).onApprove(msg.sender, _spender, _amount));\n    }\n\n    allowed[msg.sender][_spender] = _amount;\n    emit Approval(msg.sender, _spender, _amount);\n    return true;\n  }\n\n  /// @dev This function makes it easy to read the `allowed[]` map\n  /// @param _owner The address of the account that owns the token\n  /// @param _spender The address of the account able to transfer the tokens\n  /// @return Amount of remaining tokens of _owner that _spender is allowed\n  ///  to spend\n  function allowance(address _owner, address _spender\n  ) public view returns (uint256 remaining) {\n    return allowed[_owner][_spender];\n  }\n\n  /// @notice `msg.sender` approves `_spender` to send `_amount` tokens on\n  ///  its behalf, and then a function is triggered in the contract that is\n  ///  being approved, `_spender`. This allows users to use their tokens to\n  ///  interact with contracts in one function call instead of two\n  /// @param _spender The address of the contract able to transfer the tokens\n  /// @param _amount The amount of tokens to be approved for transfer\n  /// @return True if the function call was successful\n  function approveAndCall(address _spender, uint256 _amount, bytes memory _extraData\n  ) public returns (bool success) {\n    require(approve(_spender, _amount));\n\n    ApproveAndCallFallBack(_spender).receiveApproval(\n        msg.sender,\n        _amount,\n        address(this),\n        _extraData\n    );\n\n    return true;\n  }\n\n  /// @dev This function makes it easy to get the total number of tokens\n  /// @return The total number of tokens\n  function totalSupply() public view returns (uint) {\n    return totalSupplyAt(block.number);\n  }\n\n\n////////////////\n// Query balance and totalSupply in History\n////////////////\n\n  /// @dev Queries the balance of `_owner` at a specific `_blockNumber`\n  /// @param _owner The address from which the balance will be retrieved\n  /// @param _blockNumber The block number when the balance is queried\n  /// @return The balance at `_blockNumber`\n  function balanceOfAt(address _owner, uint _blockNumber) public view\n    returns (uint) {\n\n      // These next few lines are used when the balance of the token is\n      //  requested before a check point was ever created for this token, it\n      //  requires that the `parentToken.balanceOfAt` be queried at the\n      //  genesis block for that token as this contains initial balance of\n      //  this token\n      if ((balances[_owner].length == 0)\n          || (balances[_owner][0].fromBlock > _blockNumber)) {\n        if (address(parentToken) != address(0)) {\n          return parentToken.balanceOfAt(_owner, min(_blockNumber, parentSnapShotBlock));\n        } else {\n            // Has no parent\n          return 0;\n        }\n\n      // This will return the expected balance during normal situations\n      } else {\n        return getValueAt(balances[_owner], _blockNumber);\n      }\n    }\n\n  /// @notice Total amount of tokens at a specific `_blockNumber`.\n  /// @param _blockNumber The block number when the totalSupply is queried\n  /// @return The total amount of tokens at `_blockNumber`\n  function totalSupplyAt(uint _blockNumber) public view returns(uint) {\n\n    // These next few lines are used when the totalSupply of the token is\n    //  requested before a check point was ever created for this token, it\n    //  requires that the `parentToken.totalSupplyAt` be queried at the\n    //  genesis block for this token as that contains totalSupply of this\n    //  token at this block number.\n    if ((totalSupplyHistory.length == 0)\n        || (totalSupplyHistory[0].fromBlock > _blockNumber)) {\n      if (address(parentToken) != address(0)) {\n        return parentToken.totalSupplyAt(min(_blockNumber, parentSnapShotBlock));\n      } else {\n        return 0;\n      }\n\n    // This will return the expected totalSupply during normal situations\n    } else {\n      return getValueAt(totalSupplyHistory, _blockNumber);\n    }\n  }\n\n////////////////\n// Clone Token Method\n////////////////\n\n  /// @notice Creates a new clone token with the initial distribution being\n  ///  this token at `_snapshotBlock`\n  /// @param _cloneTokenName Name of the clone token\n  /// @param _cloneDecimalUnits Number of decimals of the smallest unit\n  /// @param _cloneTokenSymbol Symbol of the clone token\n  /// @param _snapshotBlock Block when the distribution of the parent token is\n  ///  copied to set the initial distribution of the new clone token;\n  ///  if the block is zero than the actual block, the current block is used\n  /// @param _transfersEnabled True if transfers are allowed in the clone\n  /// @return The address of the new MiniMeToken Contract\n  function createCloneToken(\n      string memory _cloneTokenName,\n      uint8 _cloneDecimalUnits,\n      string memory _cloneTokenSymbol,\n      uint _snapshotBlock,\n      bool _transfersEnabled\n      ) public returns(address) {\n    if (_snapshotBlock == 0) _snapshotBlock = block.number;\n    MiniMeToken cloneToken = tokenFactory.createCloneToken(\n        address(this),\n        _snapshotBlock,\n        _cloneTokenName,\n        _cloneDecimalUnits,\n        _cloneTokenSymbol,\n        _transfersEnabled\n        );\n\n    cloneToken.changeController(msg.sender);\n\n    // An event to make the token easy to find on the blockchain\n    emit NewCloneToken(address(cloneToken), _snapshotBlock);\n    return address(cloneToken);\n  }\n\n////////////////\n// Generate and destroy tokens\n////////////////\n\n  /// @notice Generates `_amount` tokens that are assigned to `_owner`\n  /// @param _owner The address that will be assigned the new tokens\n  /// @param _amount The quantity of tokens generated\n  /// @return True if the tokens are generated correctly\n  function generateTokens(address _owner, uint _amount\n  ) public onlyController returns (bool) {\n    uint curTotalSupply = totalSupply();\n    require(curTotalSupply + _amount >= curTotalSupply); // Check for overflow\n    uint previousBalanceTo = balanceOf(_owner);\n    require(previousBalanceTo + _amount >= previousBalanceTo); // Check for overflow\n    updateValueAtNow(totalSupplyHistory, curTotalSupply + _amount);\n    updateValueAtNow(balances[_owner], previousBalanceTo + _amount);\n    emit Transfer(address(0), _owner, _amount);\n    return true;\n  }\n\n\n  /// @notice Burns `_amount` tokens from `_owner`\n  /// @param _owner The address that will lose the tokens\n  /// @param _amount The quantity of tokens to burn\n  /// @return True if the tokens are burned correctly\n  function destroyTokens(address _owner, uint _amount\n  ) onlyController public returns (bool) {\n    uint curTotalSupply = totalSupply();\n    require(curTotalSupply >= _amount);\n    uint previousBalanceFrom = balanceOf(_owner);\n    require(previousBalanceFrom >= _amount);\n    updateValueAtNow(totalSupplyHistory, curTotalSupply - _amount);\n    updateValueAtNow(balances[_owner], previousBalanceFrom - _amount);\n    emit Transfer(_owner, address(0), _amount);\n    return true;\n  }\n\n////////////////\n// Enable tokens transfers\n////////////////\n\n\n  /// @notice Enables token holders to transfer their tokens freely if true\n  /// @param _transfersEnabled True if transfers are allowed in the clone\n  function enableTransfers(bool _transfersEnabled) public onlyController {\n    transfersEnabled = _transfersEnabled;\n  }\n\n////////////////\n// Internal helper functions to query and set a value in a snapshot array\n////////////////\n\n  /// @dev `getValueAt` retrieves the number of tokens at a given block number\n  /// @param checkpoints The history of values being queried\n  /// @param _block The block number to retrieve the value at\n  /// @return The number of tokens being queried\n  function getValueAt(Checkpoint[] storage checkpoints, uint _block\n  ) view internal returns (uint) {\n    if (checkpoints.length == 0) return 0;\n\n    // Shortcut for the actual value\n    if (_block >= checkpoints[checkpoints.length-1].fromBlock)\n      return checkpoints[checkpoints.length-1].value;\n    if (_block < checkpoints[0].fromBlock) return 0;\n\n    // Binary search of the value in the array\n    uint min = 0;\n    uint max = checkpoints.length-1;\n    while (max > min) {\n      uint mid = (max + min + 1)/ 2;\n      if (checkpoints[mid].fromBlock<=_block) {\n        min = mid;\n      } else {\n        max = mid-1;\n      }\n    }\n    return checkpoints[min].value;\n  }\n\n  /// @dev `updateValueAtNow` used to update the `balances` map and the\n  ///  `totalSupplyHistory`\n  /// @param checkpoints The history of data being updated\n  /// @param _value The new number of tokens\n  function updateValueAtNow(Checkpoint[] storage checkpoints, uint _value\n  ) internal  {\n    if ((checkpoints.length == 0)\n    || (checkpoints[checkpoints.length -1].fromBlock < block.number)) {\n      Checkpoint storage newCheckPoint = checkpoints[ checkpoints.length++ ];\n      newCheckPoint.fromBlock =  uint128(block.number);\n      newCheckPoint.value = uint128(_value);\n    } else {\n      Checkpoint storage oldCheckPoint = checkpoints[checkpoints.length-1];\n      oldCheckPoint.value = uint128(_value);\n    }\n  }\n\n  /// @dev Internal function to determine if an address is a contract\n  /// @param _addr The address being queried\n  /// @return True if `_addr` is a contract\n  function isContract(address _addr) view internal returns(bool) {\n    uint size;\n    if (_addr == address(0)) return false;\n    assembly {\n      size := extcodesize(_addr)\n    }\n    return size>0;\n  }\n\n  /// @dev Helper function to return a min betwen the two uints\n  function min(uint a, uint b) pure internal returns (uint) {\n    return a < b ? a : b;\n  }\n\n  /// @notice The fallback function: If the contract's controller has not been\n  ///  set to 0, then the `proxyPayment` method is called which relays the\n  ///  ether and creates tokens as described in the token controller contract\n  function () external payable {\n    require(isContract(controller));\n    require(TokenController(controller).proxyPayment.value(msg.value)(msg.sender));\n  }\n\n//////////\n// Safety Methods\n//////////\n\n  /// @notice This method can be used by the controller to extract mistakenly\n  ///  sent tokens to this contract.\n  /// @param _token The address of the token contract that you want to recover\n  ///  set to 0 in case you want to extract ether.\n  function claimTokens(address payable _token) public onlyController {\n    if (_token == address(0x0)) {\n      controller.transfer(address(this).balance);\n      return;\n    }\n\n    MiniMeToken token = MiniMeToken(_token);\n    uint balance = token.balanceOf(address(this));\n    token.transfer(controller, balance);\n    emit ClaimedTokens(_token, controller, balance);\n  }\n\n////////////////\n// Events\n////////////////\n  event ClaimedTokens(address indexed _token, address indexed _controller, uint _amount);\n  event Transfer(address indexed _from, address indexed _to, uint256 _amount);\n  event NewCloneToken(address indexed _cloneToken, uint _snapshotBlock);\n  event Approval(\n      address indexed _owner,\n      address indexed _spender,\n      uint256 _amount\n      );\n\n}\n\n\n////////////////\n// MiniMeTokenFactory\n////////////////\n\n/// @dev This contract is used to generate clone contracts from a contract.\n///  In solidity this is the way to create a contract from a contract of the\n///  same class\ncontract MiniMeTokenFactory {\n\n  /// @notice Update the DApp by creating a new token with new functionalities\n  ///  the msg.sender becomes the controller of this clone token\n  /// @param _parentToken Address of the token being cloned\n  /// @param _snapshotBlock Block of the parent token that will\n  ///  determine the initial distribution of the clone token\n  /// @param _tokenName Name of the new token\n  /// @param _decimalUnits Number of decimals of the new token\n  /// @param _tokenSymbol Token Symbol for the new token\n  /// @param _transfersEnabled If true, tokens will be able to be transferred\n  /// @return The address of the new token contract\n  function createCloneToken(\n      address payable _parentToken,\n      uint _snapshotBlock,\n      string memory _tokenName,\n      uint8 _decimalUnits,\n      string memory _tokenSymbol,\n      bool _transfersEnabled\n  ) public returns (MiniMeToken) {\n    MiniMeToken newToken = new MiniMeToken(\n        address(this),\n        _parentToken,\n        _snapshotBlock,\n        _tokenName,\n        _decimalUnits,\n        _tokenSymbol,\n        _transfersEnabled\n        );\n\n    newToken.changeController(msg.sender);\n    return newToken;\n  }\n}\n",
  "sourcePath": "/Users/roderik/Development/databrokerdao-dxc/contracts/contracts/external/MiniMeToken.sol",
  "compiler": {
    "name": "solc",
    "version": "0.5.10+commit.5a6ea5b1.Emscripten.clang"
  },
  "schemaVersion": "3.0.11",
  "updatedAt": "2019-07-25T12:46:56.556Z",
  "devdoc": {
    "details": "This contract is used to generate clone contracts from a contract.  In solidity this is the way to create a contract from a contract of the  same class",
    "methods": {
      "createCloneToken(address,uint256,string,uint8,string,bool)": {
        "params": {
          "_decimalUnits": "Number of decimals of the new token",
          "_parentToken": "Address of the token being cloned",
          "_snapshotBlock": "Block of the parent token that will  determine the initial distribution of the clone token",
          "_tokenName": "Name of the new token",
          "_tokenSymbol": "Token Symbol for the new token",
          "_transfersEnabled": "If true, tokens will be able to be transferred"
        },
        "return": "The address of the new token contract"
      }
    }
  },
  "userdoc": {
    "methods": {
      "createCloneToken(address,uint256,string,uint8,string,bool)": {
        "notice": "Update the DApp by creating a new token with new functionalities  the msg.sender becomes the controller of this clone token"
      }
    },
    "notice": "/////////////"
  }
}