{
  "contractName": "MultiSigWallet",
  "abi": [
    {
      "constant": true,
      "inputs": [
        {
          "name": "",
          "type": "uint256"
        }
      ],
      "name": "owners",
      "outputs": [
        {
          "name": "",
          "type": "address"
        }
      ],
      "payable": false,
      "stateMutability": "view",
      "type": "function"
    },
    {
      "constant": true,
      "inputs": [
        {
          "name": "",
          "type": "address"
        }
      ],
      "name": "isOwner",
      "outputs": [
        {
          "name": "",
          "type": "bool"
        }
      ],
      "payable": false,
      "stateMutability": "view",
      "type": "function"
    },
    {
      "constant": true,
      "inputs": [
        {
          "name": "",
          "type": "uint256"
        },
        {
          "name": "",
          "type": "address"
        }
      ],
      "name": "confirmations",
      "outputs": [
        {
          "name": "",
          "type": "bool"
        }
      ],
      "payable": false,
      "stateMutability": "view",
      "type": "function"
    },
    {
      "constant": true,
      "inputs": [
        {
          "name": "",
          "type": "uint256"
        }
      ],
      "name": "transactions",
      "outputs": [
        {
          "name": "destination",
          "type": "address"
        },
        {
          "name": "value",
          "type": "uint256"
        },
        {
          "name": "data",
          "type": "bytes"
        },
        {
          "name": "executed",
          "type": "bool"
        }
      ],
      "payable": false,
      "stateMutability": "view",
      "type": "function"
    },
    {
      "constant": true,
      "inputs": [],
      "name": "transactionCount",
      "outputs": [
        {
          "name": "",
          "type": "uint256"
        }
      ],
      "payable": false,
      "stateMutability": "view",
      "type": "function"
    },
    {
      "constant": true,
      "inputs": [],
      "name": "MAX_OWNER_COUNT",
      "outputs": [
        {
          "name": "",
          "type": "uint256"
        }
      ],
      "payable": false,
      "stateMutability": "view",
      "type": "function"
    },
    {
      "constant": true,
      "inputs": [],
      "name": "required",
      "outputs": [
        {
          "name": "",
          "type": "uint256"
        }
      ],
      "payable": false,
      "stateMutability": "view",
      "type": "function"
    },
    {
      "inputs": [
        {
          "name": "_owners",
          "type": "address[]"
        },
        {
          "name": "_required",
          "type": "uint256"
        }
      ],
      "payable": false,
      "stateMutability": "nonpayable",
      "type": "constructor"
    },
    {
      "payable": true,
      "stateMutability": "payable",
      "type": "fallback"
    },
    {
      "anonymous": false,
      "inputs": [
        {
          "indexed": true,
          "name": "sender",
          "type": "address"
        },
        {
          "indexed": true,
          "name": "transactionId",
          "type": "uint256"
        }
      ],
      "name": "Confirmation",
      "type": "event"
    },
    {
      "anonymous": false,
      "inputs": [
        {
          "indexed": true,
          "name": "sender",
          "type": "address"
        },
        {
          "indexed": true,
          "name": "transactionId",
          "type": "uint256"
        }
      ],
      "name": "Revocation",
      "type": "event"
    },
    {
      "anonymous": false,
      "inputs": [
        {
          "indexed": true,
          "name": "transactionId",
          "type": "uint256"
        }
      ],
      "name": "Submission",
      "type": "event"
    },
    {
      "anonymous": false,
      "inputs": [
        {
          "indexed": true,
          "name": "transactionId",
          "type": "uint256"
        }
      ],
      "name": "Execution",
      "type": "event"
    },
    {
      "anonymous": false,
      "inputs": [
        {
          "indexed": true,
          "name": "transactionId",
          "type": "uint256"
        }
      ],
      "name": "ExecutionFailure",
      "type": "event"
    },
    {
      "anonymous": false,
      "inputs": [
        {
          "indexed": true,
          "name": "sender",
          "type": "address"
        },
        {
          "indexed": false,
          "name": "value",
          "type": "uint256"
        }
      ],
      "name": "Deposit",
      "type": "event"
    },
    {
      "anonymous": false,
      "inputs": [
        {
          "indexed": true,
          "name": "owner",
          "type": "address"
        }
      ],
      "name": "OwnerAddition",
      "type": "event"
    },
    {
      "anonymous": false,
      "inputs": [
        {
          "indexed": true,
          "name": "owner",
          "type": "address"
        }
      ],
      "name": "OwnerRemoval",
      "type": "event"
    },
    {
      "anonymous": false,
      "inputs": [
        {
          "indexed": false,
          "name": "required",
          "type": "uint256"
        }
      ],
      "name": "RequirementChange",
      "type": "event"
    },
    {
      "constant": false,
      "inputs": [
        {
          "name": "owner",
          "type": "address"
        }
      ],
      "name": "addOwner",
      "outputs": [],
      "payable": false,
      "stateMutability": "nonpayable",
      "type": "function"
    },
    {
      "constant": false,
      "inputs": [
        {
          "name": "owner",
          "type": "address"
        }
      ],
      "name": "removeOwner",
      "outputs": [],
      "payable": false,
      "stateMutability": "nonpayable",
      "type": "function"
    },
    {
      "constant": false,
      "inputs": [
        {
          "name": "owner",
          "type": "address"
        },
        {
          "name": "newOwner",
          "type": "address"
        }
      ],
      "name": "replaceOwner",
      "outputs": [],
      "payable": false,
      "stateMutability": "nonpayable",
      "type": "function"
    },
    {
      "constant": false,
      "inputs": [
        {
          "name": "_required",
          "type": "uint256"
        }
      ],
      "name": "changeRequirement",
      "outputs": [],
      "payable": false,
      "stateMutability": "nonpayable",
      "type": "function"
    },
    {
      "constant": false,
      "inputs": [
        {
          "name": "destination",
          "type": "address"
        },
        {
          "name": "value",
          "type": "uint256"
        },
        {
          "name": "data",
          "type": "bytes"
        }
      ],
      "name": "submitTransaction",
      "outputs": [
        {
          "name": "transactionId",
          "type": "uint256"
        }
      ],
      "payable": false,
      "stateMutability": "nonpayable",
      "type": "function"
    },
    {
      "constant": false,
      "inputs": [
        {
          "name": "transactionId",
          "type": "uint256"
        }
      ],
      "name": "confirmTransaction",
      "outputs": [],
      "payable": false,
      "stateMutability": "nonpayable",
      "type": "function"
    },
    {
      "constant": false,
      "inputs": [
        {
          "name": "transactionId",
          "type": "uint256"
        }
      ],
      "name": "revokeConfirmation",
      "outputs": [],
      "payable": false,
      "stateMutability": "nonpayable",
      "type": "function"
    },
    {
      "constant": false,
      "inputs": [
        {
          "name": "transactionId",
          "type": "uint256"
        }
      ],
      "name": "executeTransaction",
      "outputs": [],
      "payable": false,
      "stateMutability": "nonpayable",
      "type": "function"
    },
    {
      "constant": true,
      "inputs": [
        {
          "name": "transactionId",
          "type": "uint256"
        }
      ],
      "name": "isConfirmed",
      "outputs": [
        {
          "name": "",
          "type": "bool"
        }
      ],
      "payable": false,
      "stateMutability": "view",
      "type": "function"
    },
    {
      "constant": true,
      "inputs": [
        {
          "name": "transactionId",
          "type": "uint256"
        }
      ],
      "name": "getConfirmationCount",
      "outputs": [
        {
          "name": "count",
          "type": "uint256"
        }
      ],
      "payable": false,
      "stateMutability": "view",
      "type": "function"
    },
    {
      "constant": true,
      "inputs": [
        {
          "name": "pending",
          "type": "bool"
        },
        {
          "name": "executed",
          "type": "bool"
        }
      ],
      "name": "getTransactionCount",
      "outputs": [
        {
          "name": "count",
          "type": "uint256"
        }
      ],
      "payable": false,
      "stateMutability": "view",
      "type": "function"
    },
    {
      "constant": true,
      "inputs": [],
      "name": "getOwners",
      "outputs": [
        {
          "name": "",
          "type": "address[]"
        }
      ],
      "payable": false,
      "stateMutability": "view",
      "type": "function"
    },
    {
      "constant": true,
      "inputs": [
        {
          "name": "transactionId",
          "type": "uint256"
        }
      ],
      "name": "getConfirmations",
      "outputs": [
        {
          "name": "_confirmations",
          "type": "address[]"
        }
      ],
      "payable": false,
      "stateMutability": "view",
      "type": "function"
    },
    {
      "constant": true,
      "inputs": [
        {
          "name": "from",
          "type": "uint256"
        },
        {
          "name": "to",
          "type": "uint256"
        },
        {
          "name": "pending",
          "type": "bool"
        },
        {
          "name": "executed",
          "type": "bool"
        }
      ],
      "name": "getTransactionIds",
      "outputs": [
        {
          "name": "_transactionIds",
          "type": "uint256[]"
        }
      ],
      "payable": false,
      "stateMutability": "view",
      "type": "function"
    }
  ],
  "bytecode": "0x60806040523480156200001157600080fd5b506040516200189b3803806200189b833981810160405260408110156200003757600080fd5b8101908080516401000000008111156200005057600080fd5b820160208101848111156200006457600080fd5b81518560208202830111640100000000821117156200008257600080fd5b5050602090910151815191935091508160328211801590620000a45750818111155b8015620000b057508015155b8015620000bc57508115155b620000c657600080fd5b60005b8451811015620001985760026000868381518110620000e457fe5b602090810291909101810151600160a060020a031682528101919091526040016000205460ff161580156200014057506000600160a060020a03168582815181106200012c57fe5b6020026020010151600160a060020a031614155b6200014a57600080fd5b6001600260008784815181106200015d57fe5b602090810291909101810151600160a060020a03168252810191909152604001600020805460ff1916911515919091179055600101620000c9565b508351620001ae906003906020870190620001bb565b505050600455506200024f565b82805482825590600052602060002090810192821562000213579160200282015b82811115620002135782518254600160a060020a031916600160a060020a03909116178255602090920191600190910190620001dc565b506200022192915062000225565b5090565b6200024c91905b8082111562000221578054600160a060020a03191681556001016200022c565b90565b61163c806200025f6000396000f3fe608060405260043610610147576000357c010000000000000000000000000000000000000000000000000000000090048063a0e67e2b116100c8578063c01a8c841161008c578063c01a8c8414610551578063c64274741461057b578063d74f8edd14610643578063dc8452cd14610658578063e20056e61461066d578063ee22610b146106a857610147565b8063a0e67e2b14610443578063a8abe69a146104a8578063b5dc40c3146104e8578063b77bf60014610512578063ba51a6df1461052757610147565b8063547415251161010f57806354741525146102a95780637065cb48146102ef578063784547a7146103225780638b51d13f1461034c5780639ace38c21461037657610147565b8063025e7c2714610186578063173825d9146101cc57806320ea8d86146101ff5780632f54bf6e146102295780633411c81c14610270575b34156101845760408051348152905133917fe1fffcc4923d04b559f4d29a8bfc6cda04eb5b0d3c460751c2402c5c5cc9109c919081900360200190a25b005b34801561019257600080fd5b506101b0600480360360208110156101a957600080fd5b50356106d2565b60408051600160a060020a039092168252519081900360200190f35b3480156101d857600080fd5b50610184600480360360208110156101ef57600080fd5b5035600160a060020a03166106f9565b34801561020b57600080fd5b506101846004803603602081101561022257600080fd5b5035610865565b34801561023557600080fd5b5061025c6004803603602081101561024c57600080fd5b5035600160a060020a031661091b565b604080519115158252519081900360200190f35b34801561027c57600080fd5b5061025c6004803603604081101561029357600080fd5b5080359060200135600160a060020a0316610930565b3480156102b557600080fd5b506102dd600480360360408110156102cc57600080fd5b508035151590602001351515610950565b60408051918252519081900360200190f35b3480156102fb57600080fd5b506101846004803603602081101561031257600080fd5b5035600160a060020a03166109bc565b34801561032e57600080fd5b5061025c6004803603602081101561034557600080fd5b5035610add565b34801561035857600080fd5b506102dd6004803603602081101561036f57600080fd5b5035610b64565b34801561038257600080fd5b506103a06004803603602081101561039957600080fd5b5035610bd3565b6040518085600160a060020a0316600160a060020a031681526020018481526020018060200183151515158152602001828103825284818151815260200191508051906020019080838360005b838110156104055781810151838201526020016103ed565b50505050905090810190601f1680156104325780820380516001836020036101000a031916815260200191505b509550505050505060405180910390f35b34801561044f57600080fd5b50610458610c91565b60408051602080825283518183015283519192839290830191858101910280838360005b8381101561049457818101518382015260200161047c565b505050509050019250505060405180910390f35b3480156104b457600080fd5b50610458600480360360808110156104cb57600080fd5b508035906020810135906040810135151590606001351515610cf4565b3480156104f457600080fd5b506104586004803603602081101561050b57600080fd5b5035610e1f565b34801561051e57600080fd5b506102dd610f96565b34801561053357600080fd5b506101846004803603602081101561054a57600080fd5b5035610f9c565b34801561055d57600080fd5b506101846004803603602081101561057457600080fd5b5035611019565b34801561058757600080fd5b506102dd6004803603606081101561059e57600080fd5b600160a060020a03823516916020810135918101906060810160408201356401000000008111156105ce57600080fd5b8201836020820111156105e057600080fd5b8035906020019184600183028401116401000000008311171561060257600080fd5b91908080601f0160208091040260200160405190810160405280939291908181526020018383808284376000920191909152509295506110e0945050505050565b34801561064f57600080fd5b506102dd6110ff565b34801561066457600080fd5b506102dd611104565b34801561067957600080fd5b506101846004803603604081101561069057600080fd5b50600160a060020a038135811691602001351661110a565b3480156106b457600080fd5b50610184600480360360208110156106cb57600080fd5b5035611287565b600381815481106106df57fe5b600091825260209091200154600160a060020a0316905081565b33301461070557600080fd5b600160a060020a038116600090815260026020526040902054819060ff1661072c57600080fd5b600160a060020a0382166000908152600260205260408120805460ff191690555b600354600019018110156108005782600160a060020a03166003828154811061077257fe5b600091825260209091200154600160a060020a031614156107f85760038054600019810190811061079f57fe5b60009182526020909120015460038054600160a060020a0390921691839081106107c557fe5b9060005260206000200160006101000a815481600160a060020a030219169083600160a060020a03160217905550610800565b60010161074d565b506003805460001901906108149082611546565b50600354600454111561082d5760035461082d90610f9c565b604051600160a060020a038316907f8001553a916ef2f495d26a907cc54d96ed840d7bda71e73194bf5a9df7a76b9090600090a25050565b3360008181526002602052604090205460ff1661088157600080fd5b60008281526001602090815260408083203380855292529091205483919060ff166108ab57600080fd5b600084815260208190526040902060030154849060ff16156108cc57600080fd5b6000858152600160209081526040808320338085529252808320805460ff191690555187927ff6a317157440607f36269043eb55f1287a5a19ba2216afeab88cd46cbcfb88e991a35050505050565b60026020526000908152604090205460ff1681565b600160209081526000928352604080842090915290825290205460ff1681565b6000805b6005548110156109b55783801561097d575060008181526020819052604090206003015460ff16155b806109a157508280156109a1575060008181526020819052604090206003015460ff165b156109ad576001820191505b600101610954565b5092915050565b3330146109c857600080fd5b600160a060020a038116600090815260026020526040902054819060ff16156109f057600080fd5b81600160a060020a038116610a0457600080fd5b60038054905060010160045460328211158015610a215750818111155b8015610a2c57508015155b8015610a3757508115155b610a4057600080fd5b600160a060020a038516600081815260026020526040808220805460ff1916600190811790915560038054918201815583527fc2575a0e9e593c00f959f8c92f12db2869c3395a3b0502d05e2516446f71f85b01805473ffffffffffffffffffffffffffffffffffffffff191684179055517ff39e6e1eb0edcf53c221607b54b00cd28f3196fed0a24994dc308b8f611b682d9190a25050505050565b600080805b600354811015610b5c5760008481526001602052604081206003805491929184908110610b0b57fe5b6000918252602080832090910154600160a060020a0316835282019290925260400190205460ff1615610b3f576001820191505b600454821415610b5457600192505050610b5f565b600101610ae2565b50505b919050565b6000805b600354811015610bcd5760008381526001602052604081206003805491929184908110610b9157fe5b6000918252602080832090910154600160a060020a0316835282019290925260400190205460ff1615610bc5576001820191505b600101610b68565b50919050565b6000602081815291815260409081902080546001808301546002808501805487516101009582161595909502600019011691909104601f8101889004880284018801909652858352600160a060020a0390931695909491929190830182828015610c7e5780601f10610c5357610100808354040283529160200191610c7e565b820191906000526020600020905b815481529060010190602001808311610c6157829003601f168201915b5050506003909301549192505060ff1684565b60606003805480602002602001604051908101604052809291908181526020018280548015610ce957602002820191906000526020600020905b8154600160a060020a03168152600190910190602001808311610ccb575b505050505090505b90565b606080600554604051908082528060200260200182016040528015610d23578160200160208202803883390190505b5090506000805b600554811015610da457858015610d53575060008181526020819052604090206003015460ff16155b80610d775750848015610d77575060008181526020819052604090206003015460ff165b15610d9c5780838381518110610d8957fe5b6020026020010181815250506001820191505b600101610d2a565b878703604051908082528060200260200182016040528015610dd0578160200160208202803883390190505b5093508790505b86811015610e1457828181518110610deb57fe5b60200260200101518489830381518110610e0157fe5b6020908102919091010152600101610dd7565b505050949350505050565b606080600380549050604051908082528060200260200182016040528015610e51578160200160208202803883390190505b5090506000805b600354811015610f145760008581526001602052604081206003805491929184908110610e8157fe5b6000918252602080832090910154600160a060020a0316835282019290925260400190205460ff1615610f0c5760038181548110610ebb57fe5b9060005260206000200160009054906101000a9004600160a060020a0316838381518110610ee557fe5b6020026020010190600160a060020a03169081600160a060020a0316815250506001820191505b600101610e58565b81604051908082528060200260200182016040528015610f3e578160200160208202803883390190505b509350600090505b81811015610f8e57828181518110610f5a57fe5b6020026020010151848281518110610f6e57fe5b600160a060020a0390921660209283029190910190910152600101610f46565b505050919050565b60055481565b333014610fa857600080fd5b6003548160328211801590610fbd5750818111155b8015610fc857508015155b8015610fd357508115155b610fdc57600080fd5b60048390556040805184815290517fa3f1ee9126a074d9326c682f561767f710e927faa811f7a99829d49dc421797a9181900360200190a1505050565b3360008181526002602052604090205460ff1661103557600080fd5b6000828152602081905260409020548290600160a060020a031661105857600080fd5b60008381526001602090815260408083203380855292529091205484919060ff161561108357600080fd5b6000858152600160208181526040808420338086529252808420805460ff1916909317909255905187927f4a504a94899432a9846e1aa406dceb1bcfd538bb839071d49d1e5e23f5be30ef91a36110d985611287565b5050505050565b60006110ed848484611458565b90506110f881611019565b9392505050565b603281565b60045481565b33301461111657600080fd5b600160a060020a038216600090815260026020526040902054829060ff1661113d57600080fd5b600160a060020a038216600090815260026020526040902054829060ff161561116557600080fd5b60005b6003548110156111ed5784600160a060020a03166003828154811061118957fe5b600091825260209091200154600160a060020a031614156111e55783600382815481106111b257fe5b9060005260206000200160006101000a815481600160a060020a030219169083600160a060020a031602179055506111ed565b600101611168565b50600160a060020a03808516600081815260026020526040808220805460ff1990811690915593871682528082208054909416600117909355915190917f8001553a916ef2f495d26a907cc54d96ed840d7bda71e73194bf5a9df7a76b9091a2604051600160a060020a038416907ff39e6e1eb0edcf53c221607b54b00cd28f3196fed0a24994dc308b8f611b682d90600090a250505050565b3360008181526002602052604090205460ff166112a357600080fd5b60008281526001602090815260408083203380855292529091205483919060ff166112cd57600080fd5b600084815260208190526040902060030154849060ff16156112ee57600080fd5b6112f785610add565b156110d95760008581526020819052604080822060038101805460ff19166001908117909155815481830154935160028085018054959796600160a060020a039094169593949093839285926000199083161561010002019091160480156113965780601f10611374576101008083540402835291820191611396565b820191906000526020600020905b815481529060010190602001808311611382575b505091505060006040518083038185875af1925050503d80600081146113d8576040519150601f19603f3d011682016040523d82523d6000602084013e6113dd565b606091505b5050905080156114175760405187907f33e13ecb54c3076d8e8bb8c2881800a4d972b792045ffae98fdf46df365fed7590600090a261144f565b60405187907f526441bb6c1aba3c9a4a6ca1d6545da9c2333c8c48343ef398eb858d72b7923690600090a260038201805460ff191690555b50505050505050565b600083600160a060020a03811661146e57600080fd5b60055460408051608081018252600160a060020a0388811682526020808301898152838501898152600060608601819052878152808452959095208451815473ffffffffffffffffffffffffffffffffffffffff1916941693909317835551600183015592518051949650919390926114ee92600285019291019061156f565b50606091909101516003909101805460ff191691151591909117905560058054600101905560405182907fc0ba8fe4b176c1714197d43b9cc6bcf797a4a7461c5fe8d0ef6e184ae7601e5190600090a2509392505050565b81548183558181111561156a5760008381526020902061156a9181019083016115ed565b505050565b828054600181600116156101000203166002900490600052602060002090601f016020900481019282601f106115b057805160ff19168380011785556115dd565b828001600101855582156115dd579182015b828111156115dd5782518255916020019190600101906115c2565b506115e99291506115ed565b5090565b610cf191905b808211156115e957600081556001016115f356fea265627a7a723058201a43fce97f4eb64754d0e5220b69f856d28bef0bb7049207d01865dbed05bf2d64736f6c634300050a0032",
  "source": "pragma solidity ^0.5.10;\n\n/// @title Multisignature wallet - Allows multiple parties to agree on transactions before execution.\n/// @author Stefan George - <stefan.george@consensys.net>\ncontract MultiSigWallet {\n\n  /*\n    *  Events\n    */\n  event Confirmation(address indexed sender, uint indexed transactionId);\n  event Revocation(address indexed sender, uint indexed transactionId);\n  event Submission(uint indexed transactionId);\n  event Execution(uint indexed transactionId);\n  event ExecutionFailure(uint indexed transactionId);\n  event Deposit(address indexed sender, uint value);\n  event OwnerAddition(address indexed owner);\n  event OwnerRemoval(address indexed owner);\n  event RequirementChange(uint required);\n\n  /*\n    *  Constants\n    */\n  uint constant public MAX_OWNER_COUNT = 50;\n\n  /*\n    *  Storage\n    */\n  mapping (uint => Transaction) public transactions;\n  mapping (uint => mapping (address => bool)) public confirmations;\n  mapping (address => bool) public isOwner;\n  address[] public owners;\n  uint public required;\n  uint public transactionCount;\n\n  struct Transaction {\n    address destination;\n    uint value;\n    bytes data;\n    bool executed;\n  }\n\n  /*\n    *  Modifiers\n    */\n  modifier onlyWallet() {\n    require(msg.sender == address(this));\n    _;\n  }\n\n  modifier ownerDoesNotExist(address owner) {\n    require(!isOwner[owner]);\n    _;\n  }\n\n  modifier ownerExists(address owner) {\n    require(isOwner[owner]);\n    _;\n  }\n\n  modifier transactionExists(uint transactionId) {\n    require(transactions[transactionId].destination != address(0));\n    _;\n  }\n\n  modifier confirmed(uint transactionId, address owner) {\n    require(confirmations[transactionId][owner]);\n    _;\n  }\n\n  modifier notConfirmed(uint transactionId, address owner) {\n    require(!confirmations[transactionId][owner]);\n    _;\n  }\n\n  modifier notExecuted(uint transactionId) {\n    require(!transactions[transactionId].executed);\n    _;\n  }\n\n  modifier notNull(address _address) {\n    require(_address != address(0));\n    _;\n  }\n\n  modifier validRequirement(uint ownerCount, uint _required) {\n    require(ownerCount <= MAX_OWNER_COUNT\n        && _required <= ownerCount\n        && _required != 0\n        && ownerCount != 0);\n    _;\n  }\n\n  /// @dev Fallback function allows to deposit ether.\n  function()\n      external\n      payable\n  {\n    if (msg.value > 0)\n      emit Deposit(msg.sender, msg.value);\n  }\n\n  /*\n    * Public functions\n    */\n  /// @dev Contract constructor sets initial owners and required number of confirmations.\n  /// @param _owners List of initial owners.\n  /// @param _required Number of required confirmations.\n  constructor(address[] memory _owners, uint _required)\n      public\n      validRequirement(_owners.length, _required)\n  {\n    for (uint i=0; i<_owners.length; i++) {\n      require(!isOwner[_owners[i]] && _owners[i] != address(0));\n      isOwner[_owners[i]] = true;\n    }\n    owners = _owners;\n    required = _required;\n  }\n\n  /// @dev Allows to add a new owner. Transaction has to be sent by wallet.\n  /// @param owner Address of new owner.\n  function addOwner(address owner)\n      public\n      onlyWallet\n      ownerDoesNotExist(owner)\n      notNull(owner)\n      validRequirement(owners.length + 1, required)\n  {\n    isOwner[owner] = true;\n    owners.push(owner);\n    emit OwnerAddition(owner);\n  }\n\n  /// @dev Allows to remove an owner. Transaction has to be sent by wallet.\n  /// @param owner Address of owner.\n  function removeOwner(address owner)\n      public\n      onlyWallet\n      ownerExists(owner)\n  {\n    isOwner[owner] = false;\n    for (uint i=0; i<owners.length - 1; i++)\n      if (owners[i] == owner) {\n        owners[i] = owners[owners.length - 1];\n        break;\n      }\n    owners.length -= 1;\n    if (required > owners.length)\n      changeRequirement(owners.length);\n    emit OwnerRemoval(owner);\n  }\n\n  /// @dev Allows to replace an owner with a new owner. Transaction has to be sent by wallet.\n  /// @param owner Address of owner to be replaced.\n  /// @param newOwner Address of new owner.\n  function replaceOwner(address owner, address newOwner)\n      public\n      onlyWallet\n      ownerExists(owner)\n      ownerDoesNotExist(newOwner)\n  {\n    for (uint i=0; i<owners.length; i++)\n      if (owners[i] == owner) {\n        owners[i] = newOwner;\n        break;\n      }\n    isOwner[owner] = false;\n    isOwner[newOwner] = true;\n    emit OwnerRemoval(owner);\n    emit OwnerAddition(newOwner);\n  }\n\n  /// @dev Allows to change the number of required confirmations. Transaction has to be sent by wallet.\n  /// @param _required Number of required confirmations.\n  function changeRequirement(uint _required)\n      public\n      onlyWallet\n      validRequirement(owners.length, _required)\n  {\n    required = _required;\n    emit RequirementChange(_required);\n  }\n\n  /// @dev Allows an owner to submit and confirm a transaction.\n  /// @param destination Transaction target address.\n  /// @param value Transaction ether value.\n  /// @param data Transaction data payload.\n  /// @return Returns transaction ID.\n  function submitTransaction(address destination, uint value, bytes memory data)\n      public\n      returns (uint transactionId)\n  {\n    transactionId = addTransaction(destination, value, data);\n    confirmTransaction(transactionId);\n  }\n\n  /// @dev Allows an owner to confirm a transaction.\n  /// @param transactionId Transaction ID.\n  function confirmTransaction(uint transactionId)\n      public\n      ownerExists(msg.sender)\n      transactionExists(transactionId)\n      notConfirmed(transactionId, msg.sender)\n  {\n    confirmations[transactionId][msg.sender] = true;\n    emit Confirmation(msg.sender, transactionId);\n    executeTransaction(transactionId);\n  }\n\n  /// @dev Allows an owner to revoke a confirmation for a transaction.\n  /// @param transactionId Transaction ID.\n  function revokeConfirmation(uint transactionId)\n      public\n      ownerExists(msg.sender)\n      confirmed(transactionId, msg.sender)\n      notExecuted(transactionId)\n  {\n    confirmations[transactionId][msg.sender] = false;\n    emit Revocation(msg.sender, transactionId);\n  }\n\n  /// @dev Allows anyone to execute a confirmed transaction.\n  /// @param transactionId Transaction ID.\n  function executeTransaction(uint transactionId)\n      public\n      ownerExists(msg.sender)\n      confirmed(transactionId, msg.sender)\n      notExecuted(transactionId)\n  {\n    if (isConfirmed(transactionId)) {\n      Transaction storage txn = transactions[transactionId];\n      txn.executed = true;\n      (bool success,) = txn.destination.call.value(txn.value)(txn.data);\n      if (success)\n        emit Execution(transactionId);\n      else {\n        emit ExecutionFailure(transactionId);\n        txn.executed = false;\n      }\n    }\n  }\n\n  /// @dev Returns the confirmation status of a transaction.\n  /// @param transactionId Transaction ID.\n  /// @return Confirmation status.\n  function isConfirmed(uint transactionId)\n      public\n      view\n      returns (bool)\n  {\n    uint count = 0;\n    for (uint i=0; i<owners.length; i++) {\n      if (confirmations[transactionId][owners[i]])\n        count += 1;\n      if (count == required)\n        return true;\n    }\n  }\n\n  /*\n    * Internal functions\n    */\n  /// @dev Adds a new transaction to the transaction mapping, if transaction does not exist yet.\n  /// @param destination Transaction target address.\n  /// @param value Transaction ether value.\n  /// @param data Transaction data payload.\n  /// @return Returns transaction ID.\n  function addTransaction(address destination, uint value, bytes memory data)\n      internal\n      notNull(destination)\n      returns (uint transactionId)\n  {\n    transactionId = transactionCount;\n    transactions[transactionId] = Transaction({\n      destination: destination,\n      value: value,\n      data: data,\n      executed: false\n    });\n    transactionCount += 1;\n    emit Submission(transactionId);\n  }\n\n  /*\n    * Web3 call functions\n    */\n  /// @dev Returns number of confirmations of a transaction.\n  /// @param transactionId Transaction ID.\n  /// @return Number of confirmations.\n  function getConfirmationCount(uint transactionId)\n      public\n      view\n      returns (uint count)\n  {\n    for (uint i=0; i<owners.length; i++)\n      if (confirmations[transactionId][owners[i]])\n        count += 1;\n  }\n\n  /// @dev Returns total number of transactions after filers are applied.\n  /// @param pending Include pending transactions.\n  /// @param executed Include executed transactions.\n  /// @return Total number of transactions after filters are applied.\n  function getTransactionCount(bool pending, bool executed)\n      public\n      view\n      returns (uint count)\n  {\n    for (uint i=0; i<transactionCount; i++)\n        if (   pending && !transactions[i].executed\n            || executed && transactions[i].executed)\n          count += 1;\n  }\n\n  /// @dev Returns list of owners.\n  /// @return List of owner addresses.\n  function getOwners()\n      public\n      view\n      returns (address[] memory)\n  {\n    return owners;\n  }\n\n  /// @dev Returns array with owner addresses, which confirmed transaction.\n  /// @param transactionId Transaction ID.\n  /// @return Returns array of owner addresses.\n  function getConfirmations(uint transactionId)\n      public\n      view\n      returns (address[] memory _confirmations)\n  {\n    address[] memory confirmationsTemp = new address[](owners.length);\n    uint count = 0;\n    uint i;\n    for (i=0; i<owners.length; i++)\n      if (confirmations[transactionId][owners[i]]) {\n        confirmationsTemp[count] = owners[i];\n        count += 1;\n      }\n    _confirmations = new address[](count);\n    for (i=0; i<count; i++)\n      _confirmations[i] = confirmationsTemp[i];\n  }\n\n  /// @dev Returns list of transaction IDs in defined range.\n  /// @param from Index start position of transaction array.\n  /// @param to Index end position of transaction array.\n  /// @param pending Include pending transactions.\n  /// @param executed Include executed transactions.\n  /// @return Returns array of transaction IDs.\n  function getTransactionIds(uint from, uint to, bool pending, bool executed)\n      public\n      view\n      returns (uint[] memory _transactionIds)\n  {\n    uint[] memory transactionIdsTemp = new uint[](transactionCount);\n    uint count = 0;\n    uint i;\n    for (i=0; i<transactionCount; i++)\n      if (   pending && !transactions[i].executed\n          || executed && transactions[i].executed)\n      {\n        transactionIdsTemp[count] = i;\n        count += 1;\n      }\n    _transactionIds = new uint[](to - from);\n    for (i=from; i<to; i++)\n      _transactionIds[i - from] = transactionIdsTemp[i];\n  }\n}\n",
  "sourcePath": "/Users/roderik/Development/databrokerdao-dxc/contracts/contracts/external/MultiSigWallet.sol",
  "compiler": {
    "name": "solc",
    "version": "0.5.10+commit.5a6ea5b1.Emscripten.clang"
  },
  "schemaVersion": "3.0.11",
  "updatedAt": "2019-07-25T12:46:56.572Z",
  "devdoc": {
    "author": "Stefan George - <stefan.george@consensys.net>",
    "methods": {
      "addOwner(address)": {
        "details": "Allows to add a new owner. Transaction has to be sent by wallet.",
        "params": {
          "owner": "Address of new owner."
        }
      },
      "changeRequirement(uint256)": {
        "details": "Allows to change the number of required confirmations. Transaction has to be sent by wallet.",
        "params": {
          "_required": "Number of required confirmations."
        }
      },
      "confirmTransaction(uint256)": {
        "details": "Allows an owner to confirm a transaction.",
        "params": {
          "transactionId": "Transaction ID."
        }
      },
      "constructor": {
        "details": "Contract constructor sets initial owners and required number of confirmations.",
        "params": {
          "_owners": "List of initial owners.",
          "_required": "Number of required confirmations."
        }
      },
      "executeTransaction(uint256)": {
        "details": "Allows anyone to execute a confirmed transaction.",
        "params": {
          "transactionId": "Transaction ID."
        }
      },
      "getConfirmationCount(uint256)": {
        "details": "Returns number of confirmations of a transaction.",
        "params": {
          "transactionId": "Transaction ID."
        },
        "return": "Number of confirmations."
      },
      "getConfirmations(uint256)": {
        "details": "Returns array with owner addresses, which confirmed transaction.",
        "params": {
          "transactionId": "Transaction ID."
        },
        "return": "Returns array of owner addresses."
      },
      "getOwners()": {
        "details": "Returns list of owners.",
        "return": "List of owner addresses."
      },
      "getTransactionCount(bool,bool)": {
        "details": "Returns total number of transactions after filers are applied.",
        "params": {
          "executed": "Include executed transactions.",
          "pending": "Include pending transactions."
        },
        "return": "Total number of transactions after filters are applied."
      },
      "getTransactionIds(uint256,uint256,bool,bool)": {
        "details": "Returns list of transaction IDs in defined range.",
        "params": {
          "executed": "Include executed transactions.",
          "from": "Index start position of transaction array.",
          "pending": "Include pending transactions.",
          "to": "Index end position of transaction array."
        },
        "return": "Returns array of transaction IDs."
      },
      "isConfirmed(uint256)": {
        "details": "Returns the confirmation status of a transaction.",
        "params": {
          "transactionId": "Transaction ID."
        },
        "return": "Confirmation status."
      },
      "removeOwner(address)": {
        "details": "Allows to remove an owner. Transaction has to be sent by wallet.",
        "params": {
          "owner": "Address of owner."
        }
      },
      "replaceOwner(address,address)": {
        "details": "Allows to replace an owner with a new owner. Transaction has to be sent by wallet.",
        "params": {
          "newOwner": "Address of new owner.",
          "owner": "Address of owner to be replaced."
        }
      },
      "revokeConfirmation(uint256)": {
        "details": "Allows an owner to revoke a confirmation for a transaction.",
        "params": {
          "transactionId": "Transaction ID."
        }
      },
      "submitTransaction(address,uint256,bytes)": {
        "details": "Allows an owner to submit and confirm a transaction.",
        "params": {
          "data": "Transaction data payload.",
          "destination": "Transaction target address.",
          "value": "Transaction ether value."
        },
        "return": "Returns transaction ID."
      }
    },
    "title": "Multisignature wallet - Allows multiple parties to agree on transactions before execution."
  },
  "userdoc": {
    "methods": {}
  }
}