{
  "contractName": "MultiSigWalletWithDailyLimit",
  "abi": [
    {
      "constant": true,
      "inputs": [
        {
          "name": "",
          "type": "uint256"
        }
      ],
      "name": "owners",
      "outputs": [
        {
          "name": "",
          "type": "address"
        }
      ],
      "payable": false,
      "stateMutability": "view",
      "type": "function"
    },
    {
      "constant": false,
      "inputs": [
        {
          "name": "owner",
          "type": "address"
        }
      ],
      "name": "removeOwner",
      "outputs": [],
      "payable": false,
      "stateMutability": "nonpayable",
      "type": "function"
    },
    {
      "constant": false,
      "inputs": [
        {
          "name": "transactionId",
          "type": "uint256"
        }
      ],
      "name": "revokeConfirmation",
      "outputs": [],
      "payable": false,
      "stateMutability": "nonpayable",
      "type": "function"
    },
    {
      "constant": true,
      "inputs": [
        {
          "name": "",
          "type": "address"
        }
      ],
      "name": "isOwner",
      "outputs": [
        {
          "name": "",
          "type": "bool"
        }
      ],
      "payable": false,
      "stateMutability": "view",
      "type": "function"
    },
    {
      "constant": true,
      "inputs": [
        {
          "name": "",
          "type": "uint256"
        },
        {
          "name": "",
          "type": "address"
        }
      ],
      "name": "confirmations",
      "outputs": [
        {
          "name": "",
          "type": "bool"
        }
      ],
      "payable": false,
      "stateMutability": "view",
      "type": "function"
    },
    {
      "constant": true,
      "inputs": [
        {
          "name": "pending",
          "type": "bool"
        },
        {
          "name": "executed",
          "type": "bool"
        }
      ],
      "name": "getTransactionCount",
      "outputs": [
        {
          "name": "count",
          "type": "uint256"
        }
      ],
      "payable": false,
      "stateMutability": "view",
      "type": "function"
    },
    {
      "constant": true,
      "inputs": [],
      "name": "dailyLimit",
      "outputs": [
        {
          "name": "",
          "type": "uint256"
        }
      ],
      "payable": false,
      "stateMutability": "view",
      "type": "function"
    },
    {
      "constant": true,
      "inputs": [],
      "name": "lastDay",
      "outputs": [
        {
          "name": "",
          "type": "uint256"
        }
      ],
      "payable": false,
      "stateMutability": "view",
      "type": "function"
    },
    {
      "constant": false,
      "inputs": [
        {
          "name": "owner",
          "type": "address"
        }
      ],
      "name": "addOwner",
      "outputs": [],
      "payable": false,
      "stateMutability": "nonpayable",
      "type": "function"
    },
    {
      "constant": true,
      "inputs": [
        {
          "name": "transactionId",
          "type": "uint256"
        }
      ],
      "name": "isConfirmed",
      "outputs": [
        {
          "name": "",
          "type": "bool"
        }
      ],
      "payable": false,
      "stateMutability": "view",
      "type": "function"
    },
    {
      "constant": true,
      "inputs": [
        {
          "name": "transactionId",
          "type": "uint256"
        }
      ],
      "name": "getConfirmationCount",
      "outputs": [
        {
          "name": "count",
          "type": "uint256"
        }
      ],
      "payable": false,
      "stateMutability": "view",
      "type": "function"
    },
    {
      "constant": true,
      "inputs": [
        {
          "name": "",
          "type": "uint256"
        }
      ],
      "name": "transactions",
      "outputs": [
        {
          "name": "destination",
          "type": "address"
        },
        {
          "name": "value",
          "type": "uint256"
        },
        {
          "name": "data",
          "type": "bytes"
        },
        {
          "name": "executed",
          "type": "bool"
        }
      ],
      "payable": false,
      "stateMutability": "view",
      "type": "function"
    },
    {
      "constant": true,
      "inputs": [],
      "name": "getOwners",
      "outputs": [
        {
          "name": "",
          "type": "address[]"
        }
      ],
      "payable": false,
      "stateMutability": "view",
      "type": "function"
    },
    {
      "constant": true,
      "inputs": [
        {
          "name": "from",
          "type": "uint256"
        },
        {
          "name": "to",
          "type": "uint256"
        },
        {
          "name": "pending",
          "type": "bool"
        },
        {
          "name": "executed",
          "type": "bool"
        }
      ],
      "name": "getTransactionIds",
      "outputs": [
        {
          "name": "_transactionIds",
          "type": "uint256[]"
        }
      ],
      "payable": false,
      "stateMutability": "view",
      "type": "function"
    },
    {
      "constant": true,
      "inputs": [
        {
          "name": "transactionId",
          "type": "uint256"
        }
      ],
      "name": "getConfirmations",
      "outputs": [
        {
          "name": "_confirmations",
          "type": "address[]"
        }
      ],
      "payable": false,
      "stateMutability": "view",
      "type": "function"
    },
    {
      "constant": true,
      "inputs": [],
      "name": "transactionCount",
      "outputs": [
        {
          "name": "",
          "type": "uint256"
        }
      ],
      "payable": false,
      "stateMutability": "view",
      "type": "function"
    },
    {
      "constant": false,
      "inputs": [
        {
          "name": "_required",
          "type": "uint256"
        }
      ],
      "name": "changeRequirement",
      "outputs": [],
      "payable": false,
      "stateMutability": "nonpayable",
      "type": "function"
    },
    {
      "constant": false,
      "inputs": [
        {
          "name": "transactionId",
          "type": "uint256"
        }
      ],
      "name": "confirmTransaction",
      "outputs": [],
      "payable": false,
      "stateMutability": "nonpayable",
      "type": "function"
    },
    {
      "constant": false,
      "inputs": [
        {
          "name": "destination",
          "type": "address"
        },
        {
          "name": "value",
          "type": "uint256"
        },
        {
          "name": "data",
          "type": "bytes"
        }
      ],
      "name": "submitTransaction",
      "outputs": [
        {
          "name": "transactionId",
          "type": "uint256"
        }
      ],
      "payable": false,
      "stateMutability": "nonpayable",
      "type": "function"
    },
    {
      "constant": true,
      "inputs": [],
      "name": "MAX_OWNER_COUNT",
      "outputs": [
        {
          "name": "",
          "type": "uint256"
        }
      ],
      "payable": false,
      "stateMutability": "view",
      "type": "function"
    },
    {
      "constant": true,
      "inputs": [],
      "name": "required",
      "outputs": [
        {
          "name": "",
          "type": "uint256"
        }
      ],
      "payable": false,
      "stateMutability": "view",
      "type": "function"
    },
    {
      "constant": false,
      "inputs": [
        {
          "name": "owner",
          "type": "address"
        },
        {
          "name": "newOwner",
          "type": "address"
        }
      ],
      "name": "replaceOwner",
      "outputs": [],
      "payable": false,
      "stateMutability": "nonpayable",
      "type": "function"
    },
    {
      "constant": true,
      "inputs": [],
      "name": "spentToday",
      "outputs": [
        {
          "name": "",
          "type": "uint256"
        }
      ],
      "payable": false,
      "stateMutability": "view",
      "type": "function"
    },
    {
      "inputs": [
        {
          "name": "_owners",
          "type": "address[]"
        },
        {
          "name": "_required",
          "type": "uint256"
        },
        {
          "name": "_dailyLimit",
          "type": "uint256"
        }
      ],
      "payable": false,
      "stateMutability": "nonpayable",
      "type": "constructor"
    },
    {
      "payable": true,
      "stateMutability": "payable",
      "type": "fallback"
    },
    {
      "anonymous": false,
      "inputs": [
        {
          "indexed": false,
          "name": "dailyLimit",
          "type": "uint256"
        }
      ],
      "name": "DailyLimitChange",
      "type": "event"
    },
    {
      "anonymous": false,
      "inputs": [
        {
          "indexed": true,
          "name": "sender",
          "type": "address"
        },
        {
          "indexed": true,
          "name": "transactionId",
          "type": "uint256"
        }
      ],
      "name": "Confirmation",
      "type": "event"
    },
    {
      "anonymous": false,
      "inputs": [
        {
          "indexed": true,
          "name": "sender",
          "type": "address"
        },
        {
          "indexed": true,
          "name": "transactionId",
          "type": "uint256"
        }
      ],
      "name": "Revocation",
      "type": "event"
    },
    {
      "anonymous": false,
      "inputs": [
        {
          "indexed": true,
          "name": "transactionId",
          "type": "uint256"
        }
      ],
      "name": "Submission",
      "type": "event"
    },
    {
      "anonymous": false,
      "inputs": [
        {
          "indexed": true,
          "name": "transactionId",
          "type": "uint256"
        }
      ],
      "name": "Execution",
      "type": "event"
    },
    {
      "anonymous": false,
      "inputs": [
        {
          "indexed": true,
          "name": "transactionId",
          "type": "uint256"
        }
      ],
      "name": "ExecutionFailure",
      "type": "event"
    },
    {
      "anonymous": false,
      "inputs": [
        {
          "indexed": true,
          "name": "sender",
          "type": "address"
        },
        {
          "indexed": false,
          "name": "value",
          "type": "uint256"
        }
      ],
      "name": "Deposit",
      "type": "event"
    },
    {
      "anonymous": false,
      "inputs": [
        {
          "indexed": true,
          "name": "owner",
          "type": "address"
        }
      ],
      "name": "OwnerAddition",
      "type": "event"
    },
    {
      "anonymous": false,
      "inputs": [
        {
          "indexed": true,
          "name": "owner",
          "type": "address"
        }
      ],
      "name": "OwnerRemoval",
      "type": "event"
    },
    {
      "anonymous": false,
      "inputs": [
        {
          "indexed": false,
          "name": "required",
          "type": "uint256"
        }
      ],
      "name": "RequirementChange",
      "type": "event"
    },
    {
      "constant": false,
      "inputs": [
        {
          "name": "_dailyLimit",
          "type": "uint256"
        }
      ],
      "name": "changeDailyLimit",
      "outputs": [],
      "payable": false,
      "stateMutability": "nonpayable",
      "type": "function"
    },
    {
      "constant": false,
      "inputs": [
        {
          "name": "transactionId",
          "type": "uint256"
        }
      ],
      "name": "executeTransaction",
      "outputs": [],
      "payable": false,
      "stateMutability": "nonpayable",
      "type": "function"
    },
    {
      "constant": true,
      "inputs": [],
      "name": "calcMaxWithdraw",
      "outputs": [
        {
          "name": "",
          "type": "uint256"
        }
      ],
      "payable": false,
      "stateMutability": "view",
      "type": "function"
    }
  ],
  "bytecode": "0x60806040523480156200001157600080fd5b5060405162001a7d38038062001a7d833981810160405260608110156200003757600080fd5b8101908080516401000000008111156200005057600080fd5b820160208101848111156200006457600080fd5b81518560208202830111640100000000821117156200008257600080fd5b505060208201516040909201518151919450919250839083908160328211801590620000ae5750818111155b8015620000ba57508015155b8015620000c657508115155b620000d057600080fd5b60005b8451811015620001a25760026000868381518110620000ee57fe5b6020908102919091018101516001600160a01b031682528101919091526040016000205460ff161580156200014a575060006001600160a01b03168582815181106200013657fe5b60200260200101516001600160a01b031614155b6200015457600080fd5b6001600260008784815181106200016757fe5b6020908102919091018101516001600160a01b03168252810191909152604001600020805460ff1916911515919091179055600101620000d3565b508351620001b8906003906020870190620001cb565b50505060045550600655506200025f9050565b82805482825590600052602060002090810192821562000223579160200282015b828111156200022357825182546001600160a01b0319166001600160a01b03909116178255602090920191600190910190620001ec565b506200023192915062000235565b5090565b6200025c91905b80821115620002315780546001600160a01b03191681556001016200023c565b90565b61180e806200026f6000396000f3fe6080604052600436106101815760003560e01c8063a0e67e2b116100d1578063c64274741161008a578063dc8452cd11610064578063dc8452cd146106fb578063e20056e614610710578063ee22610b1461074b578063f059cf2b1461077557610181565b8063c6427474146105f4578063cea08621146106bc578063d74f8edd146106e657610181565b8063a0e67e2b146104bc578063a8abe69a14610521578063b5dc40c314610561578063b77bf6001461058b578063ba51a6df146105a0578063c01a8c84146105ca57610181565b8063547415251161013e5780637065cb48116101185780637065cb4814610368578063784547a71461039b5780638b51d13f146103c55780639ace38c2146103ef57610181565b8063547415251461030a57806367eeba0c1461033e5780636b0c932d1461035357610181565b8063025e7c27146101c0578063173825d91461020657806320ea8d86146102395780632f54bf6e146102635780633411c81c146102aa5780634bc9fdc2146102e3575b34156101be5760408051348152905133917fe1fffcc4923d04b559f4d29a8bfc6cda04eb5b0d3c460751c2402c5c5cc9109c919081900360200190a25b005b3480156101cc57600080fd5b506101ea600480360360208110156101e357600080fd5b503561078a565b604080516001600160a01b039092168252519081900360200190f35b34801561021257600080fd5b506101be6004803603602081101561022957600080fd5b50356001600160a01b03166107b1565b34801561024557600080fd5b506101be6004803603602081101561025c57600080fd5b503561091d565b34801561026f57600080fd5b506102966004803603602081101561028657600080fd5b50356001600160a01b03166109d3565b604080519115158252519081900360200190f35b3480156102b657600080fd5b50610296600480360360408110156102cd57600080fd5b50803590602001356001600160a01b03166109e8565b3480156102ef57600080fd5b506102f8610a08565b60408051918252519081900360200190f35b34801561031657600080fd5b506102f86004803603604081101561032d57600080fd5b508035151590602001351515610a42565b34801561034a57600080fd5b506102f8610aae565b34801561035f57600080fd5b506102f8610ab4565b34801561037457600080fd5b506101be6004803603602081101561038b57600080fd5b50356001600160a01b0316610aba565b3480156103a757600080fd5b50610296600480360360208110156103be57600080fd5b5035610bce565b3480156103d157600080fd5b506102f8600480360360208110156103e857600080fd5b5035610c55565b3480156103fb57600080fd5b506104196004803603602081101561041257600080fd5b5035610cc4565b60405180856001600160a01b03166001600160a01b031681526020018481526020018060200183151515158152602001828103825284818151815260200191508051906020019080838360005b8381101561047e578181015183820152602001610466565b50505050905090810190601f1680156104ab5780820380516001836020036101000a031916815260200191505b509550505050505060405180910390f35b3480156104c857600080fd5b506104d1610d82565b60408051602080825283518183015283519192839290830191858101910280838360005b8381101561050d5781810151838201526020016104f5565b505050509050019250505060405180910390f35b34801561052d57600080fd5b506104d16004803603608081101561054457600080fd5b508035906020810135906040810135151590606001351515610de4565b34801561056d57600080fd5b506104d16004803603602081101561058457600080fd5b5035610f0f565b34801561059757600080fd5b506102f8611086565b3480156105ac57600080fd5b506101be600480360360208110156105c357600080fd5b503561108c565b3480156105d657600080fd5b506101be600480360360208110156105ed57600080fd5b5035611109565b34801561060057600080fd5b506102f86004803603606081101561061757600080fd5b6001600160a01b038235169160208101359181019060608101604082013564010000000081111561064757600080fd5b82018360208201111561065957600080fd5b8035906020019184600183028401116401000000008311171561067b57600080fd5b91908080601f0160208091040260200160405190810160405280939291908181526020018383808284376000920191909152509295506111d0945050505050565b3480156106c857600080fd5b506101be600480360360208110156106df57600080fd5b50356111ef565b3480156106f257600080fd5b506102f8611236565b34801561070757600080fd5b506102f861123b565b34801561071c57600080fd5b506101be6004803603604081101561073357600080fd5b506001600160a01b0381358116916020013516611241565b34801561075757600080fd5b506101be6004803603602081101561076e57600080fd5b50356113be565b34801561078157600080fd5b506102f86115ea565b6003818154811061079757fe5b6000918252602090912001546001600160a01b0316905081565b3330146107bd57600080fd5b6001600160a01b038116600090815260026020526040902054819060ff166107e457600080fd5b6001600160a01b0382166000908152600260205260408120805460ff191690555b600354600019018110156108b857826001600160a01b03166003828154811061082a57fe5b6000918252602090912001546001600160a01b031614156108b05760038054600019810190811061085757fe5b600091825260209091200154600380546001600160a01b03909216918390811061087d57fe5b9060005260206000200160006101000a8154816001600160a01b0302191690836001600160a01b031602179055506108b8565b600101610805565b506003805460001901906108cc9082611718565b5060035460045411156108e5576003546108e59061108c565b6040516001600160a01b038316907f8001553a916ef2f495d26a907cc54d96ed840d7bda71e73194bf5a9df7a76b9090600090a25050565b3360008181526002602052604090205460ff1661093957600080fd5b60008281526001602090815260408083203380855292529091205483919060ff1661096357600080fd5b600084815260208190526040902060030154849060ff161561098457600080fd5b6000858152600160209081526040808320338085529252808320805460ff191690555187927ff6a317157440607f36269043eb55f1287a5a19ba2216afeab88cd46cbcfb88e991a35050505050565b60026020526000908152604090205460ff1681565b600160209081526000928352604080842090915290825290205460ff1681565b60006007546201518001421115610a225750600654610a3f565b6008546006541015610a3657506000610a3f565b50600854600654035b90565b6000805b600554811015610aa757838015610a6f575060008181526020819052604090206003015460ff16155b80610a935750828015610a93575060008181526020819052604090206003015460ff165b15610a9f576001820191505b600101610a46565b5092915050565b60065481565b60075481565b333014610ac657600080fd5b6001600160a01b038116600090815260026020526040902054819060ff1615610aee57600080fd5b816001600160a01b038116610b0257600080fd5b60038054905060010160045460328211158015610b1f5750818111155b8015610b2a57508015155b8015610b3557508115155b610b3e57600080fd5b6001600160a01b038516600081815260026020526040808220805460ff1916600190811790915560038054918201815583527fc2575a0e9e593c00f959f8c92f12db2869c3395a3b0502d05e2516446f71f85b0180546001600160a01b03191684179055517ff39e6e1eb0edcf53c221607b54b00cd28f3196fed0a24994dc308b8f611b682d9190a25050505050565b600080805b600354811015610c4d5760008481526001602052604081206003805491929184908110610bfc57fe5b60009182526020808320909101546001600160a01b0316835282019290925260400190205460ff1615610c30576001820191505b600454821415610c4557600192505050610c50565b600101610bd3565b50505b919050565b6000805b600354811015610cbe5760008381526001602052604081206003805491929184908110610c8257fe5b60009182526020808320909101546001600160a01b0316835282019290925260400190205460ff1615610cb6576001820191505b600101610c59565b50919050565b6000602081815291815260409081902080546001808301546002808501805487516101009582161595909502600019011691909104601f81018890048802840188019096528583526001600160a01b0390931695909491929190830182828015610d6f5780601f10610d4457610100808354040283529160200191610d6f565b820191906000526020600020905b815481529060010190602001808311610d5257829003601f168201915b5050506003909301549192505060ff1684565b60606003805480602002602001604051908101604052809291908181526020018280548015610dda57602002820191906000526020600020905b81546001600160a01b03168152600190910190602001808311610dbc575b5050505050905090565b606080600554604051908082528060200260200182016040528015610e13578160200160208202803883390190505b5090506000805b600554811015610e9457858015610e43575060008181526020819052604090206003015460ff16155b80610e675750848015610e67575060008181526020819052604090206003015460ff165b15610e8c5780838381518110610e7957fe5b6020026020010181815250506001820191505b600101610e1a565b878703604051908082528060200260200182016040528015610ec0578160200160208202803883390190505b5093508790505b86811015610f0457828181518110610edb57fe5b60200260200101518489830381518110610ef157fe5b6020908102919091010152600101610ec7565b505050949350505050565b606080600380549050604051908082528060200260200182016040528015610f41578160200160208202803883390190505b5090506000805b6003548110156110045760008581526001602052604081206003805491929184908110610f7157fe5b60009182526020808320909101546001600160a01b0316835282019290925260400190205460ff1615610ffc5760038181548110610fab57fe5b9060005260206000200160009054906101000a90046001600160a01b0316838381518110610fd557fe5b60200260200101906001600160a01b031690816001600160a01b0316815250506001820191505b600101610f48565b8160405190808252806020026020018201604052801561102e578160200160208202803883390190505b509350600090505b8181101561107e5782818151811061104a57fe5b602002602001015184828151811061105e57fe5b6001600160a01b0390921660209283029190910190910152600101611036565b505050919050565b60055481565b33301461109857600080fd5b60035481603282118015906110ad5750818111155b80156110b857508015155b80156110c357508115155b6110cc57600080fd5b60048390556040805184815290517fa3f1ee9126a074d9326c682f561767f710e927faa811f7a99829d49dc421797a9181900360200190a1505050565b3360008181526002602052604090205460ff1661112557600080fd5b60008281526020819052604090205482906001600160a01b031661114857600080fd5b60008381526001602090815260408083203380855292529091205484919060ff161561117357600080fd5b6000858152600160208181526040808420338086529252808420805460ff1916909317909255905187927f4a504a94899432a9846e1aa406dceb1bcfd538bb839071d49d1e5e23f5be30ef91a36111c9856113be565b5050505050565b60006111dd8484846115f0565b90506111e881611109565b9392505050565b3330146111fb57600080fd5b60068190556040805182815290517fc71bdc6afaf9b1aa90a7078191d4fc1adf3bf680fca3183697df6b0dc226bca29181900360200190a150565b603281565b60045481565b33301461124d57600080fd5b6001600160a01b038216600090815260026020526040902054829060ff1661127457600080fd5b6001600160a01b038216600090815260026020526040902054829060ff161561129c57600080fd5b60005b60035481101561132457846001600160a01b0316600382815481106112c057fe5b6000918252602090912001546001600160a01b0316141561131c5783600382815481106112e957fe5b9060005260206000200160006101000a8154816001600160a01b0302191690836001600160a01b03160217905550611324565b60010161129f565b506001600160a01b03808516600081815260026020526040808220805460ff1990811690915593871682528082208054909416600117909355915190917f8001553a916ef2f495d26a907cc54d96ed840d7bda71e73194bf5a9df7a76b9091a26040516001600160a01b038416907ff39e6e1eb0edcf53c221607b54b00cd28f3196fed0a24994dc308b8f611b682d90600090a250505050565b3360008181526002602052604090205460ff166113da57600080fd5b60008281526001602090815260408083203380855292529091205483919060ff1661140457600080fd5b600084815260208190526040902060030154849060ff161561142557600080fd5b60008581526020819052604081209061143d87610bce565b905080806114705750600280830154600019610100600183161502011604158015611470575061147082600101546116d1565b156115e15760038201805460ff19166001179055806114985760018201546008805490910190555b8154600180840154604051600280870180546000966001600160a01b03169591939283928592600019918116156101000291909101160480156115125780601f106114f0576101008083540402835291820191611512565b820191906000526020600020905b8154815290600101906020018083116114fe575b505091505060006040518083038185875af1925050503d8060008114611554576040519150601f19603f3d011682016040523d82523d6000602084013e611559565b606091505b5050905080156115935760405188907f33e13ecb54c3076d8e8bb8c2881800a4d972b792045ffae98fdf46df365fed7590600090a26115df565b60405188907f526441bb6c1aba3c9a4a6ca1d6545da9c2333c8c48343ef398eb858d72b7923690600090a260038301805460ff19169055816115df576001830154600880549190910390555b505b50505050505050565b60085481565b6000836001600160a01b03811661160657600080fd5b600554604080516080810182526001600160a01b038881168252602080830189815283850189815260006060860181905287815280845295909520845181546001600160a01b03191694169390931783555160018301559251805194965091939092611679926002850192910190611741565b50606091909101516003909101805460ff191691151591909117905560058054600101905560405182907fc0ba8fe4b176c1714197d43b9cc6bcf797a4a7461c5fe8d0ef6e184ae7601e5190600090a2509392505050565b600060075462015180014211156116ec574260075560006008555b600654826008540111806117035750600854828101105b1561171057506000610c50565b506001919050565b81548183558181111561173c5760008381526020902061173c9181019083016117bf565b505050565b828054600181600116156101000203166002900490600052602060002090601f016020900481019282601f1061178257805160ff19168380011785556117af565b828001600101855582156117af579182015b828111156117af578251825591602001919060010190611794565b506117bb9291506117bf565b5090565b610a3f91905b808211156117bb57600081556001016117c556fea265627a7a72305820599155835016f3173a7abad44d8e21aabff90751ddccfe0e8b8b380812eb74d264736f6c634300050a0032",
  "source": "pragma solidity ^0.5.0;\n\nimport \"./MultiSigWallet.sol\";\n\n\n/// @title Multisignature wallet with daily limit - Allows an owner to withdraw a daily limit without multisig.\n/// @author Stefan George - <stefan.george@consensys.net>\ncontract MultiSigWalletWithDailyLimit is MultiSigWallet {\n\n  /*\n    *  Events\n    */\n  event DailyLimitChange(uint dailyLimit);\n\n  /*\n    *  Storage\n    */\n  uint public dailyLimit;\n  uint public lastDay;\n  uint public spentToday;\n\n  /*\n    * Public functions\n    */\n  /// @dev Contract constructor sets initial owners, required number of confirmations and daily withdraw limit.\n  /// @param _owners List of initial owners.\n  /// @param _required Number of required confirmations.\n  /// @param _dailyLimit Amount in wei, which can be withdrawn without confirmations on a daily basis.\n  constructor(address[] memory _owners, uint _required, uint _dailyLimit)\n      public\n      MultiSigWallet(_owners, _required)\n  {\n    dailyLimit = _dailyLimit;\n  }\n\n  /// @dev Allows to change the daily limit. Transaction has to be sent by wallet.\n  /// @param _dailyLimit Amount in wei.\n  function changeDailyLimit(uint _dailyLimit)\n      public\n      onlyWallet\n  {\n    dailyLimit = _dailyLimit;\n    emit DailyLimitChange(_dailyLimit);\n  }\n\n  /// @dev Allows anyone to execute a confirmed transaction or ether withdraws until daily limit is reached.\n  /// @param transactionId Transaction ID.\n  function executeTransaction(uint transactionId)\n      public\n      ownerExists(msg.sender)\n      confirmed(transactionId, msg.sender)\n      notExecuted(transactionId)\n  {\n    Transaction storage txn = transactions[transactionId];\n    bool _confirmed = isConfirmed(transactionId);\n    if (_confirmed || txn.data.length == 0 && isUnderLimit(txn.value)) {\n      txn.executed = true;\n      if (!_confirmed)\n        spentToday += txn.value;\n      (bool success,) = txn.destination.call.value(txn.value)(txn.data);\n      if (success)\n        emit Execution(transactionId);\n      else {\n        emit ExecutionFailure(transactionId);\n        txn.executed = false;\n        if (!_confirmed)\n          spentToday -= txn.value;\n      }\n    }\n  }\n\n  /*\n    * Internal functions\n    */\n  /// @dev Returns if amount is within daily limit and resets spentToday after one day.\n  /// @param amount Amount to withdraw.\n  /// @return Returns if amount is under daily limit.\n  function isUnderLimit(uint amount)\n      internal\n      returns (bool)\n  {\n    if (now > lastDay + 24 hours) {\n      lastDay = now;\n      spentToday = 0;\n    }\n    if (spentToday + amount > dailyLimit || spentToday + amount < spentToday)\n      return false;\n    return true;\n  }\n\n  /*\n    * Web3 call functions\n    */\n  /// @dev Returns maximum withdraw amount.\n  /// @return Returns amount.\n  function calcMaxWithdraw()\n      public\n      view\n      returns (uint)\n  {\n    if (now > lastDay + 24 hours)\n      return dailyLimit;\n    if (dailyLimit < spentToday)\n      return 0;\n    return dailyLimit - spentToday;\n  }\n}\n",
  "sourcePath": "/Users/roderik/Development/databrokerdao-dxc/contracts/contracts/external/MultiSigWalletWithDailyLimit.sol",
  "compiler": {
    "name": "solc",
    "version": "0.5.10+commit.5a6ea5b1.Emscripten.clang"
  },
  "schemaVersion": "3.0.11",
  "updatedAt": "2019-07-25T20:45:22.218Z",
  "devdoc": {
    "author": "Stefan George - <stefan.george@consensys.net>",
    "methods": {
      "addOwner(address)": {
        "details": "Allows to add a new owner. Transaction has to be sent by wallet.",
        "params": {
          "owner": "Address of new owner."
        }
      },
      "calcMaxWithdraw()": {
        "details": "Returns maximum withdraw amount.",
        "return": "Returns amount."
      },
      "changeDailyLimit(uint256)": {
        "details": "Allows to change the daily limit. Transaction has to be sent by wallet.",
        "params": {
          "_dailyLimit": "Amount in wei."
        }
      },
      "changeRequirement(uint256)": {
        "details": "Allows to change the number of required confirmations. Transaction has to be sent by wallet.",
        "params": {
          "_required": "Number of required confirmations."
        }
      },
      "confirmTransaction(uint256)": {
        "details": "Allows an owner to confirm a transaction.",
        "params": {
          "transactionId": "Transaction ID."
        }
      },
      "constructor": {
        "details": "Contract constructor sets initial owners, required number of confirmations and daily withdraw limit.",
        "params": {
          "_dailyLimit": "Amount in wei, which can be withdrawn without confirmations on a daily basis.",
          "_owners": "List of initial owners.",
          "_required": "Number of required confirmations."
        }
      },
      "executeTransaction(uint256)": {
        "details": "Allows anyone to execute a confirmed transaction or ether withdraws until daily limit is reached.",
        "params": {
          "transactionId": "Transaction ID."
        }
      },
      "getConfirmationCount(uint256)": {
        "details": "Returns number of confirmations of a transaction.",
        "params": {
          "transactionId": "Transaction ID."
        },
        "return": "Number of confirmations."
      },
      "getConfirmations(uint256)": {
        "details": "Returns array with owner addresses, which confirmed transaction.",
        "params": {
          "transactionId": "Transaction ID."
        },
        "return": "Returns array of owner addresses."
      },
      "getOwners()": {
        "details": "Returns list of owners.",
        "return": "List of owner addresses."
      },
      "getTransactionCount(bool,bool)": {
        "details": "Returns total number of transactions after filers are applied.",
        "params": {
          "executed": "Include executed transactions.",
          "pending": "Include pending transactions."
        },
        "return": "Total number of transactions after filters are applied."
      },
      "getTransactionIds(uint256,uint256,bool,bool)": {
        "details": "Returns list of transaction IDs in defined range.",
        "params": {
          "executed": "Include executed transactions.",
          "from": "Index start position of transaction array.",
          "pending": "Include pending transactions.",
          "to": "Index end position of transaction array."
        },
        "return": "Returns array of transaction IDs."
      },
      "isConfirmed(uint256)": {
        "details": "Returns the confirmation status of a transaction.",
        "params": {
          "transactionId": "Transaction ID."
        },
        "return": "Confirmation status."
      },
      "removeOwner(address)": {
        "details": "Allows to remove an owner. Transaction has to be sent by wallet.",
        "params": {
          "owner": "Address of owner."
        }
      },
      "replaceOwner(address,address)": {
        "details": "Allows to replace an owner with a new owner. Transaction has to be sent by wallet.",
        "params": {
          "newOwner": "Address of new owner.",
          "owner": "Address of owner to be replaced."
        }
      },
      "revokeConfirmation(uint256)": {
        "details": "Allows an owner to revoke a confirmation for a transaction.",
        "params": {
          "transactionId": "Transaction ID."
        }
      },
      "submitTransaction(address,uint256,bytes)": {
        "details": "Allows an owner to submit and confirm a transaction.",
        "params": {
          "data": "Transaction data payload.",
          "destination": "Transaction target address.",
          "value": "Transaction ether value."
        },
        "return": "Returns transaction ID."
      }
    },
    "title": "Multisignature wallet with daily limit - Allows an owner to withdraw a daily limit without multisig."
  },
  "userdoc": {
    "methods": {}
  }
}