{
  "contractName": "MultiSigWalletWithDailyLimit",
  "abi": [
    {
      "constant": true,
      "inputs": [
        {
          "name": "",
          "type": "uint256"
        }
      ],
      "name": "owners",
      "outputs": [
        {
          "name": "",
          "type": "address"
        }
      ],
      "payable": false,
      "stateMutability": "view",
      "type": "function"
    },
    {
      "constant": false,
      "inputs": [
        {
          "name": "owner",
          "type": "address"
        }
      ],
      "name": "removeOwner",
      "outputs": [],
      "payable": false,
      "stateMutability": "nonpayable",
      "type": "function"
    },
    {
      "constant": false,
      "inputs": [
        {
          "name": "transactionId",
          "type": "uint256"
        }
      ],
      "name": "revokeConfirmation",
      "outputs": [],
      "payable": false,
      "stateMutability": "nonpayable",
      "type": "function"
    },
    {
      "constant": true,
      "inputs": [
        {
          "name": "",
          "type": "address"
        }
      ],
      "name": "isOwner",
      "outputs": [
        {
          "name": "",
          "type": "bool"
        }
      ],
      "payable": false,
      "stateMutability": "view",
      "type": "function"
    },
    {
      "constant": true,
      "inputs": [
        {
          "name": "",
          "type": "uint256"
        },
        {
          "name": "",
          "type": "address"
        }
      ],
      "name": "confirmations",
      "outputs": [
        {
          "name": "",
          "type": "bool"
        }
      ],
      "payable": false,
      "stateMutability": "view",
      "type": "function"
    },
    {
      "constant": true,
      "inputs": [
        {
          "name": "pending",
          "type": "bool"
        },
        {
          "name": "executed",
          "type": "bool"
        }
      ],
      "name": "getTransactionCount",
      "outputs": [
        {
          "name": "count",
          "type": "uint256"
        }
      ],
      "payable": false,
      "stateMutability": "view",
      "type": "function"
    },
    {
      "constant": true,
      "inputs": [],
      "name": "dailyLimit",
      "outputs": [
        {
          "name": "",
          "type": "uint256"
        }
      ],
      "payable": false,
      "stateMutability": "view",
      "type": "function"
    },
    {
      "constant": true,
      "inputs": [],
      "name": "lastDay",
      "outputs": [
        {
          "name": "",
          "type": "uint256"
        }
      ],
      "payable": false,
      "stateMutability": "view",
      "type": "function"
    },
    {
      "constant": false,
      "inputs": [
        {
          "name": "owner",
          "type": "address"
        }
      ],
      "name": "addOwner",
      "outputs": [],
      "payable": false,
      "stateMutability": "nonpayable",
      "type": "function"
    },
    {
      "constant": true,
      "inputs": [
        {
          "name": "transactionId",
          "type": "uint256"
        }
      ],
      "name": "isConfirmed",
      "outputs": [
        {
          "name": "",
          "type": "bool"
        }
      ],
      "payable": false,
      "stateMutability": "view",
      "type": "function"
    },
    {
      "constant": true,
      "inputs": [
        {
          "name": "transactionId",
          "type": "uint256"
        }
      ],
      "name": "getConfirmationCount",
      "outputs": [
        {
          "name": "count",
          "type": "uint256"
        }
      ],
      "payable": false,
      "stateMutability": "view",
      "type": "function"
    },
    {
      "constant": true,
      "inputs": [
        {
          "name": "",
          "type": "uint256"
        }
      ],
      "name": "transactions",
      "outputs": [
        {
          "name": "destination",
          "type": "address"
        },
        {
          "name": "value",
          "type": "uint256"
        },
        {
          "name": "data",
          "type": "bytes"
        },
        {
          "name": "executed",
          "type": "bool"
        }
      ],
      "payable": false,
      "stateMutability": "view",
      "type": "function"
    },
    {
      "constant": true,
      "inputs": [],
      "name": "getOwners",
      "outputs": [
        {
          "name": "",
          "type": "address[]"
        }
      ],
      "payable": false,
      "stateMutability": "view",
      "type": "function"
    },
    {
      "constant": true,
      "inputs": [
        {
          "name": "from",
          "type": "uint256"
        },
        {
          "name": "to",
          "type": "uint256"
        },
        {
          "name": "pending",
          "type": "bool"
        },
        {
          "name": "executed",
          "type": "bool"
        }
      ],
      "name": "getTransactionIds",
      "outputs": [
        {
          "name": "_transactionIds",
          "type": "uint256[]"
        }
      ],
      "payable": false,
      "stateMutability": "view",
      "type": "function"
    },
    {
      "constant": true,
      "inputs": [
        {
          "name": "transactionId",
          "type": "uint256"
        }
      ],
      "name": "getConfirmations",
      "outputs": [
        {
          "name": "_confirmations",
          "type": "address[]"
        }
      ],
      "payable": false,
      "stateMutability": "view",
      "type": "function"
    },
    {
      "constant": true,
      "inputs": [],
      "name": "transactionCount",
      "outputs": [
        {
          "name": "",
          "type": "uint256"
        }
      ],
      "payable": false,
      "stateMutability": "view",
      "type": "function"
    },
    {
      "constant": false,
      "inputs": [
        {
          "name": "_required",
          "type": "uint256"
        }
      ],
      "name": "changeRequirement",
      "outputs": [],
      "payable": false,
      "stateMutability": "nonpayable",
      "type": "function"
    },
    {
      "constant": false,
      "inputs": [
        {
          "name": "transactionId",
          "type": "uint256"
        }
      ],
      "name": "confirmTransaction",
      "outputs": [],
      "payable": false,
      "stateMutability": "nonpayable",
      "type": "function"
    },
    {
      "constant": false,
      "inputs": [
        {
          "name": "destination",
          "type": "address"
        },
        {
          "name": "value",
          "type": "uint256"
        },
        {
          "name": "data",
          "type": "bytes"
        }
      ],
      "name": "submitTransaction",
      "outputs": [
        {
          "name": "transactionId",
          "type": "uint256"
        }
      ],
      "payable": false,
      "stateMutability": "nonpayable",
      "type": "function"
    },
    {
      "constant": true,
      "inputs": [],
      "name": "MAX_OWNER_COUNT",
      "outputs": [
        {
          "name": "",
          "type": "uint256"
        }
      ],
      "payable": false,
      "stateMutability": "view",
      "type": "function"
    },
    {
      "constant": true,
      "inputs": [],
      "name": "required",
      "outputs": [
        {
          "name": "",
          "type": "uint256"
        }
      ],
      "payable": false,
      "stateMutability": "view",
      "type": "function"
    },
    {
      "constant": false,
      "inputs": [
        {
          "name": "owner",
          "type": "address"
        },
        {
          "name": "newOwner",
          "type": "address"
        }
      ],
      "name": "replaceOwner",
      "outputs": [],
      "payable": false,
      "stateMutability": "nonpayable",
      "type": "function"
    },
    {
      "constant": true,
      "inputs": [],
      "name": "spentToday",
      "outputs": [
        {
          "name": "",
          "type": "uint256"
        }
      ],
      "payable": false,
      "stateMutability": "view",
      "type": "function"
    },
    {
      "inputs": [
        {
          "name": "_owners",
          "type": "address[]"
        },
        {
          "name": "_required",
          "type": "uint256"
        },
        {
          "name": "_dailyLimit",
          "type": "uint256"
        }
      ],
      "payable": false,
      "stateMutability": "nonpayable",
      "type": "constructor"
    },
    {
      "payable": true,
      "stateMutability": "payable",
      "type": "fallback"
    },
    {
      "anonymous": false,
      "inputs": [
        {
          "indexed": false,
          "name": "dailyLimit",
          "type": "uint256"
        }
      ],
      "name": "DailyLimitChange",
      "type": "event"
    },
    {
      "anonymous": false,
      "inputs": [
        {
          "indexed": true,
          "name": "sender",
          "type": "address"
        },
        {
          "indexed": true,
          "name": "transactionId",
          "type": "uint256"
        }
      ],
      "name": "Confirmation",
      "type": "event"
    },
    {
      "anonymous": false,
      "inputs": [
        {
          "indexed": true,
          "name": "sender",
          "type": "address"
        },
        {
          "indexed": true,
          "name": "transactionId",
          "type": "uint256"
        }
      ],
      "name": "Revocation",
      "type": "event"
    },
    {
      "anonymous": false,
      "inputs": [
        {
          "indexed": true,
          "name": "transactionId",
          "type": "uint256"
        }
      ],
      "name": "Submission",
      "type": "event"
    },
    {
      "anonymous": false,
      "inputs": [
        {
          "indexed": true,
          "name": "transactionId",
          "type": "uint256"
        }
      ],
      "name": "Execution",
      "type": "event"
    },
    {
      "anonymous": false,
      "inputs": [
        {
          "indexed": true,
          "name": "transactionId",
          "type": "uint256"
        }
      ],
      "name": "ExecutionFailure",
      "type": "event"
    },
    {
      "anonymous": false,
      "inputs": [
        {
          "indexed": true,
          "name": "sender",
          "type": "address"
        },
        {
          "indexed": false,
          "name": "value",
          "type": "uint256"
        }
      ],
      "name": "Deposit",
      "type": "event"
    },
    {
      "anonymous": false,
      "inputs": [
        {
          "indexed": true,
          "name": "owner",
          "type": "address"
        }
      ],
      "name": "OwnerAddition",
      "type": "event"
    },
    {
      "anonymous": false,
      "inputs": [
        {
          "indexed": true,
          "name": "owner",
          "type": "address"
        }
      ],
      "name": "OwnerRemoval",
      "type": "event"
    },
    {
      "anonymous": false,
      "inputs": [
        {
          "indexed": false,
          "name": "required",
          "type": "uint256"
        }
      ],
      "name": "RequirementChange",
      "type": "event"
    },
    {
      "constant": false,
      "inputs": [
        {
          "name": "_dailyLimit",
          "type": "uint256"
        }
      ],
      "name": "changeDailyLimit",
      "outputs": [],
      "payable": false,
      "stateMutability": "nonpayable",
      "type": "function"
    },
    {
      "constant": false,
      "inputs": [
        {
          "name": "transactionId",
          "type": "uint256"
        }
      ],
      "name": "executeTransaction",
      "outputs": [],
      "payable": false,
      "stateMutability": "nonpayable",
      "type": "function"
    },
    {
      "constant": true,
      "inputs": [],
      "name": "calcMaxWithdraw",
      "outputs": [
        {
          "name": "",
          "type": "uint256"
        }
      ],
      "payable": false,
      "stateMutability": "view",
      "type": "function"
    }
  ],
  "bytecode": "0x60806040523480156200001157600080fd5b5060405162001ab438038062001ab4833981810160405260608110156200003757600080fd5b8101908080516401000000008111156200005057600080fd5b820160208101848111156200006457600080fd5b81518560208202830111640100000000821117156200008257600080fd5b505060208201516040909201518151919450919250839083908160328211801590620000ae5750818111155b8015620000ba57508015155b8015620000c657508115155b620000d057600080fd5b60005b8451811015620001a25760026000868381518110620000ee57fe5b602090810291909101810151600160a060020a031682528101919091526040016000205460ff161580156200014a57506000600160a060020a03168582815181106200013657fe5b6020026020010151600160a060020a031614155b6200015457600080fd5b6001600260008784815181106200016757fe5b602090810291909101810151600160a060020a03168252810191909152604001600020805460ff1916911515919091179055600101620000d3565b508351620001b8906003906020870190620001cb565b50505060045550600655506200025f9050565b82805482825590600052602060002090810192821562000223579160200282015b82811115620002235782518254600160a060020a031916600160a060020a03909116178255602090920191600190910190620001ec565b506200023192915062000235565b5090565b6200025c91905b8082111562000231578054600160a060020a03191681556001016200023c565b90565b611845806200026f6000396000f3fe60806040526004361061019e576000357c010000000000000000000000000000000000000000000000000000000090048063a0e67e2b116100ee578063c6427474116100a7578063dc8452cd11610081578063dc8452cd14610718578063e20056e61461072d578063ee22610b14610768578063f059cf2b146107925761019e565b8063c642747414610611578063cea08621146106d9578063d74f8edd146107035761019e565b8063a0e67e2b146104d9578063a8abe69a1461053e578063b5dc40c31461057e578063b77bf600146105a8578063ba51a6df146105bd578063c01a8c84146105e75761019e565b8063547415251161015b5780637065cb48116101355780637065cb4814610385578063784547a7146103b85780638b51d13f146103e25780639ace38c21461040c5761019e565b8063547415251461032757806367eeba0c1461035b5780636b0c932d146103705761019e565b8063025e7c27146101dd578063173825d91461022357806320ea8d86146102565780632f54bf6e146102805780633411c81c146102c75780634bc9fdc214610300575b34156101db5760408051348152905133917fe1fffcc4923d04b559f4d29a8bfc6cda04eb5b0d3c460751c2402c5c5cc9109c919081900360200190a25b005b3480156101e957600080fd5b506102076004803603602081101561020057600080fd5b50356107a7565b60408051600160a060020a039092168252519081900360200190f35b34801561022f57600080fd5b506101db6004803603602081101561024657600080fd5b5035600160a060020a03166107ce565b34801561026257600080fd5b506101db6004803603602081101561027957600080fd5b503561093a565b34801561028c57600080fd5b506102b3600480360360208110156102a357600080fd5b5035600160a060020a03166109f0565b604080519115158252519081900360200190f35b3480156102d357600080fd5b506102b3600480360360408110156102ea57600080fd5b5080359060200135600160a060020a0316610a05565b34801561030c57600080fd5b50610315610a25565b60408051918252519081900360200190f35b34801561033357600080fd5b506103156004803603604081101561034a57600080fd5b508035151590602001351515610a5f565b34801561036757600080fd5b50610315610acb565b34801561037c57600080fd5b50610315610ad1565b34801561039157600080fd5b506101db600480360360208110156103a857600080fd5b5035600160a060020a0316610ad7565b3480156103c457600080fd5b506102b3600480360360208110156103db57600080fd5b5035610bf8565b3480156103ee57600080fd5b506103156004803603602081101561040557600080fd5b5035610c7f565b34801561041857600080fd5b506104366004803603602081101561042f57600080fd5b5035610cee565b6040518085600160a060020a0316600160a060020a031681526020018481526020018060200183151515158152602001828103825284818151815260200191508051906020019080838360005b8381101561049b578181015183820152602001610483565b50505050905090810190601f1680156104c85780820380516001836020036101000a031916815260200191505b509550505050505060405180910390f35b3480156104e557600080fd5b506104ee610dac565b60408051602080825283518183015283519192839290830191858101910280838360005b8381101561052a578181015183820152602001610512565b505050509050019250505060405180910390f35b34801561054a57600080fd5b506104ee6004803603608081101561056157600080fd5b508035906020810135906040810135151590606001351515610e0e565b34801561058a57600080fd5b506104ee600480360360208110156105a157600080fd5b5035610f39565b3480156105b457600080fd5b506103156110b0565b3480156105c957600080fd5b506101db600480360360208110156105e057600080fd5b50356110b6565b3480156105f357600080fd5b506101db6004803603602081101561060a57600080fd5b5035611133565b34801561061d57600080fd5b506103156004803603606081101561063457600080fd5b600160a060020a038235169160208101359181019060608101604082013564010000000081111561066457600080fd5b82018360208201111561067657600080fd5b8035906020019184600183028401116401000000008311171561069857600080fd5b91908080601f0160208091040260200160405190810160405280939291908181526020018383808284376000920191909152509295506111fa945050505050565b3480156106e557600080fd5b506101db600480360360208110156106fc57600080fd5b5035611219565b34801561070f57600080fd5b50610315611260565b34801561072457600080fd5b50610315611265565b34801561073957600080fd5b506101db6004803603604081101561075057600080fd5b50600160a060020a038135811691602001351661126b565b34801561077457600080fd5b506101db6004803603602081101561078b57600080fd5b50356113e8565b34801561079e57600080fd5b50610315611614565b600381815481106107b457fe5b600091825260209091200154600160a060020a0316905081565b3330146107da57600080fd5b600160a060020a038116600090815260026020526040902054819060ff1661080157600080fd5b600160a060020a0382166000908152600260205260408120805460ff191690555b600354600019018110156108d55782600160a060020a03166003828154811061084757fe5b600091825260209091200154600160a060020a031614156108cd5760038054600019810190811061087457fe5b60009182526020909120015460038054600160a060020a03909216918390811061089a57fe5b9060005260206000200160006101000a815481600160a060020a030219169083600160a060020a031602179055506108d5565b600101610822565b506003805460001901906108e9908261174f565b50600354600454111561090257600354610902906110b6565b604051600160a060020a038316907f8001553a916ef2f495d26a907cc54d96ed840d7bda71e73194bf5a9df7a76b9090600090a25050565b3360008181526002602052604090205460ff1661095657600080fd5b60008281526001602090815260408083203380855292529091205483919060ff1661098057600080fd5b600084815260208190526040902060030154849060ff16156109a157600080fd5b6000858152600160209081526040808320338085529252808320805460ff191690555187927ff6a317157440607f36269043eb55f1287a5a19ba2216afeab88cd46cbcfb88e991a35050505050565b60026020526000908152604090205460ff1681565b600160209081526000928352604080842090915290825290205460ff1681565b60006007546201518001421115610a3f5750600654610a5c565b6008546006541015610a5357506000610a5c565b50600854600654035b90565b6000805b600554811015610ac457838015610a8c575060008181526020819052604090206003015460ff16155b80610ab05750828015610ab0575060008181526020819052604090206003015460ff165b15610abc576001820191505b600101610a63565b5092915050565b60065481565b60075481565b333014610ae357600080fd5b600160a060020a038116600090815260026020526040902054819060ff1615610b0b57600080fd5b81600160a060020a038116610b1f57600080fd5b60038054905060010160045460328211158015610b3c5750818111155b8015610b4757508015155b8015610b5257508115155b610b5b57600080fd5b600160a060020a038516600081815260026020526040808220805460ff1916600190811790915560038054918201815583527fc2575a0e9e593c00f959f8c92f12db2869c3395a3b0502d05e2516446f71f85b01805473ffffffffffffffffffffffffffffffffffffffff191684179055517ff39e6e1eb0edcf53c221607b54b00cd28f3196fed0a24994dc308b8f611b682d9190a25050505050565b600080805b600354811015610c775760008481526001602052604081206003805491929184908110610c2657fe5b6000918252602080832090910154600160a060020a0316835282019290925260400190205460ff1615610c5a576001820191505b600454821415610c6f57600192505050610c7a565b600101610bfd565b50505b919050565b6000805b600354811015610ce85760008381526001602052604081206003805491929184908110610cac57fe5b6000918252602080832090910154600160a060020a0316835282019290925260400190205460ff1615610ce0576001820191505b600101610c83565b50919050565b6000602081815291815260409081902080546001808301546002808501805487516101009582161595909502600019011691909104601f8101889004880284018801909652858352600160a060020a0390931695909491929190830182828015610d995780601f10610d6e57610100808354040283529160200191610d99565b820191906000526020600020905b815481529060010190602001808311610d7c57829003601f168201915b5050506003909301549192505060ff1684565b60606003805480602002602001604051908101604052809291908181526020018280548015610e0457602002820191906000526020600020905b8154600160a060020a03168152600190910190602001808311610de6575b5050505050905090565b606080600554604051908082528060200260200182016040528015610e3d578160200160208202803883390190505b5090506000805b600554811015610ebe57858015610e6d575060008181526020819052604090206003015460ff16155b80610e915750848015610e91575060008181526020819052604090206003015460ff165b15610eb65780838381518110610ea357fe5b6020026020010181815250506001820191505b600101610e44565b878703604051908082528060200260200182016040528015610eea578160200160208202803883390190505b5093508790505b86811015610f2e57828181518110610f0557fe5b60200260200101518489830381518110610f1b57fe5b6020908102919091010152600101610ef1565b505050949350505050565b606080600380549050604051908082528060200260200182016040528015610f6b578160200160208202803883390190505b5090506000805b60035481101561102e5760008581526001602052604081206003805491929184908110610f9b57fe5b6000918252602080832090910154600160a060020a0316835282019290925260400190205460ff16156110265760038181548110610fd557fe5b9060005260206000200160009054906101000a9004600160a060020a0316838381518110610fff57fe5b6020026020010190600160a060020a03169081600160a060020a0316815250506001820191505b600101610f72565b81604051908082528060200260200182016040528015611058578160200160208202803883390190505b509350600090505b818110156110a85782818151811061107457fe5b602002602001015184828151811061108857fe5b600160a060020a0390921660209283029190910190910152600101611060565b505050919050565b60055481565b3330146110c257600080fd5b60035481603282118015906110d75750818111155b80156110e257508015155b80156110ed57508115155b6110f657600080fd5b60048390556040805184815290517fa3f1ee9126a074d9326c682f561767f710e927faa811f7a99829d49dc421797a9181900360200190a1505050565b3360008181526002602052604090205460ff1661114f57600080fd5b6000828152602081905260409020548290600160a060020a031661117257600080fd5b60008381526001602090815260408083203380855292529091205484919060ff161561119d57600080fd5b6000858152600160208181526040808420338086529252808420805460ff1916909317909255905187927f4a504a94899432a9846e1aa406dceb1bcfd538bb839071d49d1e5e23f5be30ef91a36111f3856113e8565b5050505050565b600061120784848461161a565b905061121281611133565b9392505050565b33301461122557600080fd5b60068190556040805182815290517fc71bdc6afaf9b1aa90a7078191d4fc1adf3bf680fca3183697df6b0dc226bca29181900360200190a150565b603281565b60045481565b33301461127757600080fd5b600160a060020a038216600090815260026020526040902054829060ff1661129e57600080fd5b600160a060020a038216600090815260026020526040902054829060ff16156112c657600080fd5b60005b60035481101561134e5784600160a060020a0316600382815481106112ea57fe5b600091825260209091200154600160a060020a0316141561134657836003828154811061131357fe5b9060005260206000200160006101000a815481600160a060020a030219169083600160a060020a0316021790555061134e565b6001016112c9565b50600160a060020a03808516600081815260026020526040808220805460ff1990811690915593871682528082208054909416600117909355915190917f8001553a916ef2f495d26a907cc54d96ed840d7bda71e73194bf5a9df7a76b9091a2604051600160a060020a038416907ff39e6e1eb0edcf53c221607b54b00cd28f3196fed0a24994dc308b8f611b682d90600090a250505050565b3360008181526002602052604090205460ff1661140457600080fd5b60008281526001602090815260408083203380855292529091205483919060ff1661142e57600080fd5b600084815260208190526040902060030154849060ff161561144f57600080fd5b60008581526020819052604081209061146787610bf8565b9050808061149a575060028083015460001961010060018316150201160415801561149a575061149a8260010154611708565b1561160b5760038201805460ff19166001179055806114c25760018201546008805490910190555b815460018084015460405160028087018054600096600160a060020a031695919392839285926000199181161561010002919091011604801561153c5780601f1061151a57610100808354040283529182019161153c565b820191906000526020600020905b815481529060010190602001808311611528575b505091505060006040518083038185875af1925050503d806000811461157e576040519150601f19603f3d011682016040523d82523d6000602084013e611583565b606091505b5050905080156115bd5760405188907f33e13ecb54c3076d8e8bb8c2881800a4d972b792045ffae98fdf46df365fed7590600090a2611609565b60405188907f526441bb6c1aba3c9a4a6ca1d6545da9c2333c8c48343ef398eb858d72b7923690600090a260038301805460ff1916905581611609576001830154600880549190910390555b505b50505050505050565b60085481565b600083600160a060020a03811661163057600080fd5b60055460408051608081018252600160a060020a0388811682526020808301898152838501898152600060608601819052878152808452959095208451815473ffffffffffffffffffffffffffffffffffffffff1916941693909317835551600183015592518051949650919390926116b0926002850192910190611778565b50606091909101516003909101805460ff191691151591909117905560058054600101905560405182907fc0ba8fe4b176c1714197d43b9cc6bcf797a4a7461c5fe8d0ef6e184ae7601e5190600090a2509392505050565b60006007546201518001421115611723574260075560006008555b6006548260085401118061173a5750600854828101105b1561174757506000610c7a565b506001919050565b815481835581811115611773576000838152602090206117739181019083016117f6565b505050565b828054600181600116156101000203166002900490600052602060002090601f016020900481019282601f106117b957805160ff19168380011785556117e6565b828001600101855582156117e6579182015b828111156117e65782518255916020019190600101906117cb565b506117f29291506117f6565b5090565b610a5c91905b808211156117f257600081556001016117fc56fea265627a7a723058206bbd994dd088d526caf47058138601aa51bbe41f51a04622453c68e1964064b664736f6c634300050a0032",
  "source": "pragma solidity ^0.5.0;\n\nimport \"./MultiSigWallet.sol\";\n\n\n/// @title Multisignature wallet with daily limit - Allows an owner to withdraw a daily limit without multisig.\n/// @author Stefan George - <stefan.george@consensys.net>\ncontract MultiSigWalletWithDailyLimit is MultiSigWallet {\n\n  /*\n    *  Events\n    */\n  event DailyLimitChange(uint dailyLimit);\n\n  /*\n    *  Storage\n    */\n  uint public dailyLimit;\n  uint public lastDay;\n  uint public spentToday;\n\n  /*\n    * Public functions\n    */\n  /// @dev Contract constructor sets initial owners, required number of confirmations and daily withdraw limit.\n  /// @param _owners List of initial owners.\n  /// @param _required Number of required confirmations.\n  /// @param _dailyLimit Amount in wei, which can be withdrawn without confirmations on a daily basis.\n  constructor(address[] memory _owners, uint _required, uint _dailyLimit)\n      public\n      MultiSigWallet(_owners, _required)\n  {\n    dailyLimit = _dailyLimit;\n  }\n\n  /// @dev Allows to change the daily limit. Transaction has to be sent by wallet.\n  /// @param _dailyLimit Amount in wei.\n  function changeDailyLimit(uint _dailyLimit)\n      public\n      onlyWallet\n  {\n    dailyLimit = _dailyLimit;\n    emit DailyLimitChange(_dailyLimit);\n  }\n\n  /// @dev Allows anyone to execute a confirmed transaction or ether withdraws until daily limit is reached.\n  /// @param transactionId Transaction ID.\n  function executeTransaction(uint transactionId)\n      public\n      ownerExists(msg.sender)\n      confirmed(transactionId, msg.sender)\n      notExecuted(transactionId)\n  {\n    Transaction storage txn = transactions[transactionId];\n    bool _confirmed = isConfirmed(transactionId);\n    if (_confirmed || txn.data.length == 0 && isUnderLimit(txn.value)) {\n      txn.executed = true;\n      if (!_confirmed)\n        spentToday += txn.value;\n      (bool success,) = txn.destination.call.value(txn.value)(txn.data);\n      if (success)\n        emit Execution(transactionId);\n      else {\n        emit ExecutionFailure(transactionId);\n        txn.executed = false;\n        if (!_confirmed)\n          spentToday -= txn.value;\n      }\n    }\n  }\n\n  /*\n    * Internal functions\n    */\n  /// @dev Returns if amount is within daily limit and resets spentToday after one day.\n  /// @param amount Amount to withdraw.\n  /// @return Returns if amount is under daily limit.\n  function isUnderLimit(uint amount)\n      internal\n      returns (bool)\n  {\n    if (now > lastDay + 24 hours) {\n      lastDay = now;\n      spentToday = 0;\n    }\n    if (spentToday + amount > dailyLimit || spentToday + amount < spentToday)\n      return false;\n    return true;\n  }\n\n  /*\n    * Web3 call functions\n    */\n  /// @dev Returns maximum withdraw amount.\n  /// @return Returns amount.\n  function calcMaxWithdraw()\n      public\n      view\n      returns (uint)\n  {\n    if (now > lastDay + 24 hours)\n      return dailyLimit;\n    if (dailyLimit < spentToday)\n      return 0;\n    return dailyLimit - spentToday;\n  }\n}\n",
  "sourcePath": "/Users/roderik/Development/dxc/contracts/contracts/external/MultiSigWalletWithDailyLimit.sol",
  "compiler": {
    "name": "solc",
    "version": "0.5.10+commit.5a6ea5b1.Emscripten.clang"
  },
  "schemaVersion": "3.0.11",
  "updatedAt": "2019-07-30T15:41:46.027Z",
  "devdoc": {
    "author": "Stefan George - <stefan.george@consensys.net>",
    "methods": {
      "addOwner(address)": {
        "details": "Allows to add a new owner. Transaction has to be sent by wallet.",
        "params": {
          "owner": "Address of new owner."
        }
      },
      "calcMaxWithdraw()": {
        "details": "Returns maximum withdraw amount.",
        "return": "Returns amount."
      },
      "changeDailyLimit(uint256)": {
        "details": "Allows to change the daily limit. Transaction has to be sent by wallet.",
        "params": {
          "_dailyLimit": "Amount in wei."
        }
      },
      "changeRequirement(uint256)": {
        "details": "Allows to change the number of required confirmations. Transaction has to be sent by wallet.",
        "params": {
          "_required": "Number of required confirmations."
        }
      },
      "confirmTransaction(uint256)": {
        "details": "Allows an owner to confirm a transaction.",
        "params": {
          "transactionId": "Transaction ID."
        }
      },
      "constructor": {
        "details": "Contract constructor sets initial owners, required number of confirmations and daily withdraw limit.",
        "params": {
          "_dailyLimit": "Amount in wei, which can be withdrawn without confirmations on a daily basis.",
          "_owners": "List of initial owners.",
          "_required": "Number of required confirmations."
        }
      },
      "executeTransaction(uint256)": {
        "details": "Allows anyone to execute a confirmed transaction or ether withdraws until daily limit is reached.",
        "params": {
          "transactionId": "Transaction ID."
        }
      },
      "getConfirmationCount(uint256)": {
        "details": "Returns number of confirmations of a transaction.",
        "params": {
          "transactionId": "Transaction ID."
        },
        "return": "Number of confirmations."
      },
      "getConfirmations(uint256)": {
        "details": "Returns array with owner addresses, which confirmed transaction.",
        "params": {
          "transactionId": "Transaction ID."
        },
        "return": "Returns array of owner addresses."
      },
      "getOwners()": {
        "details": "Returns list of owners.",
        "return": "List of owner addresses."
      },
      "getTransactionCount(bool,bool)": {
        "details": "Returns total number of transactions after filers are applied.",
        "params": {
          "executed": "Include executed transactions.",
          "pending": "Include pending transactions."
        },
        "return": "Total number of transactions after filters are applied."
      },
      "getTransactionIds(uint256,uint256,bool,bool)": {
        "details": "Returns list of transaction IDs in defined range.",
        "params": {
          "executed": "Include executed transactions.",
          "from": "Index start position of transaction array.",
          "pending": "Include pending transactions.",
          "to": "Index end position of transaction array."
        },
        "return": "Returns array of transaction IDs."
      },
      "isConfirmed(uint256)": {
        "details": "Returns the confirmation status of a transaction.",
        "params": {
          "transactionId": "Transaction ID."
        },
        "return": "Confirmation status."
      },
      "removeOwner(address)": {
        "details": "Allows to remove an owner. Transaction has to be sent by wallet.",
        "params": {
          "owner": "Address of owner."
        }
      },
      "replaceOwner(address,address)": {
        "details": "Allows to replace an owner with a new owner. Transaction has to be sent by wallet.",
        "params": {
          "newOwner": "Address of new owner.",
          "owner": "Address of owner to be replaced."
        }
      },
      "revokeConfirmation(uint256)": {
        "details": "Allows an owner to revoke a confirmation for a transaction.",
        "params": {
          "transactionId": "Transaction ID."
        }
      },
      "submitTransaction(address,uint256,bytes)": {
        "details": "Allows an owner to submit and confirm a transaction.",
        "params": {
          "data": "Transaction data payload.",
          "destination": "Transaction target address.",
          "value": "Transaction ether value."
        },
        "return": "Returns transaction ID."
      }
    },
    "title": "Multisignature wallet with daily limit - Allows an owner to withdraw a daily limit without multisig."
  },
  "userdoc": {
    "methods": {}
  }
}