{
  "contractName": "Databroker",
  "abi": [
    {
      "inputs": [
        {
          "internalType": "address",
          "name": "uniswap",
          "type": "address"
        },
        {
          "internalType": "address",
          "name": "usdtToken",
          "type": "address"
        },
        {
          "internalType": "address",
          "name": "dtxToken",
          "type": "address"
        },
        {
          "internalType": "address",
          "name": "wyreWalletAddress",
          "type": "address"
        },
        {
          "internalType": "address",
          "name": "dtxStakingAddress",
          "type": "address"
        }
      ],
      "stateMutability": "nonpayable",
      "type": "constructor"
    },
    {
      "anonymous": false,
      "inputs": [
        {
          "indexed": true,
          "internalType": "address",
          "name": "previousOwner",
          "type": "address"
        },
        {
          "indexed": true,
          "internalType": "address",
          "name": "newOwner",
          "type": "address"
        }
      ],
      "name": "OwnershipTransferred",
      "type": "event"
    },
    {
      "anonymous": false,
      "inputs": [
        {
          "indexed": false,
          "internalType": "address",
          "name": "stakingAddress",
          "type": "address"
        },
        {
          "indexed": false,
          "internalType": "uint256",
          "name": "amount",
          "type": "uint256"
        }
      ],
      "name": "StakingTransfer",
      "type": "event"
    },
    {
      "anonymous": false,
      "inputs": [
        {
          "indexed": false,
          "internalType": "address",
          "name": "fromToken",
          "type": "address"
        },
        {
          "indexed": false,
          "internalType": "address",
          "name": "toToken",
          "type": "address"
        },
        {
          "indexed": false,
          "internalType": "uint256",
          "name": "amountIn",
          "type": "uint256"
        },
        {
          "indexed": false,
          "internalType": "uint256",
          "name": "amountOut",
          "type": "uint256"
        },
        {
          "indexed": false,
          "internalType": "address",
          "name": "receiverAddress",
          "type": "address"
        }
      ],
      "name": "SwapTokens",
      "type": "event"
    },
    {
      "inputs": [],
      "name": "owner",
      "outputs": [
        {
          "internalType": "address",
          "name": "",
          "type": "address"
        }
      ],
      "stateMutability": "view",
      "type": "function"
    },
    {
      "inputs": [],
      "name": "renounceOwnership",
      "outputs": [],
      "stateMutability": "nonpayable",
      "type": "function"
    },
    {
      "inputs": [
        {
          "internalType": "address",
          "name": "newOwner",
          "type": "address"
        }
      ],
      "name": "transferOwnership",
      "outputs": [],
      "stateMutability": "nonpayable",
      "type": "function"
    },
    {
      "inputs": [
        {
          "internalType": "uint256",
          "name": "amountIn",
          "type": "uint256"
        },
        {
          "internalType": "uint256",
          "name": "amountOutMin",
          "type": "uint256"
        },
        {
          "internalType": "address[]",
          "name": "path",
          "type": "address[]"
        },
        {
          "internalType": "address",
          "name": "receiverAddress",
          "type": "address"
        },
        {
          "internalType": "uint256",
          "name": "deadline",
          "type": "uint256"
        }
      ],
      "name": "swapTokens",
      "outputs": [
        {
          "internalType": "uint256",
          "name": "",
          "type": "uint256"
        }
      ],
      "stateMutability": "nonpayable",
      "type": "function"
    },
    {
      "inputs": [
        {
          "internalType": "uint256",
          "name": "sellerAmountInDTX",
          "type": "uint256"
        },
        {
          "internalType": "uint256",
          "name": "sellerAmountOutMin",
          "type": "uint256"
        },
        {
          "internalType": "uint256",
          "name": "platformAmountInDTX",
          "type": "uint256"
        },
        {
          "internalType": "address[]",
          "name": "DTXToUSDTPath",
          "type": "address[]"
        },
        {
          "internalType": "uint256",
          "name": "deadline",
          "type": "uint256"
        }
      ],
      "name": "payout",
      "outputs": [],
      "stateMutability": "nonpayable",
      "type": "function"
    },
    {
      "inputs": [
        {
          "internalType": "address",
          "name": "wyreWalletAddress",
          "type": "address"
        }
      ],
      "name": "updateWyreWalletAddress",
      "outputs": [],
      "stateMutability": "nonpayable",
      "type": "function"
    },
    {
      "inputs": [
        {
          "internalType": "address",
          "name": "dtxStakingAddress",
          "type": "address"
        }
      ],
      "name": "updateStakingAddress",
      "outputs": [],
      "stateMutability": "nonpayable",
      "type": "function"
    },
    {
      "inputs": [
        {
          "internalType": "address",
          "name": "toAddress",
          "type": "address"
        },
        {
          "internalType": "uint256",
          "name": "dtxAmount",
          "type": "uint256"
        }
      ],
      "name": "withdrawDTX",
      "outputs": [],
      "stateMutability": "nonpayable",
      "type": "function"
    },
    {
      "inputs": [
        {
          "internalType": "address",
          "name": "toAddress",
          "type": "address"
        },
        {
          "internalType": "uint256",
          "name": "usdtAmount",
          "type": "uint256"
        }
      ],
      "name": "withdrawUSDT",
      "outputs": [],
      "stateMutability": "nonpayable",
      "type": "function"
    },
    {
      "inputs": [],
      "name": "getWyreWalletAddress",
      "outputs": [
        {
          "internalType": "address",
          "name": "",
          "type": "address"
        }
      ],
      "stateMutability": "view",
      "type": "function"
    },
    {
      "inputs": [],
      "name": "getStakingAddress",
      "outputs": [
        {
          "internalType": "address",
          "name": "",
          "type": "address"
        }
      ],
      "stateMutability": "view",
      "type": "function"
    }
  ],
  "bytecode": "0x60806040523480156200001157600080fd5b50604051620012bb380380620012bb833981016040819052620000349162000211565b600062000040620001f0565b600080546001600160a01b0319166001600160a01b0383169081178255604051929350917f8be0079c531659141344cd1fd0a4f28419497f9722a3daafe3b4186f6b6457e0908290a35060055474010000000000000000000000000000000000000000900460ff1615620000eb576040517f08c379a0000000000000000000000000000000000000000000000000000000008152600401620000e290620002dd565b60405180910390fd5b6001600160a01b0382166200012e576040517f08c379a0000000000000000000000000000000000000000000000000000000008152600401620000e29062000280565b6001600160a01b03811662000171576040517f08c379a0000000000000000000000000000000000000000000000000000000008152600401620000e29062000314565b600180546001600160a01b03199081166001600160a01b0397881617909155600280548216958716959095179094556003805485169386169390931790925560048054841691851691909117905560058054740100000000000000000000000000000000000000009316919093161760ff60a01b191617905562000371565b3390565b80516001600160a01b03811681146200020c57600080fd5b919050565b600080600080600060a0868803121562000229578081fd5b6200023486620001f4565b94506200024460208701620001f4565b93506200025460408701620001f4565b92506200026460608701620001f4565b91506200027460808701620001f4565b90509295509295909350565b60208082526028908201527f4461746162726f6b65723a205a65726f206164647265737320666f722077797260408201527f652077616c6c6574000000000000000000000000000000000000000000000000606082015260800190565b6020808252601f908201527f4461746162726f6b65723a20416c726561647920696e697469616c697a656400604082015260600190565b60208082526028908201527f4461746162726f6b65723a205a65726f206164647265737320666f722064747860408201527f207374616b696e67000000000000000000000000000000000000000000000000606082015260800190565b610f3a80620003816000396000f3fe608060405234801561001057600080fd5b50600436106100a95760003560e01c8063715018a611610071578063715018a61461011a5780638da5cb5b14610122578063ad2afdae1461012a578063ba8287101461014a578063bea803ca1461015d578063f2fde38b14610165576100a9565b80630e9ed68b146100ae5780631481794e146100cc578063213b9747146100e1578063434481c3146100f45780635b06a1d114610107575b600080fd5b6100b6610178565b6040516100c39190610c6f565b60405180910390f35b6100df6100da366004610ab7565b6101d2565b005b6100df6100ef366004610ab7565b61029a565b6100df610102366004610a96565b61030b565b6100df610115366004610a96565b610392565b6100df610419565b6100b66104a2565b61013d610138366004610ba8565b6104b1565b6040516100c39190610e27565b6100df610158366004610c0f565b610721565b6100b66108f2565b6100df610173366004610a96565b610943565b6000610182610a03565b6001600160a01b03166101936104a2565b6001600160a01b0316146101c25760405162461bcd60e51b81526004016101b990610daa565b60405180910390fd5b506005546001600160a01b031690565b6101da610a03565b6001600160a01b03166101eb6104a2565b6001600160a01b0316146102115760405162461bcd60e51b81526004016101b990610daa565b60025460405163a9059cbb60e01b81526001600160a01b039091169063a9059cbb906102439085908590600401610cb3565b602060405180830381600087803b15801561025d57600080fd5b505af1158015610271573d6000803e3d6000fd5b505050506040513d601f19601f820116820180604052508101906102959190610b70565b505050565b6102a2610a03565b6001600160a01b03166102b36104a2565b6001600160a01b0316146102d95760405162461bcd60e51b81526004016101b990610daa565b60035460405163a9059cbb60e01b81526001600160a01b039091169063a9059cbb906102439085908590600401610cb3565b610313610a03565b6001600160a01b03166103246104a2565b6001600160a01b03161461034a5760405162461bcd60e51b81526004016101b990610daa565b6001600160a01b0381166103705760405162461bcd60e51b81526004016101b990610d12565b600480546001600160a01b0319166001600160a01b0392909216919091179055565b61039a610a03565b6001600160a01b03166103ab6104a2565b6001600160a01b0316146103d15760405162461bcd60e51b81526004016101b990610daa565b6001600160a01b0381166103f75760405162461bcd60e51b81526004016101b990610ddf565b600580546001600160a01b0319166001600160a01b0392909216919091179055565b610421610a03565b6001600160a01b03166104326104a2565b6001600160a01b0316146104585760405162461bcd60e51b81526004016101b990610daa565b600080546040516001600160a01b03909116907f8be0079c531659141344cd1fd0a4f28419497f9722a3daafe3b4186f6b6457e0908390a3600080546001600160a01b0319169055565b6000546001600160a01b031690565b60006104bb610a03565b6001600160a01b03166104cc6104a2565b6001600160a01b0316146104f25760405162461bcd60e51b81526004016101b990610daa565b8360008151811061051357634e487b7160e01b600052603260045260246000fd5b602090810291909101015160015460405163095ea7b360e01b81526001600160a01b039283169263095ea7b392610551929116908a90600401610cb3565b602060405180830381600087803b15801561056b57600080fd5b505af115801561057f573d6000803e3d6000fd5b505050506040513d601f19601f820116820180604052508101906105a39190610b70565b506001546040516338ed173960e01b81526000916001600160a01b0316906338ed1739906105dd908a908a908a908a908a90600401610e30565b600060405180830381600087803b1580156105f757600080fd5b505af115801561060b573d6000803e3d6000fd5b505050506040513d6000823e601f3d908101601f191682016040526106339190810190610ae0565b90507f38fc53cc38de582c9f58c96a263f05dcec86276e38f7c7adf4f87398b684b8718560008151811061067757634e487b7160e01b600052603260045260246000fd5b6020026020010151866001815181106106a057634e487b7160e01b600052603260045260246000fd5b602002602001015189846001815181106106ca57634e487b7160e01b600052603260045260246000fd5b6020026020010151886040516106e4959493929190610c83565b60405180910390a18060018151811061070d57634e487b7160e01b600052603260045260246000fd5b602002602001015191505095945050505050565b610729610a03565b6001600160a01b031661073a6104a2565b6001600160a01b0316146107605760405162461bcd60e51b81526004016101b990610daa565b6003546040516370a0823160e01b815284916001600160a01b0316906370a0823190610790903090600401610c6f565b60206040518083038186803b1580156107a857600080fd5b505afa1580156107bc573d6000803e3d6000fd5b505050506040513d601f19601f820116820180604052508101906107e09190610b90565b10156107fe5760405162461bcd60e51b81526004016101b990610d5a565b60045461081a908690869085906001600160a01b0316856104b1565b5060035460055460405163a9059cbb60e01b81526001600160a01b039283169263a9059cbb92610851929116908790600401610cb3565b602060405180830381600087803b15801561086b57600080fd5b505af115801561087f573d6000803e3d6000fd5b505050506040513d601f19601f820116820180604052508101906108a39190610b70565b506005546040517f4430f24de8ae42208fd20a02baa3764c4e6fce3a586ec3c5be0e429202031f8f916108e3916001600160a01b03909116908690610cb3565b60405180910390a15050505050565b60006108fc610a03565b6001600160a01b031661090d6104a2565b6001600160a01b0316146109335760405162461bcd60e51b81526004016101b990610daa565b506004546001600160a01b031690565b61094b610a03565b6001600160a01b031661095c6104a2565b6001600160a01b0316146109825760405162461bcd60e51b81526004016101b990610daa565b6001600160a01b0381166109a85760405162461bcd60e51b81526004016101b990610ccc565b600080546040516001600160a01b03808516939216917f8be0079c531659141344cd1fd0a4f28419497f9722a3daafe3b4186f6b6457e091a3600080546001600160a01b0319166001600160a01b0392909216919091179055565b3390565b80356001600160a01b0381168114610a1e57600080fd5b919050565b600082601f830112610a33578081fd5b81356020610a48610a4383610eca565b610ea0565b8281528181019085830183850287018401881015610a64578586fd5b855b85811015610a8957610a7782610a07565b84529284019290840190600101610a66565b5090979650505050505050565b600060208284031215610aa7578081fd5b610ab082610a07565b9392505050565b60008060408385031215610ac9578081fd5b610ad283610a07565b946020939093013593505050565b60006020808385031215610af2578182fd5b825167ffffffffffffffff811115610b08578283fd5b8301601f81018513610b18578283fd5b8051610b26610a4382610eca565b8181528381019083850185840285018601891015610b42578687fd5b8694505b83851015610b64578051835260019490940193918501918501610b46565b50979650505050505050565b600060208284031215610b81578081fd5b81518015158114610ab0578182fd5b600060208284031215610ba1578081fd5b5051919050565b600080600080600060a08688031215610bbf578081fd5b8535945060208601359350604086013567ffffffffffffffff811115610be3578182fd5b610bef88828901610a23565b935050610bfe60608701610a07565b949793965091946080013592915050565b600080600080600060a08688031215610c26578081fd5b853594506020860135935060408601359250606086013567ffffffffffffffff811115610c51578182fd5b610c5d88828901610a23565b95989497509295608001359392505050565b6001600160a01b0391909116815260200190565b6001600160a01b039586168152938516602085015260408401929092526060830152909116608082015260a00190565b6001600160a01b03929092168252602082015260400190565b60208082526026908201527f4f776e61626c653a206e6577206f776e657220697320746865207a65726f206160408201526564647265737360d01b606082015260800190565b60208082526028908201527f4461746162726f6b65723a205a65726f206164647265737320666f722077797260408201526719481dd85b1b195d60c21b606082015260800190565b60208082526030908201527f4461746162726f6b65723a20496e73756666696369656e74204454582062616c60408201526f185b98d9481bd98818dbdb9d1c9858dd60821b606082015260800190565b6020808252818101527f4f776e61626c653a2063616c6c6572206973206e6f7420746865206f776e6572604082015260600190565b60208082526028908201527f4461746162726f6b65723a205a65726f206164647265737320666f7220647478604082015267207374616b696e6760c01b606082015260800190565b90815260200190565b600060a082018783526020878185015260a0604085015281875180845260c0860191508289019350845b81811015610e7f5784516001600160a01b031683529383019391830191600101610e5a565b50506001600160a01b03969096166060850152505050608001529392505050565b60405181810167ffffffffffffffff81118282101715610ec257610ec2610eee565b604052919050565b600067ffffffffffffffff821115610ee457610ee4610eee565b5060209081020190565b634e487b7160e01b600052604160045260246000fdfea26469706673582212204283ffc327c0d463a9347c8ef73aef831ac2de6f9b93666d2abc985b07b6052764736f6c63430008000033",
  "immutableReferences": {},
  "source": "// SPDX-License-Identifier: UNLICENSED\n/**\n * Copyright (C) SettleMint NV - All Rights Reserved\n *\n * Use of this file is strictly prohibited without an active license agreement.\n * Distribution of this file, via any medium, is strictly prohibited.\n *\n * For license inquiries, contact hello@settlemint.com\n */\n\npragma solidity ^0.8.0;\n\nimport \"@openzeppelin/contracts/token/ERC20/IERC20.sol\";\nimport \"./interfaces/IUniswap.sol\";\nimport \"@openzeppelin/contracts/access/Ownable.sol\";\n\ncontract Databroker is Ownable {\n  IUniswap internal _uniswap;\n  IERC20 internal _usdtToken;\n  IERC20 internal _dtxToken;\n\n  address private _wyreWalletAddress;\n  address private _dtxStakingAddress;\n  bool private _initialized;\n\n  event SwapTokens(\n    address fromToken,\n    address toToken,\n    uint256 amountIn,\n    uint256 amountOut,\n    address receiverAddress\n  );\n  event StakingTransfer(address stakingAddress, uint256 amount);\n\n  constructor(\n    address uniswap,\n    address usdtToken,\n    address dtxToken,\n    address wyreWalletAddress,\n    address dtxStakingAddress\n  ) {\n    require(!_initialized, \"Databroker: Already initialized\");\n\n    require(\n      wyreWalletAddress != address(0),\n      \"Databroker: Zero address for wyre wallet\"\n    );\n    require(\n      dtxStakingAddress != address(0),\n      \"Databroker: Zero address for dtx staking\"\n    );\n\n    _uniswap = IUniswap(uniswap);\n    _usdtToken = IERC20(usdtToken);\n    _dtxToken = IERC20(dtxToken);\n    _wyreWalletAddress = wyreWalletAddress;\n    _dtxStakingAddress = dtxStakingAddress;\n    _initialized = true;\n  }\n\n  function swapTokens(\n    uint256 amountIn,\n    uint256 amountOutMin,\n    address[] memory path,\n    address receiverAddress,\n    uint256 deadline\n  ) public onlyOwner returns (uint256) {\n    // Give approval for the uniswap to swap the USDT token from this contract address\n    IERC20(path[0]).approve(address(_uniswap), amountIn);\n\n    uint256[] memory amounts =\n      _uniswap.swapExactTokensForTokens(\n        amountIn,\n        amountOutMin,\n        path,\n        receiverAddress,\n        deadline\n      );\n\n    emit SwapTokens(path[0], path[1], amountIn, amounts[1], receiverAddress);\n\n    return amounts[1];\n  }\n\n  function payout(\n    uint256 sellerAmountInDTX,\n    uint256 sellerAmountOutMin,\n    uint256 platformAmountInDTX,\n    address[] memory DTXToUSDTPath,\n    uint256 deadline\n  ) public onlyOwner {\n    require(\n      _dtxToken.balanceOf(address(this)) >= platformAmountInDTX,\n      \"Databroker: Insufficient DTX balance of contract\"\n    );\n\n    // Seller USDT to wyre wallet address\n    swapTokens(\n      sellerAmountInDTX,\n      sellerAmountOutMin,\n      DTXToUSDTPath,\n      _wyreWalletAddress,\n      deadline\n    );\n\n    // Platform commission in DTX to staking contract\n    _dtxToken.transfer(_dtxStakingAddress, platformAmountInDTX);\n\n    emit StakingTransfer(_dtxStakingAddress, platformAmountInDTX);\n  }\n\n  function updateWyreWalletAddress(address wyreWalletAddress) public onlyOwner {\n    require(\n      wyreWalletAddress != address(0),\n      \"Databroker: Zero address for wyre wallet\"\n    );\n    _wyreWalletAddress = wyreWalletAddress;\n  }\n\n  function updateStakingAddress(address dtxStakingAddress) public onlyOwner {\n    require(\n      dtxStakingAddress != address(0),\n      \"Databroker: Zero address for dtx staking\"\n    );\n    _dtxStakingAddress = dtxStakingAddress;\n  }\n\n  function withdrawDTX(address toAddress, uint256 dtxAmount) public onlyOwner {\n    _dtxToken.transfer(toAddress, dtxAmount);\n  }\n\n  function withdrawUSDT(address toAddress, uint256 usdtAmount)\n    public\n    onlyOwner\n  {\n    _usdtToken.transfer(toAddress, usdtAmount);\n  }\n\n  function getWyreWalletAddress() public view onlyOwner returns (address) {\n    return _wyreWalletAddress;\n  }\n\n  function getStakingAddress() public view onlyOwner returns (address) {\n    return _dtxStakingAddress;\n  }\n}\n",
  "sourcePath": "/Users/Viktor/Documents/Databroker/dxc/truffle-mainnet/contracts/Databroker.sol",
  "compiler": {
    "name": "solc",
    "version": "0.8.0+commit.c7dfd78e.Emscripten.clang"
  },
  "schemaVersion": "3.3.4",
  "updatedAt": "2021-06-21T08:05:32.280Z",
  "devdoc": {
    "kind": "dev",
    "methods": {
      "owner()": {
        "details": "Returns the address of the current owner."
      },
      "renounceOwnership()": {
        "details": "Leaves the contract without owner. It will not be possible to call `onlyOwner` functions anymore. Can only be called by the current owner. NOTE: Renouncing ownership will leave the contract without an owner, thereby removing any functionality that is only available to the owner."
      },
      "transferOwnership(address)": {
        "details": "Transfers ownership of the contract to a new account (`newOwner`). Can only be called by the current owner."
      }
    },
    "version": 1
  },
  "userdoc": {
    "kind": "user",
    "methods": {},
    "version": 1
  }
}