{
  "contractName": "Staking",
  "abi": [
    {
      "inputs": [
        {
          "internalType": "address",
          "name": "_owner",
          "type": "address"
        },
        {
          "internalType": "uint256",
          "name": "_supply",
          "type": "uint256"
        },
        {
          "internalType": "address",
          "name": "_dtxToken",
          "type": "address"
        }
      ],
      "stateMutability": "payable",
      "type": "constructor"
    },
    {
      "anonymous": false,
      "inputs": [
        {
          "indexed": true,
          "internalType": "address",
          "name": "owner",
          "type": "address"
        },
        {
          "indexed": true,
          "internalType": "address",
          "name": "spender",
          "type": "address"
        },
        {
          "indexed": false,
          "internalType": "uint256",
          "name": "value",
          "type": "uint256"
        }
      ],
      "name": "Approval",
      "type": "event"
    },
    {
      "anonymous": false,
      "inputs": [
        {
          "indexed": true,
          "internalType": "address",
          "name": "previousOwner",
          "type": "address"
        },
        {
          "indexed": true,
          "internalType": "address",
          "name": "newOwner",
          "type": "address"
        }
      ],
      "name": "OwnershipTransferred",
      "type": "event"
    },
    {
      "anonymous": false,
      "inputs": [
        {
          "indexed": true,
          "internalType": "address",
          "name": "from",
          "type": "address"
        },
        {
          "indexed": true,
          "internalType": "address",
          "name": "to",
          "type": "address"
        },
        {
          "indexed": false,
          "internalType": "uint256",
          "name": "value",
          "type": "uint256"
        }
      ],
      "name": "Transfer",
      "type": "event"
    },
    {
      "inputs": [
        {
          "internalType": "address",
          "name": "owner",
          "type": "address"
        },
        {
          "internalType": "address",
          "name": "spender",
          "type": "address"
        }
      ],
      "name": "allowance",
      "outputs": [
        {
          "internalType": "uint256",
          "name": "",
          "type": "uint256"
        }
      ],
      "stateMutability": "view",
      "type": "function"
    },
    {
      "inputs": [
        {
          "internalType": "address",
          "name": "spender",
          "type": "address"
        },
        {
          "internalType": "uint256",
          "name": "amount",
          "type": "uint256"
        }
      ],
      "name": "approve",
      "outputs": [
        {
          "internalType": "bool",
          "name": "",
          "type": "bool"
        }
      ],
      "stateMutability": "nonpayable",
      "type": "function"
    },
    {
      "inputs": [
        {
          "internalType": "address",
          "name": "account",
          "type": "address"
        }
      ],
      "name": "balanceOf",
      "outputs": [
        {
          "internalType": "uint256",
          "name": "",
          "type": "uint256"
        }
      ],
      "stateMutability": "view",
      "type": "function"
    },
    {
      "inputs": [],
      "name": "decimals",
      "outputs": [
        {
          "internalType": "uint8",
          "name": "",
          "type": "uint8"
        }
      ],
      "stateMutability": "view",
      "type": "function"
    },
    {
      "inputs": [
        {
          "internalType": "address",
          "name": "spender",
          "type": "address"
        },
        {
          "internalType": "uint256",
          "name": "subtractedValue",
          "type": "uint256"
        }
      ],
      "name": "decreaseAllowance",
      "outputs": [
        {
          "internalType": "bool",
          "name": "",
          "type": "bool"
        }
      ],
      "stateMutability": "nonpayable",
      "type": "function"
    },
    {
      "inputs": [
        {
          "internalType": "address",
          "name": "spender",
          "type": "address"
        },
        {
          "internalType": "uint256",
          "name": "addedValue",
          "type": "uint256"
        }
      ],
      "name": "increaseAllowance",
      "outputs": [
        {
          "internalType": "bool",
          "name": "",
          "type": "bool"
        }
      ],
      "stateMutability": "nonpayable",
      "type": "function"
    },
    {
      "inputs": [],
      "name": "name",
      "outputs": [
        {
          "internalType": "string",
          "name": "",
          "type": "string"
        }
      ],
      "stateMutability": "view",
      "type": "function"
    },
    {
      "inputs": [],
      "name": "owner",
      "outputs": [
        {
          "internalType": "address",
          "name": "",
          "type": "address"
        }
      ],
      "stateMutability": "view",
      "type": "function"
    },
    {
      "inputs": [],
      "name": "renounceOwnership",
      "outputs": [],
      "stateMutability": "nonpayable",
      "type": "function"
    },
    {
      "inputs": [
        {
          "internalType": "uint256",
          "name": "",
          "type": "uint256"
        }
      ],
      "name": "stakeholders",
      "outputs": [
        {
          "internalType": "address",
          "name": "",
          "type": "address"
        }
      ],
      "stateMutability": "view",
      "type": "function"
    },
    {
      "inputs": [],
      "name": "symbol",
      "outputs": [
        {
          "internalType": "string",
          "name": "",
          "type": "string"
        }
      ],
      "stateMutability": "view",
      "type": "function"
    },
    {
      "inputs": [],
      "name": "totalSupply",
      "outputs": [
        {
          "internalType": "uint256",
          "name": "",
          "type": "uint256"
        }
      ],
      "stateMutability": "view",
      "type": "function"
    },
    {
      "inputs": [
        {
          "internalType": "address",
          "name": "recipient",
          "type": "address"
        },
        {
          "internalType": "uint256",
          "name": "amount",
          "type": "uint256"
        }
      ],
      "name": "transfer",
      "outputs": [
        {
          "internalType": "bool",
          "name": "",
          "type": "bool"
        }
      ],
      "stateMutability": "nonpayable",
      "type": "function"
    },
    {
      "inputs": [
        {
          "internalType": "address",
          "name": "sender",
          "type": "address"
        },
        {
          "internalType": "address",
          "name": "recipient",
          "type": "address"
        },
        {
          "internalType": "uint256",
          "name": "amount",
          "type": "uint256"
        }
      ],
      "name": "transferFrom",
      "outputs": [
        {
          "internalType": "bool",
          "name": "",
          "type": "bool"
        }
      ],
      "stateMutability": "nonpayable",
      "type": "function"
    },
    {
      "inputs": [
        {
          "internalType": "address",
          "name": "newOwner",
          "type": "address"
        }
      ],
      "name": "transferOwnership",
      "outputs": [],
      "stateMutability": "nonpayable",
      "type": "function"
    },
    {
      "inputs": [
        {
          "internalType": "address",
          "name": "_address",
          "type": "address"
        }
      ],
      "name": "isStakeholder",
      "outputs": [
        {
          "internalType": "bool",
          "name": "",
          "type": "bool"
        },
        {
          "internalType": "uint256",
          "name": "",
          "type": "uint256"
        }
      ],
      "stateMutability": "view",
      "type": "function"
    },
    {
      "inputs": [
        {
          "internalType": "address",
          "name": "_stakeholder",
          "type": "address"
        }
      ],
      "name": "stakeOf",
      "outputs": [
        {
          "internalType": "uint256",
          "name": "",
          "type": "uint256"
        }
      ],
      "stateMutability": "view",
      "type": "function"
    },
    {
      "inputs": [],
      "name": "getTotalStakes",
      "outputs": [
        {
          "internalType": "uint256",
          "name": "",
          "type": "uint256"
        }
      ],
      "stateMutability": "view",
      "type": "function"
    },
    {
      "inputs": [],
      "name": "getTimestamp",
      "outputs": [
        {
          "internalType": "uint256",
          "name": "",
          "type": "uint256"
        }
      ],
      "stateMutability": "view",
      "type": "function"
    },
    {
      "inputs": [
        {
          "internalType": "uint256",
          "name": "currentTimestamp",
          "type": "uint256"
        }
      ],
      "name": "totalTime",
      "outputs": [
        {
          "internalType": "uint256",
          "name": "",
          "type": "uint256"
        }
      ],
      "stateMutability": "view",
      "type": "function"
    },
    {
      "inputs": [
        {
          "internalType": "address",
          "name": "stakeholder",
          "type": "address"
        }
      ],
      "name": "getTime",
      "outputs": [
        {
          "internalType": "uint256",
          "name": "",
          "type": "uint256"
        }
      ],
      "stateMutability": "view",
      "type": "function"
    },
    {
      "inputs": [
        {
          "internalType": "address",
          "name": "stakeholder",
          "type": "address"
        },
        {
          "internalType": "uint256",
          "name": "_stake",
          "type": "uint256"
        }
      ],
      "name": "createStake",
      "outputs": [],
      "stateMutability": "nonpayable",
      "type": "function"
    },
    {
      "inputs": [
        {
          "internalType": "uint256",
          "name": "_stake",
          "type": "uint256"
        }
      ],
      "name": "removeStake",
      "outputs": [],
      "stateMutability": "nonpayable",
      "type": "function"
    },
    {
      "inputs": [
        {
          "internalType": "address",
          "name": "_stakeholder",
          "type": "address"
        }
      ],
      "name": "rewardOf",
      "outputs": [
        {
          "internalType": "uint256",
          "name": "",
          "type": "uint256"
        }
      ],
      "stateMutability": "view",
      "type": "function"
    },
    {
      "inputs": [],
      "name": "totalRewards",
      "outputs": [
        {
          "internalType": "uint256",
          "name": "",
          "type": "uint256"
        }
      ],
      "stateMutability": "view",
      "type": "function"
    },
    {
      "inputs": [],
      "name": "monthlyReward",
      "outputs": [
        {
          "internalType": "uint256",
          "name": "",
          "type": "uint256"
        }
      ],
      "stateMutability": "view",
      "type": "function"
    },
    {
      "inputs": [
        {
          "internalType": "uint256",
          "name": "currentTime",
          "type": "uint256"
        },
        {
          "internalType": "uint256",
          "name": "totalTime",
          "type": "uint256"
        }
      ],
      "name": "distributeRewards",
      "outputs": [],
      "stateMutability": "nonpayable",
      "type": "function"
    },
    {
      "inputs": [],
      "name": "withdrawAllReward",
      "outputs": [],
      "stateMutability": "nonpayable",
      "type": "function"
    },
    {
      "inputs": [],
      "name": "withdrawReward",
      "outputs": [],
      "stateMutability": "nonpayable",
      "type": "function"
    }
  ],
  "bytecode": "0x6080604052604051620022b1380380620022b183398101604081905262000026916200030c565b604080518082018252600a81527f4454585374616b696e670000000000000000000000000000000000000000000060208083019182528351808501909452600484527f4454585300000000000000000000000000000000000000000000000000000000908401528151919291620000a09160039162000249565b508051620000b690600490602084019062000249565b5050506000620000cb6200015260201b60201c565b600580546001600160a01b0319166001600160a01b038316908117909155604051919250906000907f8be0079c531659141344cd1fd0a4f28419497f9722a3daafe3b4186f6b6457e0908290a35062000125308362000156565b600680546001600160a01b0319166001600160a01b03929092169190911790555050600060085562000420565b3390565b6001600160a01b038216620001a2576040517f08c379a000000000000000000000000000000000000000000000000000000000815260040162000199906200034c565b60405180910390fd5b620001b06000838362000244565b8060026000828254620001c491906200038c565b90915550506001600160a01b03821660009081526020819052604081208054839290620001f39084906200038c565b90915550506040516001600160a01b038316906000907fddf252ad1be2c89b69c2b068fc378daa952ba7f163c4a11628f55a4df523b3ef906200023890859062000383565b60405180910390a35050565b505050565b8280546200025790620003ca565b90600052602060002090601f0160209004810192826200027b5760008555620002c6565b82601f106200029657805160ff1916838001178555620002c6565b82800160010185558215620002c6579182015b82811115620002c6578251825591602001919060010190620002a9565b50620002d4929150620002d8565b5090565b5b80821115620002d45760008155600101620002d9565b80516001600160a01b03811681146200030757600080fd5b919050565b60008060006060848603121562000321578283fd5b6200032c84620002ef565b9250602084015191506200034360408501620002ef565b90509250925092565b6020808252601f908201527f45524332303a206d696e7420746f20746865207a65726f206164647265737300604082015260600190565b90815260200190565b60008219821115620003c5577f4e487b710000000000000000000000000000000000000000000000000000000081526011600452602481fd5b500190565b600281046001821680620003df57607f821691505b602082108114156200041a577f4e487b7100000000000000000000000000000000000000000000000000000000600052602260045260246000fd5b50919050565b611e8180620004306000396000f3fe608060405234801561001057600080fd5b50600436106101cf5760003560e01c80636b37fbaa11610104578063a457c2d7116100a2578063dd62ed3e11610071578063dd62ed3e14610377578063df6c39fb1461038a578063ef037b901461039d578063f2fde38b146103be576101cf565b8063a457c2d714610336578063a9059cbb14610349578063c885bc581461035c578063d86f5a6b14610364576101cf565b80638da5cb5b116100de5780638da5cb5b14610300578063929fc22d14610308578063939624ab1461031b57806395d89b411461032e576101cf565b80636b37fbaa146102db57806370a08231146102e5578063715018a6146102f8576101cf565b806323b872dd11610171578063426233601161014b57806342623360146102a55780634b70cec4146102b857806355c71304146102cb57806368c33627146102d3576101cf565b806323b872dd1461026a578063313ce5671461027d5780633950935114610292576101cf565b806318160ddd116101ad57806318160ddd14610227578063188ec3561461022f5780631d62ebd9146102375780631d6b8b721461024a576101cf565b806306fdde03146101d4578063095ea7b3146101f25780630e15561a14610212575b600080fd5b6101dc6103d1565b6040516101e99190611918565b60405180910390f35b610205610200366004611812565b610463565b6040516101e991906118fd565b61021a610480565b6040516101e99190611d75565b61021a6104fd565b61021a610503565b61021a61024536600461178b565b610507565b61025d61025836600461185b565b610526565b6040516101e991906118ac565b6102056102783660046117d7565b610550565b6102856105f0565b6040516101e99190611d7e565b6102056102a0366004611812565b6105f5565b61021a6102b336600461178b565b610644565b61021a6102c636600461178b565b61065f565b61021a61067a565b61021a6107cd565b6102e36107d3565b005b61021a6102f336600461178b565b610944565b6102e361095f565b61025d6109e8565b61021a61031636600461185b565b6109f7565b6102e361032936600461185b565b610a7f565b6101dc610c05565b610205610344366004611812565b610c14565b610205610357366004611812565b610c8f565b6102e3610ca3565b6102e3610372366004611812565b610d85565b61021a6103853660046117a5565b610f4f565b6102e361039836600461188b565b610f7a565b6103b06103ab36600461178b565b611093565b6040516101e9929190611908565b6102e36103cc36600461178b565b61110e565b6060600380546103e090611dfa565b80601f016020809104026020016040519081016040528092919081815260200182805461040c90611dfa565b80156104595780601f1061042e57610100808354040283529160200191610459565b820191906000526020600020905b81548152906001019060200180831161043c57829003601f168201915b5050505050905090565b60006104776104706111cf565b84846111d3565b50600192915050565b600080805b6007548110156104f7576104e360096000600784815481106104b757634e487b7160e01b600052603260045260246000fd5b60009182526020808320909101546001600160a01b031683528201929092526040019020548390611287565b91506104f0600182611d8c565b9050610485565b50905090565b60025490565b4290565b6001600160a01b0381166000908152600960205260409020545b919050565b6007818154811061053657600080fd5b6000918252602090912001546001600160a01b0316905081565b600061055d84848461129a565b6001600160a01b03841660009081526001602052604081208161057e6111cf565b6001600160a01b03166001600160a01b03168152602001908152602001600020549050828110156105ca5760405162461bcd60e51b81526004016105c190611b56565b60405180910390fd5b6105e5856105d66111cf565b6105e08685611de3565b6111d3565b506001949350505050565b601290565b60006104776106026111cf565b8484600160006106106111cf565b6001600160a01b03908116825260208083019390935260409182016000908120918b16815292529020546105e09190611d8c565b6001600160a01b03166000908152600a602052604090205490565b6001600160a01b03166000908152600b602052604090205490565b6000610690610687610480565b60085490611287565b6006546040516370a0823160e01b81526001600160a01b03909116906370a08231906106c09030906004016118ac565b60206040518083038186803b1580156106d857600080fd5b505afa1580156106ec573d6000803e3d6000fd5b505050506040513d601f19601f820116820180604052508101906107109190611873565b101561072e5760405162461bcd60e51b81526004016105c190611af3565b60006107c761073b610480565b6008546006546040516370a0823160e01b81526107c192916001600160a01b0316906370a08231906107719030906004016118ac565b60206040518083038186803b15801561078957600080fd5b505afa15801561079d573d6000803e3d6000fd5b505050506040513d601f19601f820116820180604052508101906107c19190611873565b906113c2565b91505090565b60085490565b6107db6111cf565b6001600160a01b03166107ec6109e8565b6001600160a01b0316146108125760405162461bcd60e51b81526004016105c190611b9e565b60005b6007548110156109415760006007828154811061084257634e487b7160e01b600052603260045260246000fd5b60009182526020808320909101546001600160a01b039081168084526009909252604080842054600654915163a9059cbb60e01b8152939550939291169063a9059cbb9061089690869086906004016118e4565b602060405180830381600087803b1580156108b057600080fd5b505af11580156108c4573d6000803e3d6000fd5b505050506040513d601f19601f820116820180604052508101906108e8919061183b565b9050806109075760405162461bcd60e51b81526004016105c190611ccc565b6001600160a01b03831660009081526009602052604081205561092a30836113ce565b50505060018161093a9190611d8c565b9050610815565b50565b6001600160a01b031660009081526020819052604090205490565b6109676111cf565b6001600160a01b03166109786109e8565b6001600160a01b03161461099e5760405162461bcd60e51b81526004016105c190611b9e565b6005546040516000916001600160a01b0316907f8be0079c531659141344cd1fd0a4f28419497f9722a3daafe3b4186f6b6457e0908390a3600580546001600160a01b0319169055565b6005546001600160a01b031690565b600080805b600754811015610a7857610a64610a5d600b600060078581548110610a3157634e487b7160e01b600052603260045260246000fd5b60009182526020808320909101546001600160a01b0316835282019290925260400190205486906113c2565b8390611287565b9150610a71600182611d8c565b90506109fc565b5092915050565b336000908152600a6020526040902054811115610aae5760405162461bcd60e51b81526004016105c190611b2a565b60065460405163a9059cbb60e01b81526000916001600160a01b03169063a9059cbb90610ae190339086906004016118e4565b602060405180830381600087803b158015610afb57600080fd5b505af1158015610b0f573d6000803e3d6000fd5b505050506040513d601f19601f82011682018060405250810190610b33919061183b565b905080610b525760405162461bcd60e51b81526004016105c190611ccc565b336000908152600a6020526040902054610b6c90836113c2565b336000908152600a6020526040902055600854610b8990836113c2565b600855336000908152600a6020526040902054610bbe57610ba93361148e565b336000908152600b6020526040812055610bf7565b336000908152600b6020526040902054610be690600290610be0904290611d8c565b90611580565b336000908152600b60205260409020555b610c0130836113ce565b5050565b6060600480546103e090611dfa565b60008060016000610c236111cf565b6001600160a01b0390811682526020808301939093526040918201600090812091881681529252902054905082811015610c6f5760405162461bcd60e51b81526004016105c190611cf9565b610c85610c7a6111cf565b856105e08685611de3565b5060019392505050565b6000610477610c9c6111cf565b848461129a565b3360009081526009602052604090205480610cd05760405162461bcd60e51b81526004016105c190611c59565b33600081815260096020526040808220829055600654905163a9059cbb60e01b815291926001600160a01b039091169163a9059cbb91610d149186906004016118e4565b602060405180830381600087803b158015610d2e57600080fd5b505af1158015610d42573d6000803e3d6000fd5b505050506040513d601f19601f82011682018060405250810190610d66919061183b565b905080610bf75760405162461bcd60e51b81526004016105c190611ccc565b6006546040516323b872dd60e01b81526000916001600160a01b0316906323b872dd90610dba908690309087906004016118c0565b602060405180830381600087803b158015610dd457600080fd5b505af1158015610de8573d6000803e3d6000fd5b505050506040513d601f19601f82011682018060405250810190610e0c919061183b565b905080610e2b5760405162461bcd60e51b81526004016105c190611ccc565b610e35308361158c565b6001600160a01b0383166000908152600a6020526040902054610e5b57610e5b83611672565b6001600160a01b0383166000908152600a6020526040902054610e7e9083611287565b6001600160a01b0384166000908152600a6020526040902055600854610ea49083611287565b6008556001600160a01b0383166000908152600b6020526040902054610f05576001600160a01b0383166000908152600b6020526040902054610ee79042611287565b6001600160a01b0384166000908152600b6020526040902055610f4a565b6001600160a01b0383166000908152600b6020526040902054610f3090600290610be0904290611d8c565b6001600160a01b0384166000908152600b60205260409020555b505050565b6001600160a01b03918216600090815260016020908152604080832093909416825291909152205490565b610f826111cf565b6001600160a01b0316610f936109e8565b6001600160a01b031614610fb95760405162461bcd60e51b81526004016105c190611b9e565b6000610fc361067a565b905060008111610fe55760405162461bcd60e51b81526004016105c190611abe565b60005b60075481101561108d5760006007828154811061101557634e487b7160e01b600052603260045260246000fd5b60009182526020822001546001600160a01b03169150611037828588886116d6565b6001600160a01b03831660009081526009602052604090205490915061105d9082611287565b6001600160a01b0390921660009081526009602052604090209190915550611086600182611d8c565b9050610fe8565b50505050565b60008060005b60075481101561110057600781815481106110c457634e487b7160e01b600052603260045260246000fd5b6000918252602090912001546001600160a01b03858116911614156110ee57600192509050611109565b6110f9600182611d8c565b9050611099565b50600080915091505b915091565b6111166111cf565b6001600160a01b03166111276109e8565b6001600160a01b03161461114d5760405162461bcd60e51b81526004016105c190611b9e565b6001600160a01b0381166111735760405162461bcd60e51b81526004016105c1906119f0565b6005546040516001600160a01b038084169216907f8be0079c531659141344cd1fd0a4f28419497f9722a3daafe3b4186f6b6457e090600090a3600580546001600160a01b0319166001600160a01b0392909216919091179055565b3390565b6001600160a01b0383166111f95760405162461bcd60e51b81526004016105c190611c88565b6001600160a01b03821661121f5760405162461bcd60e51b81526004016105c190611a36565b6001600160a01b0380841660008181526001602090815260408083209487168084529490915290819020849055517f8c5be1e5ebec7d5bd14f71427d1e84f3dd0314c0f7b2291e5b200ac8c7c3b9259061127a908590611d75565b60405180910390a3505050565b60006112938284611d8c565b9392505050565b6001600160a01b0383166112c05760405162461bcd60e51b81526004016105c190611c14565b6001600160a01b0382166112e65760405162461bcd60e51b81526004016105c19061196b565b6112f1838383610f4a565b6001600160a01b0383166000908152602081905260409020548181101561132a5760405162461bcd60e51b81526004016105c190611a78565b6113348282611de3565b6001600160a01b03808616600090815260208190526040808220939093559085168152908120805484929061136a908490611d8c565b92505081905550826001600160a01b0316846001600160a01b03167fddf252ad1be2c89b69c2b068fc378daa952ba7f163c4a11628f55a4df523b3ef846040516113b49190611d75565b60405180910390a350505050565b60006112938284611de3565b6001600160a01b0382166113f45760405162461bcd60e51b81526004016105c190611d3e565b61140060008383610f4a565b80600260008282546114129190611d8c565b90915550506001600160a01b0382166000908152602081905260408120805483929061143f908490611d8c565b90915550506040516001600160a01b038316906000907fddf252ad1be2c89b69c2b068fc378daa952ba7f163c4a11628f55a4df523b3ef90611482908590611d75565b60405180910390a35050565b60008061149a83611093565b915091508115610f4a57600780546114b490600190611de3565b815481106114d257634e487b7160e01b600052603260045260246000fd5b600091825260209091200154600780546001600160a01b03909216918390811061150c57634e487b7160e01b600052603260045260246000fd5b9060005260206000200160006101000a8154816001600160a01b0302191690836001600160a01b03160217905550600780548061155957634e487b7160e01b600052603160045260246000fd5b600082815260209020810160001990810180546001600160a01b0319169055019055505050565b60006112938284611da4565b6001600160a01b0382166115b25760405162461bcd60e51b81526004016105c190611bd3565b6115be82600083610f4a565b6001600160a01b038216600090815260208190526040902054818110156115f75760405162461bcd60e51b81526004016105c1906119ae565b6116018282611de3565b6001600160a01b0384166000908152602081905260408120919091556002805484929061162f908490611de3565b90915550506040516000906001600160a01b038516907fddf252ad1be2c89b69c2b068fc378daa952ba7f163c4a11628f55a4df523b3ef9061127a908690611d75565b600061167d82611093565b50905080610c0157600780546001810182556000919091527fa66cc928b5edb82af9bd49922954155ab7b0942694bea4ce44661d9a8736c6880180546001600160a01b0384166001600160a01b03199091161790555050565b6000806116f3600854610be060646116ed8a610644565b90611768565b6001600160a01b0387166000908152600b602052604081205491925090611728908590610be0906064906116ed908a906113c2565b905060006117368784611768565b905060006117448884611768565b9050600061175a6064610be06002818688611d8c565b9a9950505050505050505050565b60006112938284611dc4565b80356001600160a01b038116811461052157600080fd5b60006020828403121561179c578081fd5b61129382611774565b600080604083850312156117b7578081fd5b6117c083611774565b91506117ce60208401611774565b90509250929050565b6000806000606084860312156117eb578081fd5b6117f484611774565b925061180260208501611774565b9150604084013590509250925092565b60008060408385031215611824578182fd5b61182d83611774565b946020939093013593505050565b60006020828403121561184c578081fd5b81518015158114611293578182fd5b60006020828403121561186c578081fd5b5035919050565b600060208284031215611884578081fd5b5051919050565b6000806040838503121561189d578182fd5b50508035926020909101359150565b6001600160a01b0391909116815260200190565b6001600160a01b039384168152919092166020820152604081019190915260600190565b6001600160a01b03929092168252602082015260400190565b901515815260200190565b9115158252602082015260400190565b6000602080835283518082850152825b8181101561194457858101830151858201604001528201611928565b818111156119555783604083870101525b50601f01601f1916929092016040019392505050565b60208082526023908201527f45524332303a207472616e7366657220746f20746865207a65726f206164647260408201526265737360e81b606082015260800190565b60208082526022908201527f45524332303a206275726e20616d6f756e7420657863656564732062616c616e604082015261636560f01b606082015260800190565b60208082526026908201527f4f776e61626c653a206e6577206f776e657220697320746865207a65726f206160408201526564647265737360d01b606082015260800190565b60208082526022908201527f45524332303a20617070726f766520746f20746865207a65726f206164647265604082015261737360f01b606082015260800190565b60208082526026908201527f45524332303a207472616e7366657220616d6f756e7420657863656564732062604082015265616c616e636560d01b606082015260800190565b6020808252818101527f4e6f7420656e6f756768207265776172647320746f2064697374726962757465604082015260600190565b6020808252601d908201527f5265776172647320617265206e6f7420617661696c61626c6520796574000000604082015260600190565b6020808252601290820152714e6f7420656e6f756768207374616b65642160701b604082015260600190565b60208082526028908201527f45524332303a207472616e7366657220616d6f756e74206578636565647320616040820152676c6c6f77616e636560c01b606082015260800190565b6020808252818101527f4f776e61626c653a2063616c6c6572206973206e6f7420746865206f776e6572604082015260600190565b60208082526021908201527f45524332303a206275726e2066726f6d20746865207a65726f206164647265736040820152607360f81b606082015260800190565b60208082526025908201527f45524332303a207472616e736665722066726f6d20746865207a65726f206164604082015264647265737360d81b606082015260800190565b6020808252601590820152744e6f2072657761726420746f20776974686472617760581b604082015260600190565b60208082526024908201527f45524332303a20617070726f76652066726f6d20746865207a65726f206164646040820152637265737360e01b606082015260800190565b602080825260139082015272111516081d1c985b9cd9995c8819985a5b1959606a1b604082015260600190565b60208082526025908201527f45524332303a2064656372656173656420616c6c6f77616e63652062656c6f77604082015264207a65726f60d81b606082015260800190565b6020808252601f908201527f45524332303a206d696e7420746f20746865207a65726f206164647265737300604082015260600190565b90815260200190565b60ff91909116815260200190565b60008219821115611d9f57611d9f611e35565b500190565b600082611dbf57634e487b7160e01b81526012600452602481fd5b500490565b6000816000190483118215151615611dde57611dde611e35565b500290565b600082821015611df557611df5611e35565b500390565b600281046001821680611e0e57607f821691505b60208210811415611e2f57634e487b7160e01b600052602260045260246000fd5b50919050565b634e487b7160e01b600052601160045260246000fdfea264697066735822122052c80bb823db20c8a659346acafc6ad3857cb272d4238489955b6215c9c2e65b64736f6c63430008000033",
  "immutableReferences": {},
  "source": "// SPDX-License-Identifier: UNLICENSED\n/**\n * Copyright (C) SettleMint NV - All Rights Reserved\n *\n * Use of this file is strictly prohibited without an active license agreement.\n * Distribution of this file, via any medium, is strictly prohibited.\n *\n * For license inquiries, contact hello@settlemint.com\n */\n\npragma solidity ^0.8.0;\n\nimport \"@openzeppelin/contracts/token/ERC20/ERC20.sol\";\nimport \"@openzeppelin/contracts/token/ERC20/IERC20.sol\";\nimport \"@openzeppelin/contracts/utils/math/SafeMath.sol\";\nimport \"@openzeppelin/contracts/access/Ownable.sol\";\n\ncontract Staking is ERC20, Ownable {\n  using SafeMath for uint256;\n  IERC20 dtxToken;\n\n  address[] public stakeholders;\n  uint256 internal totalStakes;\n  mapping(address => uint256) internal rewards;\n  mapping(address => uint256) private stakes; // address => staked amount\n  mapping(address => uint256) private time; // address to staked time in unix timestamp\n\n  /**\n   * @notice The constructor for the Staking Token.\n   * @param _owner The address to receive all tokens on construction.\n   * @param _supply The amount of tokens to mint on construction.\n   * @param _dtxToken address of the already deployed contract\n   */\n  constructor(\n    address _owner,\n    uint256 _supply,\n    address _dtxToken\n  ) payable ERC20(\"DTXStaking\", \"DTXS\") {\n    _mint(address(this), _supply);\n    dtxToken = IERC20(_dtxToken);\n    totalStakes = 0;\n  }\n\n  /**\n   * @notice A method to check if an address is a stakeholder.\n   * @param _address The address to verify.\n   * @return bool, uint256 Whether the address is a stakeholder,\n   * and if so its position in the stakeholders array.\n   */\n  function isStakeholder(address _address) public view returns (bool, uint256) {\n    for (uint256 s = 0; s < stakeholders.length; s += 1) {\n      if (_address == stakeholders[s]) return (true, s);\n    }\n    return (false, 0);\n  }\n\n  /**\n   * @notice A method to add a stakeholder.\n   * @param _stakeholder The stakeholder to add.\n   * MUST revet if stakeholder already exists\n   */\n  function addStakeholder(address _stakeholder) internal {\n    (bool _isStakeholder, ) = isStakeholder(_stakeholder);\n\n    if (!_isStakeholder) stakeholders.push(_stakeholder);\n  }\n\n  /**\n   * @notice A method to remove a stakeholder.\n   * @param _stakeholder The stakeholder to remove.\n   * MUST revert if stakeholder already removed\n   */\n  function removeStakeholder(address _stakeholder) internal {\n    (bool _isStakeholder, uint256 s) = isStakeholder(_stakeholder);\n    if (_isStakeholder) {\n      stakeholders[s] = stakeholders[stakeholders.length - 1];\n      stakeholders.pop();\n    }\n  }\n\n  /**\n   * @notice a method to retrieve the stake for a stakeholder.\n   * @param _stakeholder The stakeholder to retrieve the stake for.\n   * @return uint256 The amount of wei staked.\n   */\n  function stakeOf(address _stakeholder) public view returns (uint256) {\n    return stakes[_stakeholder];\n  }\n\n  function getTotalStakes() public view returns (uint256) {\n      return totalStakes;\n  }\n\n  function getTimestamp() public view returns(uint256) {\n    return block.timestamp;\n  }\n\n  function totalTime(uint256 currentTimestamp) public view returns(uint256) {\n      uint256 _totalTime = 0;\n      for(uint256 s = 0; s < stakeholders.length; s += 1) {\n          _totalTime = _totalTime.add(currentTimestamp.sub(time[stakeholders[s]]));\n      }\n      return _totalTime;\n  }\n\n  function getTime(address stakeholder) public view returns(uint256) {\n    return time[stakeholder];\n  } \n\n  /**\n   * @notice A method for a stakeholder to create a stake.\n   * @param _stake The size of the stake to be created.\n   *\n   * MUST revert if not enough token to stake\n   */\n  function createStake(address stakeholder, uint256 _stake) public {\n\n    // DTX staking\n    bool transferResult = dtxToken.transferFrom(stakeholder, address(this), _stake);\n\n    require(transferResult, \"DTX transfer failed\");\n\n    //DTXS\n    _burn(address(this), _stake);\n    if (stakes[stakeholder] == 0) {\n      addStakeholder(stakeholder);\n    }\n\n    stakes[stakeholder] = stakes[stakeholder].add(_stake);\n    totalStakes = totalStakes.add(_stake);\n\n    if (time[stakeholder] == 0) {\n      time[stakeholder] = time[stakeholder].add(block.timestamp);\n    } else {\n      time[stakeholder] = (time[stakeholder] + block.timestamp).div(2);\n    }\n  }\n\n  /**\n   * @notice A method for a stakeholder to remove a stake.\n   * @param _stake The size of the stake to be removed.\n   * MUST revert if stakeholder did not stake enough\n   */\n  function removeStake(uint256 _stake) public {\n\n    // DTX staking\n    require(stakes[msg.sender] >= _stake, \"Not enough staked!\");\n    bool transferResult = dtxToken.transfer(msg.sender, _stake);\n    require(transferResult, \"DTX transfer failed\");\n\n    stakes[msg.sender] = stakes[msg.sender].sub(_stake);\n    totalStakes = totalStakes.sub(_stake);\n\n    if (stakes[msg.sender] == 0) {\n      removeStakeholder(msg.sender);\n      time[msg.sender] = 0;\n    }\n    // TOCONFIRM: Do we need to reduce the duration of stake as well?\n    else {\n      time[msg.sender] = (time[msg.sender] +  block.timestamp).div(2);\n    }\n\n    _mint(address(this), _stake);\n\n  }\n\n  /**\n   * @notice A method to allow a stakeholder to check his rewards.\n   * @param _stakeholder the stakeholder to check rewards for.\n   */\n  function rewardOf(address _stakeholder) public view returns (uint256) {\n    return rewards[_stakeholder];\n  }\n\n  /**\n   * @notice A method to the aggregated rewards from all stakeholders.\n   * @return uint256 The aggregated rewards from all stakeholders.\n   */\n  function totalRewards() public view returns (uint256) {\n    uint256 _totalRewards = 0;\n    for (uint256 s = 0; s < stakeholders.length; s += 1) {\n      _totalRewards = _totalRewards.add(rewards[stakeholders[s]]);\n    }\n    return _totalRewards;\n  }\n\n  /**\n   * @notice method that will return how much staking is available for this month.\n   * The financia idea: during a month, when a deal is done a percentage of deal's value will be send to this contract\n   * At the end of the month the total rewards will be send to the stakeholders, based on their share of the total stakes token\n   * And the time they stake over a period of 30 days\n   */\n\n  function monthlyReward() public view returns (uint256) {\n    require(dtxToken.balanceOf(address(this)) >= totalStakes.add(totalRewards()), \"Rewards are not available yet\");\n\n    uint256 monthReward =\n      dtxToken.balanceOf(address(this)).sub(totalStakes).sub(totalRewards());\n    return monthReward;\n  }\n\n  /**\n   * @notice A simple method that calculates the rewards for each stakeholder. This method will be called at the\n   * end of each month. Each stakeholder will receive stakes based on his/her proportion compared to the total staked amount\n   * But also based on the length that a trader kept his token in the staking program over that month.\n   * @param _stakeholder The stakeholder to calculate rewards for.\n   */\n  function calculateReward(address _stakeholder, uint256 totalReward, uint256 currentTime, uint256 totalTimeStakeholder)\n    internal\n    view\n    returns (uint256)\n  {\n    uint256 stakeRatio = stakeOf(_stakeholder).mul(100).div(totalStakes);\n    uint256 durationRatio = currentTime.sub(time[_stakeholder]).mul(100).div(totalTimeStakeholder);\n    uint256 stakeShare = totalReward.mul(stakeRatio);\n    uint256 durationShare = totalReward.mul(durationRatio);\n\n    uint256 reward = ((stakeShare + durationShare).div(2)).div(100);\n\n    return reward;\n  }\n\n  /**\n   * @notice A method to distribute rewards to all stakeholders. Should be called at the end of the month.\n   */\n  function distributeRewards(uint256 currentTime, uint256 totalTime) public onlyOwner {\n    uint256 monthlyReward = monthlyReward();\n\n    require(monthlyReward > 0, \"Not enough rewards to distribute\");\n\n    for (uint256 s = 0; s < stakeholders.length; s += 1) {\n      address stakeholder = stakeholders[s];\n      uint256 reward = calculateReward(stakeholder, monthlyReward, currentTime, totalTime);\n      rewards[stakeholder] = rewards[stakeholder].add(reward);\n    }\n  }\n\n  /**\n   * @notice A method that will allow owner to transfer all the rewards\n   * @dev can only be called by contract owner\n   * @dev staking contract needs approval from DTX contract for total rewards\n   */\n  function withdrawAllReward() public onlyOwner {\n    for (uint256 s = 0; s < stakeholders.length; s += 1) {\n      address stakeholder = stakeholders[s];\n      uint256 reward = rewards[stakeholder];\n      bool transferResult = dtxToken.transfer(stakeholder, reward);\n\n      require(transferResult, \"DTX transfer failed\");\n\n      rewards[stakeholder] = 0;\n      _mint(address(this), reward);\n    }\n  }\n\n  /**\n   * @notice Method to allow a stakeholder to withdraw a reward.\n   * MUST stakeholder has a reward value\n   */\n  function withdrawReward() public {\n    uint256 reward = rewards[msg.sender];\n    require(reward > 0, \"No reward to withdraw\");\n    rewards[msg.sender] = 0;\n    bool transferResult = dtxToken.transfer(msg.sender, reward);\n\n    require(transferResult, \"DTX transfer failed\");\n\n    _mint(address(this), reward);\n  }\n}\n",
  "sourcePath": "/Users/Viktor/Documents/Databroker/dxc/truffle-mainnet/contracts/Staking.sol",
  "compiler": {
    "name": "solc",
    "version": "0.8.0+commit.c7dfd78e.Emscripten.clang"
  },
  "schemaVersion": "3.4.1",
  "updatedAt": "2021-06-25T10:59:50.670Z",
  "devdoc": {
    "kind": "dev",
    "methods": {
      "allowance(address,address)": {
        "details": "See {IERC20-allowance}."
      },
      "approve(address,uint256)": {
        "details": "See {IERC20-approve}. Requirements: - `spender` cannot be the zero address."
      },
      "balanceOf(address)": {
        "details": "See {IERC20-balanceOf}."
      },
      "constructor": {
        "params": {
          "_dtxToken": "address of the already deployed contract",
          "_owner": "The address to receive all tokens on construction.",
          "_supply": "The amount of tokens to mint on construction."
        }
      },
      "createStake(address,uint256)": {
        "params": {
          "_stake": "The size of the stake to be created. MUST revert if not enough token to stake"
        }
      },
      "decimals()": {
        "details": "Returns the number of decimals used to get its user representation. For example, if `decimals` equals `2`, a balance of `505` tokens should be displayed to a user as `5,05` (`505 / 10 ** 2`). Tokens usually opt for a value of 18, imitating the relationship between Ether and Wei. This is the value {ERC20} uses, unless this function is overridden; NOTE: This information is only used for _display_ purposes: it in no way affects any of the arithmetic of the contract, including {IERC20-balanceOf} and {IERC20-transfer}."
      },
      "decreaseAllowance(address,uint256)": {
        "details": "Atomically decreases the allowance granted to `spender` by the caller. This is an alternative to {approve} that can be used as a mitigation for problems described in {IERC20-approve}. Emits an {Approval} event indicating the updated allowance. Requirements: - `spender` cannot be the zero address. - `spender` must have allowance for the caller of at least `subtractedValue`."
      },
      "increaseAllowance(address,uint256)": {
        "details": "Atomically increases the allowance granted to `spender` by the caller. This is an alternative to {approve} that can be used as a mitigation for problems described in {IERC20-approve}. Emits an {Approval} event indicating the updated allowance. Requirements: - `spender` cannot be the zero address."
      },
      "isStakeholder(address)": {
        "params": {
          "_address": "The address to verify."
        },
        "returns": {
          "_0": "bool, uint256 Whether the address is a stakeholder, and if so its position in the stakeholders array."
        }
      },
      "name()": {
        "details": "Returns the name of the token."
      },
      "owner()": {
        "details": "Returns the address of the current owner."
      },
      "removeStake(uint256)": {
        "params": {
          "_stake": "The size of the stake to be removed. MUST revert if stakeholder did not stake enough"
        }
      },
      "renounceOwnership()": {
        "details": "Leaves the contract without owner. It will not be possible to call `onlyOwner` functions anymore. Can only be called by the current owner. NOTE: Renouncing ownership will leave the contract without an owner, thereby removing any functionality that is only available to the owner."
      },
      "rewardOf(address)": {
        "params": {
          "_stakeholder": "the stakeholder to check rewards for."
        }
      },
      "stakeOf(address)": {
        "params": {
          "_stakeholder": "The stakeholder to retrieve the stake for."
        },
        "returns": {
          "_0": "uint256 The amount of wei staked."
        }
      },
      "symbol()": {
        "details": "Returns the symbol of the token, usually a shorter version of the name."
      },
      "totalRewards()": {
        "returns": {
          "_0": "uint256 The aggregated rewards from all stakeholders."
        }
      },
      "totalSupply()": {
        "details": "See {IERC20-totalSupply}."
      },
      "transfer(address,uint256)": {
        "details": "See {IERC20-transfer}. Requirements: - `recipient` cannot be the zero address. - the caller must have a balance of at least `amount`."
      },
      "transferFrom(address,address,uint256)": {
        "details": "See {IERC20-transferFrom}. Emits an {Approval} event indicating the updated allowance. This is not required by the EIP. See the note at the beginning of {ERC20}. Requirements: - `sender` and `recipient` cannot be the zero address. - `sender` must have a balance of at least `amount`. - the caller must have allowance for ``sender``'s tokens of at least `amount`."
      },
      "transferOwnership(address)": {
        "details": "Transfers ownership of the contract to a new account (`newOwner`). Can only be called by the current owner."
      },
      "withdrawAllReward()": {
        "details": "can only be called by contract ownerstaking contract needs approval from DTX contract for total rewards"
      }
    },
    "version": 1
  },
  "userdoc": {
    "kind": "user",
    "methods": {
      "constructor": {
        "notice": "The constructor for the Staking Token."
      },
      "createStake(address,uint256)": {
        "notice": "A method for a stakeholder to create a stake."
      },
      "distributeRewards(uint256,uint256)": {
        "notice": "A method to distribute rewards to all stakeholders. Should be called at the end of the month."
      },
      "isStakeholder(address)": {
        "notice": "A method to check if an address is a stakeholder."
      },
      "monthlyReward()": {
        "notice": "method that will return how much staking is available for this month. The financia idea: during a month, when a deal is done a percentage of deal's value will be send to this contract At the end of the month the total rewards will be send to the stakeholders, based on their share of the total stakes token And the time they stake over a period of 30 days"
      },
      "removeStake(uint256)": {
        "notice": "A method for a stakeholder to remove a stake."
      },
      "rewardOf(address)": {
        "notice": "A method to allow a stakeholder to check his rewards."
      },
      "stakeOf(address)": {
        "notice": "a method to retrieve the stake for a stakeholder."
      },
      "totalRewards()": {
        "notice": "A method to the aggregated rewards from all stakeholders."
      },
      "withdrawAllReward()": {
        "notice": "A method that will allow owner to transfer all the rewards"
      },
      "withdrawReward()": {
        "notice": "Method to allow a stakeholder to withdraw a reward. MUST stakeholder has a reward value"
      }
    },
    "version": 1
  }
}